:100000000C94CD020C94260D0C94530D0C94F50217
:100010000C94F5020C94F5020C94F5020C94F50284
:100020000C94F5020C94F5020C94F5020C94F50274
:100030000C94F5020C94F5020C94F5020C94F50264
:100040000C94800D0C94F5020C94EF100C9421117B
:100050000C94F5020C94F5020C94F5020C94F50244
:100060000C94F5020C94F5029C06C4057406FA067D
:10007000FA06A7066F06F006B205F006B706E60612
:10008000F006F006EE05F006D206FA069C067B06A0
:10009000F006E306FA06D906EB06BC06205A7A7A81
:1000A0002E2E2E0A007465737420003E20002062FC
:1000B0000A00202D3E2000202D3E2061636B0A00A7
:1000C00020494920004153432000292000202800D6
:1000D000204700203F004F4B0043757272656E74DD
:1000E00020636F6E66696775726174696F6E3A0A34
:1000F000005B5246313264656D6F2E31335D000A0C
:10010000417661696C61626C6520636F6D6D616ED3
:1001100064733A0A20203C6E6E3E20692020202025
:10012000202D20736574206E6F646520494420285B
:100130007374616E64617264206E6F6465206964BB
:10014000732061726520312E2E3330290A20203C25
:100150006E3E20622020202020202D2073657420F8
:100160004D487A2062616E64202834203D2034336B
:10017000332C2038203D203836382C2039203D20A3
:10018000393135290A20203C6E6E6E6E3E206F207C
:1001900020202D206368616E676520667265717529
:1001A000656E6379206F666673657420776974681D
:1001B000696E207468652062616E642028646566DB
:1001C00061756C742031363030290A2020202020BF
:1001D0002020202020202020202039362E2E3339A8
:1001E0003033206973207468652072616E67652002
:1001F000737570706F7274656420627920746865BD
:100200002052464D3132420A20203C6E6E6E3E2016
:1002100067202020202D20736574206E6574776F11
:10022000726B2067726F7570202852464D313220F4
:100230006F6E6C7920616C6C6F7773203231322C69
:100240002030203D20616E79290A20203C6E3E201E
:10025000632020202020202D2073657420636F6C84
:100260006C656374206D6F64652028616476616ECF
:100270006365642C206E6F726D616C6C792030291F
:100280000A202074202020202020202020202D2023
:1002900062726F616463617374206D61782D73693C
:1002A0007A652074657374207061636B65742C20AB
:1002B000726571756573742061636B0A20202E2E40
:1002C0002E2C3C6E6E3E2061202D2073656E6420C6
:1002D00064617461207061636B657420746F206E5B
:1002E0006F6465203C6E6E3E2C207265717565737F
:1002F000742061636B0A20202E2E2E2C3C6E6E3EE5
:100300002073202D2073656E6420646174612070F9
:1003100061636B657420746F206E6F6465203C6E42
:100320006E3E2C206E6F2061636B0A20203C6E3E77
:1003300020712020202020202D20736574207175CD
:10034000696574206D6F6465202831203D20646FDD
:100350006E2774207265706F727420626164207001
:1003600061636B657473290A20203C6E3E207820FF
:1003700020202020202D20736574207265706F72FC
:1003800074696E6720666F726D61742028303A2040
:10039000646563696D616C2C20313A206865782C46
:1003A00020323A206865782B6173636969290A20D5
:1003B000203C6E6E6E3E2079202020202D20656E20
:1003C00061626C65207369676E616C20737472651D
:1003D0006E677468207472616365206D6F64652C4C
:1003E0002064656661756C743A30202864697361B5
:1003F000626C6564290A20202020202020202020F3
:10040000202020202073616D706C6520696E7465FA
:100410007276616C203C6E6E6E3E20736563732F46
:100420003130302028302E3031732D322E35732963
:10043000206567203130793D302E31730A2020311C
:100440003233207A2020202020202D20746F7461E8
:100450006C20706F77657220646F776E2C206E65EC
:10046000656473206120726573657420746F2073F6
:100470007461727420757020616761696E0A5265DB
:100480006D6F746520636F6E74726F6C20636F6D37
:100490006D616E64733A0A20203C686368693E2C83
:1004A0003C68636C6F3E2C3C616464723E2C3C6320
:1004B0006D643E206620202020202D2046533230BF
:1004C00020636F6D6D616E642028383638204D488A
:1004D0007A290A20203C616464723E2C3C64657673
:1004E0003E2C3C6F6E3E206B2020202020202020C0
:1004F0002020202020202D204B414B5520636F6D64
:100500006D616E642028343333204D487A290A0007
:10051000636F6E6669672073617665206661696CDA
:1005200065640A00010402000302048A050506C38B
:100530000B2019421E2C25802E882F2D37003800C5
:100540003C8F3D106F2000000000080002010000F9
:10055000030407000000000000000001020408106E
:100560002040800102040810200102040810200429
:10057000040404040404040202020202020303034A
:1005800003030300000000250028002B00000000EA
:1005900000240027002A0000511111241FBECFEFB4
:1005A000D8E0DEBFCDBF11E0A0E0B1E0EEE8F6E2BA
:1005B00002C005900D92AC34B107D9F722E0ACE44B
:1005C000B1E001C01D92A23CB207E1F715E0CAE913
:1005D000D5E004C02297FE010E94F412C839D10769
:1005E000C9F70E94A10F0C9445130C940000682FCA
:1005F00085E292E00C949C0E1F93CF93DF93EC0165
:10060000FE011491112351F01A3019F48DE00E946B
:10061000F702812F0E94F7022196F2CFDF91CF914E
:100620001F9108958F7060E3680F6A3314F067E3D9
:10063000680F85E292E00C949C0ECF93C82F61E086
:1006400089E00E94870C6C2F89E0CF910C94C00C3C
:10065000CF93C82F90919C019370682F70E061F048
:10066000CB0124E0959587952A95E1F70E94120326
:100670008C2FCF910C9412034AE050E085E292E077
:10068000CF910C949A0F0F931F93CF93DF9381E038
:1006900080939B01E9E9F1E08FEF9FEF21918227A1
:1006A000282F22952827022E269526952025022ED2
:1006B000269520252770082E892F269507942795A3
:1006C000902D8227069427959025822721E0E73AEE
:1006D000F20721F79093A8018093A70160919901F7
:1006E00080E290E00E94271309E911E0C0E2D0E027
:1006F000F80161918F01CE010E9427132196C0332A
:10070000D105B1F70E94C408882331F0DF91CF9161
:100710001F910F910C94970980E195E0DF91CF91A3
:100720001F910F910C94FC020F931F93CF93DF93B3
:1007300081E00E941D0364E670E080E090E00E948A
:10074000F90D26E040E056E960E070E085E292E0D5
:100750000E94931085E292E00E94A30E81EF90E048
:100760000E94FC020E94C408882379F009E911E084
:10077000C0E2D0E0CE010E941913D8018D938D0103
:100780002196C033D105B1F71CC080E1E9E9F1E061
:10079000DF011D928A95E9F78FE48093990182ED3C
:1007A00080939A0180E496E090939E0180939D014E
:1007B00080919C01886080939C010E9443030E9469
:1007C000C4080E9497098FEF90E00E94FC0289ED17
:1007D00090E00E94FC020E94970968EE73E080E0BE
:1007E00090E00E94F90D80E00E941D0342E050E07D
:1007F00067E574E081E0DF91CF911F910F910C9438
:10080000F60CEF92FF920F931F93CF93DF9300D0DC
:1008100000D000D0CDB7DEB786E0EAEBF1E0DE0134
:10082000119601900D928A95E1F769E071E085E2F9
:1008300092E00E949A0E4AE050E06091080185E241
:1008400092E00E94930F8E010F5F1F4F7E0187E0A1
:10085000E80EF11C60E285E292E00E949C0EF80135
:1008600061918F014AE050E085E292E00E94930F8F
:100870000E151F0579F76DE071E085E292E00E94A8
:100880009A0E85E292E00E94A30E6AE070E080E09A
:1008900090E026960FB6F894DEBF0FBECDBFDF9175
:1008A000CF911F910F91FF90EF900C94F90DCF9283
:1008B000DF92EF92FF920E94CA0DC090B601D090D5
:1008C000B701E090B801F090B9016C197D098E096B
:1008D0009F096F3671058105910508F467C00E9474
:1008E000CA0D6093B6017093B7018093B8019093DD
:1008F000B9018091B2019091B301A091B401B0917E
:10090000B5018093AE019093AF01A093B001B09375
:10091000B1010E94D60D6093B2017093B301809330
:10092000B4019093B501C090BC01D090BD01E0909E
:10093000BE01F090BF012FEFC21AD20AE20AF20AFA
:10094000C092BC01D092BD01E092BE01F092BF0105
:10095000C090AE01D090AF01E090B001F090B10135
:100960006C197D098E099F090E942E129B01AC0112
:1009700064EA73E986E59FE40E9495116B017C01AE
:100980006091060170910701882777FD8095982F67
:100990000E9430129B01AC01C701B6010E94951163
:1009A0000E94FD117093BB016093BA010E94CA0DB1
:1009B000C090AA01D090AB01E090AC01F090AD01E5
:1009C0006C197D098E099F0969387341810591056C
:1009D00080F00E94CA0D6093AA017093AB018093CE
:1009E000AC019093AD01FF90EF90DF90CF900C940D
:1009F0000104FF90EF90DF90CF900895CF92DF92A7
:100A0000EF92FF920F931F93CF93DF9385E292E0D3
:100A10000E94B00F892B09F4F3C185E292E00E9495
:100A2000C90FC82F80ED8C0F8A30A8F44091960131
:100A3000509197018AE0849F9001859F300D112489
:100A4000205331092C0F311DC7FD3A953093970182
:100A500020939601D5C1CC3281F4E0914F01E63468
:100A600008F0CAC181E08E0F80934F01F0E0E05B97
:100A7000FE4F809196018083BFC18FE98C0F8A3130
:100A800048F58BEA90E00E94FC02D0E080914F0193
:100A9000D81788F4ED2FF0E0E05BFE4F608170E046
:100AA0004AE050E085E292E00E949A0F8CE20E94B8
:100AB000F702DF5FEBCF60919601709197014AE0FA
:100AC00050E085E292E00E949A0F6C2F85E292E05E
:100AD0000E94C90ECE3391F5E0914F0181E08E0F57
:100AE00080934F01F0E0E05BFE4F809196018083A0
:100AF00020919D0130919E014091510180915001C2
:100B0000843031F0883031F0893031F463E005C051
:100B100061E003C062E001C060E0809152010E9488
:100B20006B0840914F01445064E571E0809153019E
:100B30000E94360982E00E94550916C1C1320CF4A8
:100B400059C14C2F552747FD5095652F752FFA0138
:100B5000E156F109EA31F10508F042C1EC5CFF4FC2
:100B60000C94F21280919601909197019C01215072
:100B700031092E31310508F03DC190919901907EE7
:100B8000980F9093990127C080919601843031F09D
:100B9000883031F0893031F423E005C021E003C012
:100BA00022E001C020E0822F90E090939701809393
:100BB0009601892B09F41EC1809199018F7340E43D
:100BC000249F800D11248093990180E496E09093F6
:100BD0009E0180939D010E9443030CC18091960168
:100BE000909197019C0120563109203E3E4030F4FF
:100BF00090939E0180939D010E944303E09199018F
:100C0000F0E066E0F595E7956A95E1F7CF01019789
:100C10008330910528F4DC01A35EBE4FAC9101C086
:100C2000A0E0B0E020EA36E841E050E00E940E1378
:100C30006B017C0129E130E0DF010E9407139B0179
:100C4000AC01A0919D01B0919E010E940E13C60EB1
:100C5000D71EE81EF91EC701B60120E137E240E0C9
:100C600050E00E94D01289019A016B017C014AE098
:100C700050E0B80185E292E00E949A0F8EE20E9455
:100C8000F702C60168EE73E00E94BC1280E3860F93
:100C90000E94F702C60164E670E00E94BC12CB011C
:100CA000CAE0D0E0BE010E94BC12805D0E94F70243
:100CB000C601BE010E94BC12182FCB01BE010E94CA
:100CC000BC12805D0E94F70280E3810F0E94F70250
:100CD00063E171E085E292E00E94B70E8BC08091E3
:100CE000960180939A0177CF80919C019091960113
:100CF00090FB82F965C081E68093980182E480933D
:100D00004E0110924D0120914C01E0E5F1E080E0B0
:100D1000982F920F91938F5F8234D1F785EA90E0FC
:100D20000E94FC0280914C010E94280380914C019A
:100D30008F5F80934C015EC0C093980180914F01FA
:100D400080934E018091960180934D0153C020E421
:100D500036E040E062E080E00E946B0881E00E94A3
:100D60001D0380E00E941D030E94C40843C020E4CC
:100D700036E040E061E0EFCF8091960190919701DD
:100D80008B379105B9F58CE990E00E94FC0285E271
:100D900092E00E940C1080E00E947409F8940E9476
:100DA0007A0928C080919C019091960190FB83F96B
:100DB00007C090919601937080919C018C7F892B44
:100DC00080939C0108CF81EF90E010C08091960144
:100DD0000E941D030FC0809196018093A9010AC053
:100DE0008FEF90E00E94FC0289ED90E00E94FC02EF
:100DF0000E94970910924F0110929701109296014C
:100E00008091A901811111C10E942009882309F450
:100E1000CEC0F090C3018091090290910A02892B03
:100E200041F481E00E941D0386ED90E00E94FC02E7
:100E30000DC080919C0183FD45C183ED90E00E942F
:100E4000FC0284E18F1510F454E1F52E80919C0191
:100E5000837019F088E50E94F70280919A01811150
:100E600008C080ED90E00E94FC028091C1010E94C8
:100E7000280380E20E94F7028091C2018F710E94D4
:100E8000280304EC11E0E801E02E8C2F801B8F1565
:100E900058F480919C01837019F480E20E94F7025B
:100EA00089910E942803F1CF8DEC90E00E94FC0212
:100EB00080919C01837029F080910F020E94280389
:100EC0000EC060910F0270E0759567957195619500
:100ED00071094AE050E085E292E00E947E0F8AECC0
:100EE00090E00E94FC0285E292E00E94A30E8091B5
:100EF0009C01837090E002978CF185EC90E00E9459
:100F0000FC0280919A01811104C080EC90E00E9463
:100F1000FC028091C20186FF02C08EE301C08CE317
:100F20000E94F7028091C2018F71805C0E94F702DB
:100F3000C4ECD1E08C2F8E198F1560F480E20E94F2
:100F4000F702899190EE980F9F3508F08EE20E948B
:100F5000F702F0CF85E292E00E94A30E8091090291
:100F600090910A02892B19F581E00E941D0380915E
:100F7000C20185FF19C08091C20187FD15C0809113
:100F80009C0182FD11C087EB90E00E94FC028091E1
:100F9000C20186FD93C08091C2018F71806C40E0D8
:100FA00060E070E00E94340980E00E941D0380919F
:100FB0009801882379F10E943209882359F181E050
:100FC0000E941D0382EB90E00E94FC0260914E01A2
:100FD00070E04AE050E085E292E00E949A0F8EEACB
:100FE00090E00E94FC0280919801813609F468C06B
:100FF00080E090914D01992311F09064892B4091EC
:101000004E0160E571E00E9434091092980180E081
:101010000E941D0380E0DF91CF911F910F91FF90FF
:10102000EF90DF90CF900C941D030E942009009157
:101030000F0210E015950795E02EF12CC4E6D0E0E4
:10104000C01BD10B8F2D90E08C179D072CF48DE2E7
:101050000E94F702F394F6CF68E171E085E292E036
:101060000E949A0EC0E0CE1528F480E20E94F7029A
:10107000CF5FF9CF66277727601B710B4AE050E0FE
:1010800085E292E00E947E0F6AE171E085E292E0E3
:101090000E94B70E6091A9019AE0699FB0011124E6
:1010A000882777FD8095982FDF91CF911F910F9121
:1010B000FF90EF90DF90CF900C94F90D80E86FCF08
:1010C00080E297CFDF91CF911F910F91FF90EF902A
:1010D000DF90CF900895CF92DF92EF92FF921F930F
:1010E000CF93DF93C82F162FD42FF901AFEFA60FA0
:1010F000A33028F4B0E0A05EBE4FAC9101C0A0E0E8
:10110000B0E020E836E948E950E00E940E136B0198
:101110007C01212F30E0A4ECB9E00E94F812DF013D
:101120009B01AC010E940E13C60ED71EE81EF91ECD
:10113000C701B6010E948E0AD09313028C2F8F71C3
:101140008093120264E170E080E090E00E94F90D6B
:1011500080911202882341F043E050E06DEF7BE084
:1011600080E00E94F60C03C080E00E94160D0E94F1
:10117000CE0AC093C0018C2FDF91CF911F91FF90B9
:10118000EF90DF90CF900895EF92FF920F931F930F
:10119000CF93DF931F92CDB7DEB700E210E0EE24CD
:1011A000EA94FE2CC8010E941913E8268E2D829520
:1011B0008E25082E869586958025082E8695802575
:1011C00087700E2CEF2C869507948795F02CE826D7
:1011D00006948795F024E8260F5F1F4F0033110512
:1011E00009F7EF2821F582E290E00E94191381307F
:1011F000F1F480E290E00E941913182F81E290E050
:101200000E941913482F84E290E049830E94211321
:101210009C01612F70E086E0759567958A95E1F7EE
:101220004981812F0E946B08812F8F7101C080E05E
:101230000F90DF91CF911F910F91FF90EF90089544
:1012400081EC91E00E94270B90930A02809309029F
:101250002091090230910A0281E02F3F3F4F09F4AB
:1012600080E008950C94AB0A0C94890BEF92FF92E6
:101270001F93CF93DF931F92CDB7DEB7182F7B015B
:1012800049830E94AB0A4981811105C049830E94AC
:1012900020094981F5CFB701812F0F90DF91CF91C0
:1012A0001F91FF90EF900C94890BCF93C82F0E9451
:1012B000BC0A8823B9F0CC23D1F383B7817FC33034
:1012C00021F0C23021F49CE003C094E001C090E022
:1012D000892B83BF83B7816083BF889583B78E7F57
:1012E00083BFE5CFCF91089591E0811190E0892FE0
:1012F0000C94C30AEAE7F0E0908180818F778083C5
:1013000083B7817F846083BFF89483B7816083BF94
:1013100085B7806685BF85B78F79806485BF7894EF
:10132000889583B78E7F83BF90937A000895CF927C
:10133000DF92FF920F931F93CF93DF931F92CDB74E
:10134000DEB780E290E00E941913082F83E290E05C
:101350000E941913182F84E290E00E9421136C015F
:1013600060E285E292E00E949C0E202F2F7160E4E3
:10137000620F85E292E029830E949C0E63E271E095
:1013800085E292E00E949A0E2981622F70E04AE085
:1013900050E085E292E00E947E0F812F8470F82E4B
:1013A00012FF05C06AE285E292E00E949C0E66E2AE
:1013B00071E085E292E00E949A0E81E290E00E9444
:1013C00019134AE050E0682F85E292E00E94930FE3
:1013D00069E271E085E292E00E949A0E802F829588
:1013E000869586958370813039F0823041F0833064
:1013F00049F463E973E008C061EB71E005C064E69D
:1014000073E002C060E070E04AE050E085E292E004
:101410000E947E0F63E171E085E292E00E949A0EE5
:10142000FF2031F06DE271E085E292E00E949A0EB9
:10143000E0E4CE16E6E0DE0669F061E371E085E205
:1014400092E00E949A0E4AE050E0B60185E292E0F6
:101450000E949A0F13FF06C064E371E085E292E0F8
:101460000E949A0E137071F068E371E085E292E0D9
:101470000E949A0E612F70E04AE050E085E292E00F
:101480000E947E0F85E292E00F90DF91CF911F9135
:101490000F91FF90DF90CF900C94A30E8627682FBA
:1014A00062956827062E669566956025062E6695D8
:1014B00060256770082E892F669507946795902D93
:1014C000862706946795902586270895E8982A9898
:1014D0008EBD0DB407FEFDCF8EB56EBD0DB407FEFB
:1014E000FDCF8EB52A9AE89A089560E00C94660ABA
:1014F00088E20E94750A807521F080E00E94750ADA
:10150000F7CF0895CF93C82F81E00E94750A682F06
:10151000637E6C2B81E8CF910C94660A22E0660F03
:10152000771F881F991F2A95D1F729E03DE340E0F6
:1015300050E00E94D01266E0220F331F441F551F57
:101540006A95D1F720931402309315024093160246
:1015500050931702089580910D02853021F48091F7
:101560000E02882311F080E0089584E080930D023C
:101570000E94820A81E0089590910D0281E09430EA
:101580000CF080E00895882311F080E001C084E031
:101590000E94820A84E080930D020895CF93DF9326
:1015A0002A9A229A2A9A84B18C6284B980E58CBDE9
:1015B0008DB581608DBD6AEA8FEA0E94660A8FE26E
:1015C0000E94750A8A3AB9F765E58FEA0E94660AB1
:1015D0008FE20E94750A8535B9F7C4E2D5E0FE01B5
:1015E0008491882339F03196649180680E94660A5C
:1015F0002296F5CF6091130280EB0E94660A8091DB
:10160000140290911502A0911602B0911702BD012B
:101610008827992787E80E94660A80911402909192
:101620001502A0911602B0911702692F7A2F8B2F05
:10163000992788E80E94660A6091140289E80E944E
:10164000660A84E080930D02DF91CF910895CF93D5
:10165000DF93EC0180910D02843019F0853021F187
:101660004DC01092C30110920E02609113028FEFD1
:101670009FEF0E944E0A9093110280931002D09324
:101680000C02C0930B0285E080930D020E94780A41
:1016900060E885EA0E94660A80E10E94820A62E0B0
:1016A0008EE90E94660A2AC08091C30120910E0231
:1016B00090E0049630E08217930724F080910E02A8
:1016C0008834E0F084E080930D020E94820A8091C9
:1016D000C3018334B0F48091100290911102892BE0
:1016E00081F48091C20186FF0FC0909112029F3158
:1016F00059F08091C2018F71891731F08FEF9FEF00
:1017000005C081E090E002C080E090E0DF91CF91E1
:101710000895CF934093C301FB0120E030E050E0F7
:101720002417350744F4D901AC53BE4F91919C93D3
:101730002F5F3F4FF5CF86FD04C0807E909112024F
:10174000890F8093C201609113028FEF9FEF0E9477
:101750004E0A90931102809310029091C3018EEF74
:10176000891B80930D020E94780A8CE00E94820AF5
:1017700060E085EA0E94660A80910D028330DCF504
:1017800088E20E94750A87FDF7CF80910D0287FFDE
:101790001BC09091C30180910D02E0910B02F0916A
:1017A0000C02E90FF11DE80FF11D87FDFA95C381C9
:1017B0006C2F80911002909111020E944E0A90931A
:1017C0001102809310020DC080910D02882329F030
:1017D000813031F4C091110204C0C091100201C0E7
:1017E000CAEA6C2F80E80E94660A80910D028F5F22
:1017F00080930D02C1CFCF91089580910D02853065
:1018000009F04DC060E485EA0E94660A84E20E9405
:10181000750A80930F02789488E20E94750A807599
:10182000D9F380910E0281110FC0E0910B02F0916B
:101830000C0280910E0291E0980F90930E0290910D
:101840001302E80FF11D908380E00E94750AE09179
:101850000B02F0910C0290910E0221E0290F2093CF
:101860000E02E90FF11D8083682F80911002909184
:1018700011020E944E0A90931102809310028091EF
:10188000C30120910E0290E0049630E08217930786
:10189000A4F080910E02883408F4BECF089588E247
:1018A0000E94750A83FF09C084E080930D020E94A4
:1018B000820A60E885EA0C94660A0895833081F014
:1018C00028F4813099F08230A1F008958730A9F092
:1018D0008830B9F08430D1F4809180008F7D03C0CE
:1018E000809180008F7780938000089584B58F77F2
:1018F00002C084B58F7D84BD08958091B0008F773C
:1019000003C08091B0008F7D8093B0000895CF9385
:10191000DF9390E0FC01E55AFA4F2491FC01E15974
:10192000FA4F8491882349F190E0880F991FFC01B8
:10193000E357FA4FA591B4918D579A4FFC01C59189
:10194000D4919FB7611108C0F8948C91209582239F
:101950008C93888182230AC0623051F4F8948C9170
:10196000322F309583238C938881822B888304C007
:10197000F8948C91822B8C939FBFDF91CF91089527
:101980000F931F93CF93DF931F92CDB7DEB7282F0E
:1019900030E0F901E95BFA4F8491F901E55AFA4F19
:1019A0001491F901E159FA4F04910023C9F08823F9
:1019B00021F069830E945E0C6981E02FF0E0EE0F58
:1019C000FF1FED57FA4FA591B4919FB7F8948C91F2
:1019D000611103C01095812301C0812B8C939FBF9F
:1019E0000F90DF91CF911F910F9108958230E8F40D
:1019F000E82FF0E0EE0FFF1FE85EFD4F718360837C
:101A0000813041F0809169008C7F842B8093690044
:101A1000E89A089580916900440F551F440F551F9F
:101A2000837F842B80936900E99A0895823068F45B
:101A3000813011F0E89801C0E998E82FF0E0EE0F4E
:101A4000FF1FE85EFD4F1182108208951F920F92D2
:101A50000FB60F9211242F933F934F935F936F9381
:101A60007F938F939F93AF93BF93EF93FF93809157
:101A7000180290911902892B29F0E0911802F09137
:101A800019020995FF91EF91BF91AF919F918F91AD
:101A90007F916F915F914F913F912F910F900FBE6A
:101AA0000F901F9018951F920F920FB60F9211244E
:101AB0002F933F934F935F936F937F938F939F9356
:101AC000AF93BF93EF93FF9380911A0290911B0203
:101AD000892B29F0E0911A02F0911B020995FF91E0
:101AE000EF91BF91AF919F918F917F916F915F9196
:101AF0004F913F912F910F900FBE0F901F9018950F
:101B00001F920F920FB60F9211242F933F938F9332
:101B10009F93AF93BF9380911D0290911E02A0915D
:101B20001F02B091200230911C0226E0230F2D37B6
:101B300020F40296A11DB11D05C029E8230F0396CC
:101B4000A11DB11D20931C0280931D0290931E02C3
:101B5000A0931F02B0932002809121029091220253
:101B6000A0912302B09124020196A11DB11D809382
:101B7000210290932202A0932302B0932402BF91EA
:101B8000AF919F918F913F912F910F900FBE0F902A
:101B90001F9018952FB7F89460911D0270911E0246
:101BA00080911F02909120022FBF08953FB7F894B3
:101BB0008091210290912202A0912302B0912402EF
:101BC00026B5A89B05C02F3F19F00196A11DB11D98
:101BD0003FBF6627782F892F9A2F620F711D811DB5
:101BE000911D43E0660F771F881F991F4A95D1F713
:101BF0000895CF92DF92EF92FF92CF93DF936B0124
:101C00007C010E94D60DEB01C114D104E104F10462
:101C100089F00E9494110E94D60D6C1B7D0B683ECA
:101C2000734090F381E0C81AD108E108F108C85167
:101C3000DC4FEACFDF91CF91FF90EF90DF90CF9014
:101C40000895789484B5826084BD84B5816084BD34
:101C500085B5826085BD85B5816085BDEEE6F0E025
:101C6000808181608083E1E8F0E010828081826081
:101C70008083808181608083E0E8F0E08081816002
:101C80008083E1EBF0E0808184608083E0EBF0E032
:101C9000808181608083EAE7F0E0808184608083D6
:101CA0008081826080838081816080838081806880
:101CB00080831092C1000895CF92DF92EF92FF923D
:101CC0000F931F93CF93DF936C017A01EB01E60E24
:101CD000F71E00E010E0CE15DF0561F06991D60136
:101CE000ED91FC910190F081E02DC6010995080F5E
:101CF000191FF1CFC801DF91CF911F910F91FF9074
:101D0000EF90DF90CF9008956115710581F0DB01B0
:101D10000D900020E9F7AD0141505109461B570BCA
:101D2000DC01ED91FC910280F381E02D099480E0CB
:101D300090E008950C94840EDC01ED91FC910190EB
:101D4000F081E02D09940F931F93CF93DF93EC0163
:101D50006DE00E949C0E8C016AE0CE010E949C0EF8
:101D6000800F911FDF91CF911F910F9108950F93D5
:101D70001F93CF93DF93EC010E94840E8C01CE0160
:101D80000E94A30E800F911FDF91CF911F910F91A1
:101D900008950F931F93CF93DF93EC010E949C0E45
:101DA0008C01CE010E94A30E800F911FDF91CF9175
:101DB0001F910F9108958F929F92AF92BF92CF92F1
:101DC000DF92EF92FF920F931F93CF93DF93CDB7E4
:101DD000DEB7A1970FB6F894DEBF0FBECDBF7C0172
:101DE000C42EE52FCB01D22E19A221E02D1510F023
:101DF0002AE0D22E8E010F5D1F4F8D2C912CA12C2D
:101E0000B12C6C2D7E2FA50194010E94D0128C2D37
:101E1000D29E80191124015011098A3014F4805D7A
:101E200001C0895CF8018083211531054105510508
:101E300021F0C22EE32FCA01E4CFB801C7010E94EE
:101E4000840EA1960FB6F894DEBF0FBECDBFDF9112
:101E5000CF911F910F91FF90EF90DF90CF90BF90A7
:101E6000AF909F908F900895CF92DF92EF92FF9264
:101E70000F931F93CF93DF93EC016A017B01211530
:101E8000310579F4E881F9810190F081E02D642F2A
:101E9000DF91CF911F910F91FF90EF90DF90CF9046
:101EA00009942A303105E9F477FF1AC06DE20E94E7
:101EB0009C0E8C0144275527BA014C195D096E0907
:101EC0007F092AE0CE010E94DB0E800F911FDF9177
:101ED000CF911F910F91FF90EF90DF90CF900895D9
:101EE0002AE0B701A601CE01DF91CF911F910F919A
:101EF000FF90EF90DF90CF900C94DB0E9A01AB0136
:101F0000662757FD6095762F0C94340F2115310507
:101F100041F4DC01ED91FC910190F081E02D642F02
:101F200009940C94DB0E9A01462F50E060E070E0BB
:101F30000C94860F9A01AB0160E070E00C94860F60
:101F400008950E94210E0E94A00F0E949403CDEDDF
:101F5000DFE00E94FE042097E1F30E94DD0FF9CF3D
:101F6000FC01818D228D90E0805C9F4F821B910946
:101F70008F7399270895FC01918D828D981731F008
:101F8000828DE80FF11D858D90E008958FEF9FEF12
:101F90000895FC01918D828D981761F0828DDF018B
:101FA000A80FB11D5D968C91928D9F5F9F73928F4C
:101FB00090E008958FEF9FEF089587E491E1892BDA
:101FC00049F080E090E0892B29F00E9447118111AF
:101FD0000C9400000895FC01848DDF01A80FB11D51
:101FE000A35ABF4F2C91848D90E001968F7399274F
:101FF000848FA689B7892C93A089B1898C9180643C
:102000008C93938D848D981306C00288F389E02DFC
:1020100080818F7D80830895CF93DF93EC01888D3D
:102020008823C9F0EA89FB89808185FD05C0A889DC
:10203000B9898C9186FD0FC00FB607FCF5CF808162
:1020400085FFF2CFA889B9898C9185FFEDCFCE01AC
:102050000E94EB0FE7CFDF91CF910895CF92DF92EF
:10206000FF920F931F93CF93DF931F92CDB7DEB7ED
:102070006C01DC015B969C915B975C968C915C9704
:10208000981307C05096ED91FC915197808185FD82
:1020900032C0F601038D10E00F5F1F4F0F73112741
:1020A000F02EF601848DF81211C00FB607FCF9CF9F
:1020B000D6015096ED91FC915197808185FFF1CF2B
:1020C000C60169830E94EB0F6981EBCF838DE80F16
:1020D000F11DE35AFF4F6083D6015B960C935B972B
:1020E0005296ED91FC91539780818062808381E0CC
:1020F00058968C930DC0D6015696ED91FC9157974A
:1021000060835096ED91FC9151978081806480832B
:1021100081E090E00F90DF91CF911F910F91FF90A0
:10212000DF90CF900895BF92CF92DF92EF92FF920F
:10213000CF93DF93EC016A017B01B22E60E874E873
:102140008EE190E0A70196010E94D0122150310942
:10215000410951095695479537952795E889F98999
:1021600082E08083211580E1380798F0E889F989B9
:10217000108260E472E48FE090E0A70196010E9473
:10218000D01221503109410951095695479537958B
:102190002795EC85FD853083EE85FF852083188E9D
:1021A000EC89FD89B082EA89FB8980818061808326
:1021B000EA89FB89808188608083EA89FB89808144
:1021C00080688083EA89FB8980818F7D8083DF91AD
:1021D000CF91FF90EF90DF90CF90BF9008951F9226
:1021E0000F920FB60F9211242F938F939F93EF931B
:1021F000FF93E0913502F09136028081E0913B023D
:10220000F0913C0282FD12C0908180913E028F5F6E
:102210008F7320913F02821751F0E0913E02F0E06F
:10222000EB5DFD4F958F80933E0201C08081FF9151
:10223000EF919F918F912F910F900FBE0F901F9054
:1022400018951F920F920FB60F9211242F933F9360
:102250004F935F936F937F938F939F93AF93BF93AE
:10226000EF93FF9385E292E00E94EB0FFF91EF91D5
:10227000BF91AF919F918F917F916F915F914F919E
:102280003F912F910F900FBE0F901F90189585E2F0
:1022900092E00E94B00F21E0892B09F420E0822F08
:1022A0000895109228021092270288EE93E0A0E091
:1022B000B0E08093290290932A02A0932B02B0935E
:1022C0002C028FE391E0909326028093250285EC07
:1022D00090E0909332028093310284EC90E09093EE
:1022E00034028093330280EC90E090933602809326
:1022F000350281EC90E0909338028093370282ECB3
:1023000090E090933A028093390286EC90E09093AB
:102310003C0280933B0210923E0210923F021092C8
:10232000400210924102089508950CD0EBC0E3D012
:1023300040F0DAD030F021F45F3F19F0CCC05111F9
:1023400015C1CFC0F0D098F39923C9F35523B1F349
:10235000951B550BBB27AA2762177307840738F014
:102360009F5F5F4F220F331F441FAA1FA9F333D073
:102370000E2E3AF0E0E830D091505040E695001C27
:10238000CAF729D0FE2F27D0660F771F881FBB1FE3
:10239000261737074807AB07B0E809F0BB0B802DBD
:1023A000BF01FF2793585F4F2AF09E3F510568F009
:1023B00092C0DCC05F3FECF3983EDCF386957795E6
:1023C0006795B795F7959F5FC9F7880F911D96950B
:1023D000879597F90895E1E0660F771F881FBB1F67
:1023E000621773078407BA0720F0621B730B840B14
:1023F000BA0BEE1F88F7E095089504D06894B111E8
:10240000B5C0089598D088F09F5790F0B92F9927BC
:10241000B751A0F0D1F0660F771F881F991F1AF0EF
:10242000BA95C9F712C0B13081F09FD0B1E00895DC
:102430009CC0672F782F8827B85F39F0B93FCCF35D
:10244000869577956795B395D9F73EF490958095E5
:10245000709561957F4F8F4F9F4F0895E89409C005
:1024600097FB3EF490958095709561957F4F8F4FC7
:102470009F4F9923A9F0F92F96E9BB279395F695DD
:10248000879577956795B795F111F8CFFAF4BB0F5B
:1024900011F460FF1BC06F5F7F4F8F4F9F4F16C0BF
:1024A000882311F096E911C0772321F09EE8872F49
:1024B000762F05C0662371F096E8862F70E060E005
:1024C0002AF09A95660F771F881FDAF7880F96957E
:1024D000879597F9089597F99F6780E870E060E025
:1024E00008959FEF80EC089500240A9416161706AD
:1024F00018060906089500240A94121613061406F5
:1025000005060895092E0394000C11F4882352F057
:10251000BB0F40F4BF2B11F460FF04C06F5F7F4F0F
:102520008F4F9F4F089557FD9058440F551F59F0F6
:102530005F3F71F04795880F97FB991F61F09F3FB0
:1025400079F087950895121613061406551FF2CFD9
:102550004695F1DF08C0161617061806991FF1CF29
:1025600086957105610508940895E894BB27662750
:102570007727CB0197F90895AA1BBB1B51E107C030
:10258000AA1FBB1FA617B70710F0A61BB70B881F03
:10259000991F5A95A9F780959095BC01CD01089592
:1025A000A1E21A2EAA1BBB1BFD010DC0AA1FBB1F57
:1025B000EE1FFF1FA217B307E407F50720F0A21BC9
:1025C000B30BE40BF50B661F771F881F991F1A9436
:1025D00069F760957095809590959B01AC01BD0160
:1025E000CF010895EE0FFF1F0590F491E02D09949F
:1025F000A29FB001B39FC001A39F700D811D112444
:10260000911DB29F700D811D1124911D08950E948E
:10261000F812B7FF0895821B930B08950E94F812D9
:10262000A59F900DB49F900DA49F800D911D112426
:102630000895F999FECF92BD81BDF89A992780B58A
:102640000895A8E1B0E042E050E00C943713262F43
:10265000F999FECF1FBA92BD81BD20BD0FB6F89487
:10266000FA9AF99A0FBE01960895DC01CB01FC019C
:10267000F999FECF06C0F2BDE1BDF89A319600B4DB
:0E2680000D9241505040B8F70895F894FFCFE6
:10268E000000C202800001000F4F4B200020282DB9
:10269E00302900204D487A002A006442002B565AF9
:1026AE002B565A20690020670020402000206331FD
:1026BE0000206F0020713100207800000000002EF5
:0C26CE00105C0EB00FC90FBB0F0C100009
:00000001FF
