:100000000C9476020C946D0C0C949A0C0C949E0239
:100010000C949E020C949E020C949E020C949E02E0
:100020000C949E020C949E020C949E020C949E02D0
:100030000C949E020C949E020C949E020C949E02C0
:100040000C94C70C0C949E020C9435100C94671001
:100050000C949E020C949E020C949E020C949E02A0
:100060000C949E020C949E029505BD046D058706B6
:100070008706A00568057D06B3047D06F6057806AB
:100080007D067D06E7047D066406870695057405F2
:100090007D06750687066B067D064E06205A7A7A1F
:1000A0002E2E2E0A007465737420003E20002062FC
:1000B0000A00202D3E2000202D3E2061636B0A00A7
:1000C00020494920004153432000204700203F00A1
:1000D0004F4B0043757272656E7420636F6E666974
:1000E0006775726174696F6E3A0A005B524631320D
:1000F00064656D6F2E31325D000A417661696C6115
:10010000626C6520636F6D6D616E64733A0A2020C6
:100110003C6E6E3E206920202020202D20736574C7
:10012000206E6F646520494420287374616E646199
:100130007264206E6F64652069647320617265204B
:10014000312E2E3330290A20203C6E3E20622020A2
:10015000202020202D20736574204D487A20626174
:100160006E64202834203D203433332C2038203D49
:10017000203836382C2039203D20393135290A20C5
:10018000203C6E6E6E6E3E206F2020202D20636816
:10019000616E6765206672657175656E6379206F43
:1001A00066667365742077697468696E2074686523
:1001B0002062616E64202864656661756C7420310C
:1001C000363030290A202020202020202020202006
:1001D0002020202039362E2E3339303320697320E9
:1001E0007468652072616E676520737570706F72D8
:1001F000746564206279207468652052464D3132FE
:10020000420A20203C6E6E6E3E2067202020202D6A
:1002100020736574206E6574776F726B2067726FE0
:100220007570202852464D3132206F6E6C792061F6
:100230006C6C6F7773203231322C2030203D20617E
:100240006E79290A20203C6E3E2063202020202049
:10025000202D2073657420636F6C6C656374206D52
:100260006F64652028616476616E6365642C206E1E
:100270006F726D616C6C792030290A202074202007
:1002800020202020202020202D2062726F616463B6
:10029000617374206D61782D73697A65207465735C
:1002A00074207061636B65742C2072657175657361
:1002B000742061636B0A20202E2E2E2C3C6E6E3E25
:1002C0002061202D2073656E64206461746120704C
:1002D00061636B657420746F206E6F6465203C6E83
:1002E0006E3E2C20726571756573742061636B0AB4
:1002F00020202E2E2E2C3C6E6E3E2073202D20733F
:10030000656E642064617461207061636B65742044
:10031000746F206E6F6465203C6E6E3E2C206E6F95
:100320002061636B0A20203C6E3E2071202020203B
:1003300020202D20736574207175696574206D6FA0
:100340006465202831203D20646F6E27742072651B
:10035000706F727420626164207061636B65747386
:10036000290A20203C6E3E20782020202020202DAD
:1003700020736574207265706F7274696E67206691
:100380006F726D61742028303A20646563696D6115
:100390006C2C20313A206865782C20323A20686530
:1003A000782B6173636969290A2020313233207AFE
:1003B0002020202020202D20746F74616C20706F0D
:1003C00077657220646F776E2C206E65656473208C
:1003D0006120726573657420746F20737461727428
:1003E00020757020616761696E0A52656D6F746572
:1003F00020636F6E74726F6C20636F6D6D616E64DD
:10040000733A0A20203C686368693E2C3C68636C40
:100410006F3E2C3C616464723E2C3C636D643E20F4
:100420006620202020202D204653323020636F6D1F
:100430006D616E642028383638204D487A290A20AC
:10044000203C616464723E2C3C6465763E2C3C6FBB
:100450006E3E206B202020202020202020202020E5
:1004600020202D204B414B5520636F6D6D616E64D4
:100470002028343333204D487A290A00636F6E6692
:1004800069672073617665206661696C65640A003E
:100490000000000800020100000304070000000043
:1004A000000000000102040810204080010204083E
:1004B00010200102040810200404040404040404AD
:1004C000020202020202030303030303000000000E
:1004D00023002600290000000000250028002B0032
:1004E00000000000240027002A00971011241FBEDE
:1004F000CFEFD8E0DEBFCDBF11E0A0E0B1E0EEED80
:10050000F2E202C005900D92A833B107D9F722E0BC
:10051000A8E3B1E001C01D92A539B207E1F714E0EC
:10052000CCEED4E004C02297FE010E941311CA3E13
:10053000D107C9F70E94E70E0C946D110C940000CE
:10054000682F88EF91E00C94E20D1F93CF93DF9317
:10055000EC01FE011491112351F01A3019F48DE0D1
:100560000E94A002812F0E94A0022196F2CFDF916B
:10057000CF911F9108958F7060E3680F6A3314F074
:1005800067E3680F88EF91E00C94E20DCF93C82FDA
:1005900061E089E00E94A50B6C2F89E0CF910C945B
:1005A000DE0B0F931F93CF93DF93EC018B0181E060
:1005B0000E94540ACE018A569F4F0E945C0D80E033
:1005C0000E94540AC801885C9109DF91CF911F9164
:1005D0000F910C945C0D0F931F93CF93DF93EC015D
:1005E000683099F4880F991F2C2F022E2295202510
:1005F000022E2695269520252F5F26952170C22F45
:1006000020E0D22FC82BD92B69E08FEF860F41E075
:1006100050E060E070E004C0440F551F661F771F74
:100620008A95D2F78A010115110581F0C8018C2342
:100630009D23892B19F088E592E002C080E991E0C2
:10064000BC010E94D10216950795EDCFDF91CF91A5
:100650001F910F910895CF93C82F909188019370A7
:10066000682F70E061F0CB0134E0959587953A955D
:10067000E1F70E94BB028C2FCF910C94BB024AE0A1
:1006800050E088EF91E0CF910C94E00E0F931F9310
:10069000CF93DF9381E080938701E5E8F1E08FEF6E
:1006A0009FEF21918227282F22952827022E269519
:1006B00026952025022E269520252770082E892F85
:1006C000269507942795902D8227069427959025A7
:1006D000822721E0E339F20721F790939401809378
:1006E00093016091850180E290E00E944F1105E83E
:1006F00011E0C0E2D0E0F80161918F01CE010E94CB
:100700004F112196C033D105B1F70E945D0A8823AD
:1007100031F0DF91CF911F910F910C94A90A8CE7D2
:1007200094E0DF91CF911F910F910C94A5020F934C
:100730001F93CF93DF9381E00E94C60264E670E0CE
:1007400080E090E00E94340D26E040E056E960E051
:1007500070E088EF91E00E94D90F88EF91E00E944D
:10076000E90D8BEE90E00E94A5020E945D0A8823AD
:1007700079F005E811E0C0E2D0E0CE010E9441111D
:10078000D8018D938D012196C033D105B1F71CC0DE
:1007900080E1E5E8F1E0DF011D928A95E9F78FE459
:1007A0008093850182ED8093860180E496E09093AA
:1007B0008A018093890180918801886080938801F3
:1007C0000E9446030E945D0A0E94A90A89EF90E0F8
:1007D0000E94A50283ED90E00E94A5020E94A90A52
:1007E00068EE73E080E090E00E94340D80E0DF91DD
:1007F000CF911F910F910C94C602AF92BF92CF92EE
:10080000DF92EF92FF920F931F93CF93DF9388EFC6
:1008100091E00E94F60E892B09F47FC288EF91E0E7
:100820000E940F0FC82F80ED8C0F8A30A8F44091E2
:100830008201509183018AE0849F9001859F300D51
:100840001124205331092C0F311DC7FD3A953093E7
:1008500083012093820161C2CC3281F4E0913B019B
:10086000E63408F056C281E08E0F80933B01F0E041
:10087000E45CFE4F8091820180834BC28FE98C0F34
:100880008A3148F58BEA90E00E94A502D0E0809181
:100890003B01D81788F4ED2FF0E0E45CFE4F608157
:1008A00070E04AE050E088EF91E00E94E00E8CE2B8
:1008B0000E94A002DF5FEBCF609182017091830103
:1008C0004AE050E088EF91E00E94E00E6C2F88EF44
:1008D00091E00E940F0ECE3391F5E0913B0181E053
:1008E0008E0F80933B01F0E0E45CFE4F809182012B
:1008F00080832091890130918A0140913D0180914E
:100900003C01843031F0883031F0893031F463E0DB
:1009100005C061E003C062E001C060E080913E017B
:100920000E94D70940913B01445060E471E08091FE
:100930003F010E949C0982E00E94BB0954C1C13260
:100940000CF4E5C14C2F552747FD5095652F752FA9
:10095000FA01E156F109EA31F10508F0CEC1EC5C8B
:10096000FF4F0C941111809182018F71909185013C
:10097000907E890F8093850127C080918201843009
:1009800031F0883031F0893031F423E005C021E0C6
:1009900003C022E001C020E0822F90E09093830109
:1009A00080938201892B09F4B2C1809185018F73F4
:1009B00040E4249F800D11248093850180E496E01B
:1009C00090938A01809389010E944603A0C180917F
:1009D0008201909183019C0120563109203E3E40C6
:1009E00030F490938A01809389010E944603E0913C
:1009F0008501F0E0A6E0F595E795AA95E1F7CF012E
:100A000001978330910528F4DC01A45FBE4FAC91BF
:100A100001C0A0E0B0E020EA36E841E050E00E94EA
:100A20002D116B017C0129E130E0DF010E942611CC
:100A30009B01AC01A0918901B0918A010E942D1106
:100A4000C60ED71EE81EF91EC701B60120E137E227
:100A500040E050E00E94EF1089019A016B017C0197
:100A60004AE050E0B80188EF91E00E94E00E8EE28B
:100A70000E94A002C60168EE73E00E94DB1080E3D2
:100A8000860F0E94A002C60164E670E00E94DB109F
:100A9000CB01CAE0D0E0BE010E94DB10805D0E9465
:100AA000A002C601BE010E94DB10182FCB01BE01BF
:100AB0000E94DB10805D0E94A00280E3810F0E94F3
:100AC000A00267E071E088EF91E00E94FD0D1FC178
:100AD000809182018093860177CF809188019091E7
:100AE000820190FB82F9FEC081E68093840182E45A
:100AF00080933A011092390120913801ECE3F1E042
:100B000080E0982F920F91938F5F8234D1F785EA1E
:100B100090E00E94A502809138010E942B038091F1
:100B200038018F5F80933801F2C0C09384018091B7
:100B30003B0180933A018091820180933901E7C0A3
:100B400020E436E040E062E080E00E94D70981E0E6
:100B50000E94C602409182015091830160913E0142
:100B600020913C0130E0322F222780913D01280F57
:100B7000311DB22EC32EA32EC6E0C60FC40FC20F66
:100B8000C30FE3E0DE2EE62EF12C8A011127D0E020
:100B90006DE081E090E00E94EB0268E08A2D90E039
:100BA0000E94EB0268E08B2D9C2D0E94EB0268E016
:100BB000C7010E94EB0268E0C8010E94EB0268E0F6
:100BC000CE010E94EB0261E080E090E00E94EB0227
:100BD0006AE070E080E090E00E94340DDA94C1F6A3
:100BE00080E00E94C6020E945D0A91C020E436E0C7
:100BF00040E061E080E00E94D70981E00E94C602E7
:100C000000913D0110E00150110964E0000F111F37
:100C10006A95E1F7166080913C01992787FD9095D0
:100C200001978F709927082B192B809182018111D0
:100C3000186054E0D52ECCEDD5E0E12CF12C65E622
:100C400074E087E791E00E94D102C8010E2C02C037
:100C5000959587950A94E2F780FF03C085E694E0B6
:100C600002C087E791E0BE01681B790B0E94D102A8
:100C70008FEFE81AF80A9CE0E916F10401F767E73C
:100C800071E087E791E00E94D1026BE070E080E0C4
:100C900090E00E94340DDA9481F6A2CF8091820117
:100CA000909183018B37910591F58CE990E00E943A
:100CB000A50288EF91E00E94520F80E00E94600B35
:100CC000F8940E948F0723C080918801909182013F
:100CD00090FB83F907C09091820193708091880105
:100CE0008C7F892B809388016FCE8BEE90E00BC0B8
:100CF000809182010E94C6020AC089EF90E00E94A2
:100D0000A50283ED90E00E94A5020E94A90A10921C
:100D10003B0110928301109282010E94D308882324
:100D200009F4AFC0F0909E018091E3019091E4013D
:100D3000892B41F481E00E94C60280ED90E00E9480
:100D4000A5020DC08091880183FDDEC08DEC90E08E
:100D50000E94A50244E14F1510F444E1F42E809165
:100D60008801837019F088E50E94A00280918601B5
:100D7000811108C08AEC90E00E94A50280919C013C
:100D80000E942B0380E20E94A00280919D018F713E
:100D90000E942B030FE911E0E801E02E8C2F801B4D
:100DA0008F1558F480918801837019F480E20E94B5
:100DB000A00289910E942B03F1CF88EF91E00E945D
:100DC000E90D80918801837090E002978CF185ECA9
:100DD00090E00E94A50280918601811104C080EC00
:100DE00090E00E94A50280919D0186FF02C08EE3E3
:100DF00001C08CE30E94A00280919D018F71805CF4
:100E00000E94A002CFE9D1E08C2F8E198F1560F4DB
:100E100080E20E94A002899190EE980F9F3508F021
:100E20008EE20E94A002F0CF88EF91E00E94E90DCF
:100E30008091E3019091E401892B19F581E00E94F2
:100E4000C60280919D0185FF19C080919D0187FD9B
:100E500015C08091880182FD11C087EB90E00E944F
:100E6000A50280919D0186FD4BC080919D018F71EF
:100E7000806C40E060E070E00E948F0980E00E949A
:100E8000C60280918401882371F10E944C09882355
:100E900051F181E00E94C60282EB90E00E94A5021F
:100EA00060913A0170E04AE050E088EF91E00E94E2
:100EB000E00E8EEA90E00E94A502809184018136C6
:100EC00009F180E090913901992311F09064892B08
:100ED00040913A016CE371E00E948F091092840105
:100EE00080E00E94C60280E0DF91CF911F910F91B8
:100EF000FF90EF90DF90CF90BF90AF900C94C60220
:100F000080E8B7CF80E2DECFDF91CF911F910F91C4
:100F1000FF90EF90DF90CF90BF90AF900895EAE7F9
:100F2000F0E0908180818F77808383B7817F8460B8
:100F300083BFF89483B7816083BF85B7806685BF20
:100F400085B78F79806485BF7894889583B78E7FC5
:100F500083BF90937A0008958627682F629568274B
:100F6000062E669566956025062E66956025677047
:100F7000082E892F669507946795902D86270694ED
:100F8000679590258627089525B141E050E060E0FF
:100F900070E00090060104C0440F551F661F771FC4
:100FA0000A94D2F74095422345B99EBD0DB407FE81
:100FB000FDCF2EB530E0322F22278EBD0DB407FEB7
:100FC000FDCF9EB585B141E050E060E070E000905B
:100FD000060104C0440F551F661F771F0A94D2F7FD
:100FE000842B85B9A901492BCA010895CF9380E0CC
:100FF00090E00E94C4078091E501853091F580E082
:1010000090EB0E94C407682F8091E601811104C013
:101010009091E901911174C0E091E60181E08E0F99
:101020008093E601F0E0E456FE4F60838091E30197
:101030009091E4010E94AC079093E4018093E30156
:1010400080919E012091E60190E0049630E08217A5
:1010500093070CF460C08091E601873408F05BC010
:101060005FC08091E50187FF1AC0E0919E018091E9
:10107000E50191E0980F9093E501ED5FE80FF0E056
:10108000E456FE4FC0818091E3019091E4016C2F02
:101090000E94AC079093E4018093E3012DC08091FE
:1010A000E50191E0980F9093E501833001F154F44C
:1010B0008823B9F08130F9F48091E3019091E40143
:1010C000C92F1AC0893059F08A30A9F4C091E901BA
:1010D00090919E018EEF891B8093E5010DC0CDE2BA
:1010E0000BC08091E3019091E401C82F05C08DE011
:1010F00092E80E94C407CAEA8C2F90E098540DC071
:10110000E091E60181E08E0F8093E601F0E0E45685
:10111000FE4F908381CF8DE092E8CF910C94C4076D
:10112000CF91089525B181E090E0A0E0B0E0AC015E
:10113000BD010090060104C0440F551F661F771FB4
:101140000A94D2F7242B25B924B10090060104C0DB
:10115000880F991FAA1FBB1F0A94D2F7282B24B906
:1011600061E08AE00E94DE0B61E08AE00E94A50B4C
:1011700061E08BE00E94A50B60E08CE00E94A50B73
:1011800061E08DE00E94A50B80E58CBD60E082E00F
:101190000E94A50B61E082E00C94DE0BE8980E94AF
:1011A000C407E89A08958091E501853051F5809152
:1011B0009E012091E60190E0049630E082179307AB
:1011C00024F08091E6018734E0F084E08093E5012B
:1011D00080919E01833430F081E090E09093E401AF
:1011E0008093E30180919D0186FF3AC09091EA01CE
:1011F000892F8F718F31A1F180919D0189278F7186
:1012000079F18091E501843049F580919701882337
:1012100051F080939E0110929D0110929C0183E0F9
:101220008093E60104C010929E011092E6018FEFB8
:101230009FEF9093E4018093E3016091E9016623BD
:1012400031F00E94AC079093E4018093E30185E0C4
:101250008093E5018DED92E80E94C40780E0089537
:101260008091E3019091E401892B49F4E09195018B
:10127000F0919601309719F080E009950BC08FEF3F
:101280009FEFDC018093980190939901A0939A01BC
:10129000B0939B0181E008958091E501853099F438
:1012A0008091E60181110FC080E090E00E94CE089D
:1012B00090FD09C08DE092E80E94CE0884E0809302
:1012C000E50181E0089580E0089586FD05C0807EF7
:1012D0009091EA019F71890F80939D01E0919501A2
:1012E000F0919601309711F081E009958FEF9FEF13
:1012F0009093E4018093E3018091E3019091E401F4
:101300006091E9010E94AC079093E4018093E301AE
:1013100086E08093E5018DE392E80C94C407CF93B7
:10132000C82F40939E0150E08FE991E00E94381150
:101330008C2FCF910C946509EF92FF921F93CF935E
:10134000DF931F92CDB7DEB7182F7B0149830E9430
:101350004C094981811105C049830E94D308498104
:10136000F5CFB701812F0F90DF91CF911F91FF90A3
:10137000EF900C948F099091E5019430B9F0882397
:10138000D1F393B7917F833021F0823021F42CE0A8
:1013900003C024E001C020E0922B93BF93B791607B
:1013A00093BF889593B79E7F93BFE5CF0895CF9362
:1013B000C62F8093EA014093E9013093E80120931E
:1013C000E7010E94920880E090E00E94C40785E057
:1013D00092E80E94C40780E098EB0E94C40782E074
:1013E0000E94140C892B19F480E090E0F6CF20E1E4
:1013F000C29FC0011124876C90680E94C40780912D
:10140000E7019091E80190560E94C40786E096ECAF
:101410000E94C40782EA94E90E94C4078CEA92EC15
:101420000E94C407C091E901CC2341F083E89AEC03
:101430000E94C4078C2F90E09E6C06C08BE89AEC4B
:101440000E94C4078DE29EEC0E94C40783E894ECDE
:101450000E94C40780E598E90E94C40787E79CECD6
:101460000E94C40780E090EE0E94C40780E098ECE0
:101470000E94C40789E490EC0E94C40784E0809332
:10148000E5018091EA018F7141F040E050E066EFA4
:1014900077E080E00E943D0C03C080E00E945D0C7C
:1014A0008091EA01CF910895882319F08DE392E8A5
:1014B00002C08DE092E80C94C407EF92FF920F9364
:1014C0001F93CF93DF931F92CDB7DEB710E2E12ECB
:1014D000F12C0FEF1FEFC7010E944111682FC801C7
:1014E0000E94AC078C018FEFE81AF80AE0E3EE16D1
:1014F000F10489F7012B21F582E290E00E9441116D
:101500008130F1F480E290E00E944111182F81E2D5
:1015100090E00E944111482F84E290E049830E94AC
:1015200049119C01612F70E0B6E075956795BA95F9
:10153000E1F74981812F0E94D709812F8F7101C066
:1015400080E00F90DF91CF911F910F91FF90EF906E
:101550000895CF92DF92FF920F931F93CF93DF9363
:101560001F92CDB7DEB780E290E00E944111082FB4
:1015700083E290E00E944111182F84E290E00E94E3
:1015800049116C0160E288EF91E00E94E20D202F8A
:101590002F7160E4620F88EF91E029830E94E20DD1
:1015A0006FE071E088EF91E00E94E00D2981622FE9
:1015B00070E04AE050E088EF91E00E94C40E812F75
:1015C0008470F82E12FF05C06AE288EF91E00E9455
:1015D000E20D62E171E088EF91E00E94E00D81E2AE
:1015E00090E00E9441114AE050E0682F88EF91E0BE
:1015F0000E94D90E65E171E088EF91E00E94E00D54
:10160000802F8295869586958370813039F082305F
:1016100041F0833049F463E973E008C061EB71E0A5
:1016200005C064E673E002C060E070E04AE050E0AC
:1016300088EF91E00E94C40E67E071E088EF91E0CE
:101640000E94E00DFF2031F069E171E088EF91E048
:101650000E94E00DE0E4CE16E6E0DE0669F06DE102
:1016600071E088EF91E00E94E00D4AE050E0B601A1
:1016700088EF91E00E94E00E13FF06C060E271E087
:1016800088EF91E00E94E00D137071F064E271E068
:1016900088EF91E00E94E00D612F70E04AE050E099
:1016A00088EF91E00E94C40E88EF91E00F90DF91E7
:1016B000CF911F910F91FF90DF90CF900C94E90D87
:1016C000CF93C82F87FF03C08DE092E80EC0992703
:1016D00087FD9095956E0E94CE0885E092E80E9465
:1016E000CE08CC2321F087E092E80E94CE0884E067
:1016F0008093E501CF910895833081F028F4813003
:1017000099F08230A1F008958730A9F08830B9F0BF
:101710008430D1F4809180008F7D03C0809180005F
:101720008F7780938000089584B58F7702C084B549
:101730008F7D84BD08958091B0008F7703C0809124
:10174000B0008F7D8093B0000895CF93DF9390E039
:10175000FC01EC55FB4F2491FC01E854FB4F8491B4
:10176000882349F190E0880F991FFC01E052FB4F5C
:10177000A591B4918A529B4FFC01C591D4919FB71A
:10178000611108C0F8948C91209582238C938881F4
:1017900082230AC0623051F4F8948C91322F309534
:1017A00083238C938881822B888304C0F8948C9146
:1017B000822B8C939FBFDF91CF9108950F931F933E
:1017C000CF93DF931F92CDB7DEB7282F30E0F9011A
:1017D000E057FB4F8491F901EC55FB4F1491F9014F
:1017E000E854FB4F04910023C9F0882321F069835A
:1017F0000E947C0B6981E02FF0E0EE0FFF1FEA52A0
:10180000FB4FA591B4919FB7F8948C91611103C0DF
:101810001095812301C0812B8C939FBF0F90DF9186
:10182000CF911F910F910895CF93DF93282F30E030
:10183000F901E057FB4F8491F901EC55FB4FD4912E
:10184000F901E854FB4FC491CC2391F081110E941F
:101850007C0BEC2FF0E0EE0FFF1FE453FB4FA59144
:10186000B4912C912D2381E090E021F480E002C01E
:1018700080E090E0DF91CF9108958230E8F4E82F86
:10188000F0E0EE0FFF1FE551FE4F71836083813062
:1018900041F0809169008C7F842B80936900E89AE5
:1018A000089580916900440F551F440F551F837F91
:1018B000842B80936900E99A0895823068F481301E
:1018C00011F0E89801C0E998E82FF0E0EE0FFF1F53
:1018D000E551FE4F1182108208951F920F920FB6AC
:1018E0000F9211242F933F934F935F936F937F93A6
:1018F0008F939F93AF93BF93EF93FF938091EB01EF
:101900009091EC01892B29F0E091EB01F091EC0131
:101910000995FF91EF91BF91AF919F918F917F9129
:101920006F915F914F913F912F910F900FBE0F904C
:101930001F9018951F920F920FB60F9211242F939C
:101940003F934F935F936F937F938F939F93AF9347
:10195000BF93EF93FF938091ED019091EE01892B5E
:1019600029F0E091ED01F091EE010995FF91EF91E1
:10197000BF91AF919F918F917F916F915F914F91A7
:101980003F912F910F900FBE0F901F9018951F92AF
:101990000F920FB60F9211242F933F938F939F9323
:1019A000AF93BF938091F0019091F101A091F2016A
:1019B000B091F3013091EF0126E0230F2D3720F491
:1019C0000296A11DB11D05C029E8230F0396A11D94
:1019D000B11D2093EF018093F0019093F101A0934A
:1019E000F201B093F3018091F4019091F501A0917F
:1019F000F601B091F7010196A11DB11D8093F4018C
:101A00009093F501A093F601B093F701BF91AF91C8
:101A10009F918F913F912F910F900FBE0F901F902C
:101A200018953FB7F8948091F4019091F501A09139
:101A3000F601B091F70126B5A89B05C02F3F19F01C
:101A40000196A11DB11D3FBF6627782F892F9A2FC0
:101A5000620F711D811D911D43E0660F771F881F66
:101A6000991F4A95D1F70895CF92DF92EF92FF9296
:101A7000CF93DF936B017C010E94110DEB01C11428
:101A8000D104E104F10489F00E94DA100E94110DE2
:101A90006C1B7D0B683E734090F381E0C81AD1083F
:101AA000E108F108C851DC4FEACFDF91CF91FF90F8
:101AB000EF90DF90CF9008958130910539F0029733
:101AC00029F0880F991F01970197F1F708957894ED
:101AD00084B5826084BD84B5816084BD85B5826033
:101AE00085BD85B5816085BDEEE6F0E080818160D1
:101AF0008083E1E8F0E010828081826080838081D1
:101B000081608083E0E8F0E0808181608083E1EBA8
:101B1000F0E0808184608083E0EBF0E08081816090
:101B20008083EAE7F0E08081846080838081826046
:101B3000808380818160808380818068808310922F
:101B4000C1000895CF92DF92EF92FF920F931F93FF
:101B5000CF93DF936C017A01EB01E60EF71E00E0F4
:101B600010E0CE15DF0561F06991D601ED91FC9191
:101B70000190F081E02DC6010995080F191FF1CFE2
:101B8000C801DF91CF911F910F91FF90EF90DF90EF
:101B9000CF9008956115710581F0DB010D90002053
:101BA000E9F7AD0141505109461B570BDC01ED919E
:101BB000FC910280F381E02D099480E090E008958B
:101BC0000C94CA0DDC01ED91FC910190F081E02DA7
:101BD00009940F931F93CF93DF93EC016DE00E9464
:101BE000E20D8C016AE0CE010E94E20D800F911F90
:101BF000DF91CF911F910F9108950F931F93CF9372
:101C0000DF93EC010E94CA0D8C01CE010E94E90D08
:101C1000800F911FDF91CF911F910F9108950F9326
:101C20001F93CF93DF93EC010E94E20D8C01CE0154
:101C30000E94E90D800F911FDF91CF911F910F91AD
:101C400008958F929F92AF92BF92CF92DF92EF92C0
:101C5000FF920F931F93CF93DF93CDB7DEB7A1977A
:101C60000FB6F894DEBF0FBECDBF7C01C42EE52FAA
:101C7000CB01D22E19A221E02D1510F02AE0D22E90
:101C80008E010F5D1F4F8D2C912CA12CB12C6C2D32
:101C90007E2FA50194010E94EF108C2DD29E8019F9
:101CA0001124015011098A3014F4805D01C0895C4F
:101CB000F8018083211531054105510521F0C22E1F
:101CC000E32FCA01E4CFB801C7010E94CA0DA19653
:101CD0000FB6F894DEBF0FBECDBFDF91CF911F913D
:101CE0000F91FF90EF90DF90CF90BF90AF909F90BB
:101CF0008F900895CF92DF92EF92FF920F931F93F0
:101D0000CF93DF93EC016A017B012115310579F452
:101D1000E881F9810190F081E02D642FDF91CF916E
:101D20001F910F91FF90EF90DF90CF9009942A3090
:101D30003105E9F477FF1AC06DE20E94E20D8C01D3
:101D400044275527BA014C195D096E097F092AE01D
:101D5000CE010E94210E800F911FDF91CF911F9124
:101D60000F91FF90EF90DF90CF9008952AE0B70198
:101D7000A601CE01DF91CF911F910F91FF90EF90BF
:101D8000DF90CF900C94210E9A01AB01662757FD8E
:101D90006095762F0C947A0E2115310541F4DC0103
:101DA000ED91FC910190F081E02D642F09940C9449
:101DB000210E9A01462F50E060E070E00C94CC0EAA
:101DC0009A01AB0160E070E00C94CC0E08950E9483
:101DD000670D0E94E60E0E949703C3E2DFE00E94B7
:101DE000FD032097E1F30E94230FF9CFFC01818DC1
:101DF000228D90E0805C9F4F821B91098F73992701
:101E00000895FC01918D828D981731F0828DE80F35
:101E1000F11D858D90E008958FEF9FEF0895FC01EF
:101E2000918D828D981761F0828DDF01A80FB11D11
:101E30005D968C91928D9F5F9F73928F90E0089535
:101E40008FEF9FEF08958DE890E1892B49F080E0B6
:101E500090E0892B29F00E948D1081110C940000D4
:101E60000895FC01848DDF01A80FB11DA35ABF4F57
:101E70002C91848D90E001968F739927848FA68989
:101E8000B7892C93A089B1898C9180648C93938DB0
:101E9000848D981306C00288F389E02D80818F7DA0
:101EA00080830895CF93DF93EC01888D8823C9F058
:101EB000EA89FB89808185FD05C0A889B9898C9153
:101EC00086FD0FC00FB607FCF5CF808185FFF2CFEE
:101ED000A889B9898C9185FFEDCFCE010E94310F81
:101EE000E7CFDF91CF910895CF92DF92FF920F93CA
:101EF0001F93CF93DF931F92CDB7DEB76C01DC0148
:101F00005B969C915B975C968C915C97981307C04D
:101F10005096ED91FC915197808185FD32C0F6017C
:101F2000038D10E00F5F1F4F0F731127F02EF60186
:101F3000848DF81211C00FB607FCF9CFD601509668
:101F4000ED91FC915197808185FFF1CFC6016983A6
:101F50000E94310F6981EBCF838DE80FF11DE35AA9
:101F6000FF4F6083D6015B960C935B975296ED9181
:101F7000FC91539780818062808381E058968C9396
:101F80000DC0D6015696ED91FC91579760835096FF
:101F9000ED91FC91519780818064808381E090E095
:101FA0000F90DF91CF911F910F91FF90DF90CF9015
:101FB0000895BF92CF92DF92EF92FF92CF93DF937B
:101FC000EC016A017B01B22E60E874E88EE190E0DA
:101FD000A70196010E94EF102150310941095109D2
:101FE0005695479537952795E889F98982E080834A
:101FF000211580E1380798F0E889F989108260E4BA
:1020000072E48FE090E0A70196010E94EF1021504A
:102010003109410951095695479537952795EC8522
:10202000FD853083EE85FF852083188EEC89FD8940
:10203000B082EA89FB89808180618083EA89FB899B
:10204000808188608083EA89FB89808180688083C1
:10205000EA89FB8980818F7D8083DF91CF91FF901A
:10206000EF90DF90CF90BF9008951F920F920FB620
:102070000F9211242F938F939F93EF93FF93E091EF
:102080000802F09109028081E0910E02F0910F02A6
:1020900082FD12C09081809111028F5F8F73209119
:1020A0001202821751F0E0911102F0E0E850FE4F69
:1020B000958F8093110201C08081FF91EF919F91D4
:1020C0008F912F910F900FBE0F901F9018951F9218
:1020D0000F920FB60F9211242F933F934F935F935C
:1020E0006F937F938F939F93AF93BF93EF93FF93E0
:1020F00088EF91E00E94310FFF91EF91BF91AF9176
:102100009F918F917F916F915F914F913F912F910F
:102110000F900FBE0F901F90189588EF91E00E94CE
:10212000F60E21E0892B09F420E0822F0895109209
:10213000FB011092FA0188EE93E0A0E0B0E08093FA
:10214000FC019093FD01A093FE01B093FF018BE28F
:1021500091E09093F9018093F80185EC90E09093E1
:1021600005028093040284EC90E090930702809330
:10217000060280EC90E0909309028093080281ECC3
:1021800090E090930B0280930A0282EC90E090938F
:102190000D0280930C0286EC90E090930F028093E6
:1021A0000E0210921102109212021092130210925B
:1021B000140208950895AA1BBB1B51E107C0AA1F72
:1021C000BB1FA617B70710F0A61BB70B881F991FD8
:1021D0005A95A9F780959095BC01CD010895A1E28B
:1021E0001A2EAA1BBB1BFD010DC0AA1FBB1FEE1F91
:1021F000FF1FA217B307E407F50720F0A21BB30BDC
:10220000E40BF50B661F771F881F991F1A9469F757
:1022100060957095809590959B01AC01BD01CF01B3
:102220000895EE0FFF1F0590F491E02D0994A29FF1
:10223000B001B39FC001A39F700D811D1124911D9A
:10224000B29F700D811D1124911D08950E941711D8
:10225000B7FF0895821B930B08950E941711A59F45
:10226000900DB49F900DA49F800D911D1124089591
:10227000FB01DC0102C001900D9241505040D8F7A3
:102280000895F999FECF92BD81BDF89A992780B53E
:102290000895A8E1B0E042E050E00C945F11262FD1
:1022A000F999FECF1FBA92BD81BD20BD0FB6F8943B
:1022B000FA9AF99A0FBE01960895DC01CB01FC0150
:1022C000F999FECF06C0F2BDE1BDF89A319600B48F
:0E22D0000D9241505040B8F70895F894FFCF9A
:1022DE0000009502800002204D487A002B565A20AD
:1022EE0069002067002040200020633100206F002D
:1022FE002071310020780000000000740FA20DF64E
:08230E000E0F0F010F520F002A
:00000001FF
