:100000000C948D020C946C0C0C94990C0C94B5020D
:100010000C94B5020C94B5020C94B5020C94B50284
:100020000C94B5020C94B5020C94B5020C94B50274
:100030000C94B5020C94B5020C94B5020C94B50264
:100040000C94590D0C94B5020C94D60F0C942410FA
:100050000C94B5020C94B5020C94B5020C94B50244
:100060000C94B5020C94B50232053E0404058605D5
:1000700086053D05FF048405340484054D057F0590
:1000800084058405690484056605860532050D0529
:1000900084057A05860573058405500520620A00EB
:1000A000202D3E2000202D3E2061636B0A00204958
:1000B00049200041534320002920002028002047E8
:1000C00000203F004F4B00205A7A7A2E2E2E0A0035
:1000D0007465737420003E2000636F6E666967204C
:1000E00073617665206661696C65640A005B5246DF
:1000F000313264656D6F2E31325F56312E305D00C6
:100100000A417661696C61626C6520636F6D6D6137
:100110006E64733A0A20203C6E6E3E2069202020D7
:1001200020202D20736574206E6F64652049442063
:10013000287374616E64617264206E6F64652069F7
:1001400064732061726520312E2E3330290A2020FD
:100150003C6E3E20622020202020202D20736574DC
:10016000204D487A2062616E64202834203D20347E
:1001700033332C2038203D203836382C2039203D90
:1001800020393135290A20203C6E6E6E6E3E206F7C
:100190002020202D206368616E676520667265717E
:1001A00075656E6379206F66667365742077697410
:1001B00068696E207468652062616E6420286465D9
:1001C0006661756C742031363030290A2020202079
:1001D000202020202020202020202039362E2E33C1
:1001E000393033206973207468652072616E6765E9
:1001F00020737570706F7274656420627920746802
:10020000652052464D3132420A20203C6E6E6E3ED1
:100210002067202020202D20736574206E65747760
:100220006F726B2067726F7570202852464D3132A5
:10023000206F6E6C7920616C6C6F77732032313275
:100240002C2030203D20616E79290A20203C6E3E12
:1002500020632020202020202D2073657420636FD0
:100260006C6C656374206D6F6465202861647661D1
:100270006E6365642C206E6F726D616C6C792030DA
:10028000290A202074202020202020202020202D1A
:100290002062726F616463617374206D61782D7385
:1002A000697A652074657374207061636B65742C62
:1002B00020726571756573742061636B0A20202E4E
:1002C0002E2E2C3C6E6E3E2061202D2073656E64B8
:1002D0002064617461207061636B657420746F20A9
:1002E0006E6F6465203C6E6E3E2C20726571756584
:1002F00073742061636B0A20202E2E2E2C3C6E6EB0
:100300003E2073202D2073656E642064617461202B
:100310007061636B657420746F206E6F6465203C40
:100320006E6E3E2C206E6F2061636B0A20203C6E47
:100330003E20712020202020202D20736574207104
:1003400075696574206D6F6465202831203D2064D7
:100350006F6E2774207265706F7274206261642002
:100360007061636B657473290A20203C6E3E2078AF
:100370002020202020202D20736574207265706F4E
:100380007274696E6720666F726D61742028303AEE
:1003900020646563696D616C2C20313A2068657852
:1003A0002C20323A206865782B6173636969290AC9
:1003B0002020313233207A2020202020202D20744C
:1003C0006F74616C20706F77657220646F776E2C2C
:1003D000206E656564732061207265736574207496
:1003E0006F20737461727420757020616761696E2B
:1003F0000A52656D6F746520636F6E74726F6C2046
:10040000636F6D6D616E64733A0A20203C686368A7
:10041000693E2C3C68636C6F3E2C3C616464723EA8
:100420002C3C636D643E206620202020202D204639
:1004300053323020636F6D6D616E6420283836381A
:10044000204D487A290A20203C616464723E2C3C8D
:100450006465763E2C3C6F6E3E206B202020202071
:100460002020202020202020202D204B414B5520D3
:10047000636F6D6D616E642028343333204D487A8C
:10048000290A0043757272656E7420636F6E666927
:100490006775726174696F6E3A0A000104020003A5
:1004A00002048A050506C30B2019421E2C25802E46
:1004B000882F2D370038003C8F3D106F2000000042
:1004C0000000240027002A0000000000250028006A
:1004D0002B0000000000230026002900040404046F
:1004E00004040404020202020202030303030303DE
:1004F00001020408102040800102040810200102BB
:100500000408102000000007000201000003040698
:100510000000000000000000871111241FBECFEF73
:10052000D8E0DEBFCDBF11E0A0E0B1E0E4E7F4E247
:1005300002C005900D92A233B107D9F712E0A2E3F1
:10054000B1E001C01D92AE39B107E1F715E0CAE193
:10055000D5E004C02297FE010E943412C831D107B1
:10056000C9F70E94C60F0C9438120C940000DF9259
:10057000EF92FF920F931F937B018C01FB01099572
:10058000D82EC8010196F7010995982F8D2D1F913E
:100590000F91FF90EF90DF9008951F93182F809197
:1005A00035018370E9F0812F90E024E095958795DF
:1005B0002A95E1F78F70682F605D6A330CF0695FF0
:1005C0008CE792E00E946B0E812F8F70682F605D28
:1005D0006A330CF0695F8CE792E00E946B0E08C0F2
:1005E0008CE792E0612F70E04AE050E00E943A0F01
:1005F0001F910895682F8CE792E00E946B0E08957A
:100600001F93CF93DF93EC01FE01219614911123E8
:1006100049F01A3019F48DE00E94FA02812F0E94ED
:10062000FA02F2CFDF91CF911F91089581E080937C
:100630003401E2E3F1E02FEF3FEF81912827822F91
:1006400082958227082E869586958025082E869588
:1006500080258770022E232F869507948795302D4D
:100660002827069487953025282781E0E034F8076D
:1006700021F73183208320913201F999FECF1FBAEF
:1006800080E290E092BD81BD20BD0FB6F894FA9A49
:10069000F99A0FBEFC01EE5EFE4FE081F999FECFA4
:1006A0001FBA92BD81BDE0BD0FB6F894FA9AF99ACF
:1006B0000FBE01968033910569F70E94EF078823EA
:1006C00019F00E946F0B089589ED90E00E940003DD
:1006D00008958DEE90E00E940003089580E091E07F
:1006E0000E94000383E894E00E9400030E946F0BC5
:1006F00008951F93182F89E061E00E94C60C89E0DD
:10070000612F0E94050D1F910895DF92EF92FF92D5
:100710000F931F93082F80538A30D8F480918B0158
:1007200090918C019C0153E0220F331F5A95E1F701
:10073000880F991F280F391F20533040802F992789
:1007400087FD9095280F391F30938C0120938B01E2
:10075000E3C10C3281F490918D01963408F0D8C138
:10076000E92FF0E0EB5BFE4F80918B0180839F5F70
:1007700090938D01CDC1802F81568A3148F586ED49
:1007800090E00E94000310E010C0E12FF0E0EB5B6E
:10079000FE4F60818CE792E070E04AE050E00E94FA
:1007A0003A0F8CE20E94FA021F5F80918D011817A8
:1007B00060F360918B0170918C018CE792E04AE0CC
:1007C00050E00E943A0F8CE792E0602F0E94930E57
:1007D0000E3391F580918D01E82FF0E0EB5BFE4F39
:1007E00090918B0190838F5F80938D018091470161
:1007F00090914501943011F461E009C0983011F4F2
:1008000062E005C0993011F060E001C063E0209122
:10081000360130913701409146010E948607409190
:100820008D0144508091480169E471E00E946E0797
:1008300082E00E9436072EC101320CF467C1802F7E
:10084000992787FD9095A92FB92FFC01E156F0401B
:10085000EA31F10508F058C1EC5CFF4FEE0FFF1FC5
:100860000590F491E02D099490918B019F718091F6
:100870003201807E980F9093320128C080918B01C5
:10088000843011F421E009C0883011F422E005C061
:10089000893011F020E001C023E0822F90E0909396
:1008A0008C0180938B01892B09F430C12295220F92
:1008B000220F207C809132018F73280F2093320108
:1008C00080E496E090933701809336010E941603EE
:1008D0001DC120918B0130918C01C901805690403F
:1008E000805E9E4030F430933701209336010E94A1
:1008F0001603D0903201D294D694D69433E0D3220A
:1009000082E0D81651F043E0D41649F081E0D816C1
:1009100011F060E005C06BE203C066E501C06AE566
:1009200070E080E090E020EA36E841E050E00E948C
:10093000DD117B018C01609136017091370180E0FF
:1009400090E029E130E040E050E00E94DD112D2DE3
:1009500030E040E050E00E94DD11E60EF71E081F77
:10096000191FC801B70120E137E240E050E00E94C2
:1009700010128CE792E0B9014AE050E00E943A0F71
:100980008EE20E94FA02C801B70120E137E240E09E
:1009900050E00E9410127B018C01CB0168EE73E0E5
:1009A0000E94FC11862F805D0E94FA02C70164E656
:1009B00070E00E94FC11CB016AE070E00E94FC1123
:1009C000805D0E94FA02C7016AE070E00E94FC119B
:1009D000CB016AE070E00E94FC11805D0E94FA0287
:1009E000C7016AE070E00E94FC11805D0E94FA027B
:1009F0008CE792E060E071E00E94B30F87C08091C5
:100A00008B018093330162CF90918B019170990F8C
:100A1000990F809135018B7F62C081E680934201FE
:100A200082E4809343011092440190918E0120E072
:100A300030E0F901EB5BFE4F892F820F80832F5F3F
:100A40003F4F22343105A9F780ED90E00E9400036A
:100A500080918E010E94CD0280918E018F5F8093E4
:100A60008E0154C00093420180918D018093430117
:100A700080918B018093440149C080E062E040E0B6
:100A800020E436E00E94860781E00E94790380E03E
:100A90000E9479030E94EF0739C080E061E0EFCF48
:100AA00080918B0190918C018B37910579F587ECC2
:100AB00090E00E9400038CE792E00E94371180E0F2
:100AC0000E942E07F8940E94090720C090918B0184
:100AD0009170990F990F990F80913501877F892B1C
:100AE00080933501F3CE90918B0193708091350105
:100AF0008C7FF5CF0E9469030E946F0B07C0809125
:100B00008B010E94790302C00E946E0310928D0136
:100B100010928C0110928B011F910F91FF90EF901A
:100B2000DF9008951F93CF93DF938CE792E00E94AC
:100B3000DD10892B31F08CE792E00E940E110E94AB
:100B400085030E945B07882309F4D1C010919301AB
:100B500080918F0190919001892B41F481E00E9456
:100B6000790384EC90E00E9400030BC08091350172
:100B700083FDF4C081EC90E00E940003153108F081
:100B800014E180913501837019F088E50E94FA0222
:100B900080913301882341F48EEB90E00E940003A2
:100BA000809191010E94CD0280E20E94FA02809120
:100BB00092010E94CD02C0E0D0E00EC080913501CC
:100BC000837019F480E20E94FA02FE01EC56FE4F97
:100BD00080810E94CD022196C11780F38BEB90E0BB
:100BE0000E94000380913501837029F08091E20119
:100BF0000E94CD020EC06091E20170E0759567958C
:100C0000709561957F4F8CE792E04AE050E00E943A
:100C10009D0F88EB90E00E9400038CE792E00E9419
:100C2000730E80913501837090E00297ACF183EBF5
:100C300090E00E94000380913301882321F48EEA22
:100C400090E00E9400038091920186FD02C08CE337
:100C500001C08EE30E94FA02809192018F71805C44
:100C60000E94FA02C0E0D0E011C080E20E94FA02C5
:100C7000FE01EF56FE4F9381892F80528F3510F081
:100C80008EE201C0892F0E94FA022196C11768F3F3
:100C90008CE792E00E94730E80918F0190919001F9
:100CA000892B29F581E00E9479038091920185FFCB
:100CB0001BC08091920187FD17C08091350182FD94
:100CC00013C085EA90E00E9400038091920186FFA4
:100CD00002C080E804C0809192018F71806C60E056
:100CE00070E040E00E94550780E00E947903809107
:100CF0004201882381F10E945807882361F181E035
:100D00000E94790380EA90E00E9400036091430111
:100D10008CE792E070E04AE050E00E943A0F8CE9E4
:100D200090E00E94000380914201813611F080E042
:100D300001C080E290914401992311F09064892BC5
:100D400065E471E0409143010E9455071092420111
:100D500080E00E94790380E00E947903DF91CF91C7
:100D60001F91089581E00E94790364E670E080E0BD
:100D700090E00E94AD0D8CE792E040E051EE60E023
:100D800070E00E945F108CE792E00E94730E0E9458
:100D900069030E94EF07882391F020E230E0F9997F
:100DA000FECF32BD21BDF89A80B5F901EE5EFE4F4F
:100DB00080832F5F3F4F2033310589F71CC080E1CE
:100DC000E2E3F1E0DF011D928A95E9F78FE4809379
:100DD000320182ED8093330180E496E090933701F5
:100DE00080933601809135018860809335010E949F
:100DF00016030E94EF070E946F0B0E946E0368EEBD
:100E000073E080E090E00E94AD0D80E00E947903E5
:100E10000895EAE7F0E0908180818F77808383B73F
:100E2000817F846083BFF89483B7816083BF85B777
:100E3000806685BF85B78F79806485BF78948895F3
:100E400083B78E7F83BF90937A0008959C01F999B0
:100E5000FECF32BD21BDF89A80B5089590E0882379
:100E600009F491E0892F0E94C70808951F93182F55
:100E700016C01123A1F093B7133011F484E005C01C
:100E8000123011F080E001C08CE0917F892B83BF8C
:100E900083B7816083BF889583B78E7F83BF0E94AD
:100EA000BF08882331F71F9108950E94FB09089518
:100EB0000E94AE08089581E991E00E94890990930B
:100EC000900180938F0180918F019091900120E09B
:100ED0008F5F9F4F09F021E0822F08950F931F939A
:100EE000CF93DF93182FEB01042F02C00E945B0702
:100EF0000E94AE088823D1F3812FBE01402F0E94AB
:100F0000FB09DF91CF911F910F910895BF92CF926E
:100F1000DF92EF92FF920F931F93CF93DF93C82E30
:100F2000D62EB42EE90182E0681751F083E06817ED
:100F300049F081E0681711F060E005C06BE203C082
:100F400066E501C06AE570E080E090E020E836E9FF
:100F500048E950E00E94DD117B018C016D2D70E0AD
:100F600080E090E024EC39E040E050E00E94DD11A8
:100F70009E0140E050E00E94DD11E60EF71E081FC2
:100F8000191FC801B7010E949108B092DE018C2D93
:100F90008F718093DF0164E170E080E090E00E9457
:100FA000AD0D8091DF01882341F080E06EEB7AE0A7
:100FB00043E050E00E94360C03C080E00E94590CD0
:100FC0000E94D208C092D9018C2DDF91CF911F9140
:100FD0000F91FF90EF90DF90CF90BF9008950F9307
:100FE0001F934FEF5FEF20E230E0F999FECF32BD63
:100FF00021BDF89A80B54827842F82958427082E32
:10100000869586958025082E869580258770042EE6
:10101000452F869507948795502D482706948795E8
:10102000502548272F5F3F4F2033310509F0DDCF92
:10103000452B09F02FC0F999FECF82E290E092BDD6
:1010400081BDF89A80B5813029F5F999FECF80E20B
:1010500090E092BD81BDF89A00B5F999FECF81E28A
:1010600090E092BD81BDF89A10B584E290E066E20E
:1010700077E00E94B7029C01602F70E046E0759512
:1010800067954A95E1F7802F412F0E948607802FB0
:101090008F7101C080E01F910F91089598E20EC0FA
:1010A000E8982A981EBC0DB407FEFDCF8EB51EBC75
:1010B0000DB407FEFDCF8EB52A9AE89AE8982A98D3
:1010C0009EBD0DB407FEFDCF8EB51EBC0DB407FE50
:1010D000FDCF8EB52A9AE89A807511F70895282FCA
:1010E000E8982A9881E08EBD0DB407FEFDCF8EB53D
:1010F0001EBC0DB407FEFDCF9EB52A9AE89AE8986B
:101100002A9881E88EBD0DB407FEFDCF8EB5937E83
:10111000922B9EBD0DB407FEFDCF8EB52A9AE89A9C
:10112000089522E0660F771F881F991F2A95D1F72F
:1011300029E03DE340E050E00E94101286E0220FDB
:10114000331F441F551F8A95D1F72093DA0130933E
:10115000DB014093DC015093DD0108958091E501AE
:10116000853059F48091E601882339F484E0809336
:10117000E5010E946F0881E0089580E00895809164
:10118000E50190E084300CF491E0892F08958823E4
:1011900011F484E001C080E00E946F0884E0809335
:1011A000E50108952A9A229A2A9A84B18C6284B918
:1011B00080E58CBD8DB581608DBD3FEA2AEA9FE256
:1011C000E8982A983EBD0DB407FEFDCF8EB52EBD22
:1011D0000DB407FEFDCF8EB52A9AE89AE8982A98B2
:1011E0009EBD0DB407FEFDCF8EB51EBC0DB407FE2F
:1011F000FDCF8EB52A9AE89A8A3A11F73FEA25E59B
:101200009FE2E8982A983EBD0DB407FEFDCF8EB54B
:101210002EBD0DB407FEFDCF8EB52A9AE89AE89848
:101220002A989EBD0DB407FEFDCF8EB51EBC0DB431
:1012300007FEFDCF8EB52A9AE89A853511F7EBE9BE
:10124000F4E084918823A1F03196949131978068DD
:10125000E8982A988EBD0DB407FEFDCF8EB59EBDD1
:101260000DB407FEFDCF8EB52A9AE89A3296E9CFE3
:101270009091DE01E8982A9880EB8EBD0DB407FEB0
:10128000FDCF8EB59EBD0DB407FEFDCF8EB52A9A5B
:10129000E89A2091DA013091DB014091DC01509114
:1012A000DD01E8982A9887E88EBD0DB407FEFDCFD2
:1012B0008EB5CA01AA27BB278EBD0DB407FEFDCF90
:1012C0008EB52A9AE89AE8982A9888E88EBD0DB4D7
:1012D00007FEFDCF8EB5BB27A52F942F832F8EBD84
:1012E0000DB407FEFDCF8EB52A9AE89AE8982A98A1
:1012F00089E88EBD0DB407FEFDCF8EB52EBD0DB4B1
:1013000007FEFDCF8EB52A9AE89A84E08093E50126
:101310000895AC018091E501843021F0853009F019
:1013200066C032C010929301809193018093E601D0
:101330002091DE018FEF9FEF8227282F229528270B
:10134000022E269526952025022E269520252770EB
:10135000082E892F269507942795902D822706948D
:101360002795902582279093E1018093E001509387
:10137000E4014093E30185E08093E5010E944E087B
:1013800080E10E946F0833C0809193012091E601B3
:1013900090E0049630E08217930724F08091E601F4
:1013A000883428F184E08093E5010E946F088091E1
:1013B0009301833430F081E090E09093E1018093D9
:1013C000E0018091920186FF0DC02091DF012F3155
:1013D00049F08091920190E08F71907030E0821717
:1013E000930729F42091E0013091E10102C02FEF31
:1013F0003FEFC9010895982F4093930120E030E01A
:1014000050E00AC0F901EC56FE4FDB01A20FB31FFA
:101410008C9180832F5F3F4F241735079CF396FDF7
:1014200004C0907E8091DF01980F909392012091EB
:10143000DE018FEF9FEF8227282F22952827022E8B
:10144000269526952025022E269520252770082EE4
:10145000892F269507942795902D82270694279506
:10146000902582279093900180938F019091930112
:101470008EEF891B8093E5010E944E088CE00E944C
:101480006F08E8982A9885EA8EBD0DB407FEFDCF57
:101490008EB51EBC0DB407FEFDCF8EB52A9AE89A14
:1014A0004091E3015091E40168E230E861C0E898BE
:1014B0002A986EBD0DB407FEFDCF8EB51EBC0DB4CF
:1014C00007FEFDCF8EB52A9AE89A87FD51C080911C
:1014D000E50187FF2DC0209193018091E5019927B7
:1014E00087FD9095FA01E20FF11DE80FF91F2381A6
:1014F0008091E0019091E1018227782F7295782701
:10150000072E769576957025072E7695702577703F
:10151000082E892F769507947795902D8727069426
:101520007795902587279093E1018093E0010DC086
:101530008091E501882321F0813029F02AEA05C055
:101540002091E00102C02091E101E8982A983EBD77
:101550000DB407FEFDCF8EB52EBD0DB407FEFDCF39
:101560008EB52A9AE89A8091E5018F5F8093E50114
:101570008091E50183300CF49ACF08958091E501C4
:10158000853009F07DC0E8982A9884E28EBD0DB4BC
:1015900007FEFDCF8EB51EBC0DB407FEFDCF8EB588
:1015A0002A9AE89A8093E201789448E2E8982A9887
:1015B0004EBD0DB407FEFDCF8EB51EBC0DB407FEAB
:1015C000FDCF8EB52A9AE89A807581F38091E60165
:1015D000882371F48091E601E091E301F091E40148
:1015E000E80FF11D9091DE0190838F5F8093E601FB
:1015F000E8982A981EBC0DB407FEFDCF8EB51EBC20
:101600000DB407FEFDCF2EB52A9AE89A8091E60127
:10161000E091E301F091E401E80FF11D20838F5F79
:101620008093E6018091E0019091E1018227282FCB
:1016300022952827022E269526952025022E2695CE
:1016400020252770082E892F269507942795902D01
:10165000822706942795902582279093E101809315
:10166000E001809193012091E60190E0049630E042
:10167000821793075CF18091E601883438F596CFA4
:10168000E8982A9888E28EBD0DB407FEFDCF8EB58E
:101690001EBC0DB407FEFDCF8EB52A9AE89A83FFD3
:1016A00015C084E08093E5010E946F08E8982A98AD
:1016B00085EA8EBD0DB407FEFDCF8EB580E88EBDE8
:1016C0000DB407FEFDCF8EB52A9AE89A08959C01C5
:1016D000F999FECF32BD21BDF89A80B50895CF9219
:1016E000DF92EF92FF920F931F93CF93DF93F999BD
:1016F000FECF80E290E092BD81BDF89A00B5F999E5
:10170000FECF83E290E092BD81BDF89A10B584E2ED
:1017100090E067E67BE00E94B7026C018CE792E004
:1017200060E20E946B0E602F6F71605C8CE792E04C
:101730000E946B0E8CE792E065E071E00E94B00FB2
:10174000C02FD0E0BE016F7170708CE792E04AE06C
:1017500050E00E949D0F012F10E0E4E0EE2EF12CEE
:10176000E022F12202FF05C08CE792E06AE20E94CB
:101770006B0E8CE792E068E071E00E94B00FF9997F
:10178000FECF81E290E092BD81BDF89A60B58CE712
:1017900092E04AE050E00E944B0F8CE792E06BE051
:1017A00071E00E94B00F76E0D595C7957A95E1F784
:1017B000C13019F461EB71E00CC0C23019F464E679
:1017C00073E007C0C33019F060E070E002C063E965
:1017D00073E08CE792E04AE050E00E949D0F8CE7B6
:1017E00092E06FE071E00E94B00FEF2831F08CE7DB
:1017F00092E064E171E00E94B00F80E4C81686E0D8
:10180000D80669F08CE792E068E171E00E94B00FC1
:101810008CE792E0B6014AE050E00E943A0F03FFE5
:1018200006C08CE792E06BE171E00E94B00FE80126
:10183000C370D070209769F08CE792E06FE171E09F
:101840000E94B00F8CE792E0BE014AE050E00E9497
:101850009D0F8CE792E00E94730EDF91CF911F9154
:101860000F91FF90EF90DF90CF900895823000F5B8
:10187000E82FF0E0EE0FFF1FE951FE4F7183608308
:10188000882319F08130A1F408C0809169008C7F11
:10189000842B80936900E89A089580916900440F31
:1018A000551F440F551F837F842B80936900E99A4D
:1018B0000895823080F4882319F0813021F402C029
:1018C000E89801C0E998E82FF0E0EE0FFF1FE9511A
:1018D000FE4F1182108208951F920F920FB60F9241
:1018E00011242F933F934F935F936F937F938F9325
:1018F0009F93AF93BF93EF93FF938091E7019091F4
:10190000E801892B29F0E091E701F091E8010995C0
:10191000FF91EF91BF91AF919F918F917F916F91C7
:101920005F914F913F912F910F900FBE0F901F909D
:1019300018951F920F920FB60F9211242F933F9379
:101940004F935F936F937F938F939F93AF93BF93C7
:10195000EF93FF938091E9019091EA01892B29F09F
:10196000E091E901F091EA010995FF91EF91BF91B2
:10197000AF919F918F917F916F915F914F913F9127
:101980002F910F900FBE0F901F901895CF93DF935C
:10199000482F50E0CA0180519B4FFC0134914452C2
:1019A0005B4FFA018491882369F190E0880F991FB9
:1019B000FC01E254FB4FA591B491FC01E853FB4FAD
:1019C000C591D491662351F42FB7F8948C91932F3D
:1019D000909589238C93888189230BC0623061F4B0
:1019E0002FB7F8948C91932F909589238C938881AD
:1019F000832B88832FBF06C09FB7F8948C91832BCD
:101A00008C939FBFDF91CF910895482F50E0CA017A
:101A10008C5F9A4FFC012491CA0180519B4FFC01BD
:101A2000949144525B4FFA013491332309F440C03E
:101A3000222351F1233071F0243028F42130A1F019
:101A4000223011F514C02630B1F02730C1F0243017
:101A5000D9F404C0809180008F7703C0809180000A
:101A60008F7D8093800010C084B58F7702C084B5CD
:101A70008F7D84BD09C08091B0008F7703C08091B5
:101A8000B0008F7D8093B000E32FF0E0EE0FFF1FDA
:101A9000E853FB4FA591B4912FB7F894662321F436
:101AA0008C919095892302C08C91892B8C932FBFA8
:101AB00008951F920F920FB60F9211242F933F9308
:101AC0004F935F936F937F938F939F93AF93BF9346
:101AD0002091EF013091F0014091F1015091F2011C
:101AE0007091F301DA01C9010296A11DB11D672FA2
:101AF0006A5F6D3730F06D57DA01C9010396A11D99
:101B0000B11D6093F3018093EF019093F001A093D6
:101B1000F101B093F2018091EB019091EC01A09161
:101B2000ED01B091EE010196A11DB11D8093EB0175
:101B30009093EC01A093ED01B093EE01BF91AF91B2
:101B40009F918F917F916F915F914F913F912F91D5
:101B50000F900FBE0F901F9018959B01AC017FB79F
:101B6000F8948091EB019091EC01A091ED01B0917E
:101B7000EE0166B5A89B05C06F3F19F00196A11D47
:101B8000B11D7FBFBA2FA92F982F8827860F911DCF
:101B9000A11DB11D63E0880F991FAA1FBB1F6A9585
:101BA000D1F7BC012DC0FFB7F8948091EB01909163
:101BB000EC01A091ED01B091EE01E6B5A89B05C046
:101BC000EF3F19F00196A11DB11DFFBFBA2FA92F3C
:101BD000982F88278E0F911DA11DB11DE3E0880F5E
:101BE000991FAA1FBB1FEA95D1F7861B970B885E2A
:101BF0009340C8F2215030404040504068517C4FE3
:101C0000211531054105510571F60895789484B583
:101C1000826084BD84B5816084BD85B5826085BDE8
:101C200085B5816085BDEEE6F0E0808181608083CE
:101C3000E1E8F0E0108280818260808380818160B1
:101C40008083E0E8F0E0808181608083E1EBF0E078
:101C5000808184608083E0EBF0E08081816080831C
:101C6000EAE7F0E080818460808380818260808305
:101C70008081816080838081806880831092C10030
:101C80000895CF92DF92EF92FF920F931F93CF931D
:101C9000DF937C016B018A01C0E0D0E00FC0D60168
:101CA0006D916D01D701ED91FC910190F081E02DD6
:101CB000C7010995C80FD91F015010400115110522
:101CC00071F7CE01DF91CF911F910F91FF90EF90AF
:101CD000DF90CF900895DC01ED91FC910190F081AF
:101CE000E02D09950895EF92FF920F931F938C01B9
:101CF000DC01ED91FC910190F081E02D6DE0099502
:101D00007C01D801ED91FC910190F081E02DC8019A
:101D10006AE009959C012E0D3F1DC9011F910F918D
:101D2000FF90EF900895EF92FF920F931F937C0125
:101D3000DC01ED91FC910190F081E02D09958C0181
:101D4000C7010E94730E080F191FC8011F910F9140
:101D5000FF90EF900895CF93DF93EC01611571052B
:101D600019F420E030E00FC0DB010D900020E9F70E
:101D70001197A61BB70BE881F9810280F381E02D52
:101D8000AD0109959C01C901DF91CF9108954F9252
:101D90005F927F928F929F92AF92BF92CF92DF928B
:101DA000EF92FF920F931F93DF93CF93CDB7DEB7E0
:101DB000A1970FB6F894DEBF0FBECDBF2C01742ED5
:101DC000CB01223008F42AE019A231E2C32ED12C33
:101DD000CC0EDD1E822E9924AA24BB24672D752FDC
:101DE000A50194010E94101279018A01C801B7016E
:101DF000A50194010E94DD11472D461B0894C108DE
:101E0000D1084A3014F4405D01C0495CF6014083BA
:101E1000E114F1040105110521F07E2C5F2DC801AC
:101E2000DDCFC201B6010E94AB0EA1960FB6F894A9
:101E3000DEBF0FBECDBFCF91DF911F910F91FF90FD
:101E4000EF90DF90CF90BF90AF909F908F907F905A
:101E50005F904F900895DC012115310541F4ED911B
:101E6000FC910190F081E02D642F099508950E9466
:101E7000C70E0895EF92FF920F931F939A017B0173
:101E800000E010E0B801A7010E942B0F1F910F91F5
:101E9000FF90EF900895EF92FF920F931F939A0196
:101EA000E62EFF2400E010E0B801A7010E942B0FEE
:101EB0001F910F91FF90EF900895CF92DF92EF92D4
:101EC000FF920F931F93CF93DF93EC016A017B0185
:101ED0002115310541F4E881F9810190F081E02D6F
:101EE000642F09951FC02A303105D1F477FF17C040
:101EF000E881F9810190F081E02D6DE209958C0176
:101F000044275527BA014C195D096E097F09CE0196
:101F10002AE00E94C70E9801280F391F04C02AE04A
:101F20000E94C70E9C01C901DF91CF911F910F91B3
:101F3000FF90EF90DF90CF900895EF92FF920F9374
:101F40001F937B019A010027F7FC0095102FB80121
:101F5000A7010E945D0F1F910F91FF90EF900895D0
:101F60000E94AB0E0895EF92FF920F931F937C0196
:101F70000E94AB0E8C01C7010E94730E080F191F3F
:101F8000C8011F910F91FF90EF900895CF93DF93B9
:101F90000E94060E0E94B206C1E1D0E10E949205A5
:101FA0002097E1F30E941110F9CF08951F920F922C
:101FB0000FB60F9211242F933F934F938F939F93BC
:101FC000EF93FF938091C00082FD1DC04091C60039
:101FD00020913402309135022F5F3F4F2F733070C4
:101FE00080913602909137022817390771F0E091FD
:101FF0003402F0913502EC50FE4F408330933502AD
:102000002093340202C08091C600FF91EF919F910E
:102010008F914F913F912F910F900FBE0F901F9076
:102020001895E0918802F0918902E05CFF4F819160
:10203000919120813181821B930B8F739070892B3A
:1020400011F00E94D50F08951F920F920FB60F92B4
:1020500011242F933F938F939F93EF93FF9320919E
:1020600078023091790280917A0290917B02281750
:10207000390731F48091C1008F7D8093C10014C075
:10208000E0917A02F0917B02E85CFD4F2081809123
:102090007A0290917B0201968F73907090937B02ED
:1020A00080937A022093C600FF91EF919F918F91C8
:1020B0003F912F910F900FBE0F901F901895AF92E8
:1020C000BF92DF92EF92FF920F931F93CF93DF9314
:1020D000EC017A018B01DD24D39491E0A92EB12C7F
:1020E000EC89FD89DD2069F0C50108A002C0880FD8
:1020F000991F0A94E2F7808360E874E88EE190E02B
:1021000005C0108260E472E48FE090E0A8019701BE
:102110000E94101221503040404050405695479543
:102120003795279580E12030380720F0DD2011F029
:10213000DD24D6CFE889F9893083EA89FB892083B9
:1021400019A2EE89FF89408121E030E0C9010C8CA1
:1021500002C0880F991F0A94E2F7482B4083EE894A
:10216000FF894081C9010D8C02C0880F991F0A9414
:10217000E2F7482B4083EE89FF894081C9010E8C2C
:1021800002C0880F991F0A94E2F7482B4083EE891A
:10219000FF8980810F8C02C0220F331F0A94E2F75F
:1021A000209528232083DF91CF911F910F91FF90DD
:1021B000EF90DF90BF90AF900895DC011C96ED91F9
:1021C000FC911D97E05CFF4F2191319180819181BD
:1021D000281B390B2F733070C9010895DC011C9640
:1021E000ED91FC911D97E05CFF4F20813181E0541F
:1021F000F040DF01AE5BBF4F8D919C911197281786
:10220000390719F42FEF3FEF07C08D919C91E80F2C
:10221000F91F8081282F30E0C9010895DC011C9648
:10222000ED91FC911D97E05CFF4F20813181E054DE
:10223000F040DF01AE5BBF4F8D919C911197281745
:10224000390719F42FEF3FEF10C08D919C91119732
:10225000E80FF91F20818D919C91119701968F7342
:10226000907011969C938E9330E0C9010895DC0123
:1022700091968C919197882339F05496ED91FC9129
:102280005597808186FFF9CF91961C920895CF9340
:10229000DF93EC01EE85FF85E05CFF4F208131810B
:1022A000E054F0402F5F3F4F2F733070DF01AE5B83
:1022B000BF4F8D919C91119728173907D1F3E05C9E
:1022C000FF4F80819181E054F040E80FF91F608357
:1022D000EE85FF85E05CFF4F31832083EE89FF8927
:1022E000208181E090E00F8C02C0880F991F0A9432
:1022F000E2F7282B208381E089A3EC89FD89808186
:102300008064808381E090E0DF91CF910895109206
:102310007F0210927E0288EE93E0A0E0B0E080930E
:10232000800290938102A0938202B093830286E29E
:1023300091E090937D0280937C0284EF91E09093F2
:1023400089028093880288E392E090938B028093C5
:102350008A0285EC90E090938D0280938C0284EC4D
:1023600090E090938F0280938E0280EC90E09093A7
:1023700091028093900281EC90E09093930280937D
:10238000920282EC90E0909395028093940286EC06
:1023900090E0909397028093960284E08093980255
:1023A00083E08093990287E080939A0285E080938E
:1023B0009B0281E080939C020895629FD001739FED
:1023C000F001829FE00DF11D649FE00DF11D929FD1
:1023D000F00D839FF00D749FF00D659FF00D992710
:1023E000729FB00DE11DF91F639FB00DE11DF91F34
:1023F000BD01CF0111240895AA1BBB1B51E107C0E9
:10240000AA1FBB1FA617B70710F0A61BB70B881F84
:10241000991F5A95A9F780959095BC01CD01089513
:10242000A1E21A2EAA1BBB1BFD010DC0AA1FBB1FD8
:10243000EE1FFF1FA217B307E407F50720F0A21B4A
:10244000B30BE40BF50B661F771F881F991F1A94B7
:1024500069F760957095809590959B01AC01BD01E1
:10246000CF010895EE0FFF1F0590F491E02D099420
:04247000F894FFCF0E
:10247400204D487A00206900206700204020002079
:102484004D487A0020633100206F00207131002014
:102494007800000000004711410EDD100E11EE100F
:0224A4003711EE
:00000001FF
