:100000000C948B020C94170E0C94440E0C94B302B7
:100010000C94B3020C94B3020C94B3020C94B3028C
:100020000C94B3020C94B3020C94B3020C94B3027C
:100030000C94B3020C94B3020C94B3020C94B3026C
:100040000C94660C0C94B3020C9406100C9454108F
:100050000C94B3020C94B3020C94B3020C94B3024C
:100060000C94B3020C94B30230053C0402058405E1
:1000700084053B05FD048205320482054B057D05A0
:1000800082058205670482056405840530050B0539
:10009000820578058405710582054E0520620A00F7
:1000A000202D3E2000202D3E2061636B0A00204958
:1000B00049200041534320002920002028002047E8
:1000C00000203F004F4B00205A7A7A2E2E2E0A0035
:1000D0007465737420003E2000636F6E666967204C
:1000E00073617665206661696C65640A005B5246DF
:1000F000313264656D6F2E31335D000A417661697E
:100100006C61626C6520636F6D6D616E64733A0A39
:1001100020203C6E6E3E206920202020202D207360
:100120006574206E6F646520494420287374616E85
:1001300064617264206E6F6465206964732061720B
:100140006520312E2E3330290A20203C6E3E20625D
:100150002020202020202D20736574204D487A20F7
:1001600062616E64202834203D203433332C2038E3
:10017000203D203836382C2039203D203931352992
:100180000A20203C6E6E6E6E3E206F2020202D20B7
:100190006368616E6765206672657175656E637907
:1001A000206F66667365742077697468696E207461
:1001B00068652062616E64202864656661756C7490
:1001C0002031363030290A202020202020202020F5
:1001D00020202020202039362E2E3339303320693C
:1001E00073207468652072616E6765207375707026
:1001F0006F72746564206279207468652052464D80
:100200003132420A20203C6E6E6E3E206720202054
:10021000202D20736574206E6574776F726B206774
:10022000726F7570202852464D3132206F6E6C7996
:1002300020616C6C6F7773203231322C2030203D7E
:1002400020616E79290A20203C6E3E206320202008
:100250002020202D2073657420636F6C6C6563749F
:10026000206D6F64652028616476616E6365642C1F
:10027000206E6F726D616C6C792030290A202074B9
:10028000202020202020202020202D2062726F613D
:100290006463617374206D61782D73697A6520746D
:1002A000657374207061636B65742C207265717561
:1002B0006573742061636B0A20202E2E2E2C3C6EF9
:1002C0006E3E2061202D2073656E64206461746130
:1002D000207061636B657420746F206E6F6465209D
:1002E0003C6E6E3E2C20726571756573742061637F
:1002F0006B0A20202E2E2E2C3C6E6E3E2073202D5D
:100300002073656E642064617461207061636B6545
:100310007420746F206E6F6465203C6E6E3E2C20DE
:100320006E6F2061636B0A20203C6E3E207120209E
:10033000202020202D20736574207175696574203C
:100340006D6F6465202831203D20646F6E27742016
:100350007265706F727420626164207061636B6596
:100360007473290A20203C6E3E2078202020202013
:10037000202D20736574207265706F7274696E67CA
:1003800020666F726D61742028303A20646563695D
:100390006D616C2C20313A206865782C20323A202F
:1003A0006865782B6173636969290A2020313233CB
:1003B000207A2020202020202D20746F74616C2052
:1003C000706F77657220646F776E2C206E65656440
:1003D00073206120726573657420746F207374617B
:1003E000727420757020616761696E0A52656D6F65
:1003F000746520636F6E74726F6C20636F6D6D61D6
:100400006E64733A0A20203C686368693E2C3C683D
:10041000636C6F3E2C3C616464723E2C3C636D6483
:100420003E206620202020202D204653323020639D
:100430006F6D6D616E642028383638204D487A29FA
:100440000A20203C616464723E2C3C6465763E2C3C
:100450003C6F6E3E206B202020202020202020207A
:10046000202020202D204B414B5520636F6D6D6166
:100470006E642028343333204D487A290A004375AE
:100480007272656E7420636F6E66696775726174EF
:10049000696F6E3A0A00010402000302048A05052E
:1004A00006C30B2019421E2C25802E882F2D3700C5
:1004B00038003C8F3D106F20000000000024002712
:1004C000002A0000000000250028002B000000008A
:1004D0000023002600290004040404040404040288
:1004E00002020202020303030303030102040810D1
:1004F000204080010204081020010204081020009E
:1005000000000700020100000304060000000000D4
:1005100000000000B71111241FBECFEFD8E0DEBFEE
:10052000CDBF11E0A0E0B1E0E4EDF4E202C005903F
:100530000D92A233B107D9F712E0A2E3B1E001C0F6
:100540001D92AE39B107E1F715E0C6E1D5E004C070
:100550002297FE010E946412C431D107C9F70E949C
:10056000F60F0C9468120C940000DF92EF92FF9249
:100570000F931F937B018C01FB010995D82EC801B5
:100580000196F7010995982F8D2D1F910F91FF90DE
:10059000EF90DF9008951F93182F8091350183709D
:1005A000E9F0812F90E024E0959587952A95E1F771
:1005B0008F70682F605D6A330CF0695F8CE792E0A2
:1005C0000E949B0E812F8F70682F605D6A330CF044
:1005D000695F8CE792E00E949B0E08C08CE792E076
:1005E000612F70E04AE050E00E946A0F1F91089569
:1005F000682F8CE792E00E949B0E08951F93CF9383
:10060000DF93EC01FE0121961491112349F01A3079
:1006100019F48DE00E94F802812F0E94F802F2CFB7
:10062000DF91CF911F91089581E080933401E2E33F
:10063000F1E02FEF3FEF81912827822F82958227CB
:10064000082E869586958025082E869580258770AC
:10065000022E232F869507948795302D2827069400
:1006600087953025282781E0E034F80721F731838A
:10067000208320913201F999FECF1FBA80E290E0E9
:1006800092BD81BD20BD0FB6F894FA9AF99A0FBEBB
:10069000FC01EE5EFE4FE081F999FECF1FBA92BDDC
:1006A00081BDE0BD0FB6F894FA9AF99A0FBE019693
:1006B0008033910569F70E94D107882319F00E94C1
:1006C0009F0B089589ED90E00E94FE0208958DEE43
:1006D00090E00E94FE0208958BEF90E00E94FE02DF
:1006E0008EE794E00E94FE020E949F0B08951F93E4
:1006F000182F89E061E00E944E0D89E0612F0E9471
:100700008D0D1F910895DF92EF92FF920F931F932B
:10071000082F80538A30D8F480918B0190918C01FE
:100720009C0153E0220F331F5A95E1F7880F991F60
:10073000280F391F20533040802F992787FD90952F
:10074000280F391F30938C0120938B01E3C10C32A9
:1007500081F490918D01963408F0D8C1E92FF0E032
:10076000EB5BFE4F80918B0180839F5F90938D01A7
:10077000CDC1802F81568A3148F586ED90E00E94E8
:10078000FE0210E010C0E12FF0E0EB5BFE4F608155
:100790008CE792E070E04AE050E00E946A0F8CE241
:1007A0000E94F8021F5F80918D01181760F360911D
:1007B0008B0170918C018CE792E04AE050E00E943E
:1007C0006A0F8CE792E0602F0E94C30E0E3391F502
:1007D00080918D01E82FF0E0EB5BFE4F90918B0153
:1007E00090838F5F80938D018091470190914501A7
:1007F000943011F461E009C0983011F462E005C052
:10080000993011F060E001C063E020913601309131
:100810003701409146010E94680740918D01445084
:100820008091480169E471E00E94500782E00E94D3
:1008300018072EC101320CF467C1802F992787FD5C
:100840009095A92FB92FFC01E156F040EA31F1054E
:1008500008F058C1EC5CFF4FEE0FFF1F0590F491BC
:10086000E02D099490918B019F7180913201807EDF
:10087000980F9093320128C080918B01843011F43D
:1008800021E009C0883011F422E005C0893011F060
:1008900020E001C023E0822F90E090938C018093B0
:1008A0008B01892B09F430C12295220F220F207C65
:1008B000809132018F73280F2093320180E496E0FB
:1008C00090933701809336010E9414031DC120913B
:1008D0008B0130918C01C90180569040805E9E4012
:1008E00030F430933701209336010E941403D090E6
:1008F0003201D294D694D69433E0D32282E0D81633
:1009000051F043E0D41649F081E0D81611F060E0D0
:1009100005C06BE203C066E501C06AE570E080E0F7
:1009200090E020EA36E841E050E00E940D127B01A1
:100930008C01609136017091370180E090E029E1EF
:1009400030E040E050E00E940D122D2D30E040E0FC
:1009500050E00E940D12E60EF71E081F191FC80175
:10096000B70120E137E240E050E00E9440128CE7FE
:1009700092E0B9014AE050E00E946A0F8EE20E94C4
:10098000F802C801B70120E137E240E050E00E94E0
:1009900040127B018C01CB0168EE73E00E942C12A7
:1009A000862F805D0E94F802C70164E670E00E9415
:1009B0002C12CB016AE070E00E942C12805D0E9434
:1009C000F802C7016AE070E00E942C12CB016AE0D5
:1009D00070E00E942C12805D0E94F802C7016AE05C
:1009E00070E00E942C12805D0E94F8028CE792E079
:1009F00060E071E00E94E30F87C080918B018093DB
:100A0000330162CF90918B019170990F990F809172
:100A100035018B7F62C081E68093420182E480933E
:100A200043011092440190918E0120E030E0F901E1
:100A3000EB5BFE4F892F820F80832F5F3F4F223465
:100A40003105A9F780ED90E00E94FE0280918E01B1
:100A50000E94CB0280918E018F5F80938E0154C0E3
:100A60000093420180918D018093430180918B011D
:100A70008093440149C080E062E040E020E436E039
:100A80000E94680781E00E94770380E00E9477035C
:100A90000E94D10739C080E061E0EFCF80918B01E7
:100AA00090918C018B37910579F587EC90E00E944D
:100AB000FE028CE792E00E94671180E00E9410071E
:100AC000F8940E94300820C090918B019170990F8A
:100AD000990F990F80913501877F892B809335017C
:100AE000F3CE90918B019370809135018C7FF5CF7F
:100AF0000E9467030E949F0B07C080918B010E9498
:100B0000770302C00E946C0310928D0110928C0139
:100B100010928B011F910F91FF90EF90DF9008953D
:100B20001F93CF93DF938CE792E00E940D11892BE6
:100B300031F08CE792E00E943E110E9483030E94F4
:100B40003D07882309F4D2C01091930180918F0151
:100B500090919001892B41F481E00E94770384EC0D
:100B600090E00E94FE020BC08091350183FDF5C02C
:100B700081EC90E00E94FE02153108F014E18091B2
:100B80003501837019F088E50E94F80280913301E5
:100B9000882341F48EEB90E00E94FE028091910147
:100BA0000E94CB0280E20E94F802809192018F7134
:100BB0000E94CB02C0E0D0E00EC08091350183706E
:100BC00019F480E20E94F802FE01EC56FE4F80818B
:100BD0000E94CB022196C11780F38BEB90E00E941C
:100BE000FE0280913501837029F08091E2010E941C
:100BF000CB020EC06091E20170E07595679570952B
:100C000061957F4F8CE792E04AE050E00E94CD0F63
:100C100088EB90E00E94FE028CE792E00E94A30E17
:100C200080913501837090E00297ACF183EB90E006
:100C30000E94FE0280913301882321F48EEA90E025
:100C40000E94FE028091920186FD02C08CE301C0E9
:100C50008EE30E94F802809192018F71805C0E9465
:100C6000F802C0E0D0E011C080E20E94F802FE016C
:100C7000EF56FE4F9381892F80528F3510F08EE210
:100C800001C0892F0E94F8022196C11768F38CE7F2
:100C900092E00E94A30E80918F0190919001892B88
:100CA00029F581E00E9477038091920185FF1BC0A6
:100CB0008091920187FD17C08091350182FD13C09C
:100CC00085EA90E00E94FE028091920186FF02C0B8
:100CD00080E804C0809192018F71806C60E070E0C8
:100CE00040E00E94370780E00E9477038091420134
:100CF000882381F10E943A07882361F181E00E94F4
:100D0000770380EA90E00E94FE02609143018CE745
:100D100092E070E04AE050E00E946A0F8CE990E0B7
:100D20000E94FE0280914201813611F080E001C0F4
:100D300080E290914401992311F09064892B65E43D
:100D400071E0409143010E9437071092420180E018
:100D50000E94770380E00E947703DF91CF911F917B
:100D6000089581E00E94770364E670E080E090E0FF
:100D70000E94BA0C8CE792E040E056E960E070E037
:100D80000E948F108CE792E00E94A30E0E946703DE
:100D90000E94D107882391F020E230E0F999FECF3C
:100DA00032BD21BDF89A80B5F901EE5EFE4F808319
:100DB0002F5F3F4F2033310589F71CC080E1E2E30C
:100DC000F1E0DF011D928A95E9F78FE4809332010B
:100DD00082ED8093330180E496E090933701809315
:100DE0003601809135018860809335010E9414039B
:100DF0000E94D1070E949F0B0E946C0368EE73E073
:100E000080E090E00E94BA0C80E00E947703089591
:100E10009C01F999FECF32BD21BDF89A80B50895A5
:100E200090E0882309F491E0892F0E94C608089574
:100E30001F93182F16C01123A1F093B7133011F48C
:100E400084E005C0123011F080E001C08CE0917F99
:100E5000892B83BF83B7816083BF889583B78E7FDB
:100E600083BF0E94BE08882331F71F9108950E9416
:100E70001B0A08950E94AD08089581E991E00E943F
:100E800088099093900180938F0180918F019091B8
:100E9000900120E08F5F9F4F09F021E0822F08959D
:100EA0000F931F93CF93DF93182FEB01042F02C0F2
:100EB0000E943D070E94AD088823D1F3812FBE0117
:100EC000402F0E941B0ADF91CF911F910F9108952F
:100ED000BF92CF92DF92EF92FF920F931F93CF9327
:100EE000DF93C82ED62EB42EE90182E0681751F0A8
:100EF00083E0681749F081E0681711F060E005C0F1
:100F00006BE203C066E501C06AE570E080E090E056
:100F100020E836E948E950E00E940D127B018C017F
:100F20006D2D70E080E090E024EC39E040E050E08E
:100F30000E940D129E0140E050E00E940D12E60E4C
:100F4000F71E081F191FC801B7010E949008B09230
:100F5000DE018C2D8F718093DF0164E170E080E011
:100F600090E00E94BA0C8091DF01882341F080E07C
:100F70006EED7AE043E050E00E94E10D03C080E0B6
:100F80000E94040E0E94D108C092D9018C2DDF91DD
:100F9000CF911F910F91FF90EF90DF90CF90BF9076
:100FA00008950F931F934FEF5FEF20E230E0F99920
:100FB000FECF32BD21BDF89A80B54827842F829597
:100FC0008427082E869586958025082E869580256F
:100FD0008770042E452F869507948795502D4827B6
:100FE00006948795502548272F5F3F4F20333105C2
:100FF00009F0DDCF452B09F02FC0F999FECF82E231
:1010000090E092BD81BDF89A80B5813029F5F999BB
:10101000FECF80E290E092BD81BDF89A00B5F999CB
:10102000FECF81E290E092BD81BDF89A10B584E2D6
:1010300090E068E077E00E94B5029C01602F70E0CC
:1010400046E0759567954A95E1F7802F412F0E94FC
:101050006807802F8F7101C080E01F910F91089564
:10106000EAE7F0E0908180818F77808383B7817F8A
:10107000846083BFF89483B7816083BF85B780663F
:1010800085BF85B78F79806485BF7894889583B74D
:101090008E7F83BF90937A00089598E20EC0E898FF
:1010A0002A981EBC0DB407FEFDCF8EB51EBC0DB434
:1010B00007FEFDCF8EB52A9AE89AE8982A989EBD39
:1010C0000DB407FEFDCF8EB51EBC0DB407FEFDCFDF
:1010D0008EB52A9AE89A807511F70895282FE89816
:1010E0002A9881E08EBD0DB407FEFDCF8EB51EBCE3
:1010F0000DB407FEFDCF9EB52A9AE89AE8982A9883
:1011000081E88EBD0DB407FEFDCF8EB5937E922B88
:101110009EBD0DB407FEFDCF8EB52A9AE89A0895BC
:1011200022E0660F771F881F991F2A95D1F729E0C3
:101130003DE340E050E00E94401286E0220F331F62
:10114000441F551F8A95D1F72093DA013093DB01B4
:101150004093DC015093DD0108958091E5018530D5
:1011600059F48091E601882339F484E08093E50105
:101170000E946E0881E0089580E008958091E50165
:1011800090E084300CF491E0892F0895882311F4C5
:1011900084E001C080E00E946E0884E08093E50155
:1011A00008952A9A229A2A9A84B18C6284B980E599
:1011B0008CBD8DB581608DBD3FEA2AEA9FE2E8983B
:1011C0002A983EBD0DB407FEFDCF8EB52EBD0DB4E1
:1011D00007FEFDCF8EB52A9AE89AE8982A989EBD18
:1011E0000DB407FEFDCF8EB51EBC0DB407FEFDCFBE
:1011F0008EB52A9AE89A8A3A11F73FEA25E59FE2E6
:10120000E8982A983EBD0DB407FEFDCF8EB52EBDE1
:101210000DB407FEFDCF8EB52A9AE89AE8982A9871
:101220009EBD0DB407FEFDCF8EB51EBC0DB407FEEE
:10123000FDCF8EB52A9AE89A853511F7E6E9F4E0F4
:1012400084918823A1F03196949131978068E89831
:101250002A988EBD0DB407FEFDCF8EB59EBD0DB490
:1012600007FEFDCF8EB52A9AE89A3296E9CF909183
:10127000DE01E8982A9880EB8EBD0DB407FEFDCF05
:101280008EB59EBD0DB407FEFDCF8EB52A9AE89AA5
:101290002091DA013091DB014091DC015091DD01B8
:1012A000E8982A9887E88EBD0DB407FEFDCF8EB56D
:1012B000CA01AA27BB278EBD0DB407FEFDCF8EB590
:1012C0002A9AE89AE8982A9888E88EBD0DB407FE15
:1012D000FDCF8EB5BB27A52F942F832F8EBD0DB4C8
:1012E00007FEFDCF8EB52A9AE89AE8982A9889E8F1
:1012F0008EBD0DB407FEFDCF8EB52EBD0DB407FE1D
:10130000FDCF8EB52A9AE89A84E08093E50108958E
:10131000AC018091E501843021F0853009F087C06F
:1013200052C010929301809193018093E601209125
:10133000DE018FEF9FEF8227282F22952827022E8C
:10134000269526952025022E269520252770082EE5
:10135000892F269507942795902D82270694279507
:10136000902582279093E1018093E0015093E4015E
:101370004093E30185E08093E5010E944D08E898E1
:101380002A9885EA8EBD0DB407FEFDCF8EB580E8A4
:101390008EBD0DB407FEFDCF8EB52A9AE89A80E186
:1013A0000E946E08E8982A988EE98EBD0DB407FE5B
:1013B000FDCF8EB582E08EBD0DB407FEFDCF8EB59C
:1013C0002A9AE89A34C0809193012091E60190E036
:1013D000049630E08217930724F08091E601883468
:1013E00030F184E08093E5010E946E082091930122
:1013F0008091E0019091E101892B11F4233418F0E0
:1014000021E030E016C08091920186FF0DC020914E
:10141000DF012F3149F08091920190E08F7190703F
:1014200030E08217930719F420E030E002C02FEF7C
:101430003FEFC9010895982F4093930120E030E0D9
:1014400050E00AC0F901EC56FE4FDB01A20FB31FBA
:101450008C9180832F5F3F4F241735079CF396FDB7
:1014600004C0907E8091DF01980F909392012091AB
:10147000DE018FEF9FEF8227282F22952827022E4B
:10148000269526952025022E269520252770082EA4
:10149000892F269507942795902D822706942795C6
:1014A000902582279093E1018093E0019091930130
:1014B0008EEF891B8093E5010E944D088CE00E940D
:1014C0006E08E8982A9885EA8EBD0DB407FEFDCF18
:1014D0008EB51EBC0DB407FEFDCF8EB52A9AE89AD4
:1014E0004091E3015091E40168E230E861C0E8987E
:1014F0002A986EBD0DB407FEFDCF8EB51EBC0DB48F
:1015000007FEFDCF8EB52A9AE89A87FD51C08091DB
:10151000E50187FF2DC0209193018091E501992776
:1015200087FD9095FA01E20FF11DE80FF91F238165
:101530008091E0019091E1018227782F72957827C0
:10154000072E769576957025072E769570257770FF
:10155000082E892F769507947795902D87270694E6
:101560007795902587279093E1018093E0010DC046
:101570008091E501882321F0813029F02AEA05C015
:101580002091E00102C02091E101E8982A983EBD37
:101590000DB407FEFDCF8EB52EBD0DB407FEFDCFF9
:1015A0008EB52A9AE89A8091E5018F5F8093E501D4
:1015B0008091E50183300CF49ACF08958091E50184
:1015C000853009F08DC0E8982A9885EA8EBD0DB463
:1015D00007FEFDCF8EB580E48EBD0DB407FEFDCFB6
:1015E0008EB52A9AE89AE8982A9884E28EBD0DB4BE
:1015F00007FEFDCF8EB51EBC0DB407FEFDCF8EB528
:101600002A9AE89A8093E201789448E2E8982A9826
:101610004EBD0DB407FEFDCF8EB51EBC0DB407FE4A
:10162000FDCF8EB52A9AE89A807581F38091E60104
:10163000882371F48091E601E091E301F091E401E7
:10164000E80FF11D9091DE0190838F5F8093E6019A
:10165000E8982A981EBC0DB407FEFDCF8EB51EBCBF
:101660000DB407FEFDCF2EB52A9AE89A8091E601C7
:10167000E091E301F091E401E80FF11D20838F5F19
:101680008093E6018091E0019091E1018227282F6B
:1016900022952827022E269526952025022E26956E
:1016A00020252770082E892F269507942795902DA1
:1016B000822706942795902582279093E1018093B5
:1016C000E001809193012091E60190E0049630E0E2
:1016D000821793075CF18091E601883438F596CF44
:1016E000E8982A9888E28EBD0DB407FEFDCF8EB52E
:1016F0001EBC0DB407FEFDCF8EB52A9AE89A83FF73
:1017000015C084E08093E5010E946E08E8982A984D
:1017100085EA8EBD0DB407FEFDCF8EB580E88EBD87
:101720000DB407FEFDCF8EB52A9AE89A08959C0164
:10173000F999FECF32BD21BDF89A80B50895CF92B8
:10174000DF92EF92FF920F931F93CF93DF93F9995C
:10175000FECF80E290E092BD81BDF89A00B5F99984
:10176000FECF83E290E092BD81BDF89A10B584E28D
:1017700090E067E97BE00E94B5026C018CE792E0A3
:1017800060E20E949B0E602F6F71605C8CE792E0BC
:101790000E949B0E8CE792E065E071E00E94E00FF2
:1017A000C02FD0E0BE016F7170708CE792E04AE00C
:1017B00050E00E94CD0F012F10E0E4E0EE2EF12C5E
:1017C000E022F12202FF05C08CE792E06AE20E946B
:1017D0009B0E8CE792E068E071E00E94E00FF999BF
:1017E000FECF81E290E092BD81BDF89A60B58CE7B2
:1017F00092E04AE050E00E947B0F8CE792E06BE0C1
:1018000071E00E94E00F76E0D595C7957A95E1F7F3
:10181000C13019F461EB71E00CC0C23019F464E618
:1018200073E007C0C33019F060E070E002C063E904
:1018300073E08CE792E04AE050E00E94CD0F8CE725
:1018400092E06FE071E00E94E00FEF2831F08CE74A
:1018500092E064E171E00E94E00F80E4C81686E047
:10186000D80669F08CE792E068E171E00E94E00F31
:101870008CE792E0B6014AE050E00E946A0F03FF55
:1018800006C08CE792E06BE171E00E94E00FE80196
:10189000C370D070209769F08CE792E06FE171E03F
:1018A0000E94E00F8CE792E0BE014AE050E00E9407
:1018B000CD0F8CE792E00E94A30EDF91CF911F9194
:1018C0000F91FF90EF90DF90CF9008951F920F92AD
:1018D0000FB60F9211242F933F934F935F936F9303
:1018E0007F938F939F93AF93BF932091EB013091A0
:1018F000EC014091ED015091EE017091EF01DA01A0
:10190000C9010296A11DB11D672F6A5F6D3730F0C6
:101910006D57DA01C9010396A11DB11D6093EF0156
:101920008093EB019093EC01A093ED01B093EE0155
:101930008091E7019091E801A091E901B091EA015D
:101940000196A11DB11D8093E7019093E801A0933A
:10195000E901B093EA01BF91AF919F918F917F917F
:101960006F915F914F913F912F910F900FBE0F900C
:101970001F9018959B01AC017FB7F8948091E70107
:101980009091E801A091E901B091EA0166B5A89BA8
:1019900005C06F3F19F00196A11DB11D7FBFBA2F81
:1019A000A92F982F8827860F911DA11DB11D63E0D7
:1019B000880F991FAA1FBB1F6A95D1F7BC012DC0C4
:1019C000FFB7F8948091E7019091E801A091E901B7
:1019D000B091EA01E6B5A89B05C0EF3F19F001966A
:1019E000A11DB11DFFBFBA2FA92F982F88278E0FD9
:1019F000911DA11DB11DE3E0880F991FAA1FBB1FF8
:101A0000EA95D1F7861B970B885E9340C8F2215068
:101A100030404040504068517C4F21153105410510
:101A2000510571F60895789484B5826084BD84B5BB
:101A3000816084BD85B5826085BD85B5816085BDC9
:101A4000EEE6F0E0808181608083E1E8F0E01082E2
:101A5000808182608083808181608083E0E8F0E023
:101A6000808181608083E1EBF0E08081846080830D
:101A7000E0EBF0E0808181608083EAE7F0E0808144
:101A800084608083808182608083808181608083A4
:101A90008081806880831092C1000895CF93DF9386
:101AA000482F50E0CA0185519B4FFC0134914952A7
:101AB0005B4FFA018491882369F190E0880F991FA8
:101AC000FC01E754FB4FA591B491FC01ED53FB4F92
:101AD000C591D491662351F42FB7F8948C91932F2C
:101AE000909589238C93888189230BC0623061F49F
:101AF0002FB7F8948C91932F909589238C9388819C
:101B0000832B88832FBF06C09FB7F8948C91832BBB
:101B10008C939FBFDF91CF910895482F50E0CA0169
:101B200081509B4FFC012491CA0185519B4FFC01C0
:101B3000949149525B4FFA013491332309F440C028
:101B4000222351F1233071F0243028F42130A1F008
:101B5000223011F514C02630B1F02730C1F0243006
:101B6000D9F404C0809180008F7703C080918000F9
:101B70008F7D8093800010C084B58F7702C084B5BC
:101B80008F7D84BD09C08091B0008F7703C08091A4
:101B9000B0008F7D8093B000E32FF0E0EE0FFF1FC9
:101BA000ED53FB4FA591B4912FB7F894662321F420
:101BB0008C919095892302C08C91892B8C932FBF97
:101BC0000895823000F5E82FF0E0EE0FFF1FE0519E
:101BD000FE4F71836083882319F08130A1F408C01F
:101BE000809169008C7F842B80936900E89A089526
:101BF00080916900440F551F440F551F837F842B2C
:101C000080936900E99A0895823080F4882319F05E
:101C1000813021F402C0E89801C0E998E82FF0E093
:101C2000EE0FFF1FE051FE4F1182108208951F92A8
:101C30000F920FB60F9211242F933F934F935F9300
:101C40006F937F938F939F93AF93BF93EF93FF9384
:101C50008091F0019091F101892B29F0E091F00140
:101C6000F091F1010995FF91EF91BF91AF919F9193
:101C70008F917F916F915F914F913F912F910F9035
:101C80000FBE0F901F9018951F920F920FB60F92D4
:101C900011242F933F934F935F936F937F938F9371
:101CA0009F93AF93BF93EF93FF938091F201909135
:101CB000F301892B29F0E091F201F091F3010995EC
:101CC000FF91EF91BF91AF919F918F917F916F9114
:101CD0005F914F913F912F910F900FBE0F901F90EA
:101CE0001895CF92DF92EF92FF920F931F93CF93AD
:101CF000DF937C016B018A01C0E0D0E00FC0D60108
:101D00006D916D01D701ED91FC910190F081E02D75
:101D1000C7010995C80FD91F0150104001151105C1
:101D200071F7CE01DF91CF911F910F91FF90EF904E
:101D3000DF90CF900895DC01ED91FC910190F0814E
:101D4000E02D09950895EF92FF920F931F938C0158
:101D5000DC01ED91FC910190F081E02D6DE00995A1
:101D60007C01D801ED91FC910190F081E02DC8013A
:101D70006AE009959C012E0D3F1DC9011F910F912D
:101D8000FF90EF900895EF92FF920F931F937C01C5
:101D9000DC01ED91FC910190F081E02D09958C0121
:101DA000C7010E94A30E080F191FC8011F910F91B0
:101DB000FF90EF900895CF93DF93EC0161157105CB
:101DC00019F420E030E00FC0DB010D900020E9F7AE
:101DD0001197A61BB70BE881F9810280F381E02DF2
:101DE000AD0109959C01C901DF91CF9108954F92F2
:101DF0005F927F928F929F92AF92BF92CF92DF922B
:101E0000EF92FF920F931F93DF93CF93CDB7DEB77F
:101E1000A1970FB6F894DEBF0FBECDBF2C01742E74
:101E2000CB01223008F42AE019A231E2C32ED12CD2
:101E3000CC0EDD1E822E9924AA24BB24672D752F7B
:101E4000A50194010E94401279018A01C801B701DD
:101E5000A50194010E940D12472D461B0894C1084C
:101E6000D1084A3014F4405D01C0495CF60140835A
:101E7000E114F1040105110521F07E2C5F2DC8014C
:101E8000DDCFC201B6010E94DB0EA1960FB6F89419
:101E9000DEBF0FBECDBFCF91DF911F910F91FF909D
:101EA000EF90DF90CF90BF90AF909F908F907F90FA
:101EB0005F904F900895DC012115310541F4ED91BB
:101EC000FC910190F081E02D642F099508950E9406
:101ED000F70E0895EF92FF920F931F939A017B01E3
:101EE00000E010E0B801A7010E945B0F1F910F9165
:101EF000FF90EF900895EF92FF920F931F939A0136
:101F0000E62EFF2400E010E0B801A7010E945B0F5D
:101F10001F910F91FF90EF900895CF92DF92EF9273
:101F2000FF920F931F93CF93DF93EC016A017B0124
:101F30002115310541F4E881F9810190F081E02D0E
:101F4000642F09951FC02A303105D1F477FF17C0DF
:101F5000E881F9810190F081E02D6DE209958C0115
:101F600044275527BA014C195D096E097F09CE0136
:101F70002AE00E94F70E9801280F391F04C02AE0BA
:101F80000E94F70E9C01C901DF91CF911F910F9123
:101F9000FF90EF90DF90CF900895EF92FF920F9314
:101FA0001F937B019A010027F7FC0095102FB801C1
:101FB000A7010E948D0F1F910F91FF90EF90089540
:101FC0000E94DB0E0895EF92FF920F931F937C0106
:101FD0000E94DB0E8C01C7010E94A30E080F191F7F
:101FE000C8011F910F91FF90EF900895CF93DF9359
:101FF0000E94130D0E94B106C1E4D0E10E94900539
:102000002097E1F30E944110F9CF08951F920F929B
:102010000FB60F9211242F933F934F938F939F935B
:10202000EF93FF938091C00082FD1DC04091C600D8
:1020300020913402309135022F5F3F4F2F73307063
:1020400080913602909137022817390771F0E0919C
:102050003402F0913502EC50FE4F4083309335024C
:102060002093340202C08091C600FF91EF919F91AE
:102070008F914F913F912F910F900FBE0F901F9016
:102080001895E0918802F0918902E05CFF4F819100
:10209000919120813181821B930B8F739070892BDA
:1020A00011F00E94051008951F920F920FB60F9223
:1020B00011242F933F938F939F93EF93FF9320913E
:1020C00078023091790280917A0290917B022817F0
:1020D000390731F48091C1008F7D8093C10014C015
:1020E000E0917A02F0917B02E85CFD4F20818091C3
:1020F0007A0290917B0201968F73907090937B028D
:1021000080937A022093C600FF91EF919F918F9167
:102110003F912F910F900FBE0F901F901895AF9287
:10212000BF92DF92EF92FF920F931F93CF93DF93B3
:10213000EC017A018B01DD24D39491E0A92EB12C1E
:10214000EC89FD89DD2069F0C50108A002C0880F77
:10215000991F0A94E2F7808360E874E88EE190E0CA
:1021600005C0108260E472E48FE090E0A80197015E
:102170000E944012215030404040504056954795B3
:102180003795279580E12030380720F0DD2011F0C9
:10219000DD24D6CFE889F9893083EA89FB89208359
:1021A00019A2EE89FF89408121E030E0C9010C8C41
:1021B00002C0880F991F0A94E2F7482B4083EE89EA
:1021C000FF894081C9010D8C02C0880F991F0A94B4
:1021D000E2F7482B4083EE89FF894081C9010E8CCC
:1021E00002C0880F991F0A94E2F7482B4083EE89BA
:1021F000FF8980810F8C02C0220F331F0A94E2F7FF
:10220000209528232083DF91CF911F910F91FF907C
:10221000EF90DF90BF90AF900895DC011C96ED9198
:10222000FC911D97E05CFF4F21913191808191815C
:10223000281B390B2F733070C9010895DC011C96DF
:10224000ED91FC911D97E05CFF4F20813181E054BE
:10225000F040DF01AE5BBF4F8D919C911197281725
:10226000390719F42FEF3FEF07C08D919C91E80FCC
:10227000F91F8081282F30E0C9010895DC011C96E8
:10228000ED91FC911D97E05CFF4F20813181E0547E
:10229000F040DF01AE5BBF4F8D919C9111972817E5
:1022A000390719F42FEF3FEF10C08D919C911197D2
:1022B000E80FF91F20818D919C91119701968F73E2
:1022C000907011969C938E9330E0C9010895DC01C3
:1022D00091968C919197882339F05496ED91FC91C9
:1022E0005597808186FFF9CF91961C920895CF93E0
:1022F000DF93EC01EE85FF85E05CFF4F20813181AB
:10230000E054F0402F5F3F4F2F733070DF01AE5B22
:10231000BF4F8D919C91119728173907D1F3E05C3D
:10232000FF4F80819181E054F040E80FF91F6083F6
:10233000EE85FF85E05CFF4F31832083EE89FF89C6
:10234000208181E090E00F8C02C0880F991F0A94D1
:10235000E2F7282B208381E089A3EC89FD89808125
:102360008064808381E090E0DF91CF9108951092A6
:102370007F0210927E0288EE93E0A0E0B0E08093AE
:10238000800290938102A0938202B093830286E23E
:1023900091E090937D0280937C0284EF91E0909392
:1023A00089028093880288E392E090938B02809365
:1023B0008A0285EC90E090938D0280938C0284ECED
:1023C00090E090938F0280938E0280EC90E0909347
:1023D00091028093900281EC90E09093930280931D
:1023E000920282EC90E0909395028093940286ECA6
:1023F00090E0909397028093960284E080939802F5
:1024000083E08093990287E080939A0285E080932D
:102410009B0281E080939C020895629FD001739F8C
:10242000F001829FE00DF11D649FE00DF11D929F70
:10243000F00D839FF00D749FF00D659FF00D9927AF
:10244000729FB00DE11DF91F639FB00DE11DF91FD3
:10245000BD01CF0111240895AA1BBB1B51E107C088
:10246000AA1FBB1FA617B70710F0A61BB70B881F24
:10247000991F5A95A9F780959095BC01CD010895B3
:10248000A1E21A2EAA1BBB1BFD010DC0AA1FBB1F78
:10249000EE1FFF1FA217B307E407F50720F0A21BEA
:1024A000B30BE40BF50B661F771F881F991F1A9457
:1024B00069F760957095809590959B01AC01BD0181
:1024C000CF010895EE0FFF1F0590F491E02D0994C0
:0424D000F894FFCFAE
:1024D400204D487A00206900206700204020002019
:1024E4004D487A0020633100206F002071310020B4
:1024F4007800000000007711710E0D113E111E11BD
:0225040067115D
:00000001FF
