:100000000C94CD020C94B50C0C94E20C0C94F502FB
:100010000C94F5020C94F5020C94F5020C94F50284
:100020000C94F5020C94F5020C94F5020C94F50274
:100030000C94F5020C94F5020C94F5020C94F50264
:100040000C940F0D0C94F5020C9484100C94B610C3
:100050000C94F5020C94F5020C94F5020C94F50244
:100060000C94F5020C94F5022B0653050306890641
:1000700089063606FE057F0641057F06460675069B
:100080007F067F067D057F06610689062B060A0628
:100090007F067206890668067A064B06205A7A7A27
:1000A0002E2E2E0A007465737420003E20002062FC
:1000B0000A00202D3E2000202D3E2061636B0A00A7
:1000C00020494920004153432000292000202800D6
:1000D000204700203F004F4B0043757272656E74DD
:1000E00020636F6E66696775726174696F6E3A0A34
:1000F000005B5246313264656D6F2E31335D000A0C
:10010000417661696C61626C6520636F6D6D616ED3
:1001100064733A0A20203C6E6E3E20692020202025
:10012000202D20736574206E6F646520494420285B
:100130007374616E64617264206E6F6465206964BB
:10014000732061726520312E2E3330290A20203C25
:100150006E3E20622020202020202D2073657420F8
:100160004D487A2062616E64202834203D2034336B
:10017000332C2038203D203836382C2039203D20A3
:10018000393135290A20203C6E6E6E6E3E206F207C
:1001900020202D206368616E676520667265717529
:1001A000656E6379206F666673657420776974681D
:1001B000696E207468652062616E642028646566DB
:1001C00061756C742031363030290A2020202020BF
:1001D0002020202020202020202039362E2E3339A8
:1001E0003033206973207468652072616E67652002
:1001F000737570706F7274656420627920746865BD
:100200002052464D3132420A20203C6E6E6E3E2016
:1002100067202020202D20736574206E6574776F11
:10022000726B2067726F7570202852464D313220F4
:100230006F6E6C7920616C6C6F7773203231322C69
:100240002030203D20616E79290A20203C6E3E201E
:10025000632020202020202D2073657420636F6C84
:100260006C656374206D6F64652028616476616ECF
:100270006365642C206E6F726D616C6C792030291F
:100280000A202074202020202020202020202D2023
:1002900062726F616463617374206D61782D73693C
:1002A0007A652074657374207061636B65742C20AB
:1002B000726571756573742061636B0A20202E2E40
:1002C0002E2C3C6E6E3E2061202D2073656E6420C6
:1002D00064617461207061636B657420746F206E5B
:1002E0006F6465203C6E6E3E2C207265717565737F
:1002F000742061636B0A20202E2E2E2C3C6E6E3EE5
:100300002073202D2073656E6420646174612070F9
:1003100061636B657420746F206E6F6465203C6E42
:100320006E3E2C206E6F2061636B0A20203C6E3E77
:1003300020712020202020202D20736574207175CD
:10034000696574206D6F6465202831203D20646FDD
:100350006E2774207265706F727420626164207001
:1003600061636B657473290A20203C6E3E207820FF
:1003700020202020202D20736574207265706F72FC
:1003800074696E6720666F726D61742028303A2040
:10039000646563696D616C2C20313A206865782C46
:1003A00020323A206865782B6173636969290A20D5
:1003B000203C6E6E6E3E2079202020202D20656E20
:1003C00061626C65207369676E616C20737472651D
:1003D0006E677468207472616365206D6F64652C4C
:1003E0002064656661756C743A30202864697361B5
:1003F000626C6564290A20202020202020202020F3
:10040000202020202073616D706C6520696E7465FA
:100410007276616C203C6E6E6E3E20736563732F46
:100420003130302028302E3031732D322E35732963
:10043000206567203130793D302E31730A2020311C
:100440003233207A2020202020202D20746F7461E8
:100450006C20706F77657220646F776E2C206E65EC
:10046000656473206120726573657420746F2073F6
:100470007461727420757020616761696E0A5265DB
:100480006D6F746520636F6E74726F6C20636F6D37
:100490006D616E64733A0A20203C686368693E2C83
:1004A0003C68636C6F3E2C3C616464723E2C3C6320
:1004B0006D643E206620202020202D2046533230BF
:1004C00020636F6D6D616E642028383638204D488A
:1004D0007A290A20203C616464723E2C3C64657673
:1004E0003E2C3C6F6E3E206B2020202020202020C0
:1004F0002020202020202D204B414B5520636F6D64
:100500006D616E642028343333204D487A290A0007
:10051000636F6E6669672073617665206661696CDA
:1005200065640A00010402000302048A050506C38B
:100530000B2019421E2C25802E882F2D37003800C5
:100540003C8F3D106F2000000000080002010000F9
:10055000030407000000000000000001020408106E
:100560002040800102040810200102040810200429
:10057000040404040404040202020202020303034A
:1005800003030300000000250028002B00000000EA
:1005900000240027002A0000E61011241FBECFEF20
:1005A000D8E0DEBFCDBF11E0A0E0B1E0EAE6F3E2C3
:1005B00002C005900D92A834B107D9F722E0A8E453
:1005C000B1E001C01D92A03BB207E1F715E0CAE916
:1005D000D5E004C02297FE010E946211C839D107FC
:1005E000C9F70E94300F0C94B3110C940000682FCF
:1005F00083E192E00C942B0E1F93CF93DF93EC01D9
:10060000FE011491112351F01A3019F48DE00E946B
:10061000F702812F0E94F7022196F2CFDF91CF914E
:100620001F9108958F7060E3680F6A3314F067E3D9
:10063000680F83E192E00C942B0ECF93C82F61E0FA
:1006400089E00E94160C6C2F89E0CF910C944F0C1E
:10065000CF93C82F909198019370682F70E061F04C
:10066000CB0124E0959587952A95E1F70E94120326
:100670008C2FCF910C9412034AE050E083E192E07A
:10068000CF910C94290F0F931F93CF93DF9381E0A9
:1006900080939701E5E9F1E08FEF9FEF21918227A9
:1006A000282F22952827022E269526952025022ED2
:1006B000269520252770082E892F269507942795A3
:1006C000902D8227069427959025822721E0E33AF2
:1006D000F20721F79093A4018093A3016091950103
:1006E00080E290E00E94951105E911E0C0E2D0E0BF
:1006F000F80161918F01CE010E9495112196C033BE
:10070000D105B1F70E945308882331F0DF91CF91D2
:100710001F910F910C94260980E195E0DF91CF9114
:100720001F910F910C94FC020F931F93CF93DF93B3
:1007300081E00E941D0364E670E080E090E00E948A
:10074000880D26E040E056E960E070E083E192E049
:100750000E94221083E192E00E94320E81EF90E02D
:100760000E94FC020E945308882379F005E911E0F9
:10077000C0E2D0E0CE010E948711D8018D938D0197
:100780002196C033D105B1F71CC080E1E5E9F1E065
:10079000DF011D928A95E9F78FE48093950182ED40
:1007A0008093960180E496E090939A01809399015A
:1007B000809198018860809398010E9443030E9471
:1007C00053080E9426098FEF90E00E94FC0289EDF9
:1007D00090E00E94FC020E94260968EE73E080E02F
:1007E00090E00E94880D80E00E941D0342E050E0EE
:1007F00067E574E081E0DF91CF911F910F910C9438
:10080000850CEF92FF920F931F93CF93DF9300D04D
:1008100000D0CDB7DEB78091AA019091AB01A09135
:10082000AC01B091AD0189839A83AB83BC8366E050
:1008300071E083E192E00E94290E4AE050E060916D
:10084000950183E192E00E94220F8E010F5F1F4FFE
:100850007E0185E0E80EF11C60E283E192E00E94F7
:100860002B0EF80161918F014AE050E083E192E0A4
:100870000E94220F0E151F0579F76AE071E083E1EF
:1008800092E00E94290E83E192E00E94320E6AE01B
:1008900070E080E090E00F900F900F900F90DF914C
:1008A000CF911F910F91FF90EF900C94880D0F93B3
:1008B0001F930E94590D0091A6011091A70120914C
:1008C000A8013091A901601B710B820B930B6F364D
:1008D000710581059105E8F08091AA019091AB0125
:1008E000A091AC01B091AD010196A11DB11D809305
:1008F000AA019093AB01A093AC01B093AD010E940B
:10090000590D6093A6017093A7018093A80190935D
:10091000A9011F910F910C940104CF92DF92EF92E5
:10092000FF920F931F93CF93DF9383E192E00E9496
:100930003F0F892B09F4F3C183E192E00E94580F25
:10094000C82F80ED8C0F8A30A8F44091920150910D
:1009500093018AE0849F9001859F300D11242053DC
:1009600031092C0F311DC7FD3A9530939301209327
:100970009201D5C1CC3281F4E0914B01E63408F00C
:10098000CAC181E08E0F80934B01F0E0E45BFE4F23
:10099000809192018083BFC18FE98C0F8A3148F525
:1009A0008BEA90E00E94FC02D0E080914B01D817C6
:1009B00088F4ED2FF0E0E45BFE4F608170E04AE0E8
:1009C00050E083E192E00E94290F8CE20E94F7023E
:1009D000DF5FEBCF60919201709193014AE050E0AC
:1009E00083E192E00E94290F6C2F83E192E00E9444
:1009F000580ECE3391F5E0914B0181E08E0F80933C
:100A00004B01F0E0E45BFE4F8091920180832091E6
:100A1000990130919A0140914D0180914C018430AF
:100A200031F0883031F0893031F463E005C061E0A5
:100A300003C062E001C060E080914E010E94FA07AD
:100A400040914B01445060E571E080914F010E945C
:100A5000C50882E00E94E40816C1C1320CF459C1F5
:100A60004C2F552747FD5095652F752FFA01E156FC
:100A7000F109EA31F10508F042C1EC5CFF4F0C943A
:100A8000601180919201909193019C012150310954
:100A90002E31310508F03DC190919501907E980F5F
:100AA0009093950127C080919201843031F0883075
:100AB00031F0893031F423E005C021E003C022E0A9
:100AC00001C020E0822F90E09093930180939201E7
:100AD000892B09F41EC1809195018F7340E4249FF6
:100AE000800D11248093950180E496E090939A0103
:100AF000809399010E9443030CC1809192019091CF
:100B000093019C0120563109203E3E4030F49093E1
:100B10009A01809399010E944303E0919501F0E0CE
:100B200066E0F595E7956A95E1F7CF010197833087
:100B3000910528F4DC01A65EBE4FAC9101C0A0E097
:100B4000B0E020EA36E841E050E00E947C116B0101
:100B50007C0129E130E0DF010E9475119B01AC01AD
:100B6000A0919901B0919A010E947C11C60ED71EE6
:100B7000E81EF91EC701B60120E137E240E050E06F
:100B80000E943E1189019A016B017C014AE050E00C
:100B9000B80183E192E00E94290F8EE20E94F702E1
:100BA000C60168EE73E00E942A1180E3860F0E945E
:100BB000F702C60164E670E00E942A11CB01CAE088
:100BC000D0E0BE010E942A11805D0E94F702C6019A
:100BD000BE010E942A11182FCB01BE010E942A11CA
:100BE000805D0E94F70280E3810F0E94F70260E1BE
:100BF00071E083E192E00E94460E8BC080919201E9
:100C00008093960177CF809198019091920190FB0B
:100C100082F965C081E68093940182E480934A0161
:100C20001092490120914801ECE4F1E080E0982F16
:100C3000920F91938F5F8234D1F785EA90E00E9402
:100C4000FC02809148010E942803809148018F5F37
:100C5000809348015EC0C093940180914B018093C2
:100C60004A01809192018093490153C020E436E00B
:100C700040E062E080E00E94FA0781E00E941D03EC
:100C800080E00E941D030E94530843C020E436E028
:100C900040E061E0EFCF80919201909193018B371A
:100CA0009105B9F58CE990E00E94FC0283E192E0A5
:100CB0000E949B0F80E00E940309F8940E9409099A
:100CC00028C0809198019091920190FB83F907C010
:100CD000909192019370809198018C7F892B8093E1
:100CE000980108CF81EF90E010C0809192010E949E
:100CF0001D030FC0809192018093A5010AC08FEF60
:100D000090E00E94FC0289ED90E00E94FC020E94AB
:100D1000260910924B01109293011092920180913A
:100D2000A501811111C10E94AF08882309F4CEC02A
:100D3000F090B1018091F7019091F801892B41F475
:100D400081E00E941D0386ED90E00E94FC020DC030
:100D50008091980183FD45C183ED90E00E94FC02E3
:100D600084E18F1510F454E1F52E80919801837081
:100D700019F088E50E94F70280919601811108C060
:100D800080ED90E00E94FC028091AF010E94280358
:100D900080E20E94F7028091B0018F710E942803C7
:100DA00002EB11E0E801E02E8C2F801B8F1558F428
:100DB00080919801837019F480E20E94F702899172
:100DC0000E942803F1CF8DEC90E00E94FC028091FC
:100DD0009801837029F08091FD010E9428030EC0C4
:100DE0006091FD0170E07595679571956195710948
:100DF0004AE050E083E192E00E940D0F8AEC90E01F
:100E00000E94FC0283E192E00E94320E80919801E0
:100E1000837090E002978CF185EC90E00E94FC02D8
:100E200080919601811104C080EC90E00E94FC0248
:100E30008091B00186FF02C08EE301C08CE30E9466
:100E4000F7028091B0018F71805C0E94F702C2EBC3
:100E5000D1E08C2F8E198F1560F480E20E94F7028A
:100E6000899190EE980F9F3508F08EE20E94F7026C
:100E7000F0CF83E192E00E94320E8091F7019091D1
:100E8000F801892B19F581E00E941D038091B001C2
:100E900085FF19C08091B00187FD15C08091980130
:100EA00082FD11C087EB90E00E94FC028091B001AE
:100EB00086FD93C08091B0018F71806C40E060E04E
:100EC00070E00E94C30880E00E941D03809194019D
:100ED000882379F10E94C108882359F181E00E949A
:100EE0001D0382EB90E00E94FC0260914A0170E0D9
:100EF0004AE050E083E192E00E94290F8EEA90E000
:100F00000E94FC0280919401813609F468C080E05F
:100F100090914901992311F09064892B40914A01E5
:100F20006CE471E00E94C3081092940180E00E947A
:100F30001D0380E0DF91CF911F910F91FF90EF9003
:100F4000DF90CF900C941D030E94AF080091FD012B
:100F500010E015950795E02EF12CC4E6D0E0C01BFB
:100F6000D10B8F2D90E08C179D072CF48DE20E9401
:100F7000F702F394F6CF65E171E083E192E00E941D
:100F8000290EC0E0CE1528F480E20E94F702CF5F60
:100F9000F9CF66277727601B710B4AE050E083E1A9
:100FA00092E00E940D0F67E171E083E192E00E9400
:100FB000460E6091A5019AE0699FB001112488272F
:100FC00077FD8095982FDF91CF911F910F91FF9022
:100FD000EF90DF90CF900C94880D80E86FCF80E287
:100FE00097CFDF91CF911F910F91FF90EF90DF90FE
:100FF000CF900895CF92DF92EF92FF921F93CF93FD
:10100000DF93C82F162FD42FF901AFEFA60FA3300F
:1010100028F4B0E0A35EBE4FAC9101C0A0E0B0E008
:1010200020E836E948E950E00E947C116B017C0120
:10103000212F30E0A4ECB9E00E946611DF019B0192
:10104000AC010E947C11C60ED71EE81EF91EC70116
:10105000B6010E941D0AD09301028C2F8F718093DC
:10106000000264E170E080E090E00E94880D8091D1
:101070000002882341F043E050E06CE87BE080E030
:101080000E94850C03C080E00E94A50C0E945D0AAE
:10109000C093AE018C2FDF91CF911F91FF90EF9005
:1010A000DF90CF900895EF92FF920F931F93CF930D
:1010B000DF931F92CDB7DEB700E210E0EE24EA9492
:1010C000FE2CC8010E948711E8268E2D82958E2560
:1010D000082E869586958025082E86958025877012
:1010E0000E2CEF2C869507948795F02CE826069415
:1010F0008795F024E8260F5F1F4F0033110509F78D
:10110000EF2821F582E290E00E9487118130F1F40E
:1011100080E290E00E948711182F81E290E00E9407
:101120008711482F84E290E049830E948F119C012F
:10113000612F70E086E0759567958A95E1F74981A2
:10114000812F0E94FA07812F8F7101C080E00F90DC
:10115000DF91CF911F910F91FF90EF9008958FEA4B
:1011600091E00E94B60A9093F8018093F7012091D4
:10117000F7013091F80181E02F3F3F4F09F480E003
:1011800008950C943A0A0C94180BEF92FF921F9357
:10119000CF93DF931F92CDB7DEB7182F7B01498322
:1011A0000E943A0A4981811105C049830E94AF0813
:1011B0004981F5CFB701812F0F90DF91CF911F911A
:1011C000FF90EF900C94180BCF93C82F0E944B0AFE
:1011D0008823B9F0CC23D1F383B7817FC33021F0CA
:1011E000C23021F49CE003C094E001C090E0892B60
:1011F00083BF83B7816083BF889583B78E7F83BFAA
:10120000E5CFCF91089591E0811190E0892F0C9462
:10121000520AEAE7F0E0908180818F77808383B77C
:10122000817F846083BFF89483B7816083BF85B773
:10123000806685BF85B78F79806485BF78948895EF
:1012400083B78E7F83BF90937A000895CF92DF9209
:10125000FF920F931F93CF93DF931F92CDB7DEB70B
:1012600080E290E00E948711082F83E290E00E94C4
:101270008711182F84E290E00E948F116C0160E2C8
:1012800083E192E00E942B0E202F2F7160E4620F09
:1012900083E192E029830E942B0E60E271E083E1FA
:1012A00092E00E94290E2981622F70E04AE050E00E
:1012B00083E192E00E940D0F812F8470F82E12FFBF
:1012C00005C06AE283E192E00E942B0E63E271E0C6
:1012D00083E192E00E94290E81E290E00E94871152
:1012E0004AE050E0682F83E192E00E94220F66E21C
:1012F00071E083E192E00E94290E802F829586950D
:1013000086958370813039F0823041F0833049F422
:1013100063E973E008C061EB71E005C064E673E067
:1013200002C060E070E04AE050E083E192E00E9499
:101330000D0F60E171E083E192E00E94290EFF2031
:1013400031F06AE271E083E192E00E94290EE0E46C
:10135000CE16E6E0DE0669F06EE271E083E192E02F
:101360000E94290E4AE050E0B60183E192E00E941B
:10137000290F13FF06C061E371E083E192E00E9450
:10138000290E137071F065E371E083E192E00E9431
:10139000290E612F70E04AE050E083E192E00E9464
:1013A0000D0F83E192E00F90DF91CF911F910F918C
:1013B000FF90DF90CF900C94320E8627682F6295B5
:1013C0006827062E669566956025062E669560252B
:1013D0006770082E892F669507946795902D86274C
:1013E00006946795902586270895E8982A988EBDDB
:1013F0000DB407FEFDCF8EB56EBD0DB407FEFDCF5B
:101400008EB52A9AE89A089560E00C94F50988E26E
:101410000E94040A807521F080E00E94040AF7CF40
:101420000895CF93C82F81E00E94040A682F637E3D
:101430006C2B81E8CF910C94F50922E0660F771FA1
:10144000881F991F2A95D1F729E03DE340E050E03D
:101450000E943E1166E0220F331F441F551F6A95FC
:10146000D1F7209302023093030240930402509379
:10147000050208958091FB01853021F48091FC01E3
:10148000882311F080E0089584E08093FB010E949E
:10149000110A81E008959091FB0181E094300CF0F5
:1014A00080E00895882311F080E001C084E00E946C
:1014B000110A84E08093FB010895CF93DF932A9A69
:1014C000229A2A9A84B18C6284B980E58CBD8DB54C
:1014D00081608DBD6AEA8FEA0E94F5098FE20E9461
:1014E000040A8A3AB9F765E58FEA0E94F5098FE2A6
:1014F0000E94040A8535B9F7C4E2D5E0FE01849163
:10150000882339F03196649180680E94F50922960B
:10151000F5CF6091010280EB0E94F50980910202F3
:1015200090910302A0910402B0910502BD018827A9
:10153000992787E80E94F5098091020290910302A1
:10154000A0910402B0910502692F7A2F8B2F992761
:1015500088E80E94F5096091020289E80E94F50975
:1015600084E08093FB01DF91CF910895CF93DF93C7
:10157000EC018091FB01843019F0853021F14DC0E0
:101580001092B1011092FC01609101028FEF9FEF68
:101590000E94DD099093FF018093FE01D093FA0130
:1015A000C093F90185E08093FB010E94070A60E87F
:1015B00085EA0E94F50980E10E94110A62E08EE945
:1015C0000E94F5092AC08091B1012091FC0190E0B0
:1015D000049630E08217930724F08091FC01883450
:1015E000E0F084E08093FB010E94110A8091B10138
:1015F0008334B0F48091FE019091FF01892B81F436
:101600008091B00186FF0FC0909100029F3159F088
:101610008091B0018F71891731F08FEF9FEF05C076
:1016200081E090E002C080E090E0DF91CF910895EA
:10163000CF934093B101FB0120E030E050E024174C
:10164000350744F4D901AE54BE4F91919C932F5F5E
:101650003F4FF5CF86FD04C0807E90910002890F38
:101660008093B001609101028FEF9FEF0E94DD092E
:101670009093FF018093FE019091B1018EEF891B41
:101680008093FB010E94070A8CE00E94110A60E02F
:1016900085EA0E94F5098091FB018330DCF588E240
:1016A0000E94040A87FDF7CF8091FB0187FF1BC0D2
:1016B0009091B1018091FB01E091F901F091FA0163
:1016C000E90FF11DE80FF11D87FDFA95C3816C2F1D
:1016D0008091FE019091FF010E94DD099093FF012E
:1016E0008093FE010DC08091FB01882329F0813099
:1016F00031F4C091FF0104C0C091FE0101C0CAEAEB
:101700006C2F80E80E94F5098091FB018F5F809328
:10171000FB01C1CFCF9108958091FB01853009F085
:101720004DC060E485EA0E94F50984E20E94040A43
:101730008093FD01789488E20E94040A8075D9F3B1
:101740008091FC0181110FC0E091F901F091FA0143
:101750008091FC0191E0980F9093FC01909101021F
:10176000E80FF11D908380E00E94040AE091F901E6
:10177000F091FA019091FC0121E0290F2093FC01E6
:10178000E90FF11D8083682F8091FE019091FF0188
:101790000E94DD099093FF018093FE018091B101C9
:1017A0002091FC0190E0049630E082179307A4F0AA
:1017B0008091FC01883408F4BECF089588E20E942D
:1017C000040A83FF09C084E08093FB010E94110A90
:1017D00060E885EA0C94F5090895833081F028F4D7
:1017E000813099F08230A1F008958730A9F08830D7
:1017F000B9F08430D1F4809180008F7D03C0809156
:1018000080008F7780938000089584B58F7702C021
:1018100084B58F7D84BD08958091B0008F7703C01B
:101820008091B0008F7D8093B0000895CF93DF93B7
:1018300090E0FC01E55AFA4F2491FC01E159FA4F7E
:101840008491882349F190E0880F991FFC01E357A8
:10185000FA4FA591B4918D579A4FFC01C591D4913F
:101860009FB7611108C0F8948C91209582238C93C6
:10187000888182230AC0623051F4F8948C91322F0F
:10188000309583238C938881822B888304C0F894BD
:101890008C91822B8C939FBFDF91CF9108950F93F2
:1018A0001F93CF93DF931F92CDB7DEB7282F30E081
:1018B000F901E95BFA4F8491F901E55AFA4F149165
:1018C000F901E159FA4F04910023C9F0882321F06E
:1018D00069830E94ED0B6981E02FF0E0EE0FFF1F9E
:1018E000ED57FA4FA591B4919FB7F8948C9161117F
:1018F00003C01095812301C0812B8C939FBF0F9053
:10190000DF91CF911F910F9108958230E8F4E82F75
:10191000F0E0EE0FFF1FEA5FFD4F718360838130BF
:1019200041F0809169008C7F842B80936900E89A54
:10193000089580916900440F551F440F551F837F00
:10194000842B80936900E99A0895823068F481308D
:1019500011F0E89801C0E998E82FF0E0EE0FFF1FC2
:10196000EA5FFD4F1182108208951F920F920FB609
:101970000F9211242F933F934F935F936F937F9315
:101980008F939F93AF93BF93EF93FF938091060242
:1019900090910702892B29F0E0910602F09107024D
:1019A0000995FF91EF91BF91AF919F918F917F9199
:1019B0006F915F914F913F912F910F900FBE0F90BC
:1019C0001F9018951F920F920FB60F9211242F930C
:1019D0003F934F935F936F937F938F939F93AF93B7
:1019E000BF93EF93FF938091080290910902892B96
:1019F00029F0E0910802F09109020995FF91EF9119
:101A0000BF91AF919F918F917F916F915F914F9116
:101A10003F912F910F900FBE0F901F9018951F921E
:101A20000F920FB60F9211242F933F938F939F9392
:101A3000AF93BF9380910B0290910C02A0910D0285
:101A4000B0910E0230910A0223E0230F2D3720F4CB
:101A50000196A11DB11D05C026E8230F0296A11D08
:101A6000B11D20930A0280930B0290930C02A09365
:101A70000D02B0930E0280910F0290911002A0917E
:101A80001102B09112020196A11DB11D80930F02A7
:101A900090931002A0931102B0931202BF91AF91E4
:101AA0009F918F913F912F910F900FBE0F901F909C
:101AB00018952FB7F89460910B0270910C028091E9
:101AC0000D0290910E022FBF08953FB7F8948091B8
:101AD0000F0290911002A0911102B091120226B54E
:101AE000A89B05C02F3F19F00196A11DB11D3FBF56
:101AF0006627782F892F9A2F620F711D811D911DE6
:101B000042E0660F771F881F991F4A95D1F7089505
:101B1000CF92DF92EF92FF92CF93DF936B017C0124
:101B20000E94650DEB01C114D104E104F10489F0B8
:101B30000E9429110E94650D6C1B7D0B683E73404D
:101B400090F381E0C81AD108E108F108C851DC4FD0
:101B5000EACFDF91CF91FF90EF90DF90CF90089583
:101B6000789484B5826084BD84B5816084BD85B578
:101B7000826085BD85B5816085BDEEE6F0E080813F
:101B800081608083E1E8F0E0108280818260808360
:101B9000808181608083E0E8F0E0808181608083E3
:101BA000E1EBF0E0808184608083E0EBF0E0808115
:101BB00081608083EAE7F0E08081846080838081B7
:101BC000826080838081816080838081806880835F
:101BD0001092C1000895CF92DF92EF92FF920F937F
:101BE0001F93CF93DF936C017A01EB01E60EF71E92
:101BF00000E010E0CE15DF0561F06991D601ED91AE
:101C0000FC910190F081E02DC6010995080F191F84
:101C1000F1CFC801DF91CF911F910F91FF90EF900D
:101C2000DF90CF9008956115710581F0DB010D9073
:101C30000020E9F7AD0141505109461B570BDC016B
:101C4000ED91FC910280F381E02D099480E090E019
:101C500008950C94130EDC01ED91FC910190F0813C
:101C6000E02D09940F931F93CF93DF93EC016DE068
:101C70000E942B0E8C016AE0CE010E942B0E800F79
:101C8000911FDF91CF911F910F9108950F931F9393
:101C9000CF93DF93EC010E94130E8C01CE010E94C2
:101CA000320E800F911FDF91CF911F910F910895F8
:101CB0000F931F93CF93DF93EC010E942B0E8C01A7
:101CC000CE010E94320E800F911FDF91CF911F91A4
:101CD0000F9108958F929F92AF92BF92CF92DF9211
:101CE000EF92FF920F931F93CF93DF93CDB7DEB7A1
:101CF000A1970FB6F894DEBF0FBECDBF7C01C42EF6
:101D0000E52FCB01D22E19A221E02D1510F02AE0EB
:101D1000D22E8E010F5D1F4F8D2C912CA12CB12C3A
:101D20006C2D7E2FA50194010E943E118C2DD29E18
:101D300080191124015011098A3014F4805D01C00A
:101D4000895CF8018083211531054105510521F099
:101D5000C22EE32FCA01E4CFB801C7010E94130EBF
:101D6000A1960FB6F894DEBF0FBECDBFDF91CF9125
:101D70001F910F91FF90EF90DF90CF90BF90AF90A9
:101D80009F908F900895CF92DF92EF92FF920F93E2
:101D90001F93CF93DF93EC016A017B01211531057D
:101DA00079F4E881F9810190F081E02D642FDF91D1
:101DB000CF911F910F91FF90EF90DF90CF900994FA
:101DC0002A303105E9F477FF1AC06DE20E942B0E2C
:101DD0008C0144275527BA014C195D096E097F090A
:101DE0002AE0CE010E946A0E800F911FDF91CF91F1
:101DF0001F910F91FF90EF90DF90CF9008952AE010
:101E0000B701A601CE01DF91CF911F910F91FF90F5
:101E1000EF90DF90CF900C946A0E9A01AB01662789
:101E200057FD6095762F0C94C30E2115310541F4B2
:101E3000DC01ED91FC910190F081E02D642F09947B
:101E40000C946A0E9A01462F50E060E070E00C940A
:101E5000150F9A01AB0160E070E00C94150F089526
:101E60000E94B00D0E942F0F0E949403CCE6DFE089
:101E70000E948D042097E1F30E946C0FF9CFFC01C2
:101E8000818D228D90E0805C9F4F821B91098F7322
:101E900099270895FC01918D828D981731F0828DDC
:101EA000E80FF11D858D90E008958FEF9FEF089565
:101EB000FC01918D828D981761F0828DDF01A80F52
:101EC000B11D5D968C91928D9F5F9F73928F90E074
:101ED00008958FEF9FEF08958CED90E1892B49F0E5
:101EE00080E090E0892B29F00E94DC1081110C9495
:101EF00000000895FC01848DDF01A80FB11DA35AD5
:101F0000BF4F2C91848D90E001968F739927848F19
:101F1000A689B7892C93A089B1898C9180648C9310
:101F2000938D848D981306C00288F389E02D8081FB
:101F30008F7D80830895CF93DF93EC01888D882374
:101F4000C9F0EA89FB89808185FD05C0A889B98926
:101F50008C9186FD0FC00FB607FCF5CF808185FF01
:101F6000F2CFA889B9898C9185FFEDCFCE010E946F
:101F70007A0FE7CFDF91CF910895CF92DF92FF9252
:101F80000F931F93CF93DF931F92CDB7DEB76C01F2
:101F9000DC015B969C915B975C968C915C979813A7
:101FA00007C05096ED91FC915197808185FD32C01C
:101FB000F601038D10E00F5F1F4F0F731127F02EF6
:101FC000F601848DF81211C00FB607FCF9CFD601C7
:101FD0005096ED91FC915197808185FFF1CFC6011C
:101FE00069830E947A0F6981EBCF838DE80FF11D21
:101FF000E35AFF4F6083D6015B960C935B97529632
:10200000ED91FC91539780818062808381E05896A6
:102010008C930DC0D6015696ED91FC915797608335
:102020005096ED91FC91519780818064808381E08E
:1020300090E00F90DF91CF911F910F91FF90DF9073
:10204000CF900895BF92CF92DF92EF92FF92CF93FD
:10205000DF93EC016A017B01B22EE889F98982E005
:102060008083411581EE580761057105A1F060E09C
:1020700079E08DE390E0A70196010E943E11215086
:1020800031094109510956954795379527952115ED
:1020900080E1380798F0E889F989108260E874E8EF
:1020A0008EE190E0A70196010E943E112150310976
:1020B000410951095695479537952795EC85FD853A
:1020C0003083EE85FF852083188EEC89FD89B082F0
:1020D000EA89FB89808180618083EA89FB8980812C
:1020E00088608083EA89FB89808180688083EA89AF
:1020F000FB8980818F7D8083DF91CF91FF90EF906E
:10210000DF90CF90BF9008951F920F920FB60F925D
:1021100011242F938F939F93EF93FF93E0912302CA
:10212000F09124028081E0912902F0912A0282FD3F
:1021300012C0908180912C028F5F8F7320912D02AD
:10214000821751F0E0912C02F0E0ED5EFD4F958F8B
:1021500080932C0201C08081FF91EF919F918F911C
:102160002F910F900FBE0F901F9018951F920F92F6
:102170000FB60F9211242F933F934F935F936F935A
:102180007F938F939F93AF93BF93EF93FF9383E1DD
:1021900092E00E947A0FFF91EF91BF91AF919F91D2
:1021A0008F917F916F915F914F913F912F910F9000
:1021B0000FBE0F901F90189583E192E00E943F0F91
:1021C00021E0892B09F420E0822F08951092160255
:1021D0001092150288EE93E0A0E0B0E08093170221
:1021E00090931802A0931902B0931A028CE391E025
:1021F000909314028093130285EC90E09093200258
:1022000080931F0284EC90E090932202809321023D
:1022100080EC90E0909324028093230281EC90E084
:10222000909326028093250282EC90E090932802FE
:102230008093270286EC90E090932A0280932902F3
:1022400010922C0210922D0210922E0210922F0248
:1022500008950895AA1BBB1B51E107C0AA1FBB1F0D
:10226000A617B70710F0A61BB70B881F991F5A9522
:10227000A9F780959095BC01CD010895A1E21A2E91
:10228000AA1BBB1BFD010DC0AA1FBB1FEE1FFF1F1A
:10229000A217B307E407F50720F0A21BB30BE40B6A
:1022A000F50B661F771F881F991F1A9469F76095B1
:1022B0007095809590959B01AC01BD01CF0108956B
:1022C000EE0FFF1F0590F491E02D0994A29FB0013D
:1022D000B39FC001A39F700D811D1124911DB29F5A
:1022E000700D811D1124911D08950E946611B7FF84
:1022F0000895821B930B08950E946611A59F900D6F
:10230000B49F900DA49F800D911D11240895F999FB
:10231000FECF92BD81BDF89A992780B50895A8E1B6
:10232000B0E042E050E00C94A511262FF999FECFC1
:102330001FBA92BD81BD20BD0FB6F894FA9AF99AE2
:102340000FBE01960895DC01CB01FC01F999FECF87
:1023500006C0F2BDE1BDF89A319600B40D9241502D
:0A2360005040B8F70895F894FFCF3D
:10236A000000B00280004F4B200020282D302900A9
:10237A00204D487A002A006442002B565A2B565A9E
:10238A002069002067002040200020633100206F70
:10239A00002071310020780000000000BD0FEB0D15
:0823AA003F0F580F4A0F9B0F73
:00000001FF
