:100000000C94CD020C94040D0C94310D0C94F5025B
:100010000C94F5020C94F5020C94F5020C94F50284
:100020000C94F5020C94F5020C94F5020C94F50274
:100030000C94F5020C94F5020C94F5020C94F50264
:100040000C945E0D0C94F5020C94CD100C94FF10E2
:100050000C94F5020C94F5020C94F5020C94F50244
:100060000C94F5020C94F5027A06A2055206D80605
:10007000D80685064D06CE069005CE069506C40622
:10008000CE06CE06CC05CE06B006D8067A065906B0
:10009000CE06C106D806B706C9069A06205A7A7A4D
:1000A0002E2E2E0A007465737420003E20002062FC
:1000B0000A00202D3E2000202D3E2061636B0A00A7
:1000C00020494920004153432000292000202800D6
:1000D000204700203F004F4B0043757272656E74DD
:1000E00020636F6E66696775726174696F6E3A0A34
:1000F000005B5246313264656D6F2E31335D000A0C
:10010000417661696C61626C6520636F6D6D616ED3
:1001100064733A0A20203C6E6E3E20692020202025
:10012000202D20736574206E6F646520494420285B
:100130007374616E64617264206E6F6465206964BB
:10014000732061726520312E2E3330290A20203C25
:100150006E3E20622020202020202D2073657420F8
:100160004D487A2062616E64202834203D2034336B
:10017000332C2038203D203836382C2039203D20A3
:10018000393135290A20203C6E6E6E6E3E206F207C
:1001900020202D206368616E676520667265717529
:1001A000656E6379206F666673657420776974681D
:1001B000696E207468652062616E642028646566DB
:1001C00061756C742031363030290A2020202020BF
:1001D0002020202020202020202039362E2E3339A8
:1001E0003033206973207468652072616E67652002
:1001F000737570706F7274656420627920746865BD
:100200002052464D3132420A20203C6E6E6E3E2016
:1002100067202020202D20736574206E6574776F11
:10022000726B2067726F7570202852464D313220F4
:100230006F6E6C7920616C6C6F7773203231322C69
:100240002030203D20616E79290A20203C6E3E201E
:10025000632020202020202D2073657420636F6C84
:100260006C656374206D6F64652028616476616ECF
:100270006365642C206E6F726D616C6C792030291F
:100280000A202074202020202020202020202D2023
:1002900062726F616463617374206D61782D73693C
:1002A0007A652074657374207061636B65742C20AB
:1002B000726571756573742061636B0A20202E2E40
:1002C0002E2C3C6E6E3E2061202D2073656E6420C6
:1002D00064617461207061636B657420746F206E5B
:1002E0006F6465203C6E6E3E2C207265717565737F
:1002F000742061636B0A20202E2E2E2C3C6E6E3EE5
:100300002073202D2073656E6420646174612070F9
:1003100061636B657420746F206E6F6465203C6E42
:100320006E3E2C206E6F2061636B0A20203C6E3E77
:1003300020712020202020202D20736574207175CD
:10034000696574206D6F6465202831203D20646FDD
:100350006E2774207265706F727420626164207001
:1003600061636B657473290A20203C6E3E207820FF
:1003700020202020202D20736574207265706F72FC
:1003800074696E6720666F726D61742028303A2040
:10039000646563696D616C2C20313A206865782C46
:1003A00020323A206865782B6173636969290A20D5
:1003B000203C6E6E6E3E2079202020202D20656E20
:1003C00061626C65207369676E616C20737472651D
:1003D0006E677468207472616365206D6F64652C4C
:1003E0002064656661756C743A30202864697361B5
:1003F000626C6564290A20202020202020202020F3
:10040000202020202073616D706C6520696E7465FA
:100410007276616C203C6E6E6E3E20736563732F46
:100420003130302028302E3031732D322E35732963
:10043000206567203130793D302E31730A2020311C
:100440003233207A2020202020202D20746F7461E8
:100450006C20706F77657220646F776E2C206E65EC
:10046000656473206120726573657420746F2073F6
:100470007461727420757020616761696E0A5265DB
:100480006D6F746520636F6E74726F6C20636F6D37
:100490006D616E64733A0A20203C686368693E2C83
:1004A0003C68636C6F3E2C3C616464723E2C3C6320
:1004B0006D643E206620202020202D2046533230BF
:1004C00020636F6D6D616E642028383638204D488A
:1004D0007A290A20203C616464723E2C3C64657673
:1004E0003E2C3C6F6E3E206B2020202020202020C0
:1004F0002020202020202D204B414B5520636F6D64
:100500006D616E642028343333204D487A290A0007
:10051000636F6E6669672073617665206661696CDA
:1005200065640A00010402000302048A050506C38B
:100530000B2019421E2C25802E882F2D37003800C5
:100540003C8F3D106F2000000000080002010000F9
:10055000030407000000000000000001020408106E
:100560002040800102040810200102040810200429
:10057000040404040404040202020202020303034A
:1005800003030300000000250028002B00000000EA
:1005900000240027002A00002F1111241FBECFEFD6
:1005A000D8E0DEBFCDBF11E0A0E0B1E0EAE4F6E2C2
:1005B00002C005900D92AA34B107D9F722E0AAE44F
:1005C000B1E001C01D92AC3BB207E1F715E0CAE90A
:1005D000D5E004C02297FE010E94D212C839D1078B
:1005E000C9F70E947F0F0C9423130C940000682F0E
:1005F0008FE192E00C947A0E1F93CF93DF93EC017E
:10060000FE011491112351F01A3019F48DE00E946B
:10061000F702812F0E94F7022196F2CFDF91CF914E
:100620001F9108958F7060E3680F6A3314F067E3D9
:10063000680F8FE192E00C947A0ECF93C82F61E09F
:1006400089E00E94650C6C2F89E0CF910C949E0C80
:10065000CF93C82F90919A019370682F70E061F04A
:10066000CB0124E0959587952A95E1F70E94120326
:100670008C2FCF910C9412034AE050E08FE192E06E
:10068000CF910C94780F0F931F93CF93DF9381E05A
:1006900080939901E7E9F1E08FEF9FEF21918227A5
:1006A000282F22952827022E269526952025022ED2
:1006B000269520252770082E892F269507942795A3
:1006C000902D8227069427959025822721E0E53AF0
:1006D000F20721F79093A6018093A50160919701FD
:1006E00080E290E00E94051307E911E0C0E2D0E04B
:1006F000F80161918F01CE010E9405132196C0334C
:10070000D105B1F70E94A208882331F0DF91CF9183
:100710001F910F910C94750980E195E0DF91CF91C5
:100720001F910F910C94FC020F931F93CF93DF93B3
:1007300081E00E941D0364E670E080E090E00E948A
:10074000D70D26E040E056E960E070E08FE192E0EE
:100750000E9471108FE192E00E94810E81EF90E083
:100760000E94FC020E94A208882379F007E911E0A8
:10077000C0E2D0E0CE010E94F712D8018D938D0126
:100780002196C033D105B1F71CC080E1E7E9F1E063
:10079000DF011D928A95E9F78FE48093970182ED3E
:1007A0008093980180E496E090939C0180939B0154
:1007B00080919A01886080939A010E9443030E946D
:1007C000A2080E9475098FEF90E00E94FC0289ED5B
:1007D00090E00E94FC020E94750968EE73E080E0E0
:1007E00090E00E94D70D80E00E941D0342E050E09F
:1007F00067E574E081E0DF91CF911F910F910C9438
:10080000D40CEF92FF920F931F93CF93DF9300D0FE
:1008100000D000D0CDB7DEB786E0E4EBF1E0DE013A
:10082000119601900D928A95E1F768E071E08FE1F1
:1008300092E00E94780E4AE050E0609197018FE1CB
:1008400092E00E94710F8E010F5F1F4F7E0187E0C3
:10085000E80EF11C60E28FE192E00E947A0EF8014E
:1008600061918F014AE050E08FE192E00E94710FA8
:100870000E151F0579F76CE071E08FE192E00E94A0
:10088000780E8FE192E00E94810E6AE070E080E0D5
:1008900090E026960FB6F894DEBF0FBECDBFDF9175
:1008A000CF911F910F91FF90EF900C94D70DCF92A5
:1008B000DF92EF92FF920E94A80DC090B001D090FD
:1008C000B101E090B201F090B3016C197D098E097D
:1008D0009F096F3671058105910508F467C00E9474
:1008E000A80D6093B0017093B1018093B201909311
:1008F000B3018091AC019091AD01A091AE01B09196
:10090000AF018093A8019093A901A093AA01B0938D
:10091000AB010E94B40D6093AC017093AD01809364
:10092000AE019093AF01C090B601D090B701E090B6
:10093000B801F090B9012FEFC21AD20AE20AF20A06
:10094000C092B601D092B701E092B801F092B9011D
:10095000C090A801D090A901E090AA01F090AB014D
:100960006C197D098E099F090E940C129B01AC0134
:1009700064EA73E986E59FE40E9473116B017C01D0
:100980006091060170910701882777FD8095982F67
:100990000E940E129B01AC01C701B6010E947311A7
:1009A0000E94DB117093B5016093B401FF90EF904A
:1009B000DF90CF900C940104CF92DF92EF92FF92E0
:1009C0000F931F93CF93DF938FE192E00E948E0FDE
:1009D000892B09F4F3C18FE192E00E94A70FC82F81
:1009E00080ED8C0F8A30A8F44091940150919501CC
:1009F0008AE0849F9001859F300D11242053310996
:100A00002C0F311DC7FD3A95309395012093940129
:100A1000D5C1CC3281F4E0914D01E63408F0CAC171
:100A200081E08E0F80934D01F0E0E25BFE4F8091FC
:100A300094018083BFC18FE98C0F8A3148F58BEA1E
:100A400090E00E94FC02D0E080914D01D81788F41C
:100A5000ED2FF0E0E25BFE4F608170E04AE050E095
:100A60008FE192E00E94780F8CE20E94F702DF5F34
:100A7000EBCF60919401709195014AE050E08FE1D5
:100A800092E00E94780F6C2F8FE192E00E94A70EF7
:100A9000CE3391F5E0914D0181E08E0F80934D01B1
:100AA000F0E0E25BFE4F80919401808320919B01F6
:100AB00030919C0140914F0180914E01843031F082
:100AC000883031F0893031F463E005C061E003C063
:100AD00062E001C060E0809150010E9449084091AD
:100AE0004D01445062E571E0809151010E9414096A
:100AF00082E00E94330916C1C1320CF459C14C2F57
:100B0000552747FD5095652F752FFA01E156F109DC
:100B1000EA31F10508F042C1EC5CFF4F0C94D012B1
:100B200080919401909195019C01215031092E31C1
:100B3000310508F03DC190919701907E980F9093F8
:100B4000970127C080919401843031F0883031F0D2
:100B5000893031F423E005C021E003C022E001C068
:100B600020E0822F90E09093950180939401892B4F
:100B700009F41EC1809197018F7340E4249F800D7A
:100B800011248093970180E496E090939C018093D8
:100B90009B010E9443030CC18091940190919501A7
:100BA0009C0120563109203E3E4030F490939C0138
:100BB00080939B010E944303E0919701F0E066E07F
:100BC000F595E7956A95E1F7CF0101978330910597
:100BD00028F4DC01A45EBE4FAC9101C0A0E0B0E0FF
:100BE00020EA36E841E050E00E94EC126B017C0103
:100BF00029E130E0DF010E94E5129B01AC01A091E8
:100C00009B01B0919C010E94EC12C60ED71EE81EFB
:100C1000F91EC701B60120E137E240E050E00E9432
:100C2000AE1289019A016B017C014AE050E0B801E3
:100C30008FE192E00E94780F8EE20E94F702C601D7
:100C400068EE73E00E949A1280E3860F0E94F7021A
:100C5000C60164E670E00E949A12CB01CAE0D0E0BF
:100C6000BE010E949A12805D0E94F702C601BE0179
:100C70000E949A12182FCB01BE010E949A12805D29
:100C80000E94F70280E3810F0E94F70262E171E0A7
:100C90008FE192E00E94950E8BC080919401809329
:100CA000980177CF80919A019091940190FB82F9FD
:100CB00065C081E68093960182E480934C01109296
:100CC0004B0120914A01EEE4F1E080E0982F920F71
:100CD00091938F5F8234D1F785EA90E00E94FC0205
:100CE00080914A010E94280380914A018F5F80937E
:100CF0004A015EC0C093960180914D0180934C01E2
:100D00008091940180934B0153C020E436E040E091
:100D100062E080E00E94490881E00E941D0380E0BB
:100D20000E941D030E94A20843C020E436E040E078
:100D300061E0EFCF80919401909195018B379105FF
:100D4000B9F58CE990E00E94FC028FE192E00E94EC
:100D5000EA0F80E00E945209F8940E94580928C0C6
:100D600080919A019091940190FB83F907C0909132
:100D70009401937080919A018C7F892B80939A01C2
:100D800008CF81EF90E010C0809194010E941D0374
:100D90000FC0809194018093A7010AC08FEF90E06B
:100DA0000E94FC0289ED90E00E94FC020E947509FD
:100DB00010924D0110929501109294018091A7011B
:100DC000811111C10E94FE08882309F4CEC0F09061
:100DD000BD018091030290910402892B41F481E0CE
:100DE0000E941D0386ED90E00E94FC020DC08091E0
:100DF0009A0183FD45C183ED90E00E94FC0284E1ED
:100E00008F1510F454E1F52E80919A01837019F03A
:100E100088E50E94F70280919801811108C080ED59
:100E200090E00E94FC028091BB010E94280380E2B6
:100E30000E94F7028091BC018F710E9428030EEB83
:100E400011E0E801E02E8C2F801B8F1558F4809163
:100E50009A01837019F480E20E94F70289910E943E
:100E60002803F1CF8DEC90E00E94FC0280919A0162
:100E7000837029F0809109020E9428030EC06091BE
:100E8000090270E0759567957195619571094AE061
:100E900050E08FE192E00E945C0F8AEC90E00E94AB
:100EA000FC028FE192E00E94810E80919A01837092
:100EB00090E002978CF185EC90E00E94FC0280911A
:100EC0009801811104C080EC90E00E94FC028091A6
:100ED000BC0186FF02C08EE301C08CE30E94F702D2
:100EE0008091BC018F71805C0E94F702CEEBD1E053
:100EF0008C2F8E198F1560F480E20E94F702899181
:100F000090EE980F9F3508F08EE20E94F702F0CF26
:100F10008FE192E00E94810E809103029091040281
:100F2000892B19F581E00E941D038091BC0185FF8A
:100F300019C08091BC0187FD15C080919A0182FD86
:100F400011C087EB90E00E94FC028091BC0186FDFD
:100F500093C08091BC018F71806C40E060E070E0D4
:100F60000E94120980E00E941D038091960188234F
:100F700079F10E941009882359F181E00E941D0334
:100F800082EB90E00E94FC0260914C0170E04AE02C
:100F900050E08FE192E00E94780F8EEA90E00E948C
:100FA000FC0280919601813609F468C080E090913E
:100FB0004B01992311F09064892B40914C016EE410
:100FC00071E00E9412091092960180E00E941D03B8
:100FD00080E0DF91CF911F910F91FF90EF90DF9014
:100FE000CF900C941D030E94FE080091090210E0AE
:100FF00015950795E02EF12CC4E6D0E0C01BD10B6F
:101000008F2D90E08C179D072CF48DE20E94F70243
:10101000F394F6CF67E171E08FE192E00E94780EE1
:10102000C0E0CE1528F480E20E94F702CF5FF9CF2E
:1010300066277727601B710B4AE050E08FE192E052
:101040000E945C0F69E171E08FE192E00E94950ED1
:101050006091A7019AE0699FB0011124882777FD6C
:101060008095982FDF91CF911F910F91FF90EF9076
:10107000DF90CF900C94D70D80E86FCF80E297CFB0
:10108000DF91CF911F910F91FF90EF90DF90CF9064
:101090000895CF92DF92EF92FF921F93CF93DF9349
:1010A000C82F162FD42FF901AFEFA60FA33028F4C5
:1010B000B0E0A15EBE4FAC9101C0A0E0B0E020E87E
:1010C00036E948E950E00E94EC126B017C01212FC7
:1010D00030E0A4ECB9E00E94D612DF019B01AC0124
:1010E0000E94EC12C60ED71EE81EF91EC701B601FB
:1010F0000E946C0AD0930D028C2F8F7180930C028A
:1011000064E170E080E090E00E94D70D80910C02D5
:10111000882341F043E050E06BED7BE080E00E94EB
:10112000D40C03C080E00E94F40C0E94AC0AC0936F
:10113000BA018C2FDF91CF911F91FF90EF90DF903C
:10114000CF900895EF92FF920F931F93CF93DF9369
:101150001F92CDB7DEB700E210E0EE24EA94FE2C39
:10116000C8010E94F712E8268E2D82958E25082E42
:10117000869586958025082E8695802587700E2C6D
:10118000EF2C869507948795F02CE8260694879592
:10119000F024E8260F5F1F4F0033110509F7EF28F1
:1011A00021F582E290E00E94F7128130F1F480E2B2
:1011B00090E00E94F712182F81E290E00E94F7124F
:1011C000482F84E290E049830E94FF129C01612F26
:1011D00070E086E0759567958A95E1F74981812FE2
:1011E0000E944908812F8F7101C080E00F90DF912C
:1011F000CF911F910F91FF90EF9008958BEB91E0AD
:101200000E94050B90930402809303022091030235
:101210003091040281E02F3F3F4F09F480E00895B0
:101220000C94890A0C94670BEF92FF921F93CF9353
:10123000DF931F92CDB7DEB7182F7B0149830E9441
:10124000890A4981811105C049830E94FE084981AC
:10125000F5CFB701812F0F90DF91CF911F91FF90B4
:10126000EF900C94670BCF93C82F0E949A0A8823A3
:10127000B9F0CC23D1F383B7817FC33021F0C230E2
:1012800021F49CE003C094E001C090E0892B83BF6F
:1012900083B7816083BF889583B78E7F83BFE5CF97
:1012A000CF91089591E0811190E0892F0C94A10ACB
:1012B000EAE7F0E0908180818F77808383B7817F38
:1012C000846083BFF89483B7816083BF85B78066ED
:1012D00085BF85B78F79806485BF7894889583B7FB
:1012E0008E7F83BF90937A000895CF92DF92FF9212
:1012F0000F931F93CF93DF931F92CDB7DEB780E29A
:1013000090E00E94F712082F83E290E00E94F7120B
:10131000182F84E290E00E94FF126C0160E28FE1DE
:1013200092E00E947A0E202F2F7160E4620F8FE10D
:1013300092E029830E947A0E62E271E08FE192E0EE
:101340000E94780E2981622F70E04AE050E08FE120
:1013500092E00E945C0F812F8470F82E12FF05C06E
:101360006AE28FE192E00E947A0E65E271E08FE11D
:1013700092E00E94780E81E290E00E94F7124AE02B
:1013800050E0682F8FE192E00E94710F68E271E0F7
:101390008FE192E00E94780E802F82958695869547
:1013A0008370813039F0823041F0833049F463E951
:1013B00073E008C061EB71E005C064E673E002C051
:1013C00060E070E04AE050E08FE192E00E945C0F44
:1013D00062E171E08FE192E00E94780EFF2031F02F
:1013E0006CE271E08FE192E00E94780EE0E4CE16AC
:1013F000E6E0DE0669F060E371E08FE192E00E94D2
:10140000780E4AE050E0B6018FE192E00E94780F3A
:1014100013FF06C063E371E08FE192E00E94780E53
:10142000137071F067E371E08FE192E00E94780E33
:10143000612F70E04AE050E08FE192E00E945C0F83
:101440008FE192E00F90DF91CF911F910F91FF906C
:10145000DF90CF900C94810E8627682F62956827C5
:10146000062E669566956025062E66956025677042
:10147000082E892F669507946795902D86270694E8
:101480006795902586270895E8982A988EBD0DB413
:1014900007FEFDCF8EB56EBD0DB407FEFDCF8EB538
:1014A0002A9AE89A089560E00C94440A88E20E941F
:1014B000530A807521F080E00E94530AF7CF089507
:1014C000CF93C82F81E00E94530A682F637E6C2B54
:1014D00081E8CF910C94440A22E0660F771F881FA1
:1014E000991F2A95D1F729E03DE340E050E00E94A2
:1014F000AE1266E0220F331F441F551F6A95D1F7C5
:1015000020930E0230930F02409310025093110269
:10151000089580910702853021F480910802882384
:1015200011F080E0089584E0809307020E94600A31
:1015300081E008959091070281E094300CF080E002
:101540000895882311F080E001C084E00E94600AC1
:1015500084E0809307020895CF93DF932A9A229A1A
:101560002A9A84B18C6284B980E58CBD8DB5816086
:101570008DBD6AEA8FEA0E94440A8FE20E94530AF4
:101580008A3AB9F765E58FEA0E94440A8FE20E9421
:10159000530A8535B9F7C4E2D5E0FE01849188236A
:1015A00039F03196649180680E94440A2296F5CF02
:1015B00060910D0280EB0E94440A80910E0290918E
:1015C0000F02A0911002B0911102BD018827992746
:1015D00087E80E94440A80910E0290910F02A09128
:1015E0001002B0911102692F7A2F8B2F992788E86A
:1015F0000E94440A60910E0289E80E94440A84E035
:1016000080930702DF91CF910895CF93DF93EC0190
:1016100080910702843019F0853021F14DC010927D
:10162000BD011092080260910D028FEF9FEF0E94A2
:101630002C0A90930B0280930A02D0930602C09367
:10164000050285E0809307020E94560A60E885EA59
:101650000E94440A80E10E94600A62E08EE90E94D2
:10166000440A2AC08091BD012091080290E00496AE
:1016700030E08217930724F0809108028834E0F06C
:1016800084E0809307020E94600A8091BD01833448
:10169000B0F480910A0290910B02892B81F4809121
:1016A000BC0186FF0FC090910C029F3159F08091D0
:1016B000BC018F71891731F08FEF9FEF05C081E07A
:1016C00090E002C080E090E0DF91CF910895CF9349
:1016D0004093BD01FB0120E030E050E024173507C6
:1016E00044F4D901A254BE4F91919C932F5F3F4F78
:1016F000F5CF86FD04C0807E90910C02890F809307
:10170000BC0160910D028FEF9FEF0E942C0A909315
:101710000B0280930A029091BD018EEF891B80938A
:1017200007020E94560A8CE00E94600A60E085EA87
:101730000E94440A809107028330DCF588E20E940F
:10174000530A87FDF7CF8091070287FF1BC0909156
:10175000BD0180910702E0910502F0910602E90FB8
:10176000F11DE80FF11D87FDFA95C3816C2F809163
:101770000A0290910B020E942C0A90930B02809314
:101780000A020DC080910702882329F0813031F4CC
:10179000C0910B0204C0C0910A0201C0CAEA6C2FBA
:1017A00080E80E94440A809107028F5F80930702BD
:1017B000C1CFCF91089580910702853009F04DC0C7
:1017C00060E485EA0E94440A84E20E94530A8093FE
:1017D0000902789488E20E94530A8075D9F38091B7
:1017E000080281110FC0E0910502F091060280917C
:1017F000080291E0980F9093080290910D02E80F73
:10180000F11D908380E00E94530AE0910502F0915F
:1018100006029091080221E0290F20930802E90FA7
:10182000F11D8083682F80910A0290910B020E9423
:101830002C0A90930B0280930A028091BD012091A3
:10184000080290E0049630E082179307A4F080919C
:101850000802883408F4BECF089588E20E94530A33
:1018600083FF09C084E0809307020E94600A60E859
:1018700085EA0C94440A0895833081F028F481307D
:1018800099F08230A1F008958730A9F08830B9F03E
:101890008430D1F4809180008F7D03C080918000DE
:1018A0008F7780938000089584B58F7702C084B5C8
:1018B0008F7D84BD08958091B0008F7703C08091A3
:1018C000B0008F7D8093B0000895CF93DF9390E0B8
:1018D000FC01E55AFA4F2491FC01E159FA4F849139
:1018E000882349F190E0880F991FFC01E357FA4FD4
:1018F000A591B4918D579A4FFC01C591D4919FB792
:10190000611108C0F8948C91209582238C93888172
:1019100082230AC0623051F4F8948C91322F3095B2
:1019200083238C938881822B888304C0F8948C91C4
:10193000822B8C939FBFDF91CF9108950F931F93BC
:10194000CF93DF931F92CDB7DEB7282F30E0F90198
:10195000E95BFA4F8491F901E55AFA4F1491F901C4
:10196000E159FA4F04910023C9F0882321F06983DB
:101970000E943C0C6981E02FF0E0EE0FFF1FED5755
:10198000FA4FA591B4919FB7F8948C91611103C05F
:101990001095812301C0812B8C939FBF0F90DF9105
:1019A000CF911F910F9108958230E8F4E82FF0E075
:1019B000EE0FFF1FEE5EFD4F71836083813041F0BB
:1019C000809169008C7F842B80936900E89A089548
:1019D00080916900440F551F440F551F837F842B4E
:1019E00080936900E99A0895823068F4813011F09B
:1019F000E89801C0E998E82FF0E0EE0FFF1FEE5ED7
:101A0000FD4F1182108208951F920F920FB60F9210
:101A100011242F933F934F935F936F937F938F93F3
:101A20009F93AF93BF93EF93FF9380911202909196
:101A30001302892B29F0E0911202F091130209950B
:101A4000FF91EF91BF91AF919F918F917F916F9196
:101A50005F914F913F912F910F900FBE0F901F906C
:101A600018951F920F920FB60F9211242F933F9348
:101A70004F935F936F937F938F939F93AF93BF9396
:101A8000EF93FF938091140290911502892B29F016
:101A9000E0911402F09115020995FF91EF91BF9129
:101AA000AF919F918F917F916F915F914F913F91F6
:101AB0002F910F900FBE0F901F9018951F920F92AD
:101AC0000FB60F9211242F933F938F939F93AF9351
:101AD000BF938091170290911802A0911902B091C2
:101AE0001A023091160226E0230F2D3720F40296B9
:101AF000A11DB11D05C029E8230F0396A11DB11D2D
:101B0000209316028093170290931802A093190253
:101B1000B0931A0280911B0290911C02A0911D02A9
:101B2000B0911E020196A11DB11D80931B029093DE
:101B30001C02A0931D02B0931E02BF91AF919F9112
:101B40008F913F912F910F900FBE0F901F9018957E
:101B50002FB7F894609117027091180280911902C2
:101B600090911A022FBF08953FB7F89480911B02FD
:101B700090911C02A0911D02B0911E0226B5A89B57
:101B800005C02F3F19F00196A11DB11D3FBF66276B
:101B9000782F892F9A2F620F711D811D911D43E0AF
:101BA000660F771F881F991F4A95D1F70895CF9226
:101BB000DF92EF92FF92CF93DF936B017C010E9443
:101BC000B40DEB01C114D104E104F10489F00E94C9
:101BD00072110E94B40D6C1B7D0B683E734090F334
:101BE00081E0C81AD108E108F108C851DC4FEACFFA
:101BF000DF91CF91FF90EF90DF90CF900895789490
:101C000084B5826084BD84B5816084BD85B5826001
:101C100085BD85B5816085BDEEE6F0E0808181609F
:101C20008083E1E8F0E0108280818260808380819F
:101C300081608083E0E8F0E0808181608083E1EB77
:101C4000F0E0808184608083E0EBF0E0808181605F
:101C50008083EAE7F0E08081846080838081826015
:101C600080838081816080838081806880831092FE
:101C7000C1000895CF92DF92EF92FF920F931F93CE
:101C8000CF93DF936C017A01EB01E60EF71E00E0C3
:101C900010E0CE15DF0561F06991D601ED91FC9160
:101CA0000190F081E02DC6010995080F191FF1CFB1
:101CB000C801DF91CF911F910F91FF90EF90DF90BE
:101CC000CF9008956115710581F0DB010D90002022
:101CD000E9F7AD0141505109461B570BDC01ED916D
:101CE000FC910280F381E02D099480E090E008955A
:101CF0000C94620EDC01ED91FC910190F081E02DDD
:101D000009940F931F93CF93DF93EC016DE00E9432
:101D10007A0E8C016AE0CE010E947A0E800F911F2C
:101D2000DF91CF911F910F9108950F931F93CF9340
:101D3000DF93EC010E94620E8C01CE010E94810EA5
:101D4000800F911FDF91CF911F910F9108950F93F5
:101D50001F93CF93DF93EC010E947A0E8C01CE018A
:101D60000E94810E800F911FDF91CF911F910F91E3
:101D700008958F929F92AF92BF92CF92DF92EF928F
:101D8000FF920F931F93CF93DF93CDB7DEB7A19749
:101D90000FB6F894DEBF0FBECDBF7C01C42EE52F79
:101DA000CB01D22E19A221E02D1510F02AE0D22E5F
:101DB0008E010F5D1F4F8D2C912CA12CB12C6C2D01
:101DC0007E2FA50194010E94AE128C2DD29E801907
:101DD0001124015011098A3014F4805D01C0895C1E
:101DE000F8018083211531054105510521F0C22EEE
:101DF000E32FCA01E4CFB801C7010E94620EA19689
:101E00000FB6F894DEBF0FBECDBFDF91CF911F910B
:101E10000F91FF90EF90DF90CF90BF90AF909F9089
:101E20008F900895CF92DF92EF92FF920F931F93BE
:101E3000CF93DF93EC016A017B012115310579F421
:101E4000E881F9810190F081E02D642FDF91CF913D
:101E50001F910F91FF90EF90DF90CF9009942A305F
:101E60003105E9F477FF1AC06DE20E947A0E8C0109
:101E700044275527BA014C195D096E097F092AE0EC
:101E8000CE010E94B90E800F911FDF91CF911F915B
:101E90000F91FF90EF90DF90CF9008952AE0B70167
:101EA000A601CE01DF91CF911F910F91FF90EF908E
:101EB000DF90CF900C94B90E9A01AB01662757FDC5
:101EC0006095762F0C94120F2115310541F4DC0139
:101ED000ED91FC910190F081E02D642F09940C9418
:101EE000B90E9A01462F50E060E070E00C94640F48
:101EF0009A01AB0160E070E00C94640F08950E94B9
:101F0000FF0D0E947E0F0E949403CBEBDFE00E9446
:101F1000DC042097E1F30E94BB0FF9CFFC01818D17
:101F2000228D90E0805C9F4F821B91098F739927CF
:101F30000895FC01918D828D981731F0828DE80F04
:101F4000F11D858D90E008958FEF9FEF0895FC01BE
:101F5000918D828D981761F0828DDF01A80FB11DE0
:101F60005D968C91928D9F5F9F73928F90E0089504
:101F70008FEF9FEF089585E291E1892B49F080E092
:101F800090E0892B29F00E94251181110C9400000A
:101F90000895FC01848DDF01A80FB11DA35ABF4F26
:101FA0002C91848D90E001968F739927848FA68958
:101FB000B7892C93A089B1898C9180648C93938D7F
:101FC000848D981306C00288F389E02D80818F7D6F
:101FD00080830895CF93DF93EC01888D8823C9F027
:101FE000EA89FB89808185FD05C0A889B9898C9122
:101FF00086FD0FC00FB607FCF5CF808185FFF2CFBD
:10200000A889B9898C9185FFEDCFCE010E94C90FB7
:10201000E7CFDF91CF910895CF92DF92FF920F9398
:102020001F93CF93DF931F92CDB7DEB76C01DC0116
:102030005B969C915B975C968C915C97981307C01C
:102040005096ED91FC915197808185FD32C0F6014B
:10205000038D10E00F5F1F4F0F731127F02EF60155
:10206000848DF81211C00FB607FCF9CFD601509637
:10207000ED91FC915197808185FFF1CFC601698375
:102080000E94C90F6981EBCF838DE80FF11DE35AE0
:10209000FF4F6083D6015B960C935B975296ED9150
:1020A000FC91539780818062808381E058968C9365
:1020B0000DC0D6015696ED91FC91579760835096CE
:1020C000ED91FC91519780818064808381E090E064
:1020D0000F90DF91CF911F910F91FF90DF90CF90E4
:1020E0000895BF92CF92DF92EF92FF92CF93DF934A
:1020F000EC016A017B01B22E60E874E88EE190E0A9
:10210000A70196010E94AE122150310941095109DF
:102110005695479537952795E889F98982E0808318
:10212000211580E1380798F0E889F989108260E488
:1021300072E48FE090E0A70196010E94AE12215058
:102140003109410951095695479537952795EC85F1
:10215000FD853083EE85FF852083188EEC89FD890F
:10216000B082EA89FB89808180618083EA89FB896A
:10217000808188608083EA89FB8980818068808390
:10218000EA89FB8980818F7D8083DF91CF91FF90E9
:10219000EF90DF90CF90BF9008951F920F920FB6EF
:1021A0000F9211242F938F939F93EF93FF93E091BE
:1021B0002F02F09130028081E0913502F0913602D9
:1021C00082FD12C09081809138028F5F8F732091C1
:1021D0003902821751F0E0913802F0E0E15EFD4FE4
:1021E000958F8093380201C08081FF91EF919F917C
:1021F0008F912F910F900FBE0F901F9018951F92E7
:102200000F920FB60F9211242F933F934F935F932A
:102210006F937F938F939F93AF93BF93EF93FF93AE
:102220008FE192E00E94C90FFF91EF91BF91AF91B2
:102230009F918F917F916F915F914F913F912F91DE
:102240000F900FBE0F901F9018958FE192E00E94A3
:102250008E0F21E0892B09F420E0822F089510923F
:1022600022021092210288EE93E0A0E0B0E0809379
:10227000230290932402A0932502B09326028EE3BA
:1022800091E09093200280931F0285EC90E0909360
:102290002C0280932B0284EC90E090932E0280938A
:1022A0002D0280EC90E09093300280932F0281EC1D
:1022B00090E0909332028093310282EC90E0909310
:1022C00034028093330286EC90E090933602809340
:1022D0003502109238021092390210923A0210928E
:1022E0003B02089508950CD0EBC0E3D040F0DAD063
:1022F00030F021F45F3F19F0CCC0511115C1CFC0AF
:10230000F0D098F39923C9F35523B1F3951B550BDE
:10231000BB27AA2762177307840738F09F5F5F4FB8
:10232000220F331F441FAA1FA9F333D00E2E3AF0F9
:10233000E0E830D091505040E695001CCAF729D013
:10234000FE2F27D0660F771F881FBB1F2617370762
:102350004807AB07B0E809F0BB0B802DBF01FF2792
:1023600093585F4F2AF09E3F510568F092C0DCC041
:102370005F3FECF3983EDCF3869577956795B795CC
:10238000F7959F5FC9F7880F911D9695879597F9E7
:102390000895E1E0660F771F881FBB1F6217730760
:1023A0008407BA0720F0621B730B840BBA0BEE1F75
:1023B00088F7E095089504D06894B111B5C00895E8
:1023C00098D088F09F5790F0B92F9927B751A0F077
:1023D000D1F0660F771F881F991F1AF0BA95C9F7B9
:1023E00012C0B13081F09FD0B1E008959CC0672F3A
:1023F000782F8827B85F39F0B93FCCF38695779569
:102400006795B395D9F73EF4909580957095619551
:102410007F4F8F4F9F4F0895E89409C097FB3EF47C
:1024200090958095709561957F4F8F4F9F4F992321
:10243000A9F0F92F96E9BB279395F695879577959F
:102440006795B795F111F8CFFAF4BB0F11F460FF5F
:102450001BC06F5F7F4F8F4F9F4F16C0882311F0B7
:1024600096E911C0772321F09EE8872F762F05C0CB
:10247000662371F096E8862F70E060E02AF09A9566
:10248000660F771F881FDAF7880F9695879597F95B
:10249000089597F99F6780E870E060E008959FEFE6
:1024A00080EC089500240A941616170618060906EB
:1024B000089500240A9412161306140605060895BA
:1024C000092E0394000C11F4882352F0BB0F40F442
:1024D000BF2B11F460FF04C06F5F7F4F8F4F9F4F82
:1024E000089557FD9058440F551F59F05F3F71F004
:1024F0004795880F97FB991F61F09F3F79F087956B
:102500000895121613061406551FF2CF4695F1DFF3
:1025100008C0161617061806991FF1CF8695710583
:10252000610508940895E894BB2766277727CB01B7
:1025300097F90895AA1BBB1B51E107C0AA1FBB1F37
:10254000A617B70710F0A61BB70B881F991F5A953F
:10255000A9F780959095BC01CD010895A1E21A2EAE
:10256000AA1BBB1BFD010DC0AA1FBB1FEE1FFF1F37
:10257000A217B307E407F50720F0A21BB30BE40B87
:10258000F50B661F771F881F991F1A9469F76095CE
:102590007095809590959B01AC01BD01CF01089588
:1025A000EE0FFF1F0590F491E02D0994A29FB0015A
:1025B000B39FC001A39F700D811D1124911DB29F77
:1025C000700D811D1124911D08950E94D612B7FF30
:1025D0000895821B930B08950E94D612A59F900D1B
:1025E000B49F900DA49F800D911D11240895F99919
:1025F000FECF92BD81BDF89A992780B50895A8E1D4
:10260000B0E042E050E00C941513262FF999FECF6C
:102610001FBA92BD81BD20BD0FB6F894FA9AF99AFF
:102620000FBE01960895DC01CB01FC01F999FECFA4
:1026300006C0F2BDE1BDF89A319600B40D9241504A
:0A2640005040B8F70895F894FFCF5A
:10264A000000BC02800001004F4B200020282D30E2
:10265A002900204D487A002A006442002B565A2B42
:10266A00565A20690020670020402000206331006C
:10267A00206F0020713100207800000000000C104B
:0A268A003A0E8E0FA70F990FEA0F0A
:00000001FF
