:100000000C9453030C942C130C9459130C947B03F1
:100010000C947B030C947B030C947B030C947B0368
:100020000C947B030C947B030C947B030C947B0358
:100030000C947B030C947B030C947B030C947B0348
:100040000C9486130C947B030C9405170C943717AF
:100050000C947B030C947B030C947B030C947B0328
:100060000C947B030C947B03A207CA067A07000852
:100070000008AD077507F607B806F607BD07EC07D9
:10008000F607F607F406F607D8070008A207810767
:10009000F607E9070008DF07F107C207205A7A7A56
:1000A0002E2E2E0A007465737420003E20002062FC
:1000B0000A00202D3E2000202D3E2061636B0A00A7
:1000C00020494920004153432000292000202800D6
:1000D000204700203F004F4B0043757272656E74DD
:1000E00020636F6E66696775726174696F6E3A0A34
:1000F000005B5246313264656D6F2E31335D000A0C
:10010000417661696C61626C6520636F6D6D616ED3
:1001100064733A0A20203C6E6E3E20692020202025
:10012000202D20736574206E6F646520494420285B
:100130007374616E64617264206E6F6465206964BB
:10014000732061726520312E2E3330290A20203C25
:100150006E3E20622020202020202D2073657420F8
:100160004D487A2062616E64202834203D2034336B
:10017000332C2038203D203836382C2039203D20A3
:10018000393135290A20203C6E6E6E6E3E206F207C
:1001900020202D206368616E676520667265717529
:1001A000656E6379206F666673657420776974681D
:1001B000696E207468652062616E642028646566DB
:1001C00061756C742031363030290A2020202020BF
:1001D0002020202020202020202039362E2E3339A8
:1001E0003033206973207468652072616E67652002
:1001F000737570706F7274656420627920746865BD
:100200002052464D3132420A20203C6E6E6E3E2016
:1002100067202020202D20736574206E6574776F11
:10022000726B2067726F7570202852464D313220F4
:100230006F6E6C7920616C6C6F7773203231322C69
:100240002030203D20616E79290A20203C6E3E201E
:10025000632020202020202D2073657420636F6C84
:100260006C656374206D6F64652028616476616ECF
:100270006365642C206E6F726D616C6C792030291F
:100280000A202074202020202020202020202D2023
:1002900062726F616463617374206D61782D73693C
:1002A0007A652074657374207061636B65742C20AB
:1002B000726571756573742061636B0A20202E2E40
:1002C0002E2C3C6E6E3E2061202D2073656E6420C6
:1002D00064617461207061636B657420746F206E5B
:1002E0006F6465203C6E6E3E2C207265717565737F
:1002F000742061636B0A20202E2E2E2C3C6E6E3EE5
:100300002073202D2073656E6420646174612070F9
:1003100061636B657420746F206E6F6465203C6E42
:100320006E3E2C206E6F2061636B0A20203C6E3E77
:1003300020712020202020202D20736574207175CD
:10034000696574206D6F6465202831203D20646FDD
:100350006E2774207265706F727420626164207001
:1003600061636B657473290A20203C6E3E207820FF
:1003700020202020202D20736574207265706F72FC
:1003800074696E6720666F726D61742028303A2040
:10039000646563696D616C2C20313A206865782C46
:1003A00020323A206865782B6173636969290A20D5
:1003B000203C6E6E6E3E2079202020202D20656E20
:1003C00061626C65207369676E616C20737472651D
:1003D0006E677468207472616365206D6F64652C4C
:1003E0002064656661756C743A30202864697361B5
:1003F000626C6564290A20202020202020202020F3
:10040000202020202073616D706C6520696E7465FA
:100410007276616C203C6E6E6E3E20736563732F46
:100420003130302028302E3031732D322E35732963
:10043000206567203130793D302E31730A2020311C
:100440003233207A2020202020202D20746F7461E8
:100450006C20706F77657220646F776E2C206E65EC
:10046000656473206120726573657420746F2073F6
:100470007461727420757020616761696E0A5265DB
:100480006D6F746520636F6E74726F6C20636F6D37
:100490006D616E64733A0A20203C686368693E2C83
:1004A0003C68636C6F3E2C3C616464723E2C3C6320
:1004B0006D643E206620202020202D2046533230BF
:1004C00020636F6D6D616E642028383638204D488A
:1004D0007A290A20203C616464723E2C3C64657673
:1004E0003E2C3C6F6E3E206B2020202020202020C0
:1004F0002020202020202D204B414B5520636F6D64
:100500006D616E642028343333204D487A290A0007
:10051000636F6E6669672073617665206661696CDA
:1005200065640A00010402000302048A050506C38B
:100530000B2019421E2C25802E882F2D37003800C5
:100540003C8F3D106F2000005EBCE2613FDD83C246
:100550009C7E20A3FD1F419DC3217FFCA2401E5F06
:1005600001E3BD3E6082DC237D9FC1421CFEA0E111
:10057000BF5D0380DE3C62BEE0025CDF81633D7CE8
:1005800022C09E1D43A1FF4618FAA427799BC5846B
:10059000DA3866E5BB5907DB856739BAE4065819CE
:1005A00047A5FB7826C49A653BD987045AB8E6A7C5
:1005B000F91B45C6987A24F8A6441A99C7257B3AB0
:1005C0006486D85B05E7B98CD2306EEDB3510F4E1F
:1005D00010F2AC2F7193CD114FADF3702ECC92D39E
:1005E0008D6F31B2EC0E50AFF1134DCE90722C6D79
:1005F00033D18F0C52B0EE326C8ED0530DEFB1F080
:10060000AE4C1291CF2D73CA947628ABF5174908DA
:1006100056B4EA6937D58B5709EBB536688AD49555
:10062000CB2977F4AA4816E9B7550B88D6346A2B3C
:100630007597C94A14F6A8742AC896154BA9F7B637
:10064000E80A54D7896B3500000008000201000059
:10065000030407000000000000000001020408106D
:100660002040800102040810200102040810200428
:100670000404040404040402020202020203030349
:1006800003030300000000230026002900000000EF
:1006900000250028002B0000000000240027002A6D
:1006A0000000D805671711241FBECFEFD8E0DEBFCA
:1006B000CDBF11E0A0E0B1E0E8EAF3E302C00590AD
:1006C0000D92A235B107D9F723E0A2E5B1E001C050
:1006D0001D92A632B207E1F716E0C6EAD6E004C0E2
:1006E0002297FE010E948119C23AD107C9F70E94E0
:1006F000B1150C94D2190C940000682F89E892E08F
:100700000C94AC141F93CF93DF93EC01FE01149172
:10071000112351F01A3019F48DE00E947D03812FCE
:100720000E947D032196F2CFDF91CF911F91089512
:100730008F7060E3680F6A3314F067E3680F89E82D
:1007400092E00C94AC14CF93C82F61E089E00E9432
:100750008D126C2F89E0CF910C94C612CF93C82FC5
:100760009091F4019370682F70E061F0CB0124E068
:10077000959587952A95E1F70E9498038C2FCF9144
:100780000C9498034AE050E089E892E0CF910C94F1
:10079000AA15CF92DF92EF92FF920E94D013C090E1
:1007A0000E02D0900F02E0901002F09011026C192E
:1007B0007D098E099F096F3671058105910508F441
:1007C00067C00E94D01360930E0270930F02809353
:1007D00010029093110280910A0290910B02A09155
:1007E0000C02B0910D028093060290930702A09331
:1007F0000802B09309020E94DC1360930A0270930E
:100800000B0280930C0290930D02C0901402D090C2
:100810001502E0901602F09017022FEFC21AD20ACA
:10082000E20AF20AC0921402D0921502E092160275
:10083000F0921702C0900602D0900702E0900802E2
:10084000F09009026C197D098E099F090E944418D5
:100850009B01AC0164EA73E986E59FE40E94AB1753
:100860006B017C016091060170910701882777FD7B
:100870008095982F0E9446189B01AC01C701B601D4
:100880000E94AB170E941318709313026093120218
:10089000FF90EF90DF90CF9008950F931F93CF9329
:1008A000DF9381E08093F301E1EFF1E08FEF9FEFC1
:1008B00021918227282F22952827022E26952695DA
:1008C0002025022E269520252770082E892F269573
:1008D00007942795902D82270694279590258227A7
:1008E00021E0EF3FF20721F7909300028093FF0190
:1008F0006091F10180E290E00E94B41901EF11E0F3
:10090000C0E2D0E0F80161918F01CE010E94B419DC
:100910002196C033D105B1F70E94CA09882331F06E
:10092000DF91CF911F910F910C949D0A80E195E08A
:10093000DF91CF911F910F910C948203CF9383E8A5
:1009400091E00E94E61060E083E891E00E944E1181
:1009500083E891E00E94740F873008F086E080936E
:100960005201C0E080915201C81770F488E0C89F1E
:10097000B00111246D5A7E4F86E991E00E94C00EAD
:10098000882311F0CF5FEECFCF9108950F931F937F
:10099000CF93DF9381E00E94A30364E670E080E0E0
:1009A00090E00E94FF1326E040E056E960E070E02E
:1009B00089E892E00E94A31689E892E00E94B314AD
:1009C00081EF90E00E9482030E94CA09882379F097
:1009D00001EF11E0C0E2D0E0CE010E94A619D801DB
:1009E0008D938D012196C033D105B1F71CC080E1F4
:1009F000E1EFF1E0DF011D928A95E9F78FE4809342
:100A0000F10182ED8093F20180E496E09093F6018B
:100A10008093F5018091F40188608093F4010E9435
:100A20004D040E94CA090E949D0A8FEF90E00E9427
:100A3000820389ED90E00E9482030E949D0A68EE85
:100A400073E080E090E00E94FF1380E00E94A30327
:100A50000E949E0442E050E069EC73E081E0DF9187
:100A6000CF911F910F910C94FC120F931F93CF9372
:100A7000DF9303E511E0C0E0D0E08091520190E007
:100A8000C817D90754F44BE0B80183E891E00E94FD
:100A900070102196085F1F4FF0CF83E891E00E940D
:100AA000CF1167E771E080E090E00E94FF1310E053
:100AB000809152011817F0F4C12FD0E0BE0133E04D
:100AC000660F771F3A95E1F76D5A7E4F83E891E004
:100AD0000E946012CC0FDD1FC85EDD4F20E030E0C9
:100AE00048EC52E40E94D2180E941318798368835C
:100AF0001F5FDECFDF91CF911F910F910895EF928D
:100B0000FF920F931F93CF93DF93CDB7DEB762971A
:100B10000FB6F894DEBF0FBECDBF82E1E2E1F2E096
:100B2000DE01119601900D928A95E1F769E071E07E
:100B300089E892E00E94AA144AE050E0609108011E
:100B400089E892E00E94A3158E010F5F1F4F7E017E
:100B500083E1E80EF11C60E289E892E00E94AC14A7
:100B6000F80161918F014AE050E089E892E00E942B
:100B7000A3150E151F0579F76DE071E089E892E085
:100B80000E94AA1489E892E00E94B3146AE070E01F
:100B900080E090E062960FB6F894DEBF0FBECDBF46
:100BA000DF91CF911F910F91FF90EF900C94FF1365
:100BB00065E086E991E00E949D0E66E971E083E8B8
:100BC00091E00C94650FCF92DF92EF92FF920F931A
:100BD0001F93CF93DF930E94D013009102021091D4
:100BE00003022091040230910502601B710B820BFD
:100BF000930B693873418105910570F00E94D01301
:100C000060930202709303028093040290930502A2
:100C10000E947F050E94350589E892E00E94C01578
:100C2000892B09F4F3C189E892E00E94D915C82FF5
:100C300080ED8C0F8A30A8F44091EE015091EF01C5
:100C40008AE0849F9001859F300D11242053310943
:100C50002C0F311DC7FD3A953093EF012093EE0123
:100C6000D5C1CC3281F4E091A701E63408F0CAC1C5
:100C700081E08E0F8093A701F0E0E855FE4F809150
:100C8000EE018083BFC18FE98C0F8A3148F58BEA72
:100C900090E00E948203D0E08091A701D81788F4E9
:100CA000ED2FF0E0E855FE4F608170E04AE050E043
:100CB00089E892E00E94AA158CE20E947D03DF5F22
:100CC000EBCF6091EE017091EF014AE050E089E8CE
:100CD00092E00E94AA156C2F89E892E00E94D91434
:100CE000CE3391F5E091A70181E08E0F8093A701AB
:100CF000F0E0E855FE4F8091EE0180832091F501F0
:100D00003091F6014091A9018091A801843031F021
:100D1000883031F0893031F463E005C061E003C010
:100D200062E001C060E08091AA010E9471094091D7
:100D3000A70144506CEA71E08091AB010E943C0A2B
:100D400082E00E945B0A16C1C1320CF459C14C2FDB
:100D5000552747FD5095652F752FFA01E156F1098A
:100D6000EA31F10508F042C1EC5CFF4F0C947F19A9
:100D70008091EE019091EF019C01215031092E31BB
:100D8000310508F03DC19091F101907E980F90934C
:100D9000F10127C08091EE01843031F0883031F0CC
:100DA000893031F423E005C021E003C022E001C016
:100DB00020E0822F90E09093EF018093EE01892B49
:100DC00009F41EC18091F1018F7340E4249F800DCE
:100DD00011248093F10180E496E09093F6018093D2
:100DE000F5010E944D040CC18091EE019091EF013C
:100DF0009C0120563109203E3E4030F49093F6018C
:100E00008093F5010E944D04E091F101F0E0A6E02D
:100E1000F595E795AA95E1F7CF0101978330910504
:100E200028F4DC01A35EBE4FAC9101C0A0E0B0E0AD
:100E300020EA36E841E050E00E949B196B017C01FA
:100E400029E130E0DF010E9494199B01AC01A091DF
:100E5000F501B091F6010E949B19C60ED71EE81E3F
:100E6000F91EC701B60120E137E240E050E00E94E0
:100E70005D1989019A016B017C014AE050E0B801DB
:100E800089E892E00E94AA158EE20E947D03C601C5
:100E900068EE73E00E94351980E3860F0E947D039F
:100EA000C60164E670E00E943519CB01CAE0D0E0CB
:100EB000BE010E943519805D0E947D03C601BE01FE
:100EC0000E943519182FCB01BE010E943519805D93
:100ED0000E947D0380E3810F0E947D0363E171E046
:100EE00089E892E00E94C7148BC08091EE01809344
:100EF000F20177CF8091F4019091EE0190FB82F99D
:100F000065C081E68093F00182E48093A60110928F
:100F1000A5012091A401E8EAF1E080E0982F920F6A
:100F200091938F5F8234D1F785EA90E00E9482032B
:100F30008091A4010E94AE038091A4018F5F8093F1
:100F4000A4015EC0C093F0018091A7018093A60127
:100F50008091EE018093A50153C020E436E040E08B
:100F600062E080E00E94710981E00E94A30380E0BA
:100F70000E94A3030E94CA0943C020E436E040E077
:100F800061E0EFCF8091EE019091EF018B379105F9
:100F9000B9F58CE990E00E94820389E892E00E9412
:100FA0001C1680E00E947A0AF8940E94800A28C0E9
:100FB0008091F4019091EE0190FB83F907C090912C
:100FC000EE0193708091F4018C7F892B8093F40162
:100FD00008CF81EF90E010C08091EE010E94A30342
:100FE0000FC08091EE01809301020AC08FEF90E064
:100FF0000E94820389ED90E00E9482030E949D0A74
:101000001092A7011092EF011092EE01809101025F
:10101000811111C10E94260A882309F4CEC0F090E4
:10102000270280916D0290916E02892B41F481E03C
:101030000E94A30386ED90E00E9482030DC0809180
:10104000F40183FD45C183ED90E00E94820384E1B9
:101050008F1510F4F4E1FF2E8091F401837019F0E4
:1010600088E50E947D038091F201811108C080ED26
:1010700090E00E948203809125020E94AE0380E2EC
:101080000E947D03809126028F710E94AE0308E2C8
:1010900012E0E801E02E8C2F801B8F1558F4809110
:1010A000F401837019F480E20E947D0389910E940B
:1010B000AE03F1CF8DEC90E00E9482038091F401A9
:1010C000837029F0809173020E94AE030EC060917C
:1010D000730270E0759567957195619571094AE0A5
:1010E00050E089E892E00E948E158AEC90E00E9420
:1010F000820389E892E00E94B3148091F401837026
:1011000090E002978CF185EC90E00E948203809140
:10111000F201811104C080EC90E00E948203809172
:10112000260286FF02C08EE301C08CE30E947D038D
:10113000809126028F71805C0E947D03C8E2D2E01C
:101140008C2F8E198F1560F480E20E947D038991A7
:1011500090EE980F9F3508F08EE20E947D03F0CF4D
:1011600089E892E00E94B31480916D0290916E0222
:10117000892B19F581E00E94A3038091260285FF47
:1011800019C08091260287FD15C08091F40182FD6F
:1011900011C087EB90E00E9482038091260286FDB9
:1011A00093C0809126028F71806C40E060E070E017
:1011B0000E943A0A80E00E94A3038091F0018823F4
:1011C00079F10E94380A882359F181E00E94A30333
:1011D00082EB90E00E9482036091A60170E04AE0F9
:1011E00050E089E892E00E94AA158EEA90E00E9401
:1011F00082038091F001813609F468C080E090910B
:10120000A501992311F09064892B4091A60168EA09
:1012100071E00E943A0A1092F00180E00E94A3035C
:1012200080E0DF91CF911F910F91FF90EF90DF90C1
:10123000CF900C94A3030E94260A0091730210E041
:1012400015950795E02EF12CC4E6D0E0C01BD10B1C
:101250008F2D90E08C179D072CF48DE20E947D036A
:10126000F394F6CF68E171E089E892E00E94AA1455
:10127000C0E0CE1528F480E20E947D03CF5FF9CF55
:1012800066277727601B710B4AE050E089E892E0FF
:101290000E948E156AE171E089E892E00E94C7140D
:1012A000609101029AE0699FB0011124882777FDBF
:1012B0008095982FDF91CF911F910F91FF90EF9024
:1012C000DF90CF900C94FF1380E86FCF80E297CF30
:1012D000DF91CF911F910F91FF90EF90DF90CF9012
:1012E0000895CF92DF92EF92FF921F93CF93DF93F7
:1012F000C82F162FD42FF901AFEFA60FA33028F473
:10130000B0E0A05EBE4FAC9101C0A0E0B0E020E82C
:1013100036E948E950E00E949B196B017C01212FBE
:1013200030E0A4ECB9E00E948519DF019B01AC011B
:101330000E949B19C60ED71EE81EF91EC701B601F2
:101340000E94940BD09377028C2F8F71809376023A
:1013500064E170E080E090E00E94FF1380917602EB
:10136000882341F043E050E063E07DE080E00E94AC
:10137000FC1203C080E00E941C130E94D40BC09397
:1013800024028C2FDF91CF911F91FF90EF90DF907F
:10139000CF900895EF92FF920F931F93CF93DF9317
:1013A0001F92CDB7DEB700E210E0EE24EA94FE2CE7
:1013B000C8010E94A619E8268E2D82958E25082E3A
:1013C000869586958025082E8695802587700E2C1B
:1013D000EF2C869507948795F02CE8260694879540
:1013E000F024E8260F5F1F4F0033110509F7EF289F
:1013F00021F582E290E00E94A6198130F1F480E2AA
:1014000090E00E94A619182F81E290E00E94A61990
:10141000482F84E290E049830E94AE199C01612F1D
:1014200070E086E0759567958A95E1F74981812F8F
:101430000E947109812F8F7101C080E00F90DF91B0
:10144000CF911F910F91FF90EF90089585E292E068
:101450000E942D0C90936E0280936D0220916D027C
:1014600030916E0281E02F3F3F4F09F480E00895F4
:101470000C94B10B0C948F0CEF92FF921F93CF93AF
:10148000DF931F92CDB7DEB7182F7B0149830E94EF
:10149000B10B4981811105C049830E94260A498107
:1014A000F5CFB701812F0F90DF91CF911F91FF9062
:1014B000EF900C948F0CCF93C82F0E94C20B8823FF
:1014C000B9F0CC23D1F383B7817FC33021F0C23090
:1014D00021F49CE003C094E001C090E0892B83BF1D
:1014E00083B7816083BF889583B78E7F83BFE5CF45
:1014F000CF91089591E0811190E0892F0C94C90B50
:10150000EAE7F0E0908180818F77808383B7817FE5
:10151000846083BFF89483B7816083BF85B780669A
:1015200085BF85B78F79806485BF7894889583B7A8
:101530008E7F83BF90937A000895CF92DF92FF92BF
:101540000F931F93CF93DF931F92CDB7DEB780E247
:1015500090E00E94A619082F83E290E00E94A6194D
:10156000182F84E290E00E94AE196C0160E289E8D5
:1015700092E00E94AC14202F2F7160E4620F89E882
:1015800092E029830E94AC1463E271E089E892E062
:101590000E94AA142981622F70E04AE050E089E895
:1015A00092E00E948E15812F8470F82E12FF05C0E4
:1015B0006AE289E892E00E94AC1466E271E089E890
:1015C00092E00E94AA1481E290E00E94A6194AE0EB
:1015D00050E0682F89E892E00E94A31569E271E06B
:1015E00089E892E00E94AA14802F829586958695BC
:1015F0008370813039F0823041F0833049F463E9FF
:1016000073E008C061EB71E005C064E673E002C0FE
:1016100060E070E04AE050E089E892E00E948E15B8
:1016200063E171E089E892E00E94AA14FF2031F0A2
:101630006DE271E089E892E00E94AA14E0E4CE161F
:10164000E6E0DE0669F061E371E089E892E00E947D
:10165000AA144AE050E0B60189E892E00E94AA1577
:1016600013FF06C064E371E089E892E00E94AA14C7
:10167000137071F068E371E089E892E00E94AA14A7
:10168000612F70E04AE050E089E892E00E948E15F8
:1016900089E892E00F90DF91CF911F910F91FF9019
:1016A000DF90CF900C94B3148627682F629568273B
:1016B000062E669566956025062E669560256770F0
:1016C000082E892F669507946795902D8627069496
:1016D0006795902586270895E8982A988EBD0DB4C1
:1016E00007FEFDCF8EB56EBD0DB407FEFDCF8EB5E6
:1016F0002A9AE89A089560E00C946C0B88E20E94A4
:101700007B0B807521F080E00E947B0BF7CF089562
:10171000CF93C82F81E00E947B0B682F637E6C2BD8
:1017200081E8CF910C946C0B22E0660F771F881F25
:10173000991F2A95D1F729E03DE340E050E00E944F
:101740005D1966E0220F331F441F551F6A95D1F7BC
:10175000209378023093790240937A0250937B026F
:10176000089580917102853021F48091720288235E
:1017700011F080E0089584E0809371020E94880B4C
:1017800081E008959091710281E094300CF080E046
:101790000895882311F080E001C084E00E94880B46
:1017A00084E0809371020895CF93DF932A9A229A5E
:1017B0002A9A84B18C6284B980E58CBD8DB5816034
:1017C0008DBD6AEA8FEA0E946C0B8FE20E947B0B50
:1017D0008A3AB9F765E58FEA0E946C0B8FE20E94A6
:1017E0007B0B8535B9F7C4E2D5E0FE0184918823EF
:1017F00039F03196649180680E946C0B2296F5CF87
:101800006091770280EB0E946C0B8091780290913E
:101810007902A0917A02B0917B02BD0188279927B5
:1018200087E80E946C0B8091780290917902A091D8
:101830007A02B0917B02692F7A2F8B2F992788E843
:101840000E946C0B6091780289E80E946C0B84E026
:1018500080937102DF91CF910895CF93DF93EC01D4
:1018600080917102843019F0853021F14DC01092C1
:10187000270210927202609177028FEF9FEF0E9411
:10188000540B9093750280937402D0937002C093AE
:101890006F0285E0809371020E947E0B60E885EA0A
:1018A0000E946C0B80E10E94880B62E08EE90E942E
:1018B0006C0B2AC0809127022091720290E004965E
:1018C00030E08217930724F0809172028834E0F0B0
:1018D00084E0809371020E94880B809127028334F8
:1018E000B0F48091740290917502892B81F48091FB
:1018F000260286FF0FC0909176029F3159F08091A9
:1019000026028F71891731F08FEF9FEF05C081E0BC
:1019100090E002C080E090E0DF91CF910895CF93F6
:1019200040932702FB0120E030E050E02417350708
:1019300044F4D901A85DBD4F91919C932F5F3F4F17
:10194000F5CF86FD04C0807E90917602890F80934A
:101950002602609177028FEF9FEF0E94540B9093C5
:10196000750280937402909127028EEF891B8093F9
:1019700071020E947E0B8CE00E94880B60E085EA79
:101980000E946C0B809171028330DCF588E20E942A
:101990007B0B87FDF7CF8091710287FF1BC0909171
:1019A000270280917102E0916F02F0917002E90FBD
:1019B000F11DE80FF11D87FDFA95C3816C2F809111
:1019C0007402909175020E94540B9093750280935B
:1019D00074020DC080917102882329F0813031F4A6
:1019E000C091750204C0C091740201C0CAEA6C2F94
:1019F00080E80E946C0B809171028F5F809371026E
:101A0000C1CFCF91089580917102853009F04DC00A
:101A100060E485EA0E946C0B84E20E947B0B809359
:101A20007302789488E20E947B0B8075D9F38091D1
:101A3000720281110FC0E0916F02F09170028091EB
:101A4000720291E0980F9093720290917702E80FE2
:101A5000F11D908380E00E947B0BE0916F02F0917A
:101A600070029091720221E0290F20937202E90F17
:101A7000F11D8083682F80917402909175020E94FD
:101A8000540B9093750280937402809127022091E9
:101A9000720290E0049630E082179307A4F08091E0
:101AA0007202883408F4BECF089588E20E947B0B4E
:101AB00083FF09C084E0809371020E94880B60E874
:101AC00085EA0C946C0B0895FF920F931F93CF93AC
:101AD000DF93FC010081C181D281F8948981F02ECD
:101AE000F0948F21898378941DE7115029F182E0C9
:101AF00090E00E94271488818023B9F3F8948A81AA
:101B00008F218A838981802B8983789480EE91E06C
:101B10000E942714F89489818F21898386E490E0BC
:101B20000E9427148881802311E009F010E0789446
:101B30008AE991E00E942714812FDF91CF911F91B4
:101B40000F91FF9008951F93CF93DF93FC011081B5
:101B5000C181D281912F909560FF12C0F8948A8143
:101B600089238A838981812B89838AE090E00E947E
:101B700027148A81812B8A83789487E390E011C0AF
:101B8000F8948A8189238A838981812B898381E4DE
:101B900090E00E9427148A81812B8A83789485E0C3
:101BA00090E0DF91CF911F910C9427140F931F9316
:101BB000CF93DF93FC011081C181D281F894898198
:101BC000812B89838A81012F009580238A8383E07A
:101BD00090E00E9427148981802389838AE090E025
:101BE0000E942714C881789485E390E00E9427140E
:101BF0001C2381E009F480E0DF91CF911F910F91C8
:101C00000895CF92DF92EF92FF920F931F93CF939D
:101C1000DF931F92CDB7DEB76C01E62E08E010E02F
:101C2000FF24F39461E09F2D9E2109F460E0C6013A
:101C300049830E94A30DFF0C015011094981011530
:101C4000110581F7411115C0F894D6011196ED9157
:101C5000FC91129791818C918095892381831196B3
:101C6000ED91FC91129792818C91809589238283CA
:101C700078940F90DF91CF911F910F91FF90EF908B
:101C8000DF90CF900895EF92FF920F931F93CF9321
:101C9000DF938C01C8E0D0E0F12CEE24E394C8017E
:101CA0000E94D60D8111FE28EE0C2197C1F78F2DD1
:101CB000DF91CF911F910F91FF90EF900895CF92F8
:101CC000DF92FF920F931F93CF93DF931F92CDB7B5
:101CD000DEB78C01F62E40E065E579830E94010EA7
:101CE000CF2C7981D72E88E0F82EF60161916F0113
:101CF00040E0C8010E94010EFA94B9F70F90DF91FD
:101D0000CF911F910F91FF90DF90CF90089540E009
:101D10006CEC0C94010EFC0113861586148627E0EA
:101D200030E0DF01A20FB31F13961C92211531057D
:101D300019F021503109F5CF08951F93CF93DF9308
:101D4000EC01162F60E0812F0E948D12612F70E050
:101D5000FB01E55AF94FE491E883FB01E159F94FA2
:101D6000E491F0E0EE0FFF1FED57F94F859194914C
:101D70009A838983CE01DF91CF911F910C948B0EB2
:101D8000AF92BF92CF92DF92EF92FF920F931F9389
:101D9000CF93DF931F92CDB7DEB75C01E62ED72E2F
:101DA000FC01858581115DC0C5010E94640D811112
:101DB00005C0F5011386158614866EC040E060EFFD
:101DC000C5010E94010E01E0F12CC12C11E0C501FA
:101DD0000E94D60D682FC50169830E94D60D6981C6
:101DE000613019F48130B9F433C02F2D30E068131D
:101DF0001BC0F5018385181730F4E20FF31F8381B0
:101E0000802349F402C0181731F060E0193058F40B
:101E1000F501148708C0F501EF0DF11D8381802BBA
:101E2000838361E009C0C12EF501E20FF31F8381B6
:101E3000902F909589238383C5010E94A30D1F5F76
:101E4000000F11F4F39401E0F7E0FF1508F0BFCFA5
:101E5000113438F0F501C386C11018C081E08587C0
:101E600015C0F50113861586148680E0EE2DFD2D34
:101E700020E030E0D501A20FB31F13969C919193FF
:101E80002F5F3F4F28303105A9F706C0F501838148
:101E9000882339F381E0EACF0F90DF91CF911F9132
:101EA0000F91FF90EF90DF90CF90BF90AF9008958B
:101EB000DC0180E0615038F0ED91E827F0E0E95B6B
:101EC000FA4F8491F7CF08950895FC0184E69FE0CE
:101ED000928B818B768365831482108289E0818363
:101EE00081E0828383830895FC0184810895CF93E8
:101EF000DF93EB0167E0CE010E94580F91E02F8144
:101F0000821390E0892FDF91CF910895CF92DF92D5
:101F1000EF92FF920F931F93CF93DF9300D0CDB733
:101F2000DEB76C01F42EE52EFC0185819681698374
:101F30007A830E94640D69817A81882311F1F60108
:101F4000858196810E945F0E40E06EEBF6018581EF
:101F500096810E94010E0F2D1E2D89E0F82EF601AC
:101F6000858196810E94430EF80181938F01FA9436
:101F7000B1F7F601858196810E94640D91E0813070
:101F800009F090E0892F0F900F90DF91CF911F9172
:101F90000F91FF90EF90DF90CF900895CF93DF9354
:101FA000EA010E94860F882351F068E0CE010E946A
:101FB000580F91E02885821390E0892F01C080E0BE
:101FC000DF91CF910895EF92FF920F931F93CF93DC
:101FD000DF93EC018B017A018D819E810E94640D5B
:101FE000B8018D819E810E945F0E40E06EE48D817C
:101FF0009E810E94010E40E0F70162818D819E81E9
:102000000E94010E40E0F70163818D819E810E9454
:10201000010EF8018081803139F040E0F7016481E0
:102020008D819E810E94010E8D819E810E94640D92
:10203000B8018D819E810E945F0E488168E48D8188
:102040009E810E94010E64E170E080E090E00E94B9
:10205000FF138881882331F06AE070E080E090E02F
:102060000E94FF138D819E81DF91CF911F910F916F
:10207000FF90EF900C94640DEF92FF921F93CF931B
:10208000DF9300D0CDB7DEB77C01FC01858196815E
:1020900069837A830E94640D69817A81F701858161
:1020A00096810E945F0E40E064EBF7018581968186
:1020B0000E94010EF701858196810E94D60D182F8E
:1020C000F701858196810E94640D81E0111180E005
:1020D0000F900F90DF91CF911F91FF90EF90089597
:1020E000EF92FF920F931F93CF93DF93CDB7DEB79D
:1020F0002A970FB6F894DEBF0FBECDBF7C018B01CF
:10210000242FAE014F5F5F4F2A870E94CE0F2A8592
:102110008823D1F0F80180818031C1F02B3041F06B
:102120002C3021F02A3031F48FE305C08FE703C053
:102130008FE501C08FE18D83AE014F5F5F4FB80126
:10214000C7010E94E30F02C080E001C081E02A962F
:102150000FB6F894DEBF0FBECDBFDF91CF911F91B8
:102160000F91FF90EF900895CF93DF93CDB7DEB737
:1021700029970FB6F894DEBF0FBECDBFFB012081BB
:102180002031D1F0AE014F5F5F4F0E94CE0F882308
:1021900079F08D818F3351F020F48F3149F489E04B
:1021A0000CC08F3539F08F3739F002C08AE005C096
:1021B00080E003C08BE001C08CE029960FB6F89454
:1021C000DEBF0FBECDBFDF91CF910895EF92FF929A
:1021D0000F931F93CF93DF93CDB7DEB761970FB601
:1021E000F894DEBF0FBECDBF8C01FC0185819681C6
:1021F0000E948B0EF8011482FF24F394BE01665FE7
:102200007F4FF801858196810E94C00E8823C9F115
:10221000BE01665F7F4FC8010E94770F882371F36C
:10222000F8018081811108C0BE01665F7F4FC8013F
:102230000E943C10811122C0AE014F5F5F4FBE0172
:10224000665F7F4FC8010E94860FF801E180BE01E2
:10225000665F7F4FC8010E94B4108E1518F4F80114
:10226000818106C0BE01665F7F4FC8010E94B41025
:10227000F801818384818F5F8483C0CFF801F0826D
:10228000DBCF61960FB6F894DEBF0FBECDBFDF91F6
:10229000CF911F910F91FF90EF900895FC01628301
:1022A0000895CF93DF93CDB7DEB729970FB6F89493
:1022B000DEBF0FBECDBFAE014F5F5F4F0E94860FE6
:1022C00081E09981911101C080E029960FB6F894C0
:1022D000DEBF0FBECDBFDF91CF9108958F929F9249
:1022E000AF92BF92CF92DF92EF92FF920F931F9324
:1022F000CF93DF93EC018A016950633048F4E62FF5
:10230000F0E0EE0FFF1FE55CFE4F8080918004C07F
:102310009EEE892E92E0992E0115110501F18B8117
:102320008823E9F0888181111AC00E94D0136B01C3
:102330007C01AA2497FCA094BA2CB801CE010E947B
:10234000511181111FC00E94D013681979098A099F
:102350009B096C157D058E059F05A0F4EECFB40199
:10236000882777FD8095982FDF91CF911F910F914E
:10237000FF90EF90DF90CF90BF90AF909F908F90A5
:102380000C94FF13DF91CF911F910F91FF90EF906D
:10239000DF90CF90BF90AF909F908F900895CF9394
:1023A000DF93EC018D819E810E94640D8D819E8161
:1023B0000E94870E488164E48D819E810E94010EF7
:1023C0008A81882341F040E050E06981CE01DF91AD
:1023D000CF910C946E11DF91CF910895FA01208175
:1023E00048E0249F90011124818190E0982F882754
:1023F000990F990F990F282B392BDB018C91803184
:10240000C1F4678170E08681AB01481B5109CA01A4
:102410009695982F8827979587950E94491960511E
:102420007109207F53E0220F331F5A95E1F7260FE1
:10243000371FC9010895EF92FF920F931F93CF9317
:10244000DF93CDB7DEB729970FB6F894DEBF0FBE86
:10245000CDBF8C017B01AE014F5F5F4F0E94CE0F5D
:10246000882341F0AE014F5F5F4FB701C8010E9462
:10247000EE1102C080E894EE29960FB6F894DEBF04
:102480000FBECDBFDF91CF911F910F91FF90EF90C5
:102490000895813824EE920774F0BC01882777FDF7
:1024A0008095982F0E94461820E030E040E05CE3E1
:1024B0000E94D218089560E070E08EEF92EC0895CB
:1024C0000E941B120C944912833081F028F4813051
:1024D00099F08230A1F008958730A9F08830B9F0E2
:1024E0008430D1F4809180008F7D03C08091800082
:1024F0008F7780938000089584B58F7702C084B56C
:102500008F7D84BD08958091B0008F7703C0809146
:10251000B0008F7D8093B0000895CF93DF9390E05B
:10252000FC01E55AF94F2491FC01E159F94F8491DE
:10253000882349F190E0880F991FFC01E956F94F73
:10254000A591B4918357994FFC01C591D4919FB740
:10255000611108C0F8948C91209582238C93888116
:1025600082230AC0623051F4F8948C91322F309556
:1025700083238C938881822B888304C0F8948C9168
:10258000822B8C939FBFDF91CF9108950F931F9360
:10259000CF93DF931F92CDB7DEB7282F30E0F9013C
:1025A000E95BF94F8491F901E55AF94F1491F9016A
:1025B000E159F94F04910023C9F0882321F0698380
:1025C0000E9464126981E02FF0E0EE0FFF1FE357D5
:1025D000F94FA591B4919FB7F8948C91611103C004
:1025E0001095812301C0812B8C939FBF0F90DF91A9
:1025F000CF911F910F9108958230E8F4E82FF0E019
:10260000EE0FFF1FE458FD4F71836083813041F06E
:10261000809169008C7F842B80936900E89A0895EB
:1026200080916900440F551F440F551F837F842BF1
:1026300080936900E99A0895823068F4813011F03E
:10264000E89801C0E998E82FF0E0EE0FFF1FE4588A
:10265000FD4F1182108208951F920F920FB60F92B4
:1026600011242F933F934F935F936F937F938F9397
:102670009F93AF93BF93EF93FF9380917C029091D0
:102680007D02892B29F0E0917C02F0917D02099571
:10269000FF91EF91BF91AF919F918F917F916F913A
:1026A0005F914F913F912F910F900FBE0F901F9010
:1026B00018951F920F920FB60F9211242F933F93EC
:1026C0004F935F936F937F938F939F93AF93BF933A
:1026D000EF93FF9380917E0290917F02892B29F0E6
:1026E000E0917E02F0917F020995FF91EF91BF91F9
:1026F000AF919F918F917F916F915F914F913F919A
:102700002F910F900FBE0F901F9018951F920F9250
:102710000FB60F9211242F933F938F939F93AF93F4
:10272000BF938091810290918202A0918302B09127
:1027300084023091800223E0230F2D3720F401968C
:10274000A11DB11D05C026E8230F0296A11DB11DD4
:10275000209380028093810290938202A09383024F
:10276000B09384028091850290918602A0918702A5
:10277000B09188020196A11DB11D809385029093AE
:102780008602A0938702B0938802BF91AF919F9178
:102790008F913F912F910F900FBE0F901F90189522
:1027A0002FB7F89460918102709182028091830228
:1027B000909184022FBF08953FB7F89480918502CD
:1027C00090918602A0918702B091880226B5A89BBD
:1027D00005C02F3F19F00196A11DB11D3FBF66270F
:1027E000782F892F9A2F620F711D811D911D42E054
:1027F000660F771F881F991F4A95D1F70895CF92CA
:10280000DF92EF92FF92CF93DF936B017C010E94E6
:10281000DC13EB01C114D104E104F10489F00E943E
:10282000AA170E94DC136C1B7D0B683E734090F36B
:1028300081E0C81AD108E108F108C851DC4FEACF9D
:10284000DF91CF91FF90EF90DF90CF9008950197A7
:1028500039F0880F991F880F991F02970197F1F798
:102860000895789484B5826084BD84B5816084BD08
:1028700085B5826085BD85B5816085BDEEE6F0E0F9
:10288000808181608083E1E8F0E010828081826055
:102890008083808181608083E0E8F0E080818160D6
:1028A0008083E1EBF0E0808184608083E0EBF0E006
:1028B000808181608083EAE7F0E0808184608083AA
:1028C0008081826080838081816080838081806854
:1028D00080831092C1000895CF92DF92EF92FF9211
:1028E0000F931F93CF93DF936C017A01EB01E60EF8
:1028F000F71E00E010E0CE15DF0561F06991D6010A
:10290000ED91FC910190F081E02DC6010995080F31
:10291000191FF1CFC801DF91CF911F910F91FF9047
:10292000EF90DF90CF9008956115710581F0DB0184
:102930000D900020E9F7AD0141505109461B570B9E
:10294000DC01ED91FC910280F381E02D099480E09F
:1029500090E008950C949414DC01ED91FC910190A9
:10296000F081E02D09940F931F93CF93DF93EC0137
:102970006DE00E94AC148C016AE0CE010E94AC14A0
:10298000800F911FDF91CF911F910F9108950F93A9
:102990001F93CF93DF93EC010E9494148C01CE011E
:1029A0000E94B314800F911FDF91CF911F910F915F
:1029B00008950F931F93CF93DF93EC010E94AC1403
:1029C0008C01CE010E94B314800F911FDF91CF9133
:1029D0001F910F9108958F929F92AF92BF92CF92C5
:1029E000DF92EF92FF920F931F93CF93DF93CDB7B8
:1029F000DEB7A1970FB6F894DEBF0FBECDBF7C0146
:102A0000C42EE52FCB01D22E19A221E02D1510F0F6
:102A10002AE0D22E8E010F5D1F4F8D2C912CA12C00
:102A2000B12C6C2D7E2FA50194010E945D198C2D77
:102A3000D29E80191124015011098A3014F4805D4E
:102A400001C0895CF80180832115310541055105DC
:102A500021F0C22EE32FCA01E4CFB801C7010E94C2
:102A60009414A1960FB6F894DEBF0FBECDBFDF91D0
:102A7000CF911F910F91FF90EF90DF90CF90BF907B
:102A8000AF909F908F900895CF92DF92EF92FF9238
:102A90000F931F93CF93DF93EC016A017B01211504
:102AA000310579F4E881F9810190F081E02D642FFE
:102AB000DF91CF911F910F91FF90EF90DF90CF901A
:102AC00009942A303105E9F477FF1AC06DE20E94BB
:102AD000AC148C0144275527BA014C195D096E09C5
:102AE0007F092AE0CE010E94EB14800F911FDF9135
:102AF000CF911F910F91FF90EF90DF90CF900895AD
:102B00002AE0B701A601CE01DF91CF911F910F916D
:102B1000FF90EF90DF90CF900C94EB149A01AB01F3
:102B2000662757FD6095762F0C94441521153105C5
:102B300041F4DC01ED91FC910190F081E02D642FD6
:102B400009940C94EB149A01462F50E060E070E079
:102B50000C9496159A01AB0160E070E00C94961508
:102B600008950E9431140E94B0150E94C604CDEE53
:102B7000D5E10E94E3052097E1F30E94ED15F9CF1E
:102B8000FC01818D228D90E0805C9F4F821B91091A
:102B90008F7399270895FC01918D828D981731F0DC
:102BA000828DE80FF11D858D90E008958FEF9FEFE6
:102BB0000895FC01918D828D981761F0828DDF015F
:102BC000A80FB11D5D968C91928D9F5F9F73928F20
:102BD00090E008958FEF9FEF08958DE597E1892BA1
:102BE00049F080E090E0892B29F00E945D17811167
:102BF0000C9400000895FC01848DDF01A80FB11D25
:102C0000A35ABF4F2C91848D90E001968F73992722
:102C1000848FA689B7892C93A089B1898C9180640F
:102C20008C93938D848D981306C00288F389E02DD0
:102C300080818F7D80830895CF93DF93EC01888D11
:102C40008823C9F0EA89FB89808185FD05C0A889B0
:102C5000B9898C9186FD0FC00FB607FCF5CF808136
:102C600085FFF2CFA889B9898C9185FFEDCFCE0180
:102C70000E94FB15E7CFDF91CF910895CF92DF92AD
:102C8000FF920F931F93CF93DF931F92CDB7DEB7C1
:102C90006C01DC015B969C915B975C968C915C97D8
:102CA000981307C05096ED91FC915197808185FD56
:102CB00032C0F601038D10E00F5F1F4F0F73112715
:102CC000F02EF601848DF81211C00FB607FCF9CF73
:102CD000D6015096ED91FC915197808185FFF1CFFF
:102CE000C60169830E94FB156981EBCF838DE80FD4
:102CF000F11DE35AFF4F6083D6015B960C935B97FF
:102D00005296ED91FC91539780818062808381E09F
:102D100058968C930DC0D6015696ED91FC9157971D
:102D200060835096ED91FC915197808180648083FF
:102D300081E090E00F90DF91CF911F910F91FF9074
:102D4000DF90CF900895BF92CF92DF92EF92FF92E3
:102D5000CF93DF93EC016A017B01B22EE889F989F8
:102D600082E08083411581EE580761057105A1F06D
:102D700060E079E08DE390E0A70196010E945D1983
:102D800021503109410951095695479537952795A5
:102D9000211580E1380798F0E889F989108260E808
:102DA00074E88EE190E0A70196010E945D19215020
:102DB0003109410951095695479537952795EC8575
:102DC000FD853083EE85FF852083188EEC89FD8993
:102DD000B082EA89FB89808180618083EA89FB89EE
:102DE000808188608083EA89FB8980818068808314
:102DF000EA89FB8980818F7D8083DF91CF91FF906D
:102E0000EF90DF90CF90BF9008951F920F920FB672
:102E10000F9211242F938F939F93EF93FF93E09141
:102E20009902F0919A028081E0919F02F091A002B4
:102E300082FD12C090818091A2028F5F8F732091DA
:102E4000A302821751F0E091A202F0E0E757FD4F94
:102E5000958F8093A20201C08081FF91EF919F9195
:102E60008F912F910F900FBE0F901F9018951F926A
:102E70000F920FB60F9211242F933F934F935F93AE
:102E80006F937F938F939F93AF93BF93EF93FF9332
:102E900089E892E00E94FB15FF91EF91BF91AF91FD
:102EA0009F918F917F916F915F914F913F912F9162
:102EB0000F900FBE0F901F90189589E892E00E9426
:102EC000C01521E0892B09F420E0822F089510928B
:102ED0008C0210928B0288EE93E0A0E0B0E0809329
:102EE0008D0290938E02A0938F02B093900285E49E
:102EF00091E090938A028093890285EC90E0909310
:102F000096028093950284EC90E0909398028093CF
:102F1000970280EC90E090939A028093990281EC62
:102F200090E090939C0280939B0282EC90E09093BF
:102F30009E0280939D0286EC90E09093A002809385
:102F40009F021092A2021092A3021092A402109269
:102F5000A502089508950CD0EBC0E3D040F0DAD07C
:102F600030F021F45F3F19F0CCC0511115C1CFC032
:102F7000F0D098F39923C9F35523B1F3951B550B62
:102F8000BB27AA2762177307840738F09F5F5F4F3C
:102F9000220F331F441FAA1FA9F333D00E2E3AF07D
:102FA000E0E830D091505040E695001CCAF729D097
:102FB000FE2F27D0660F771F881FBB1F26173707E6
:102FC0004807AB07B0E809F0BB0B802DBF01FF2716
:102FD00093585F4F2AF09E3F510568F092C0DCC0C5
:102FE0005F3FECF3983EDCF3869577956795B79550
:102FF000F7959F5FC9F7880F911D9695879597F96B
:103000000895E1E0660F771F881FBB1F62177307E3
:103010008407BA0720F0621B730B840BBA0BEE1FF8
:1030200088F7E095089504D06894B111B5C008956B
:1030300098D088F09F5790F0B92F9927B751A0F0FA
:10304000D1F0660F771F881F991F1AF0BA95C9F73C
:1030500012C0B13081F09FD0B1E008959CC0672FBD
:10306000782F8827B85F39F0B93FCCF386957795EC
:103070006795B395D9F73EF49095809570956195D5
:103080007F4F8F4F9F4F0895E89409C097FB3EF400
:1030900090958095709561957F4F8F4F9F4F9923A5
:1030A000A9F0F92F96E9BB279395F6958795779523
:1030B0006795B795F111F8CFFAF4BB0F11F460FFE3
:1030C0001BC06F5F7F4F8F4F9F4F16C0882311F03B
:1030D00096E911C0772321F09EE8872F762F05C04F
:1030E000662371F096E8862F70E060E02AF09A95EA
:1030F000660F771F881FDAF7880F9695879597F9DF
:10310000089597F99F6780E870E060E008959FEF69
:1031100080EC089500240A9416161706180609066E
:10312000089500240A94121613061406050608953D
:10313000092E0394000C11F4882352F0BB0F40F4C5
:10314000BF2B11F460FF04C06F5F7F4F8F4F9F4F05
:10315000089557FD9058440F551F59F05F3F71F087
:103160004795880F97FB991F61F09F3F79F08795EE
:103170000895121613061406551FF2CF4695F1DF77
:1031800008C0161617061806991FF1CF8695710507
:10319000610508940895E894BB2766277727CB013B
:1031A00097F908950BD0C4CFB5DF28F0BADF18F037
:1031B000952309F0A6CFABCF1124EECFCADFA0F341
:1031C000959FD1F3950F50E0551F629FF001729FBC
:1031D000BB27F00DB11D639FAA27F00DB11DAA1FDB
:1031E000649F6627B00DA11D661F829F2227B00D28
:1031F000A11D621F739FB00DA11D621F839FA00DB3
:10320000611D221F749F3327A00D611D231F849F02
:10321000600D211D822F762F6A2F11249F57504059
:103220008AF0E1F088234AF0EE0FFF1FBB1F661FF4
:10323000771F881F91505040A9F79E3F510570F0AD
:1032400060CFAACF5F3FECF3983EDCF3869577958D
:103250006795B795F795E7959F5FC1F7FE2B880FA8
:10326000911D9695879597F90895AA1BBB1B51E16F
:1032700007C0AA1FBB1FA617B70710F0A61BB70BE6
:10328000881F991F5A95A9F780959095BC01CD018B
:10329000089597FB072E16F4009407D077FD09D008
:1032A0000E94351907FC05D03EF4909581959F4FFB
:1032B0000895709561957F4F0895A1E21A2EAA1B7B
:1032C000BB1BFD010DC0AA1FBB1FEE1FFF1FA217D6
:1032D000B307E407F50720F0A21BB30BE40BF50BD3
:1032E000661F771F881F991F1A9469F7609570955C
:1032F000809590959B01AC01BD01CF010895EE0F23
:10330000FF1F0590F491E02D0994A29FB001B39F97
:10331000C001A39F700D811D1124911DB29F700DDE
:10332000811D1124911D08950E948519B7FF0895EC
:10333000821B930B08950E948519A59F900DB49F41
:10334000900DA49F800D911D11240895F999FECF31
:1033500092BD81BDF89A992780B50895A8E1B0E0A3
:1033600042E050E00C94C419262FF999FECF1FBA01
:1033700092BD81BD20BD0FB6F894FA9AF99A0FBE9E
:1033800001960895DC01CB01FC01F999FECF06C03E
:10339000F2BDE1BDF89A319600B40D924150504013
:0833A000B8F70895F894FFCF7F
:1033A80000002603800001000F4F4B200020282D2D
:1033B800302900204D487A002A006442002B565AD2
:1033C8002B565A20690020670020402000206331D6
:1033D80000206F00207131002078005E00BC00776B
:1033E80001000000003E166C14C015D915CB151C41
:0233F8001600BD
:00000001FF
