:100000000C9423050C946E120C9447120C9420123D
:100010000C94F9110C944B050C944B050C94D211D3
:100020000C944B050C944B050C94850D0C94F70D1A
:100030000C944B050C944B050C944B050C944B0500
:100040000C944B050C944B050C944B050C944B05F0
:100050000C944B050C944B050C944B050C94881197
:100060000C944B050C944B050C944B050C944B05D0
:100070000C944B050C944B050C944B050C944B05C0
:100080000C944B050C944B050C944B050C944B05B0
:100090000C944B050C944B050C944B050C944B05A0
:1000A0000C944B050C944B050C944B05DF1BD71996
:1000B000A11AD71CEC1C761C9A1A061DCB19A81A7B
:1000C0008D1CD21CF819421B2F1AE21ABF1CDF1B11
:1000D000DF1B071BF21BCF1CDF1BC61C011DA21C54
:1000E0003F104210311035103B1063106310631045
:1000F00046104A104E105410581063105E1063647E
:10010000696E6F70737578585B005B524636396460
:10011000656D6F2E31335D0043757272656E7420AC
:10012000636F6E66696775726174696F6E3A0A0013
:100130000A417661696C61626C6520636F6D6D6107
:100140006E64733A0A20203C6E6E3E2069202020A7
:1001500020202D20736574206E6F64652049442033
:10016000287374616E64617264206E6F64652069C7
:1001700064732061726520312E2E3330290A2020CD
:100180003C6E3E20622020202020202D20736574AC
:10019000204D487A2062616E64202834203D20344E
:1001A00033332C2038203D203836382C2039203D60
:1001B00020393135290A20203C6E6E6E6E3E206F4C
:1001C0002020202D206368616E676520667265714E
:1001D00075656E6379206F666673657420776974E0
:1001E00068696E207468652062616E6420286465A9
:1001F0006661756C742031363030290A2020202049
:10020000202020202020202020202039362E2E3390
:10021000393033206973207468652072616E6765B8
:1002200020737570706F72746564206279207468D1
:10023000652052464D3132420A20203C6E6E6E3EA1
:100240002067202020202D20736574206E65747730
:100250006F726B2067726F7570202852464D313275
:10026000206F6E6C7920616C6C6F77732032313245
:100270002C2030203D20616E79290A20203C6E3EE2
:1002800020632020202020202D2073657420636FA0
:100290006C6C656374206D6F6465202861647661A1
:1002A0006E6365642C206E6F726D616C6C792030AA
:1002B000290A202074202020202020202020202DEA
:1002C0002062726F616463617374206D61782D7355
:1002D000697A652074657374207061636B65742C32
:1002E00020726571756573742061636B0A20206CE0
:1002F000202020202020202020202D2073686F77B0
:10030000206C65642061637469766974790A2020C1
:100310002E2E2E2C3C6E6E3E2061202D2073656E9D
:10032000642064617461207061636B657420746F14
:10033000206E6F6465203C6E6E3E2C207265717578
:100340006573742061636B0A20202E2E2E2C3C6E68
:100350006E3E2073202D2073656E6420646174618D
:10036000207061636B657420746F206E6F6465200C
:100370003C6E6E3E2C206E6F2061636B0A20202E37
:100380002E2E2C3C6E6E3E2072202D2073656E64E6
:100390002041434B207265706C7920646174612048
:1003A0007061636B657420746F206E6F6465203CB0
:1003B0006E6E3E0A20202E2E2E2C3C6E6E3E207736
:1003C000202D2070726564646566696E65642041E5
:1003D000434B207265706C79206461746120706198
:1003E000636B657420746F206E6F6465203C6E6E65
:1003F0003E0A20203C6E3E20712020202020202D0F
:1004000020736574207175696574206D6F64652053
:100410002831203D20646F6E2774207265706F72E2
:100420007420626164207061636B657473290A20B3
:10043000203C6E3E20782020202020202D20736537
:1004400074207265706F7274696E6720666F726D6A
:1004500061742028303A20646563696D616C2C20DA
:10046000313A206865782C20323A206865782B6113
:1004700073636969290A20203C6E6E6E3E207920E4
:100480002020202D20656E61626C65207369676E87
:10049000616C20737472656E677468207472616336
:1004A00065206D6F64652C2064656661756C743AB7
:1004B00030202864697361626C6564290A202020F9
:1004C00020202020202020202020202073616D70FB
:1004D0006C6520696E74657276616C203C6E6E6E20
:1004E0003E20736563732F3130302028302E303139
:1004F000732D322E357329206567203130793D30D8
:100500002E31730A20203C6E6E3E206A202020206F
:10051000202D2073656E6473206C6F63616C207492
:10052000656D7065726174757220746F206E6F6492
:1005300065206A0A20202020202020202020202042
:10054000202D206966206A3E323536206974206489
:100550006973706C6179732074656D706572617414
:10056000757220696E20316D696E2074696D652029
:100570006672616D65730A2020752020202020207E
:10058000202020202D2075706C6F616420666972B8
:100590006D77617265207573696E6720464F5441AF
:1005A0002F576972656C6573732070726F67726123
:1005B0006D6D696E670A20206D202020202020208C
:1005C0002020202D2064756D70732072656769731B
:1005D000746572730A20202E2E2E206E202020207B
:1005E00020202D2073657420656E637279707469A4
:1005F0006F6E206B65792C20636F6E7369737473F3
:10060000206F66203136206E756D626572732C2006
:100610000A202020202020202020202020202D20E3
:100620006966206C657373207468616E20313620B2
:100630006E756D6265722070726F76696465642094
:1006400074686579206172652070616464656420F6
:100650006279207A65726F730A2020202020202082
:100660002020202020202D20306E206D65616E20FE
:1006700064697361626C6520656E63727970746918
:100680006F6E0A20202020202020202020202020E3
:100690002D20312C322C336E202D3E20312C322C4B
:1006A000332C302C302C302C302C302C302C302C67
:1006B000302C302C302C302C302C300A20203C6E4A
:1006C0003E20702020202020202D2070726F6D6928
:1006D000736375697465206D6F64652030206F6683
:1006E000662C2031206F6E0A2020762020202020CA
:1006F00020202020202D20646973706C6179207681
:10070000657273696F6E20616E6420636F6E6669D7
:100710006775726174696F6E0A202068202020203E
:100720002020202020202D20646973706C617920A6
:1007300068656C700A2020313233207A2020202016
:1007400020202D20746F74616C20706F776572208B
:10075000646F776E2C206E6565647320612072650E
:1007600073657420746F20737461727420757020C7
:10077000616761696E0A0065206E6F7420696D7033
:100780006C656D656E7465640064206E6F742069BD
:100790006D706C656D656E746564007A206E6F7443
:1007A00020696D706C656D656E746564006B206E9C
:1007B0006F7420696D706C656D656E74656400663C
:1007C000206E6F7420696D706C656D656E74656404
:1007D0000044697361626C656400456E61626C65BA
:1007E0006400456E6372797074696F6E3A200043DD
:1007F000757272656E74204B65793A20007465736A
:1008000074200053657474696E672070726F6D692F
:10081000736375697465206D6F64653A20004320C9
:10082000746F206E6F64653A200053656E64696E64
:10083000672074656D706572617475723A2000414D
:10084000646472657373202D20484558202D204222
:10085000494E003E003E20000A002077726F6E670E
:1008600020636F6D6D616E640020627566666572EF
:1008700020666F72206E6578742041434B20706152
:10088000636B657420536574002041434B20776986
:100890007468206275666665722073656E740020E8
:1008A00041434B206E6F7420726571756972656487
:1008B000002041434B206E6F74207265636965763A
:1008C0006564002041434B20726563696576656409
:1008D0000020622000202D3E2000202D3E2061635C
:1008E0006B206E6F742073656E740A000A00202DF1
:1008F0003E2061636B207769746820627566666567
:10090000722000202D3E2061636B0A00204949209F
:100910000041534320002D3E0029200020280020C4
:1009200047004F4B002049492000415343200029F4
:1009300020002028002047004F4B00636F6E66693F
:10094000672073617665206661696C65640A0000E2
:100950000000002300260029002C002F00000000CA
:100960000200090F0000030401000C000000000059
:10097000000000000000000000000000080B000262
:100980000202010009040000010202000005240027
:1009900010010524010101042402060524060001BA
:1009A0000705810310004009040100020A0000004D
:1009B000070502024000000705830240000004030F
:1009C000090412010002EF0201404F1B08920001CE
:1009D00001020301537061726B46756E004C696CC5
:1009E0007950616420555342000000000025002822
:1009F000002B002E00310000000000240027002AF8
:100A0000002D003000040404040403040502020263
:100A10000204030202020206060606060604040297
:100A200002020404040802011040804010204080AB
:100A30004080080204018040201002011080102034
:100A400040402000D51F11241FBECFEFDAE0DEBFEB
:100A5000CDBF23E0AAE0B2E001C01D92AB35B207E2
:100A6000E1F712E0A0E0B1E0E8E1FDE402C00590AA
:100A70000D92AA30B107D9F715E0C3E2D5E004C062
:100A80002197FE010E94A520C232D107C9F70E941A
:100A90000F180C948A260C940000F89420914303BC
:100AA000233021F42091620221110FC020914303D1
:100AB000233011F4789407C0DC01ED91FC91028899
:100AC000F389E02D099580E00895DC01ED91FC911A
:100AD0000488F589E02D61E0099581E0089581E0C1
:100AE0008093630280915F0290916002DC01ED913E
:100AF000FC910484F585E02D099510926302089518
:100B000008953F924F925F926F927F928F929F9241
:100B1000AF92BF92CF92DF92EF92FF920F931F930B
:100B2000CF93DF93EC01162F5A01922E302E812C99
:100B3000CE2CD12CE12CF12CE881F9810190F081AF
:100B4000E02D01E0292DA501612FCE0109950E941C
:100B50007C112B013C010E947C11DC01CB0184192A
:100B60009509A609B7098C159D05AE05BF05A0F42A
:100B7000E881F9810480F581E02DCE010995882373
:100B800051F390917402911711F01F3F21F790914A
:100B90006102911105C0DFCF8394381468F680E0BC
:100BA000DF91CF911F910F91FF90EF90DF90CF9049
:100BB000BF90AF909F908F907F906F905F904F907D
:100BC0003F9008958F7090E3980F9A3310F4892F17
:100BD00001C0895C0C94D3138EBD00000DB407FED8
:100BE000FDCF8EB50895EF92FF921F93CF93DF93C1
:100BF0001F92CDB7DEB77C01DC01ED91FC91008C3A
:100C0000F18DE02D698309956981862F8F770E9488
:100C1000EC0580E00E94EC05182FD701ED91FC91C6
:100C2000028CF38DE02DC7010995812F0F90DF9184
:100C3000CF911F91FF90EF900895CF93DF93EC0138
:100C40001092F2021092740210920E02109262023E
:100C500010920D02109261021092100210920F0277
:100C600068E20E94F30582FF0AC06DE3CE010E9494
:100C7000F305482F44606DE3CE010E94951240E4D5
:100C800065E2CE010E949512E881F9810488F58918
:100C9000E02D63E0CE01DF91CF910994CF93DF93F4
:100CA000209143032330C9F420916202211115C021
:100CB000EC0164E20E94F30590E091958195910921
:100CC0008C349F4F54F4E881F9810488F589E02D34
:100CD00061E0CE01099581E001C080E0DF91CF9114
:100CE00008954F925F926F927F92AF92BF92CF9290
:100CF000DF92EF92FF920F931F93CF93DF93EC015C
:100D00005B01F42E10920D0210917402C0900F023C
:100D1000D09010026DE30E94F305482F44606DE30C
:100D2000CE010E9495120E947C112B013C01CE0144
:100D30000E944E06882311F110937402E881F98114
:100D40000088F189E02DEE24E39400E02F2DA50129
:100D5000612FCE010995D0921002C0920F02DF914F
:100D6000CF911F910F91FF90EF90DF90CF90BF90A8
:100D7000AF907F906F905F904F9008950E947C118C
:100D8000DC01CB0184199509A609B709883E934077
:100D9000A105B10588F6E881F9810480F581E02D8F
:100DA000CE010995C4CF8F929F92AF92BF92CF92FE
:100DB000DF92EF92FF920F931F93CF93DF93EC019B
:100DC000162F6A01F22E6DE30E94F305482F44604E
:100DD0006DE3CE010E9495120E947C114B015C01D3
:100DE000CE010E944E068823C1F0E881F981008877
:100DF000F189E02DE12C2F2DA601612FCE0109955F
:100E0000DF91CF911F910F91FF90EF90DF90CF90E6
:100E1000BF90AF909F908F9008950E947C11DC014D
:100E2000CB0188199909AA09BB09883E9340A105FD
:100E3000B105D8F6E881F9810480F581E02DCE0175
:100E40000995CECFCF93DF93EC01603208F06FE1CC
:100E50006F838885882311F066956F8361E1CE01E9
:100E60000E94F305807E9F81482F492B61E1CE01CE
:100E7000DF91CF910C9495121F93CF93DF93209124
:100E80004303621709F45DC0162FEC016230E9F1EB
:100E900068F4662309F440C0613009F052C061E093
:100EA0000E94F305837E482F44603BC06330B9F055
:100EB000643009F046C061E00E94F305837E482F4C
:100EC0004C6061E0CE010E9495128885882369F10B
:100ED000E881F9810688F789E02D61E013C061E0BF
:100EE0000E94F305837E482F406161E0CE010E949D
:100EF000951288858823C9F0E881F9810688F789E9
:100F0000E02D60E0CE01099510C061E00E94F3057C
:100F1000837E482F486005C061E00E94F305482F9A
:100F2000437E61E0CE010E949512809143038111BE
:100F300006C067E2CE010E94F30587FFF6CF10934B
:100F40004303DF91CF911F910895EF92FF921F937A
:100F5000CF93DF93EC0180914303833001F568E286
:100F6000CE010E94F30582FD2EC019C08091F202CD
:100F70008D3330F4E091F202F0E0EB54FD4F10823B
:100F8000E881F981028CF38DE02DCE010995E8818D
:100F9000F9810488F589E02D63E0CE01099564E2CA
:100FA000CE010E94F30590E0919581959109959568
:100FB00087959093100280930F02DF91CF911F913C
:100FC000FF90EF900895E881F9810488F589E02D7C
:100FD00061E0CE010995E881F981008CF18DE02D69
:100FE000CE01099580E00E94EC0580E00E94EC05AE
:100FF00080936202809162028334D0F48091620215
:101000008093620280E00E94EC0580930E028E8144
:10101000811109C090910E028D81981721F0809165
:101020000E028F3F39F480916202833018F017C0AE
:1010300082E4E6CF10926202E881F981028CF38D9E
:10104000E02DCE010995E881F9810288F389E02D30
:10105000CE01DF91CF911F91FF90EF900994809185
:10106000620283508093F20280E00E94EC0580933C
:10107000740280E00E94EC05982F907890936102B2
:10108000982F907490930D02E881F9810684F7857A
:10109000E02D682FCE01099510E08091F20218171B
:1010A00008F064CFE12EF12C80E00E94EC05F701FE
:1010B000EB54FD4F80831F5FF0CFCF92DF92EF9212
:1010C000FF920F931F93CF93DF93EC01F62ED42E54
:1010D000C52E122FE881F9810488F589E02D61E0A1
:1010E000099567E2CE010E94F30587FFFACF40E041
:1010F00065E2CE010E9495121E3308F01DE3E11057
:1011000004C0002321F000E403C000E801C000E0B7
:10111000E881F981008CF18DE02DCE01099580E800
:101120000E94EC0583E0810F0E94EC058F2D0E9448
:10113000EC058D810E94EC05802F0E94EC050D2DA1
:10114000ED2CFC2C8E2D801B811730F4F701819142
:101150007F010E94EC05F6CFE881F981028CF38DC6
:10116000E02DCE010995E881F9810488F589E02D0B
:1011700064E0CE0109950E947C116B017C012B81FA
:1011800030E0F901E35AF64F8491F901EC5DF54F37
:101190000491F901EB5FF54F14911123F1F08111E6
:1011A0000E942710E12FF0E0EE0FFF1FE15BF64FEA
:1011B000A591B491EC91E02381F0E881F981048854
:1011C000F589E02D61E0CE01DF91CF911F910F9164
:1011D000FF90EF90DF90CF9009940E947C11DC018A
:1011E000CB018C199D09AE09BF09883E9340A1052A
:1011F000B10508F4C4CFE1CFFC01DB018CE591E03F
:101200009183808312968C911297828313968C918E
:101210001397838314968C911497848315968C91DD
:101220001597858316968C911697868317968C91C1
:101230001797878318968C911897808719968C91A9
:10124000199781871A968C9182870895CF93DF939F
:101250001F92CDB7DEB7682F8DE069830E94B4136B
:1012600069818DE00F90DF91CF910C9464108F9283
:101270009F92AF92BF92EF92FF920F931F93CF93E3
:10128000DF93CDB7DEB7AE970FB6F894DEBF0FBED3
:10129000CDBF90911D019111C7C060911B01F090CD
:1012A0001A0180911C012EE28E010F5F1F4FF80181
:1012B000322F11923A95E9F731E0398344E04A83BD
:1012C00052E05B8333E03D835E834F8350E4588775
:1012D00045E049873A8736E03B8733E33C8747E080
:1012E0004D8738E03F8739E0398B39E13B8B32E479
:1012F0003C8B75E27D8B5E8B56E25F8B488F48E2BC
:10130000498F40E14A8F49E24B8F4CED4C8F2D8F36
:1013100028E82E8F2FE22F8F2DE228A320E329A388
:1013200047E34BA340E94CA348E34DA33EA33CE372
:101330003FA33FE838A73DE339A732E13AA73FE6AC
:101340003BA72CA72FEF2DA78F3131F08B3231F037
:10135000863531F024EE05C02EE403C02CE601C032
:1013600029ED2E878F3121F08B3221F0863519F04F
:1013700090EC01C090E4988B6AA361E080914603F1
:101380000E946410809146030E94B413EFB6F89453
:1013900080915E02811124C0E6E1FAE08491E5E3E8
:1013A000FAE09491E82FF0E0EE0FFF1FE950F64FBE
:1013B000A591B491EC91E92321F461E081E10E94CF
:1013C000641081E10E94B4138CB580618CBD8CB532
:1013D00080648CBD8FE00E94B41380E10E94B4133E
:1013E00080915E028F5F80935E02EFBE0E947C114F
:1013F0004B015C014AEA6FE284E493E00E9495129B
:101400006FE284E493E00E94F3058A3A79F00E9447
:101410007C11DC01CB0188199909AA09BB09C29783
:10142000A105B10538F302C080E0B5C00E947C116F
:101430004B015C0145E56FE284E493E00E94951264
:101440006FE284E493E00E94F305853561F00E9429
:101450007C11DC01CB0188199909AA09BB09C29743
:10146000A105B10538F3E12CF801EE0DF11DEE0DEB
:10147000F11D60816F3F39F0418184E493E00E9467
:101480009512E394F1CF80E090E00E9453146091B4
:101490004C0384E493E00E94D71261E084E493E07B
:1014A0000E943C070E947C114B015C0167E284E4CE
:1014B00093E00E94F30587FD0CC00E947C11DC01C3
:1014C000CB0188199909AA09BB09C297A105B105E1
:1014D00068F30E947C11DC01CB0188199909AA09E3
:1014E000BB09C297A105B10508F044C01092630280
:1014F000809148038530B0F5E82FF0E0EE0FFF1F34
:10150000E45FFE4F2FE635E0318320838230B1F077
:1015100018F4813061F004C08330B9F08430E1F018
:1015200080916900836080936900E89A1BC0809174
:1015300069008C6080936900E99A14C08091690009
:10154000806380936900EA9A0DC080916900806C85
:1015500080936900EB9A06C080916A008063809353
:101560006A00EE9A84E493E09093600280935F02B5
:10157000F092490380911E0184FB992790F9909382
:101580004A0385FF03C081E291E002C080E090E061
:101590000E94531481E0AE960FB6F894DEBF0FBEE2
:1015A000CDBFDF91CF911F910F91FF90EF90BF9032
:1015B000AF909F908F9008951F93CF93DF931091DA
:1015C0001A01C0911F01D091200180E20E94D31323
:1015D000812F8F71805C0E94D31386EB91E00E9473
:1015E0002314612F70E080E090E04AE00E94E21353
:1015F00080911E0182FF03C08AE20E94D31389EB0F
:1016000091E00E94231460911B0170E080E090E063
:101610004AE00E94E2138CEB91E00E942314809137
:101620001C018B3239F0863541F08B3549F080E072
:1016300090E008C081EB91E005C084E693E002C031
:1016400083E993E00E9425148FE791E00E94231420
:1016500080911E0182FF04C080EC91E00E9423145F
:10166000C03486E0D80751F084EC91E00E94231446
:10167000BE0180E090E04AE00E94E21380911E01EA
:1016800083FF04C087EC91E00E94231480911E0127
:10169000837069F08BEC91E00E94231460911E012D
:1016A000637070E080E090E04AE00E94E213809175
:1016B0001E0184FF0EC08EEC91E00E942314609105
:1016C0001E016295617070E080E090E04AE00E9447
:1016D000E21380911E0185FF0FC081ED91E00E9411
:1016E000231460911E0165FB662760F970E080E0BD
:1016F00090E04AE00E94E21380911E0186FF0FC035
:1017000084ED91E00E94231460911E0166FB662720
:1017100060F970E080E090E04AE00E94E213DF911F
:10172000CF911F910C94DE13CF93682F80911E01EF
:10173000837051F0C62F862F82958F700E94E2052C
:101740008C2FCF910C94E20570E080E090E04AE0AD
:10175000CF910C94E2130C94D3130F931F93CF9358
:10176000DF93162F082FEC018C2F801B811760F45C
:1017700080E20E94AB0B899190EE980F9F3508F0A4
:101780008EE20E94AB0BF0CFDF91CF911F910F91B2
:101790000C94DE131F93CF93DF93EC01209771F02D
:1017A000FE011491112351F01A3019F48DE00E94BA
:1017B000AB0B812F0E94AB0B2196F0CFDF91CF9125
:1017C0001F9108950F931F93CF93DF9310921D01E4
:1017D0000E949313909332018093310160911A011A
:1017E00080E890E00E9410200AE111E0C0E8D0E01B
:1017F000F80161918F01CE010E9410202196C93914
:10180000D105B1F70E943709882331F0DF91CF91DC
:101810001F910F910C94DC0A8BE399E0DF91CF913B
:101820001F910F910C94CA0B0E94CA0B8DE00C946F
:10183000AB0B40916F025091700220916D0230917C
:101840006E0242175307B4F49091E8009570E1F3EB
:101850009091E80092FD19C08093F10080916F0291
:101860009091700201968F739927892B19F48EEF4E
:101870008093E80080916F0290917002019690939E
:10188000700280936F0281E0089580E00895DF92F6
:10189000EF92FF920F931F93CF93DF93D82E8A017D
:1018A0007B01E40EF51EEB01CE15DF0571F0D7FECE
:1018B00003C0FE01849101C088810E94190C219609
:1018C0008111F2CF8FEF9FEF01C0C801DF91CF915F
:1018D0001F910F91FF90EF90DF900895615030F0CD
:1018E0002091F100FC0120830196F8CF289884E62E
:1018F000809372020895CF92DF92EF92FF920F933E
:101900001F93CF93DF936C017A018B01C0E0D0E08D
:10191000CE15DF0589F0D8016D918D01D601ED91CD
:10192000FC910190F081E02DC6010995892B11F4FD
:101930007E0102C02196ECCFC701DF91CF911F91AC
:101940000F91FF90EF90DF90CF900895CF93DF93AA
:101950001F92CDB7DEB76983DC01ED91FC91028067
:10196000F381E02D41E050E0BE016F5F7F4F0995AC
:101970000F90DF91CF91089583E08093E9008091EB
:10198000F200882319F08AE38093E8000895FC01AF
:101990008485958597FD0BC09FB7F89482E080936E
:1019A000E9008091F2009FBF90E0019608959FB7F3
:1019B000F89482E08093E9008091F2009FBF90E06C
:1019C0000895089580E090E008953FB7F8948091DD
:1019D000690290916A02A0916B02B0916C0226B5E7
:1019E000A89B05C02F3F19F00196A11DB11D3FBF57
:1019F000BA2FA92F982F8827820F911DA11DB11DE5
:101A0000BC01CD0143E0660F771F881F991F4A95DF
:101A1000D1F7089508950E94AB200F931F93CF93A1
:101A2000DF931F92CDB7DEB782E0898342E450E0B6
:101A30006CE779E080E80E94470C0E94FB17DC010C
:101A400012960D911C9113970115110569F0D8019B
:101A5000ED91FC910280F381E02DBE016F5F7F4F1D
:101A6000C801099597FF07C089810F90DF91CF9139
:101A70001F910F910895F80100851185E5CF0E940F
:101A8000EA1790E00895CF93DF931F92CDB7DEB7AA
:101A9000FC018485958597FD05C02FEF3FEF3587C5
:101AA00024870BC0CE0101960E94C017019719F43C
:101AB000898190E002C08FEF9FEF0F90DF91CF916F
:101AC00008950F931F93CF93DF931F92CDB7DEB787
:101AD0008C01FC018485958597FF0EC0CE0101968F
:101AE0000E94C017019719F4298130E002C02FEF3E
:101AF0003FEFF80135872487F801848595850F909D
:101B0000DF91CF911F910F9108951F920F920FB601
:101B10000F9211248F939F938091E1009091E100A7
:101B2000937F9093E10083FF0FC01092E90091E052
:101B30009093EB001092EC0092E39093ED001092E2
:101B4000730298E09093F00082FF20C093E090939E
:101B5000E9009091F200992319F09AE39093E8003C
:101B600090917102992339F0909171029150909364
:101B70007102992389F190917202992339F0909121
:101B80007202915090937202992341F184FF10C028
:101B90008091E2008E7E81608093E2008091E1007E
:101BA0008F7E8093E10080910B028E7E806111C058
:101BB00080FF16C08091E2008E7E80618093E200FB
:101BC0008091E1008E7E8093E10080910B028E7EF9
:101BD000816080930B0204C05D9ACDCF289AD6CF46
:101BE0009F918F910F900FBE0F901F9018951F928D
:101BF0000F920FB60F921124CF92DF92EF92FF92C5
:101C00000F931F932F933F934F935F936F937F9304
:101C10008F939F93AF93BF93EF93FF93CF93DF93F4
:101C2000CDB7DEB76C97DEBFCDBF1092E9008091D3
:101C3000E80083FFEDC168E0CE0145960E946E0C7E
:101C400082EF8093E8008D8987FF05C09091E800BE
:101C500090FFFCCF03C09EEF9093E800982F907602
:101C600009F0C6C09E892F89188D91110CC080384B
:101C700029F480910C028093F10002C01092F100CF
:101C80001092F10048C1422F50E0512B913051F495
:101C9000811141C14130510509F03DC180910C02D3
:101CA0008D7F0BC0933061F4811135C141305105F6
:101CB00009F031C180910C02826080930C022BC12B
:101CC000953041F48091E80080FFFCCF206820939C
:101CD000E30021C1963009F05FC0EB8CFC8C1092C0
:101CE000E9001092700210926F02123091F510927A
:101CF0006E0210926D020E940D0D99E0BE016F5FA1
:101D00007F4FDB01E92F1D92EA95E9F799831A834A
:101D100091E09E8390EA98879AEF998720916F02CD
:101D200030917002275F3F4F3C832B838D8310924D
:101D3000E9001092700210926F02F0926E02E0922F
:101D40006D0249E050E080E00E94470C0E940D0DBA
:101D5000E2C0F0926E02E0926D020E94FB17DC017D
:101D60001296ED90FC901397E114F10409F4C0C0B1
:101D7000D701ED91FC910480F581E02DBE016B5EF1
:101D80007F4FC7010995009719F00CF0C4C0C7C078
:101D9000F701E084F184E8CF973009F4C0C09830AF
:101DA00021F481E08093F100B6C0993009F0B3C00E
:101DB000837009F0B4C0E0E4F1E081E021E036E3B3
:101DC0009081992361F08093E9002093EB00919139
:101DD0009093EC003093ED008F5F873089F78EE7AA
:101DE0008093EA001092EA008F898093730293C077
:101DF0008B8D9C8D1092E9001092700210926F02F0
:101E000090936E0280936D02898D811156C08E89E8
:101E10009D89913A59F4813209F081C047E050E040
:101E200060E071E080E00E94470C75C0913209F0DB
:101E300076C0833289F4888D90E0982F88272F8987
:101E4000822BA0E0B0E08093160190931701A0933D
:101E50001801B09319015FC0803269F48091E800E5
:101E600082FFFCCF67E080E091E00E946E0C8BEF78
:101E70008093E80006C0823209F04DC08F898093BC
:101E8000070180910A02882319F0EEEFFAE002C000
:101E9000E0E0F8E08091000190910101A091020141
:101EA000B0910301803B9440A105B10509F07BC0CE
:101EB0008091070180FF93C076C00E94FB17DC0170
:101EC00012960D911C9113970115110541F1D8013E
:101ED000ED91FC910190F081E02DBE016B5E7F4F92
:101EE000C8010995811117C0F80100851185ECCF53
:101EF000113009F44EC0133091F48F89882309F40E
:101F000045C0823081F440E86BE08DED99E00E949D
:101F1000861F882321F08EEF8093E80079C081E24C
:101F20008093EB0075C0813029F440E868E084EDCF
:101F300099E0EDCF833099F70E94FB17DC011296F0
:101F4000ED90FC9013978E010F5F1F4F6801E11415
:101F5000F10479F0D701ED91FC910680F781E02D35
:101F6000B801C7010995080F111DF701E084F1843C
:101F7000EECFD8011C92F60101900020E9F73197CD
:101F8000BF016C197D0940E0C601C1CF6EEB79E05D
:101F900002C062EC79E06115710509F2FB01449120
:101FA00050E080E840CF0FB6F894A895809160008B
:101FB000886180936000109260000FBEA895EE3F8C
:101FC0002AE0F20739F08091FE0A9091FF0A91838E
:101FD0008083A1CF1092FF0A1092FE0A9CCFEE3FA1
:101FE0008AE0F80731F0808191819093FF0A809315
:101FF000FE0A87E797E7918380839BE088E10FB62D
:10200000F894A895809360000FBE9093600083CFF2
:102010006C960FB6F894DEBF0FBECDBFDF91CF91A7
:10202000FF91EF91BF91AF919F918F917F916F91B0
:102030005F914F913F912F911F910F91FF90EF90E2
:10204000DF90CF900F900FBE0F901F90189590E0EB
:10205000FC013197EF30F105B0F5E059FF4F0C94DA
:10206000A520809180008F7703C0809180008F7DB4
:1020700080938000089580918000877FF9CF84B598
:102080008F7702C084B58F7D84BD089580919000C4
:102090008F7707C0809190008F7D03C08091900062
:1020A000877F8093900008958091C0008F7703C050
:1020B0008091C0008F7D8093C00008958091C20000
:1020C000877F8093C20008951F93CF93DF93282FBB
:1020D00030E0F901E35AF64F8491F901EC5DF54FD8
:1020E000D491F901EB5FF54FC491CC23C9F0162FC1
:1020F00081110E942710EC2FF0E0EE0FFF1FE75137
:10210000F64FA591B4918FB7F894111105C09C9129
:10211000ED2FE095E92302C0EC91ED2BEC938FBFFE
:10212000DF91CF911F910895CF93DF93EC0161E090
:102130008A810E94641089858CBD8A858DBD8091BD
:102140006302811101C07894DF91CF910895FC0161
:10215000F8948CB581878DB582878CB5837F8CBDD3
:102160008CB58F7D8CBD8CB58C7F8CBD8DB58E7FF5
:102170008DBD60E082810C9464108F929F92AF922B
:10218000BF92CF92DF92EF92FF926B017C010E948F
:10219000E50C4B015C01C114D104E104F104F1F040
:1021A0000E94E50CDC01CB0188199909AA09BB0939
:1021B000883E9340A105B10570F321E0C21AD10811
:1021C000E108F10888EE880E83E0981EA11CB11C7E
:1021D000C114D104E104F10419F7DDCFFF90EF90B1
:1021E000DF90CF90BF90AF909F908F9008958F9287
:1021F0009F92AF92BF92CF92DF92EF92FF920F9396
:102200001F93CF93DF935C016B017A0180910701EB
:10221000882309F45BC080917302882309F456C0B7
:1022200080910B0280FF05C08091E0008260809366
:10223000E000E70110E00AEF83E0882E9AE3992E90
:102240002097D9F10E94EA1781110AC0015009F4C0
:102250003DC061E070E080E090E00E94BD10F0CFF2
:10226000282F30E0C217D3070CF48C2F4FB7F89407
:102270008092E9009091E80095FF1DC0282F30E082
:10228000C21BD30BF601982F915020F081918093BF
:10229000F100FACFC20ED31E112319F09092E8007C
:1022A00009C08091E80085FD06C09092E80011E029
:1022B000209709F010E04FBFC3CF1111C3CF5D9835
:1022C00084E6809371021E141F0444F081E090E0C4
:1022D000F5019383828380E090E001C0C701DF9124
:1022E000CF911F910F91FF90EF90DF90CF90BF9013
:1022F000AF909F908F9008952FB7F89460916502EA
:102300007091660280916702909168022FBF0895D4
:102310001F920F920FB60F9211242F933F938F931A
:102320009F93AF93BF938091650290916602A091B5
:102330006702B09168023091640226E0230F2D37C6
:1023400020F40296A11DB11D05C029E8230F0396B4
:10235000A11DB11D209364028093650290936602D3
:10236000A0936702B09368028091690290916A021B
:10237000A0916B02B0916C020196A11DB11D8093DA
:10238000690290936A02A0936B02B0936C02BF91B2
:10239000AF919F918F913F912F910F900FBE0F9012
:1023A0001F9018951F920F920FB60F9211242F9322
:1023B0003F934F935F936F937F938F939F93AF93CD
:1023C000BF93EF93FF93E0911401F09115010995EC
:1023D000FF91EF91BF91AF919F918F917F916F91FD
:1023E0005F914F913F912F910F900FBE0F901F90D3
:1023F00018951F920F920FB60F9211242F933F93AF
:102400004F935F936F937F938F939F93AF93BF93FC
:10241000EF93FF93E0911201F09113010995FF9161
:10242000EF91BF91AF919F918F917F916F915F914C
:102430004F913F912F910F900FBE0F901F901895C5
:102440001F920F920FB60F9211242F933F934F9329
:102450005F936F937F938F939F93AF93BF93EF930C
:10246000FF93E0911001F09111010995FF91EF9117
:10247000BF91AF919F918F917F916F915F914F919C
:102480003F912F910F900FBE0F901F9018951F92A4
:102490000F920FB60F9211242F933F934F935F9398
:1024A0006F937F938F939F93AF93BF93EF93FF931C
:1024B000E0910E01F0910F010995FF91EF91BF910D
:1024C000AF919F918F917F916F915F914F913F91CC
:1024D0002F910F900FBE0F901F9018951F920F9283
:1024E0000FB60F9211242F933F934F935F936F93E7
:1024F0007F938F939F93AF93BF93EF93FF93E0915D
:102500000C01F0910D010995FF91EF91BF91AF91F1
:102510009F918F917F916F915F914F913F912F91FB
:102520000F900FBE0F901F9018950F931F93CF938E
:10253000DF9300D0CDB7DEB78C01DC01ED91FC91CB
:10254000008CF18DE02D4A83698309956981862F7E
:1025500080680E94EC054A81842F0E94EC05D80116
:10256000ED91FC91028CF38DE02DC8010F900F903E
:10257000DF91CF911F910F9109941F93CF93DF9318
:10258000EC01162F611102C045E501C04DE56AE579
:10259000CE010E949512111102C040E701C04CE724
:1025A0006CE5CE01DF91CF911F910C949512CF93E2
:1025B000DF93EC016887611102C04AE101C04FE07E
:1025C00063E1CE010E9495128885882341F061E184
:1025D000CE010E94F3058F71482F406602C04F81E3
:1025E000406861E1CE01DF91CF910C949512BC015E
:1025F000009791F0FC0101900020E9F73197AF01BD
:10260000481B590BE091F302F091F4020280F38130
:10261000E02D83EF92E0099480E090E008958F929E
:102620009F92AF92BF92DF92EF92FF920F931F9310
:10263000CF93DF93EC01F62ED42E0E947C114B0138
:102640005C010E947C118B019C01081919092A095F
:102650003B09083B1B402105310578F5D11004C02A
:1026600024E047ED51E003C027E04CED51E086E463
:10267000E82E02E06F2DCE010E948105882309F328
:102680009091F2029630D9F49091B5029634B9F453
:102690009091B6029C3499F49091B702983579F4F0
:1026A0009091B8029F3359F49091B9029F3439F454
:1026B0009091BA029B3419F42AC080E028C090910E
:1026C000F202973009F0BDCF9091B502963409F02F
:1026D000B8CF9091B6029C3409F0B3CF9091B70275
:1026E000983509F0AECF9091B8029F3309F0A9CF89
:1026F0009091B9029E3409F0A4CF9091BA029F3410
:1027000009F09FCF9091BB029B3409F09ACFDF91E3
:10271000CF911F910F91FF90EF90DF90BF90AF90FE
:102720009F908F900895EAE1F1E08FEF9FEF37E1FE
:102730003E0F21918227282F22952827022E2695A9
:1027400026952025022E269520252770082E892FD4
:10275000269507942795902D8227069427959025F6
:1027600082273E13E6CF089590E0FC01EC5DF54F23
:102770002491FC01EB5FF54F8491882399F090E060
:10278000880F991FFC01E950F64FA591B491FC0107
:10279000E751F64F859194918FB7F894EC91E22B25
:1027A000EC938FBF0895E091F302F091F402019051
:1027B000F081E02D682F83EF92E0099484EE91E0A0
:1027C0000C94F7128F929F92AF92BF920F931F9328
:1027D000CF93DF93CDB7DEB7A1970FB6F894DEBFE6
:1027E0000FBECDBF19A2423008F44AE08E010F5D42
:1027F0001F4F842E912CA12CB12CA50194010E9475
:102800008320E62FB901CA0101501109EA3014F4FE
:10281000E05D01C0E95CD801EC93232B242B252B30
:1028200061F7C8010E94F712A1960FB6F894DEBFB7
:102830000FBECDBFDF91CF911F910F91BF90AF9091
:102840009F908F9008950C94F712CF92DF92EF92A1
:10285000FF92CF93DF936C01990FEE08FF08F7FE0C
:1028600017C08DE20E94D313EC0166277727CB01B6
:102870006C197D098E099F094AE00E94E2138C0FB2
:102880009D1FDF91CF91FF90EF90DF90CF90089543
:102890004AE0C701B601DF91CF91FF90EF90DF9042
:1028A000CF900C94E213EF92FF920F931F93CF936C
:1028B000DF93EC0161E084E493E00E943C07209701
:1028C000C1F084E493E00E94A7108EEB0E94EC0517
:1028D0008E017E0180E1E80EF11CF80181918F01EB
:1028E0000E94EC050E151F05C1F784E493E00E94D9
:1028F00094106DE384E493E00E94F3058E7F41E041
:10290000CD2B09F440E0482B6DE384E493E0DF91A4
:10291000CF911F910F91FF90EF900C949512CF9350
:10292000DF930E94F712EC010E94DE138C0F9D1FB3
:10293000DF91CF9108958F929F92AF92BF92EF92C5
:10294000FF920F931F93CF93DF937B018C01C0E025
:10295000D0E0CE15DF05D9F10E947C116093FB0217
:102960007093FC028093FD029093FE02E091F302CB
:10297000F091F4020284F385E02D83EF92E0099553
:1029800097FD08C08A30910511F1F80181938F01FC
:102990002196DFCF0E947C118090FB029090FC0278
:1029A000A090FD02B090FE02DC01CB0188199909CC
:1029B000AA09BB098090F7029090F802A090F90252
:1029C000B090FA0288159905AA05BB0578F2CE01E8
:1029D000DF91CF911F910F91FF90EF90BF90AF903B
:1029E0009F908F9008952F923F924F925F926F9297
:1029F0007F928F929F92AF92BF92CF92DF92EF928F
:102A0000FF920F931F93CF93DF93CDB7DEB7C15DD6
:102A1000D1090FB6F894DEBF0FBECDBF843011F0E0
:102A200010E079C2809175028634D1F780917602E8
:102A30008C34B1F780917702883591F780917802D4
:102A40008F3371F7C153DF4F4883CF5CD0408B0188
:102A5000CE0101960E94FC0840E0C153DF4F68811F
:102A6000CF5CD040CE0101960E940F138823C1F2A3
:102A700087EE91E00E948F14B801CE0188549F4FD9
:102A80000E94FC080E947C114B015C0120917402A1
:102A9000C053DF4F2883C05DD040C353DF4F19823E
:102AA0001882CD5CD040CE018C589F4FCB53DF4F66
:102AB00099838883C55CD040DE01AD53BF4FC953B5
:102AC000DF4FB983A883C75CD04088EE93E0A0E0D5
:102AD000B0E08093F7029093F802A093F902B093CC
:102AE000FA0263E770E0CE0101960E949B148C010C
:102AF000DC01BB27C753DF4FB983A883C95CD04033
:102B0000E1E0F0E0EC0FFD1FEA0FFB1F10821092D6
:102B1000F7021092F8021092F9021092FA02169738
:102B200008F496C18981863409F092C18A818C3477
:102B300009F08EC18B81883509F08AC18C818A3376
:102B400009F056C1FE013596C12CD12C44E0F42E7B
:102B50009FEF9F0D819120ED280F2A3070F4BAE08D
:102B6000BC9D9001BD9D300D112420533109690198
:102B7000C80ED11C87FDDA9407C08A3329F48F2D43
:102B8000F92E843039F44CCF81E08F0D883011F06C
:102B9000F82EDECF81E08F0DE1E0F0E0EC0FFD1FBD
:102BA000E80FF11D80818A3309F03ACF0E947C1131
:102BB0004B015C01F394F3940F190C3008F414C129
:102BC00000FD12C1EF2DF0E0C553DF4FF983E8831C
:102BD000CB5CD04066246394712C6C0E7D1E6E0E0F
:102BE0007F1E1301E12CF12C20E0402E512CF2E04D
:102BF0004F1A51088E2DD1016D911D0190ED960F48
:102C00009A3028F09FEB960F963008F0EDC080FFC9
:102C100013C0E414F50484F4F10132978081CF529B
:102C2000DF4F2883C15DD0400E94C31FCF52DF4FCA
:102C30002881C15DD040280FBFEFEB1AFB0AE016D8
:102C4000C8F210E0C301800F911FFC013197DC0135
:102C5000129760818C91CF52DF4F2883C15DD040A5
:102C60000E94C31FCF52DF4F2881C15DD040922FF9
:102C700091959813B9C0F301618180810E94C31FAF
:102C8000382E90E00596880F991F0817190709F04C
:102C9000ABC0332009F4A8C0C353DF4F88819981AA
:102CA000CD5CD040C816D90609F0A2C0DF92CF9201
:102CB000AFEEB1E0BF93AF93CA53DF4FF881C65C6C
:102CC000D040FF93CB53DF4F2881C55CD0402F937A
:102CD0000E94C0207C01C553DF4F08811981CB5C65
:102CE000D040075F1F4F81E090E08C0F9D1F080FC1
:102CF000191F0F900F900F900F900F900F90412C75
:102D0000512C370177244314C0F4F8013197D801CE
:102D10006C9180810E94C31FE1E0F0E0EC0FFD1F89
:102D2000E40DF51DE60DF71DED58FF4F8083BFEF55
:102D30004B1A5B0A0E5F1F4FE6CF3E0CBE01685474
:102D40007F4FCE0183559F4F0E94FC080E947C114B
:102D50002B013C0186E4E82E02E0232DAE014C5805
:102D60005F4FC053DF4F6881C05DD040CE018355B7
:102D70009F4F0E948105882341F18091F2028830A3
:102D800020F19091B502963401F59091B6029C34F1
:102D9000E1F49091B7029835C1F49091B8029A335A
:102DA000A1F490E0FC01EE54FD4F20812A3369F438
:102DB000FC01ED54FD4F20812F3439F4FC01EC541B
:102DC000FD4F80818B3409F452C00E947C11DC01DC
:102DD000CB0184199509A609B709893B9B40A10538
:102DE000B10508F4B7CF1CCE81E092E00E948F14A9
:102DF000C753DF4FA881B981C95CD040179741F50F
:102E00008C818F3329F58D81853411F58E818F3436
:102E1000F9F48F818634E1F4BE0168547F4FCE010E
:102E200083559F4F0E94FC0841E0C153DF4F6881EA
:102E3000CF5CD040CE0183559F4F0E940F13182FB7
:102E4000882309F4EDCD88EE91E00E948F1463C0D1
:102E50000E947C11DC01CB0188199909AA09BB09E0
:102E6000893B9B40A105B10508F42FCED9CDCD53A8
:102E7000DF4F19821882C35CD040C853DF4FF881FE
:102E8000C85CD040FF93C953DF4F2881C75CD04056
:102E90002F93A7EFB1E0BF93AF93A5EBB2E0BF9341
:102EA000AF930E94E3200F900F900F900F900F9020
:102EB0000F90CD53DF4F88819981C35CD0408C1532
:102EC0009D0509F0ADCDDF92CF92A7EFB1E0BF93A2
:102ED000AF93CA53DF4FF881C65CD040FF93CB530A
:102EE000DF4F2881C55CD0402F930E94C020CE01C7
:102EF0008C589F4F0E948F14C6010196C353DF4F19
:102F000099838883CD5CD0400F900F900F900F90E5
:102F10000F900F906DCF812FCF52DF4F0FB6F894E7
:102F2000DEBF0FBECDBFDF91CF911F910F91FF90FC
:102F3000EF90DF90CF90BF90AF909F908F907F9059
:102F40006F905F904F903F902F90089561E084E4E0
:102F500093E00E943C0748E06EE484E493E00E9422
:102F600095126EE484E493E00E94F30582FDF9CFAC
:102F70006FE484E493E00E94F30580958B550895F7
:102F8000FC0180917302811103C08FEF9FEF0895C0
:102F90009FB7F89482E08093E9002091F20030E03E
:102FA0001216130614F421E030E02115310559F012
:102FB000289884E6809372028091F100808380914A
:102FC000F200882319F09FBFC90108958BE6809312
:102FD000E800F9CF2FB7F89483E08093E90090914F
:102FE000E800892F807295FF04C09091F20080E480
:102FF000891B2FBF08958091530381110DC082E07A
:1030000080934F0384E080935003109252031092F8
:10301000510381E0809353038FE493E00895CF93AD
:10302000DF93CDB7DEB72C970FB6F894DEBF0FBE97
:10303000CDBF789484B5826084BD84B5816084BD41
:1030400085B5826085BD85B5816085BD80916E0046
:10305000816080936E001092810080918100826077
:1030600080938100809181008160809381008091B4
:1030700080008160809380008091910082608093C5
:1030800091008091910081608093910080919000E7
:103090008160809390008091C10084608093C10022
:1030A0008091C10082608093C1008091C1008160E5
:1030B0008093C1008091C30081608093C3008091A0
:1030C000C00082608093C0008091C20081608093C4
:1030D000C20080917A00846080937A0080917A00A7
:1030E000826080937A0080917A008E7F80937A004C
:1030F00080917A00806880937A0010927302109217
:103100000C0210920B028091D70081608093D7004F
:1031100080EA8093D80089B58F7E89BD89B58260A9
:1031200089BD09B400FEFDCF61E070E080E090E071
:103130000E94BD108091D8008F7C80618093D80060
:103140008091E000807F8093E0008091E1008E7E9E
:103150008093E1008DE08093E200559A209AEEEF93
:10316000FFE7859194918B3F9C4D19F481E080930A
:103170000A028FEF9FEF909300038093FF0210915C
:1031800007016AE070E080E090E00E94BD1081E0FD
:10319000111112C00E94260964E670E080E090E000
:1031A0000E94BD1080E00E94260964E670E080E085
:1031B00090E00E94BD10E3CF0E94260964E670E013
:1031C00080E090E00E94BD108AE091E00E94CA0B6E
:1031D00084E00E94B41360E084E00E94641064E61E
:1031E00070E080E090E00E94BD108AE0809346038A
:1031F00061E00E946410809146030E94B413EAE1EA
:10320000EE2EE1E0FE2E00E810E0C8010E9408204A
:10321000D7018D937D010F5F1F4F09391105A9F764
:1032200080911D018111B0C50091310110913201D1
:103230000E9493130817190709F0A6C50E943709C1
:103240000E94DC0A80E391E00E94CA0B88E191E0D1
:103250000E94CA0B0E94DC0A68EE73E080E090E0F6
:103260000E94BD1080E00E94260923E088E792E0DA
:10327000322E381A74E6472E512C612C712C83EFB4
:1032800092E00E94C70C892B09F4D0C383EF92E02F
:103290000E94430D182F80ED810F8A30A0F42091F9
:1032A0001402309115024AE0429FC001439F900DE5
:1032B0001124C097810F911D17FD9A9590931502C7
:1032C00080931402B3C31C3281F4E0911302E13401
:1032D00008F0A8C381E08E0F80931302F0E0E75E50
:1032E000FD4F8091140280839DC38FE9810F8A3145
:1032F00038F585E598E00E94CA0B00E08091130242
:10330000081780F4E02FF0E0E75EFD4F608170E089
:1033100080E090E04AE00E94E2138CE20E94AB0B56
:103320000F5FECCF609114027091150280E090E085
:103330004AE00E94E213812F0E94D3130E94DE1301
:103340001E33A9F488E791E00E94231483E391E0FF
:103350000E9423148AE30E94D31388E891E00E941C
:10336000251480E20E94D31383E598E0D3C2113282
:103370000CF456C3812F012E000C990BAA0BBB0B2A
:10338000FC01E156F109EA31F10508F03FC3EA5AC0
:10339000FF4F0C94A52080911402909115028F3F4D
:1033A000910511F008F03CC380931A01C7C08091C9
:1033B0001402843031F0883031F0893031F080E00F
:1033C00005C08BE203C086E501C08BE5282F30E005
:1033D0003093150220931402882309F421C38093AB
:1033E0001C0180E496E09093200180931F01A6C009
:1033F0008FE398E00E94140CC12CD12C7601C39469
:103400006C2D84E493E00E94F305182F40E1C7017E
:10341000B6010E94E2138BE791E00E942314812EF3
:10342000912CA12CB12C40E1C501B4010E94E21302
:103430008BE791E00E94231442E0C501B4010E9491
:10344000E2130E94DE13BFEFCB1ADB0AEB0AFB0A82
:10345000E0E5CE16D104E104F10491F6E1C28091D9
:103460001402909115029C0120563109203E3E40E5
:1034700030F49093200180931F010E94E20BE091B1
:103480001C01AE2FB0E020EA36E841E050E00E9497
:103490001E206B017C019D01A9E1B0E00E9460202B
:1034A0009B01AC01A0911F01B09120010E941E2040
:1034B0006C0D7D1D8E1D9F1D20E137E240E050E028
:1034C0000E94832089019A016B017C014AE0C901B5
:1034D000B8010E94E2138EE20E94AB0B8601C60186
:1034E00068EE73E00E946F2080E3860F0E94AB0BB2
:1034F000C60164E670E00E946F20CB015AE0E52E21
:10350000F12CB7010E946F20805D0E94AB0BC801B7
:10351000B7010E946F20182FCB01B7010E946F20C6
:10352000805D0E94AB0B80E3810F0E94AB0B8FE7A5
:1035300091E089C18091140280931B010E94E20BEB
:103540006FC280911E019091140290FB82F937C0E6
:1035500020911402309115022F3F310509F030F50A
:103560008AE298E00E94CA0B0E94A617182F0E94B8
:10357000940B8EE198E00E94CA0B809114020E9485
:10358000940B82E0809317028091140280931602BC
:10359000109319028091120291E0980F90931202F9
:1035A00080931A0281E6809318023AC291E02115B5
:1035B000314009F090E080911E0190FB86F98093E4
:1035C0001E01BCCF91E02091140230911502232BF3
:1035D00009F490E080911E0190FB84F980931E0114
:1035E00083E098E00E94CA0B60911E0162956170B1
:1035F00070E080E090E04AE00E94E2130E94DE1357
:1036000080911E018295817080934A0397CF8091AB
:10361000140290911502009731F08E33910520F03D
:103620008DE390E001C08DE3809317029091130227
:10363000992319F09091190201C09FEF90931602FF
:103640009F3F11F091E601C093E79093180290918B
:10365000120229E132E0F901921B492F4E0F4193EA
:103660004E2F421B4817C8F38DEF97E00E94CA0BFC
:10367000809112020E94940B809112028F5F8093BE
:103680001202CEC1E0911302209114023091150272
:1036900080911E01E11105C02115310511F48F7DC6
:1036A00006C02130310531F4E11122C080628093DF
:1036B0001E013EC02230310549F4E11119C080627B
:1036C00080931E0180E1E4E8F1E00BC02330310576
:1036D00079F4E1110DC0806280931E0180E1E5E97B
:1036E000F1E0A1E2B1E001900D928A95E1F720C0EE
:1036F000806280931E0111E01E0F10931302F0E010
:10370000E75EFD4F208340E150E062E470E081E23B
:1037100091E00E94B920103118F4412F50E002C00E
:1037200040E150E069E172E081E291E00E94B02066
:103730004AE060E170E080E090E00E94E2130E94C5
:10374000DE136091130270E080E090E04AE00E9496
:10375000E2130E94DE138FEE97E00E94CA0B1092D4
:10376000150210921402809114029091150280317A
:10377000910598F4FC01E65EFE4F87810E94940B50
:1037800080E20E94AB0B8091140290911502019689
:103790009093150280931402E6CF0E94DE1382EE0E
:1037A00097E00E94CA0B80911E0185FD03C081ED48
:1037B00097E002C08AED97E00E94140CBFCE1093F0
:1037C0001802809113028093170280911402809353
:1037D000160226C130917502363419F184508330B7
:1037E00008F443C04092F7025092F8026092F90246
:1037F0007092FA0260E470E085E792E00E949B1408
:10380000282FFC01FF27EB58FD4F10821092F70282
:103810001092F8021092F9021092FA028430F1F636
:10382000D9CF309176023C34C9F6309177023835E1
:10383000A9F6309178023F3389F640911102411187
:1038400005C086EA91E00E948F14EAC064E473E048
:10385000CE0101964C870E94FC084C85BE016F5F2B
:103860007F4F84E00E94F314DBC0809175028435A1
:1038700009F0B8CF809176028F3409F0B3CF8091F0
:1038800077028A3309F0AECFE8E7F2E010E09191D9
:1038900080ED890F8A3008F5612F660F862F880F1B
:1038A000880F680F6053162F190F832D8E0F821704
:1038B00070F3112391F0109311028AEA91E00E94B3
:1038C0002314612F70E080E090E04AE00E94E21350
:1038D0008DEF91E00E948F1485CF85E792E00E94E2
:1038E000231484E092E00E9423149AC088E791E0B8
:1038F0000E94231483E391E00E9423148AE30E9430
:10390000D31385E392E00E94251480E20E94D31332
:103910008FEB97E00E94140C83C088E791E00E942F
:10392000231483E391E00E9423148AE30E94D313BB
:1039300082E492E00E94251480E20E94D3138DEA73
:1039400097E0E8CF80911402909115028B37910592
:1039500009F066C088E791E00E94231483E391E0B8
:103960000E9423148AE30E94D3138FE492E00E9402
:10397000251480E20E94D3138BE997E0CBCF80918E
:103980001E019091140290FB83F919CE80911402CC
:10399000982F937080911E018C7F892B10CE8AE026
:1039A00091E03AC0809114020E94260939C088E74C
:1039B00091E00E94231483E391E00E9423148AE3A0
:1039C0000E94D31381E792E00E94251480E20E94B6
:1039D000D31389E897E09ECF88E791E00E942314F3
:1039E00083E391E00E9423148AE30E94D31388E8C2
:1039F00092E00E94251480E20E94D31387E797E0AB
:103A000089CF8091140280935C020AC080E391E028
:103A10000E94CA0B88E191E00E94CA0B0E94DC0A56
:103A200010921302109215021092140280915C02FF
:103A3000811153C10E947C1100910801109109016C
:103A400020910A0130910B01DC01CB01801B910B0D
:103A5000A20BB30B883E9340A105B10508F452C0F8
:103A600080911E0186FF4EC00E947C116093080168
:103A70007093090180930A0190930B010E94A6178D
:103A8000898388E399E00E94CA0B80911E018370AC
:103A900019F088E50E94AB0B80911B01811108C0D1
:103AA00085E399E00E94CA0B80911B010E94940B50
:103AB00080E20E94AB0B80911A010E94940B8091CE
:103AC0001E01837019F480E20E94AB0B89810E9471
:103AD000940B82E399E00E94CA0B80911E018370CF
:103AE00009F470C18AE00E94940B8FE299E00E9471
:103AF000CA0B0E94DE1380911E01837090E0029732
:103B00000CF065C184E493E00E944D05882309F41C
:103B1000BCC01091F20281E00E94260982E299E085
:103B20000E94CA0B80911E01837019F088E50E94E3
:103B3000AB0B80911B01811108C08FE199E00E94BD
:103B4000CA0B80911B010E94940B80E20E94AB0B78
:103B5000809174020E94940BE12CF12CE11688F400
:103B600080911E01837019F480E20E94AB0BF70173
:103B7000EB54FD4F80810E94940BFFEFEF1AFF0A78
:103B8000EDCF8CE199E00E94CA0B80911E018370F9
:103B900041F080910F0290911002892F0E94940BA6
:103BA0000BC080910F029091100295958795919589
:103BB000819591090E94251489E199E00E94CA0B20
:103BC0000E94DE1380911E0184FF0FC080E20E94DC
:103BD000AB0B809174020E94940B86E199E00E94E5
:103BE000CA0B80910E020E94940B0E94DE138091FA
:103BF0001E01837090E00297D4F081E199E00E9469
:103C0000CA0B80911B01811104C08CE099E00E94D5
:103C1000CA0B8CE30E94AB0B809174028F71805CA5
:103C20000E94AB0B612F85EB92E00E94AD0B81E00F
:103C30000E94260980910D02882321F180910E02B5
:103C40008F3F01F180911E0182FD1CC090910E02F8
:103C500080911A019813FCC080915A0290915B02E6
:103C6000892B09F0CFC083E099E00E94CA0B40E0A5
:103C700066EE71E084E493E00E94710610925B02AC
:103C800010925A0280E00E9426098091180288232F
:103C900001F184E493E00E944E068111DEC019C058
:103CA000873709F017C189E698E00E94CA0B809116
:103CB000170290E090935B0280935A0288E598E0A7
:103CC0000E94CA0B109218021092170280E00E9404
:103CD000260980E00E9426094FC041E063E284E4A7
:103CE00093E00E94951263E284E493E00E94F3055E
:103CF00081FFF9CF64E284E493E00E94F305082F8A
:103D000010E011950195110915950795202E90E069
:103D1000112724E6E22EF12CE01AF10A292F30E0D7
:103D20002E153F053CF48DE29C870E94AB0B9C85D1
:103D30009F5FF4CF81EB91E00E942314F12CF214E9
:103D400028F480E20E94AB0BF394F9CF88279927DF
:103D5000801B910B0E94251483EB91E00E948F142D
:103D600060915C022AE0629FB0011124072E000CD2
:103D7000880B990B0E94BD1080E090E0892B09F41C
:103D80007ECA0E9400007BCA89E1EAE1F1E0DF011E
:103D90001D928A95E9F78FE480931A0182ED809352
:103DA0001B0186E580931C0180E496E0909320013E
:103DB00080931F0180911E01886080931E010E94E4
:103DC000E20B3ECA86EF9FEF0E9425148ECE8AE258
:103DD00099E00E94CA0B80911B01811104C085E209
:103DE00099E00E94CA0B8CE30E94AB0B80911A01F0
:103DF0008F71805C0E94AB0B61E0CE0101960E9446
:103E0000AD0B80CE8EEE98E00E94CA0BF12C0F2DE8
:103E100010E080915A0290915B02081719077CF418
:103E200080911E01837019F480E20E94AB0BF801AF
:103E3000E75EFD4F80810E94940BF394E8CF8CEEF7
:103E400098E00E94CA0B40915A0269E172E012CFD9
:103E50008AED98E00E94CA0B15CF81E00E942609E6
:103E600085ED98E00E94CA0B6091170270E080E037
:103E700090E04AE00E94E21381ED98E00E94CA0BB4
:103E800080911802823759F44091170269E172E07B
:103E900084E493E00E94710689E898E015C08337B6
:103EA00024F58136B9F436E4E32E05E020911702BB
:103EB00049E152E06091160284E493E00E9481059A
:103EC000882329F083EC98E00E94CA0BF7CE81EB9F
:103ED00098E0FACF8EEA91E00E94231480911802B4
:103EE0000E94D3138AE598E0EFCF833709F0D8CE4C
:103EF00000E02091170249E152E06091160284E44B
:103F000093E00E94D3068FE998E0DECFCF92DF9254
:103F1000EF92FF920F931F93CF93DF931F92CDB732
:103F2000DEB7182F062FE42E862F880F8E5F998319
:103F30000E94190C83E00E94190CF12EC12E998168
:103F4000D92E8C2D8F19801798F4F601E7FE02C048
:103F5000849101C080810E94190C182F80E00E947A
:103F6000190C8123FFEFCF1ADF0A8111EACF01C0BC
:103F700081E00F90DF91CF911F910F91FF90EF9013
:103F8000DF90CF900895282F082E000C330B81343A
:103F900014F027533109822F8295807F613414F009
:103FA000675301C06053860F0895E3EFF2E0138278
:103FB000128288EE93E0A0E0B0E084839583A6832C
:103FC000B7838AE491E0918380838FEF9FEF958799
:103FD0008487E4E4F3E08CE591E09183808381E1E0
:103FE000828383E08383148281E08093430316827B
:103FF0008FE187831086089591110C9405208032FB
:1040000019F089508550C8F7089599278827089591
:10401000F999FECF92BD81BDF89A992780B5089590
:10402000262FF999FECF1FBA92BD81BD20BD0FB6D4
:10403000F894FA9AF99A0FBE019608950E946020AA
:10404000A59F900DB49F900DA49F800D911D1124EC
:1040500008952F923F924F925F926F927F928F922C
:104060009F92AF92BF92CF92DF92EF92FF920F9307
:104070001F93CF93DF93CDB7DEB7CA1BDB0B0FB611
:10408000F894DEBF0FBECDBF09942A8839884888CE
:104090005F846E847D848C849B84AA84B984C88464
:1040A000DF80EE80FD800C811B81AA81B981CE0F5B
:1040B000D11D0FB6F894DEBF0FBECDBFED01089540
:1040C000A29FB001B39FC001A39F700D811D112459
:1040D000911DB29F700D811D1124911D0895AA1B81
:1040E000BB1B51E107C0AA1FBB1FA617B70710F0E3
:1040F000A61BB70B881F991F5A95A9F78095909515
:10410000BC01CD010895A1E21A2EAA1BBB1BFD0123
:104110000DC0AA1FBB1FEE1FFF1FA217B307E407A6
:10412000F50720F0A21BB30BE40BF50B661F771FFE
:10413000881F991F1A9469F76095709580959095DE
:104140009B01AC01BD01CF010895EE0FFF1F05904B
:10415000F491E02D099481E090E0F8940C948A2683
:10416000FB01DC0102C001900D9241505040D8F794
:104170000895DC0101C06D9341505040E0F708956F
:10418000AEE0B0E0E6ECF0E20C9437200D891E8939
:1041900086E08C831A8309838FEF9FE79E838D834C
:1041A000AE01475E5F4F6F89788DCE0101960E9408
:1041B000FC202F813885F801E20FF31F10822E9624
:1041C000E4E00C945320AEE0B0E0E9EEF0E20C94B1
:1041D000392085E08C838B899C899A838983AE0101
:1041E000495E5F4F6D897E89CE0101960E944E2403
:1041F0002E96E2E00C945520ACE0B0E0E2E0F1E273
:104200000C9429207C016B018A01FC011782168223
:10421000838181FFBDC1CE0101964C01F7019381DD
:10422000F60193FD859193FF81916F01882309F435
:10423000ABC1853239F493FD859193FF81916F0174
:10424000853229F4B70190E00E94DB25E7CF512C9D
:10425000312C20E02032A0F48B3269F030F480322F
:1042600059F0833269F420612CC08D3239F08033EB
:1042700039F4216026C02260246023C0286021C058
:1042800027FD27C030ED380F3A3078F426FF06C0FE
:10429000FAE05F9E300D1124532E13C08AE0389E41
:1042A000300D1124332E20620CC08E3221F426FDF5
:1042B0006BC1206406C08C3611F4206802C08836B9
:1042C00041F4F60193FD859193FF81916F01811176
:1042D000C1CF982F9F7D9554933028F40C5F1F4FCA
:1042E000FFE3F9830DC0833631F0833771F08335F6
:1042F00009F05BC022C0F801808189830E5F1F4FE7
:1043000044244394512C540115C03801F2E06F0E3F
:10431000711CF801A080B18026FF03C0652D70E0FC
:1043200002C06FEF7FEFC5012C870E9492252C0100
:1043300083012C852F77222E17C03801F2E06F0EF3
:10434000711CF801A080B18026FF03C0652D70E0CC
:1043500002C06FEF7FEFC5012C870E9487252C01DB
:104360002C852068222E830123FC1BC0832D90E026
:1043700048165906B0F4B70180E290E00E94DB25B0
:104380003A94F4CFF50127FC859127FE81915F01D6
:10439000B70190E00E94DB2531103A94F1E04F1A0A
:1043A00051084114510471F7E5C0843611F0893683
:1043B00039F5F80127FF07C06081718182819381FF
:1043C0000C5F1F4F08C060817181072E000C880BA5
:1043D000990B0E5F1F4F2F76722E97FF09C0909595
:1043E0008095709561957F4F8F4F9F4F2068722EFB
:1043F0002AE030E0A4010E942C26A82EA81844C070
:10440000853729F42F7EB22E2AE030E025C0F22F26
:10441000F97FBF2E8F36C1F018F4883579F0B4C01B
:10442000803719F0883721F0AFC02F2F2061B22ECE
:10443000B4FE0DC08B2D8460B82E09C024FF0AC0C5
:104440009F2F9660B92E06C028E030E005C020E11D
:1044500030E002C020E132E0F801B7FE07C0608121
:104460007181828193810C5F1F4F06C060817181D1
:1044700080E090E00E5F1F4FA4010E942C26A82E22
:10448000A818FB2DFF777F2E76FE0BC0372D3E7FC1
:10449000A51450F474FE0AC072FC08C0372D3E7E8D
:1044A00005C0BA2C372D03C0BA2C01C0B52C34FF7F
:1044B0000DC0FE01EA0DF11D8081803311F4397EBB
:1044C00009C032FF06C0B394B39404C0832F86782A
:1044D00009F0B39433FD13C030FF06C05A2CB31457
:1044E00018F4530C5B18B32CB31468F4B70180E2D2
:1044F00090E03C870E94DB25B3943C85F5CFB31454
:1045000010F43B1801C0312C34FF12C0B70180E316
:1045100090E03C870E94DB253C8532FF17C031FDCF
:1045200003C088E790E002C088E590E0B7010CC0C6
:10453000832F867859F031FF02C08BE201C080E200
:1045400037FD8DE2B70190E00E94DB25A51438F419
:10455000B70180E390E00E94DB255A94F7CFAA943C
:10456000F401EA0DF11D8081B70190E00E94DB2586
:10457000A110F5CF332009F451CEB70180E290E0CD
:104580000E94DB253A94F6CFF7018681978102C01D
:104590008FEF9FEF2C96E2E10C94452020FD09C09F
:1045A000FC0123FD05C022FF02C073836283518397
:1045B0004083089544FD10C046FD10C0DB01FC019E
:1045C000AA0FBB1FEE1FFF1F1094D1F76A0F7B1FAE
:1045D0008E1F9F1F31E003C033E001C034E0660F3F
:1045E000771F881F991F3150D1F7620F711D811DF0
:1045F000911D08950F931F93CF93DF938C01C801F2
:104600000E949D25EC0197FD08C00E94FC1F892B8C
:10461000B1F7B801CE010E941326CE01DF91CF91F0
:104620001F910F910895A1E0B0E0E9E1F3E20C944D
:104630002F208C01C62E7A0129830E949D25AC0172
:10464000552729814B32510521F04D32510569F42E
:104650002068CA94C11002C080E076C0C8012983D6
:104660000E949D25298197FDF7CF322F3D7FD32EC4
:10467000322F307349F5803339F5BB24BA94BC0C22
:1046800009F44EC0C80129830E949D25298197FD08
:1046900047C0382F3F7D383569F48D2D8264D82E80
:1046A000CA94CA94CC20E1F1C8010E949D2597FFCD
:1046B0000BC036C026FF04C02D2D2260D22E03C0B1
:1046C0003D2D3261D32ECB2C812C912C540120ED29
:1046D000280F283080F0D4FE04C0B8010E941326B1
:1046E0001CC02A3040F0D6FEF8CF2F7D3FEE320FAF
:1046F000363098F727504D2DC501B4010E94DA22BB
:104700004B015C018D2D8260D82ECA94CC2059F0CB
:10471000C8010E949D2597FFDACFD1FC04C09CCF31
:10472000812C912C5401D7FE08C0B094A094909491
:104730008094811C911CA11CB11C2D2DB501A401DC
:10474000C7010E94CE2281E02196ECE00C944B2020
:10475000A1E2B0E0EEEAF3E20C942D205C017A01D4
:10476000CE0101966C0180E2F60111928A95E9F77B
:10477000F501838040E050E0912C712C70E0A1E0C5
:10478000B0E0F90183FC859183FE81918F01982F20
:104790009F01811103C080E090E07CC08E3519F448
:1047A0004115510549F1E72FF0E0E417F5073CF416
:1047B0008D3559F18D3219F4772001F103C0711054
:1047C00001C0982E892F8695869586958601080FBB
:1047D000111D892F87703D0101C0660C8A95EAF78B
:1047E000F801808186298083991559F0991510F474
:1047F0009F5FE8CF9150E6CF71E004C077247394B7
:1048000001C0712C4F5F5F4FBCCF772019F08E81B4
:1048100080628E83711103C09924939416C0F601AF
:104820009E012F5D3F4F808180958193E217F307B2
:10483000D1F7F2CFE114F10429F0F7018083C70129
:1048400001967C016150912CF9F0C50169A30E9489
:104850009D2569A197FD16C0282F2695269526959A
:10486000F601E20FF11D208130E0AC0147705527C1
:1048700002C0359527954A95E2F720FDDBCFB501BB
:104880000E941326911087CFE114F10411F0F70173
:104890001082C801A196EEE00C9449204F925F92DD
:1048A0007F928F929F92AF92BF92CF92DF92EF92C0
:1048B000FF920F931F93CF93DF931F92CDB7DEB775
:1048C0006C012B015A01FC0117821682712CF60132
:1048D000F380F201F3FC8591F3FE8191382F2F01D3
:1048E000882309F4F3C090E039830E94FC1F3981CA
:1048F000892B21F0C6010E94FA22E9CF353241F41A
:10490000F201F3FC3591F3FE31912F01353269F458
:10491000C60139830E949D25398197FDD5C038177E
:10492000B1F2B6010E941326D1C03A3239F4F3FC39
:104930003591F3FE31912F0151E001C050E0420169
:1049400010E020ED230F2A3090F45260612F70E0C8
:1049500080E090E040E259830E94DA22162FF401B1
:10496000F3FC3591F3FE31914F015981EACF052FC8
:10497000232F240151FF03C0111102C0A7C01FEF54
:10498000383619F03C3659F011C0F401F3FC25918A
:10499000F3FE21912F01283649F4052F08600460A9
:1049A000F201F3FC2591F3FE21912F01222309F45A
:1049B0008DC0622F70E08EEF90E029830E947C25ED
:1049C0002981892B09F482C000FD07C0F501E08030
:1049D000F180C50102965C0102C0E12CF12C2E365B
:1049E00051F4F6014681578160E070E0202FC70145
:1049F0000E94CE226CCF233691F401FF11E0C60154
:104A00000E949D2597FD60C0E114F10429F0F70193
:104A10008083C70101967C01115089F751C02B3565
:104A200059F49201A701612FC6010E94A8232C010D
:104A3000892B09F045C03FC0C60129830E94FA2294
:104A4000298197FD41C02F3659F128F4243631F1E0
:104A5000293649F127C0233769F02537F9F022C0FC
:104A6000E114F10429F0F7018082C70101967C016D
:104A7000115071F0C6010E949D254C0197FD08C0A0
:104A80000E94FC1F892B61F3B601C4010E9413260A
:104A9000E114F104A9F0F701108212C0006203C012
:104AA000006101C00064202FA701612FC6010E9490
:104AB0001323811105C0F6018381807329F406C098
:104AC00000FD05CF739403CF772019F0872D90E078
:104AD00002C08FEF9FEF0F90DF91CF911F910F9149
:104AE000FF90EF90DF90CF90BF90AF909F908F900E
:104AF0007F905F904F900895FC010590061621F07D
:104B00000020D9F7C00108953197CF010895FC0125
:104B10000590615070400110D8F7809590958E0FE8
:104B20009F1F0895FC016150704001900110D8F75B
:104B3000809590958E0F9F1F0895CF93DF93EC0182
:104B40002B8120FF33C026FF0AC02F7B2B838E8151
:104B50009F8101969F838E838A8190E029C022FFE6
:104B60000FC0E881F9818081082E000C990B009715
:104B700019F420622B831AC03196F983E8830EC0A2
:104B8000EA85FB85099597FF09C02B81019611F0F5
:104B900080E201C080E1822B8B8308C02E813F819F
:104BA0002F5F3F4F3F832E83992702C08FEF9FEFE8
:104BB000DF91CF9108950F931F93CF93DF93FB0164
:104BC000238121FD03C08FEF9FEF28C022FF16C075
:104BD00046815781248135814217530744F4A081CF
:104BE000B1819D012F5F3F4F318320838C932681BC
:104BF00037812F5F3F4F3783268310C0EB01092F8A
:104C0000182F0084F185E02D0995892BE1F68E811E
:104C10009F8101969F838E83812F902FDF91CF916B
:104C20001F910F910895FB01238120FF12C026FDE3
:104C300010C08F3F3FEF930761F082832F7D206488
:104C40002383268137812150310937832683992791
:104C500008958FEF9FEF0895FA01AA27283051F1A8
:104C6000203181F1E8946F936E7F6E5F7F4F8F4F9D
:104C70009F4FAF4FB1E03ED0B4E03CD0670F781FFC
:104C8000891F9A1FA11D680F791F8A1F911DA11DE1
:104C90006A0F711D811D911DA11D20D009F468941A
:104CA0003F912AE0269F11243019305D3193DEF6C2
:104CB000CF010895462F4770405D4193B3E00FD078
:104CC000C9F7F6CF462F4F70405D4A3318F0495D63
:104CD00031FD4052419302D0A9F7EACFB4E0A69546
:104CE0009795879577956795BA95C9F70097610568
:104CF000710508959B01AC010A2E069457954795BE
:104D000037952795BA95C9F7620F731F841F951FB2
:084D1000A01D0895F894FFCFE7
:104D180000E1000000000000FFFFFFFF0A0D0A0D80
:104D28000A0D0A0D0A0DFFFFFFFF0AFA56000040A0
:104D38000600000000000000000000000000000065
:104D480000000068616E646C65496E7075740000DF
:104D5800C1808100000000000000A60CF7103F0D84
:104D6800BC0CC70C430D610D00000000D306810583
:104D78004D057106D7122207A50780055D081D0697
:104D88003C07BD12A7109410212000202D200020E0
:104D98004D487A004142434445464748494A4B4CAE
:104DA8004D4E4F50006162636465666768696A6B5F
:104DB8006C6D6E6F7000544F3F00544F3A002020C6
:104DC800002A00644200206900206700204020007B
:104DD80020633100206F002071310020780020709E
:104DE80000206500206A00464C583F00464C583F5A
:104DF800454F46000D0A000A464C583F4F4B0046A7
:104E08004C583A25753A00464C583A25753A4F4B56
:0A4E180000464C583A494E5600007F
:00000001FF
