:100000000C94C1040C940C120C94E5110C94E904AA
:100010000C94E9040C94E9040C94E9040C94E904AC
:100020000C94E9040C94E9040C94E9040C94E9049C
:100030000C94E9040C94E9040C94E9040C94E9048C
:100040000C949B110C94E9040C94A1100C947B105B
:100050000C94E9040C94E9040C94E9040C94E9046C
:100060000C94E9040C94E9042D172715EF152918B1
:100070003E18C817E81558181B15F615DF17241871
:10008000481590167F15301611182D172D17551677
:10009000401721182D1718185318F4176364696E48
:1000A0006F70737578585B005B5246363964656DC6
:1000B0006F2E31345D0043757272656E7420636F0C
:1000C0006E66696775726174696F6E3A0A000A41FB
:1000D0007661696C61626C6520636F6D6D616E64E1
:1000E000733A0A20203C6E6E3E206920202020209A
:1000F0002D20736574206E6F646520494420287339
:1001000074616E64617264206E6F646520696473EB
:100110002061726520312E2E3330290A20203C6E5A
:100120003E20622020202020202D20736574204D49
:10013000487A2062616E64202834203D20343333B5
:100140002C2038203D203836382C2039203D2039CD
:100150003135290A20203C6E6E6E6E3E206F2020C5
:10016000202D206368616E67652066726571756514
:100170006E6379206F666673657420776974686949
:100180006E207468652062616E6420286465666113
:10019000756C742031363030290A20202020202030
:1001A00020202020202020202039362E2E333930C8
:1001B00033206973207468652072616E67652073EF
:1001C0007570706F72746564206279207468652040
:1001D00052464D3132420A20203C6E6E6E3E206700
:1001E000202020202D20736574206E6574776F7237
:1001F0006B2067726F7570202852464D3132206F28
:100200006E6C7920616C6C6F7773203231322C20E8
:1002100030203D20616E79290A20203C6E3E20630B
:100220002020202020202D2073657420636F6C6CAB
:10023000656374206D6F64652028616476616E6308
:1002400065642C206E6F726D616C6C792030290AA8
:10025000202074202020202020202020202D2062FB
:10026000726F616463617374206D61782D73697A54
:10027000652074657374207061636B65742C2072E3
:100280006571756573742061636B0A20206C202092
:1002900020202020202020202D2073686F77206CC4
:1002A00065642061637469766974790A20202E2E52
:1002B0002E2C3C6E6E3E2061202D2073656E6420D6
:1002C00064617461207061636B657420746F206E6B
:1002D0006F6465203C6E6E3E2C207265717565738F
:1002E000742061636B0A20202E2E2E2C3C6E6E3EF5
:1002F0002073202D2073656E64206461746120700A
:1003000061636B657420746F206E6F6465203C6E52
:100310006E3E2C206E6F2061636B0A20202E2E2EE5
:100320002C3C6E6E3E2072202D2073656E64204141
:10033000434B207265706C79206461746120706138
:10034000636B657420746F206E6F6465203C6E6E05
:100350003E0A20202E2E2E2C3C6E6E3E2077202D25
:100360002070726564646566696E65642041434B04
:10037000207265706C792064617461207061636BB8
:10038000657420746F206E6F6465203C6E6E3E0A4B
:1003900020203C6E3E20712020202020202D207324
:1003A0006574207175696574206D6F6465202831EE
:1003B000203D20646F6E2774207265706F72742008
:1003C000626164207061636B657473290A20203C4C
:1003D0006E3E20782020202020202D207365742060
:1003E0007265706F7274696E6720666F726D61748A
:1003F0002028303A20646563696D616C2C20313AA5
:10040000206865782C20323A206865782B61736308
:100410006969290A20203C6E6E6E3E2079202020DA
:10042000202D20656E61626C65207369676E616C5A
:1004300020737472656E67746820747261636520DE
:100440006D6F64652C2064656661756C743A30204C
:100450002864697361626C6564290A202020202069
:100460002020202020202020202073616D706C65CA
:1004700020696E74657276616C203C6E6E6E3E20F3
:10048000736563732F3130302028302E3031732D57
:10049000322E357329206567203130793D302E3179
:1004A000730A20203C6E6E3E206A20202020202DE2
:1004B0002073656E6473206C6F63616C2074656D6E
:1004C000706572617475726520746F206E6F6465FB
:1004D000203C6E6E3E0A202020202020202020205C
:1004E0002020202D203C6E6E3E3D32353620646942
:1004F00073706C6179732074656D7020696E203142
:100500006D696E2074696D65206672616D65730A30
:10051000202020202020202020202020202D203CB2
:100520006E6E3E3D3235372073746F702064697390
:10053000706C6179696E672074656D7020316D69CA
:100540006E2074696D65206672616D65730A202086
:1005500075202020202020202020202D2075706C48
:100560006F6164206669726D776172652075736969
:100570006E6720464F54412F576972656C657373DF
:100580002070726F6772616D6D696E670A20206DF1
:10059000202020202020202020202D2064756D7018
:1005A00073207265676973746572730A20202E2E3A
:1005B0002E206E2020202020202D207365742065A1
:1005C0006E6372797074696F6E206B65792C20632D
:1005D0006F6E7369737473206F66203136206E7589
:1005E0006D626572732C0A2020202020202020209C
:1005F000202020202D206966206C6573732074688C
:10060000616E203136206E756D6265722070726F7A
:10061000766964656420746865792061726520700C
:100620006164646564206279207A65726F730A2060
:100630002020202020202020202020202D20306E4F
:10064000206D65616E2064697361626C6520656E02
:100650006372797074696F6E0A2020202020202038
:100660002020202020202D20312C322C336E202DD4
:100670003E20312C322C332C302C302C302C302C92
:10068000302C302C302C302C302C302C302C302C8A
:10069000300A20203C6E3E20702020202020202D7B
:1006A0002070726F6D69736375697465206D6F6416
:1006B000652030206F66662C2031206F6E0A202066
:1006C00076202020202020202020202D20646973E7
:1006D000706C61792076657273696F6E20616E64EB
:1006E00020636F6E66696775726174696F6E0A2048
:1006F0002068202020202020202020202D20646918
:1007000073706C61792068656C700A202031323317
:10071000207A2020202020202D20746F74616C20EE
:10072000706F77657220646F776E2C206E656564DC
:1007300073206120726573657420746F2073746117
:10074000727420757020616761696E0A0065206EA1
:100750006F7420696D706C656D656E74656400649E
:10076000206E6F7420696D706C656D656E74656464
:10077000007A206E6F7420696D706C656D656E74A3
:100780006564006B206E6F7420696D706C656D65BB
:100790006E7465640066206E6F7420696D706C65A0
:1007A0006D656E7465640044697361626C656400B4
:1007B000456E61626C656400456E63727970746940
:1007C0006F6E3A200043757272656E74204B6579C6
:1007D0003A200074657374200053657474696E6701
:1007E0002070726F6D69736375697465206D6F64D5
:1007F000653A20004320746F206E6F64653A2000D4
:1008000053656E64696E672074656D70657261749E
:1008100075723A200041646472657373202D20481C
:100820004558202D2042494E003E003E20000A003F
:100830002077726F6E6720636F6D6D616E6400204C
:1008400062756666657220666F72206E65787420C8
:1008500041434B207061636B6574205365740020C5
:1008600041434B2077697468206275666665722023
:1008700073656E74002041434B206E6F7420726567
:10088000717569726564002041434B206E6F74205E
:100890007265636965766564002041434B2072652B
:1008A0006369657665640020622000202D3E20008B
:1008B000202D3E2061636B206E6F742073656E7413
:1008C0000A000A00202D3E2061636B20776974685E
:1008D000206275666665722000202D3E2061636B84
:1008E0000A00204949200041534320002D3E0029A1
:1008F00020002028002047004F4B002049492000BD
:1009000041534320002920002028002047004F4B5E
:1009100000636F6E66696720736176652066616942
:100920006C65640A00000000002300260029000016
:10093000000000250028002B0000000000240027F4
:10094000002A000404040404040404020202020253
:100950000203030303030301020408102040800183
:100960000204081020010204081020000000080002
:100970000201000003040700000000000000000066
:10098000D31A11241FBECFEFD8E0DEBFCDBF23E0C6
:10099000A0EFB1E001C01D92A837B207E1F711E066
:1009A000A0E0B1E0E8E6F3E402C005900D92A03FBC
:1009B000B107D9F714E0C1ECD4E004C02197FE01DF
:1009C0000E94CD1BC03CD107C9F70E94A8130C940C
:1009D000B2210C94000008953F924F925F926F9263
:1009E0007F928F929F92AF92BF92CF92DF92EF92BF
:1009F000FF920F931F93CF93DF93EC01162F5A01B1
:100A0000922E302E812CCE2CD12CE12CF12CE88191
:100A1000F9810190F081E02D01E0292DA501612FE0
:100A2000CE0109950E948F112B013C010E948F116C
:100A3000DC01CB0184199509A609B7098C159D0520
:100A4000AE05BF05A0F4E881F9810480F581E02DB1
:100A5000CE010995882351F390914202911711F02C
:100A60001F3F21F790916C03911105C0DFCF839454
:100A7000381468F680E0DF91CF911F910F91FF90BD
:100A8000EF90DF90CF90BF90AF909F908F907F902E
:100A90006F905F904F903F900895CF93DF93EC015C
:100AA000603208F06FE16F838885882311F06695C6
:100AB0006F8361E1CE010E947512807E9F81482F75
:100AC000492B61E1CE01DF91CF910C9433121F933A
:100AD000CF93DF9320915E03621709F45DC0162F58
:100AE000EC016230E9F168F4662309F440C061303A
:100AF00009F052C061E00E947512837E482F446065
:100B00003BC06330B9F0643009F046C061E00E9438
:100B10007512837E482F4C6061E0CE010E94331233
:100B20008885882369F1E881F9810688F789E02DB5
:100B300061E013C061E00E947512837E482F40611E
:100B400061E0CE010E94331288858823C9F0E881D4
:100B5000F9810688F789E02D60E0CE01099510C083
:100B600061E00E947512837E482F486005C061E0F5
:100B70000E947512482F437E61E0CE010E9433121D
:100B800080915E03811106C067E2CE010E9475125A
:100B900087FFF6CF10935E03DF91CF911F910895E9
:100BA0008F7090E3980F9A3310F4892F01C0895CFD
:100BB0000C94290BCF93DF9320915E032330C9F46B
:100BC00020916D03211115C0EC0164E20E947512A1
:100BD00090E09195819591098C349F4F54F4E88170
:100BE000F9810488F589E02D61E0CE01099581E065
:100BF00001C080E0DF91CF9108954F925F926F9294
:100C00007F92AF92BF92CF92DF92EF92FF920F93BB
:100C10001F93CF93DF93EC015B01F42E1092F00150
:100C200010914202C090F201D090F3016DE30E9456
:100C30007512482F44606DE3CE010E9433120E946A
:100C40008F112B013C01CE010E94DA05882311F19E
:100C500010934202E881F9810088F189E02DEE24A9
:100C6000E39400E02F2DA501612FCE010995D092CC
:100C7000F301C092F201DF91CF911F910F91FF908C
:100C8000EF90DF90CF90BF90AF907F906F905F908C
:100C90004F9008950E948F11DC01CB0184199509B2
:100CA000A609B709883E9340A105B10588F6E881F9
:100CB000F9810480F581E02DCE010995C4CF8F9292
:100CC0009F92AF92BF92CF92DF92EF92FF920F93DB
:100CD0001F93CF93DF93EC01162F6A01F22E6DE381
:100CE0000E947512482F44606DE3CE010E943312BA
:100CF0000E948F114B015C01CE010E94DA0588230E
:100D0000C1F0E881F9810088F189E02DE12C2F2DD7
:100D1000A601612FCE010995DF91CF911F910F910F
:100D2000FF90EF90DF90CF90BF90AF909F908F900B
:100D300008950E948F11DC01CB0188199909AA0935
:100D4000BB09883E9340A105B105D8F6E881F98139
:100D50000480F581E02DCE010995CECF8EBD000037
:100D60000DB407FEFDCF8EB50895CF92DF92EF92BE
:100D7000FF920F931F93CF93DF93EC01F62ED42EA7
:100D8000C52E122FE881F9810488F589E02D61E0F4
:100D9000099567E2CE010E94751287FFFACF40E005
:100DA00065E2CE010E9433121E3308F01DE3E1100C
:100DB00004C0002321F000E403C000E801C000E00B
:100DC000E881F981008CF18DE02DCE01099580E854
:100DD0000E94AE0683E0810F0E94AE068F2D0E9416
:100DE000AE068D810E94AE06802F0E94AE060D2DAC
:100DF000ED2CFC2C8E2D801B811730F4F701819196
:100E00007F010E94AE06F6CFE881F981028CF38D56
:100E1000E02DCE010995E881F9810488F589E02D5E
:100E200064E0CE0109950E948F116B017C012B813A
:100E300030E0F901E559F64F8491F901E95AF64F8E
:100E40000491F901ED5BF64F14911123F1F081113A
:100E50000E94D310E12FF0E0EE0FFF1FEB5DF64F85
:100E6000A591B491EC91E02381F0E881F9810488A7
:100E7000F589E02D61E0CE01DF91CF911F910F91B7
:100E8000FF90EF90DF90CF9009940E948F11DC01CA
:100E9000CB018C199D09AE09BF09883E9340A1057D
:100EA000B10508F4C4CFE1CFFC01DB0183E491E09C
:100EB0009183808312968C911297828313968C91E2
:100EC0001397838314968C911497848315968C9131
:100ED0001597858316968C911697868317968C9115
:100EE0001797878318968C911897808719968C91FD
:100EF000199781871A968C9182870895CF93DF93F3
:100F00001F92CDB7DEB7682F89E069830E940A0B74
:100F1000698189E00F90DF91CF910C94FC108F9242
:100F20009F92AF92BF92EF92FF920F931F93CF9336
:100F3000DF93CDB7DEB7AE970FB6F894DEBF0FBE26
:100F4000CDBF909107019111C7C060910501F0904C
:100F50000401809106012EE28E010F5F1F4FF80100
:100F6000322F11923A95E9F731E0398344E04A8310
:100F700052E05B8333E03D835E834F8350E45887C8
:100F800045E049873A8736E03B8733E33C8747E0D3
:100F90004D8738E03F8739E0398B39E13B8B32E4CC
:100FA0003C8B75E27D8B5E8B56E25F8B488F48E20F
:100FB000498F40E14A8F49E24B8F4CED4C8F2D8F8A
:100FC00028E82E8F2FE22F8F2DE228A320E329A3DC
:100FD00047E34BA340E94CA348E34DA33EA33CE3C6
:100FE0003FA33FE838A73DE339A732E13AA73FE600
:100FF0003BA72CA72FEF2DA78F3131F08B3231F08B
:10100000863531F024EE05C02EE403C02CE601C085
:1010100029ED2E878F3121F08B3221F0863519F0A2
:1010200090EC01C090E4988B6AA361E08091610329
:101030000E94FC10809161030E940A0BEFB6F894A5
:1010400080914102811124C0EDE4F9E08491E1E650
:10105000F9E09491E82FF0E0EE0FFF1FE75CF64F08
:10106000A591B491EC91E92321F461E08AE00E941A
:10107000FC108AE00E940A0B8CB580618CBD8CB597
:1010800080648CBD8DE00E940A0B8BE00E940A0BED
:10109000809141028F5F80934102EFBE0E948F11C9
:1010A0004B015C014AEA6FE28FE593E00E94331244
:1010B0006FE28FE593E00E9475128A3A79F00E9400
:1010C0008F11DC01CB0188199909AA09BB09C297C4
:1010D000A105B10538F302C080E097C00E948F11CE
:1010E0004B015C0145E56FE28FE593E00E9433120E
:1010F0006FE28FE593E00E947512853561F00E94E2
:101100008F11DC01CB0188199909AA09BB09C29783
:10111000A105B10538F3E12CF801EE0DF11DEE0D3E
:10112000F11D60816F3F39F041818FE593E00E94AE
:101130003312E394F1CF80E090E00E94A90B60911C
:1011400067038FE593E00E949F1261E08FE593E0D3
:101150000E9467050E948F114B015C0167E28FE5D9
:1011600093E00E94751287FD0CC00E948F11DC0174
:10117000CB0188199909AA09BB09C297A105B10534
:1011800068F30E948F11DC01CB0188199909AA0923
:10119000BB09C297A105B10538F510926E03809185
:1011A00063038230C8F4E82FF0E0EE0FFF1FE35E28
:1011B000FE4F28E630E131832083813039F0809181
:1011C0006900836080936900E89A06C08091690095
:1011D0008C6080936900E99A8FE593E090936B03AC
:1011E00080936A03F09264038091080184FB99273D
:1011F00090F99093650385FF03C08BE091E002C0F6
:1012000080E090E00E94A90B81E0AE960FB6F894C2
:10121000DEBF0FBECDBFDF91CF911F910F91FF9029
:10122000EF90BF90AF909F908F9008951F93CF93B2
:10123000DF9310910401C0910901D0910A0180E26D
:101240000E94290B812F8F71805C0E94290B8DE9F0
:1012500091E00E94790B612F70E080E090E04AE01D
:101260000E94380B8091080182FF03C08AE20E942D
:10127000290B80EA91E00E94790B6091050170E0F2
:1012800080E090E04AE00E94380B83EA91E00E94FF
:10129000790B809106018B3239F0863541F08B3520
:1012A00049F080E090E008C081EB91E005C084E661
:1012B00093E002C083E993E00E947B0B86E691E015
:1012C0000E94790B8091080182FF04C087EA91E0B7
:1012D0000E94790BC03486E0D80751F08BEA91E088
:1012E0000E94790BBE0180E090E04AE00E94380B3A
:1012F0008091080183FF04C08EEA91E00E94790B7F
:1013000080910801837069F082EB91E00E94790B73
:1013100060910801637070E080E090E04AE00E9414
:10132000380B8091080184FF0EC085EB91E00E948C
:10133000790B609108016295617070E080E090E047
:101340004AE00E94380B8091080185FF0FC088EBAE
:1013500091E00E94790B6091080165FB662760F9B6
:1013600070E080E090E04AE00E94380B8091080134
:1013700086FF0FC08BEB91E00E94790B6091080112
:1013800066FB662760F970E080E090E04AE00E942A
:10139000380BDF91CF911F910C94340BCF93682FB2
:1013A00080910801837051F0C62F862F82958F702F
:1013B0000E94D0058C2FCF910C94D00570E080E076
:1013C00090E04AE0CF910C94380B0C94290B0F93CA
:1013D0001F93CF93DF93162F082FEC018C2F801BC8
:1013E000811760F480E20E94E509899190EE980FE0
:1013F0009F3508F08EE20E94E509F0CFDF91CF9192
:101400001F910F910C94340B1F93CF93DF93EC013A
:10141000209771F0FE011491112351F01A3019F444
:101420008DE00E94E509812F0E94E5092196F0CF09
:10143000DF91CF911F9108950F931F93CF93DF9367
:10144000109207010E94E90A90931C0180931B01EE
:101450006091040180E890E00E94381B04E011E0F4
:10146000C0E8D0E0F80161918F01CE010E94381BE5
:101470002196C939D105B1F70E948F07882331F031
:10148000DF91CF911F910F910C94160981E199E0A2
:10149000DF91CF911F910F910C94040A0E94040ACE
:1014A0008DE00C94E509009769F0FC0101900020A3
:1014B000E9F73197AF01481B590BBC0181EC92E071
:1014C0000C94160F80E090E008958F929F92AF9257
:1014D000BF92DF92EF92FF920F931F93CF93DF9310
:1014E000EC01F62ED42E0E948F114B015C010E945C
:1014F0008F118B019C01081919092A093B09083B26
:101500001B402105310578F5D11004C024E04EEBD5
:1015100051E003C027E043EC51E086E4E82E02E00E
:101520006F2DCE010E94EC04882309F39091C00234
:101530009630D9F4909183029634B9F49091840254
:101540009C3499F490918502983579F490918602B3
:101550009F3359F4909187029F3439F49091880217
:101560009B3419F42AC080E028C09091C0029730C3
:1015700009F0BDCF90918302963409F0B8CF9091D5
:1015800084029C3409F0B3CF90918502983509F01C
:10159000AECF909186029F3309F0A9CF9091870238
:1015A0009E3409F0A4CF909188029F3409F09FCF18
:1015B000909189029B3409F09ACFDF91CF911F91CE
:1015C0000F91FF90EF90DF90BF90AF909F908F9022
:1015D0000895E4E0F1E08FEF9FEF37E13E0F2191B6
:1015E0008227282F22952827022E2695269520250A
:1015F000022E269520252770082E892F26950794E0
:101600002795902D822706942795902582273E13B3
:10161000E6CF089590E0FC01E95AF64F2491FC01D1
:10162000ED5BF64F8491882399F090E0880F991F25
:10163000FC01E75CF64FA591B491FC01E15DF64F2A
:10164000859194918FB7F894EC91E22BEC938FBF36
:101650000895E091C102F091C2020190F081E02D65
:10166000682F81EC92E009948BEC91E00C94530A82
:101670008F929F92AF92BF920F931F93CF93DF935E
:10168000CDB7DEB7A1970FB6F894DEBF0FBECDBFC2
:1016900019A2423008F44AE08E010F5D1F4F842EDC
:1016A000912CA12CB12CA50194010E94AB1BE62F1B
:1016B000B901CA0101501109EA3014F4E05D01C01A
:1016C000E95CD801EC93232B242B252B61F7C8016F
:1016D0000E94530AA1960FB6F894DEBF0FBECDBF8D
:1016E000DF91CF911F910F91BF90AF909F908F90FE
:1016F00008950C94530ACF92DF92EF92FF92CF930A
:10170000DF936C01990FEE08FF08F7FE17C08DE21A
:101710000E94290BEC0166277727CB016C197D0904
:101720008E099F094AE00E94380B8C0F9D1FDF91A4
:10173000CF91FF90EF90DF90CF9008954AE0C701DE
:10174000B601DF91CF91FF90EF90DF90CF900C9496
:10175000380BEF92FF920F931F93CF93DF93EC011F
:1017600061E08FE593E00E9467052097C1F08FE567
:1017700093E00E943F118EEB0E94AE068E017E0127
:1017800080E1E80EF11CF80181918F010E94AE0604
:101790000E151F05C1F78FE593E00E942C116DE334
:1017A0008FE593E00E9475128E7F41E0CD2B09F406
:1017B00040E0482B6DE38FE593E0DF91CF911F91DF
:1017C0000F91FF90EF900C943312CF93DF930E9410
:1017D000530AEC010E94340B8C0F9D1FDF91CF91B7
:1017E00008958F929F92AF92BF92EF92FF920F93C4
:1017F0001F93CF93DF937B018C01C0E0D0E0CE1527
:10180000DF05D9F10E948F116093C9027093CA025B
:101810008093CB029093CC02E091C102F091C2027E
:101820000284F385E02D81EC92E0099597FD08C0D4
:101830008A30910511F1F80181938F012196DFCF54
:101840000E948F118090C9029090CA02A090CB0292
:10185000B090CC02DC01CB0188199909AA09BB0917
:101860008090C5029090C602A090C702B090C802B6
:1018700088159905AA05BB0578F2CE01DF91CF91B5
:101880001F910F91FF90EF90BF90AF909F908F901E
:1018900008952F923F924F925F926F927F928F9214
:1018A0009F92AF92BF92CF92DF92EF92FF920F93EF
:1018B0001F93CF93DF93CDB7DEB7C15DD1090FB6CC
:1018C000F894DEBF0FBECDBF843011F010E079C2B6
:1018D000809143028634D1F7809144028C34B1F771
:1018E00080914502883591F7809146028F3371F7D8
:1018F000C153DF4F4883CF5CD0408B01CE010196AE
:101900000E94540740E0C153DF4F6881CF5CD04054
:10191000CE0101960E94650A8823C1F28EEC91E007
:101920000E94E50BB801CE0188549F4F0E945407D6
:101930000E948F114B015C0120914202C053DF4F86
:101940002883C05DD040C353DF4F19821882CD5C1D
:10195000D040CE018C589F4FCB53DF4F9983888363
:10196000C55CD040DE01AD53BF4FC953DF4FB983D3
:10197000A883C75CD04088EE93E0A0E0B0E08093FD
:10198000C5029093C602A093C702B093C80263E752
:1019900070E0CE0101960E94F10B8C01DC01BB27A7
:1019A000C753DF4FB983A883C95CD040E1E0F0E0C2
:1019B000EC0FFD1FEA0FFB1F10821092C502109260
:1019C000C6021092C7021092C802169708F496C178
:1019D0008981863409F092C18A818C3409F08EC1E4
:1019E0008B81883509F08AC18C818A3309F056C110
:1019F000FE013596C12CD12C44E0F42E9FEF9F0DB3
:101A0000819120ED280F2A3070F4BAE0BC9D90013E
:101A1000BD9D300D1124205331096901C80ED11C20
:101A200087FDDA9407C08A3329F48F2DF92E84308C
:101A300039F44CCF81E08F0D883011F0F82EDECFD5
:101A400081E08F0DE1E0F0E0EC0FFD1FE80FF11DEC
:101A500080818A3309F03ACF0E948F114B015C01DB
:101A6000F394F3940F190C3008F414C100FD12C163
:101A7000EF2DF0E0C553DF4FF983E883CB5CD04016
:101A800066246394712C6C0E7D1E6E0E7F1E1301F6
:101A9000E12CF12C20E0402E512CF2E04F1A51089D
:101AA0008E2DD1016D911D0190ED960F9A3028F089
:101AB0009FEB960F963008F0EDC080FF13C0E41442
:101AC000F50484F4F10132978081CF52DF4F2883EF
:101AD000C15DD0400E94121BCF52DF4F2881C15DF3
:101AE000D040280FBFEFEB1AFB0AE016C8F210E057
:101AF000C301800F911FFC013197DC0112976081B7
:101B00008C91CF52DF4F2883C15DD0400E94121BC1
:101B1000CF52DF4F2881C15DD040922F919598130D
:101B2000B9C0F301618180810E94121B382E90E0C0
:101B30000596880F991F0817190709F0ABC03320C5
:101B400009F4A8C0C353DF4F88819981CD5CD04090
:101B5000C816D90609F0A2C0DF92CF92A6EDB1E077
:101B6000BF93AF93CA53DF4FF881C65CD040FF9359
:101B7000CB53DF4F2881C55CD0402F930E94E81BD8
:101B80007C01C553DF4F08811981CB5CD040075FD2
:101B90001F4F81E090E08C0F9D1F080F191F0F90C1
:101BA0000F900F900F900F900F90412C512C3701F8
:101BB00077244314C0F4F8013197D8016C918081E7
:101BC0000E94121BE1E0F0E0EC0FFD1FE40DF51D9B
:101BD000E60DF71DED58FF4F8083BFEF4B1A5B0AF0
:101BE0000E5F1F4FE6CF3E0CBE0168547F4FCE0103
:101BF00083559F4F0E9454070E948F112B013C0177
:101C000086E4E82E02E0232DAE014C585F4FC0530E
:101C1000DF4F6881C05DD040CE0183559F4F0E9449
:101C2000EC04882341F18091C002883020F190912A
:101C30008302963401F5909184029C34E1F49091F2
:101C400085029835C1F4909186029A33A1F490E010
:101C5000FC01E058FD4F20812A3369F4FC01EF5765
:101C6000FD4F20812F3439F4FC01EE57FD4F808168
:101C70008B3409F452C00E948F11DC01CB0184190E
:101C80009509A609B709893B9B40A105B10508F450
:101C9000B7CF1CCE88EE91E00E94E50BC753DF4F13
:101CA000A881B981C95CD040179741F58C818F33E9
:101CB00029F58D81853411F58E818F34F9F48F816A
:101CC0008634E1F4BE0168547F4FCE0183559F4FA7
:101CD0000E94540741E0C153DF4F6881CF5CD04080
:101CE000CE0183559F4F0E94650A182F882309F45F
:101CF000EDCD8FEC91E00E94E50B63C00E948F1147
:101D0000DC01CB0188199909AA09BB09893B9B40D1
:101D1000A105B10508F42FCED9CDCD53DF4F1982DF
:101D20001882C35CD040C853DF4FF881C85CD040F4
:101D3000FF93C953DF4F2881C75CD0402F93AEED8E
:101D4000B1E0BF93AF93A3E8B2E0BF93AF930E941B
:101D50000B1C0F900F900F900F900F900F90CD5382
:101D6000DF4F88819981C35CD0408C159D0509F0B7
:101D7000ADCDDF92CF92AEEDB1E0BF93AF93CA533A
:101D8000DF4FF881C65CD040FF93CB53DF4F2881F3
:101D9000C55CD0402F930E94E81BCE018C589F4F0A
:101DA0000E94E50BC6010196C353DF4F99838883D8
:101DB000CD5CD0400F900F900F900F900F900F9030
:101DC0006DCF812FCF52DF4F0FB6F894DEBF0FBE1D
:101DD000CDBFDF91CF911F910F91FF90EF90DF90DA
:101DE000CF90BF90AF909F908F907F906F905F90BB
:101DF0004F903F902F90089561E08FE593E00E940F
:101E0000670548E06EE48FE593E00E9433126EE4CC
:101E10008FE593E00E94751282FDF9CF6FE48FE5A4
:101E200093E00E94751280958B550895CF92DF92B2
:101E3000EF92FF920F931F93CF93DF936C017A0180
:101E40008B01C0E0D0E0CE15DF0589F0D8016D919F
:101E50008D01D601ED91FC910190F081E02DC6013C
:101E60000995892B11F47E0102C02196ECCFC701A0
:101E7000DF91CF911F910F91FF90EF90DF90CF9066
:101E80000895089580E090E00895FC01538D448DFD
:101E9000252F30E0842F90E0821B930B541710F015
:101EA000CF96089501970895FC01918D828D981722
:101EB00061F0828DDF01A80FB11D5D968C91928D2E
:101EC0009F5F9F73928F90E008958FEF9FEF08952B
:101ED000FC01918D828D981731F0828DE80FF11DF4
:101EE000858D90E008958FEF9FEF0895FC01918D0F
:101EF000228D892F90E0805C9F4F821B91098F7308
:101F00009927089581EC92E00E94760F21E0892BB9
:101F100009F420E0822F0895FC01848DDF01A80FD1
:101F2000B11DA35ABF4F2C91848D90E001968F7301
:101F30009927848FA689B7892C93A089B1898C9120
:101F400080648C93938D848D981306C00288F389E6
:101F5000E02D80818F7D80830895EF92FF920F9313
:101F60001F93CF93DF93EC0181E0888F9B8D8C8D45
:101F7000981305C0E889F989808185FD24C0F62E73
:101F80000B8D10E00F5F1F4F0F731127E02E8C8D0C
:101F9000E8120CC00FB607FCFACFE889F9898081F6
:101FA00085FFF5CFCE010E948C0FF1CF8B8DFE0106
:101FB000E80FF11DE35AFF4FF0820B8FEA89FB898E
:101FC0008081806207C0EE89FF896083E889F98992
:101FD00080818064808381E090E0DF91CF911F91C8
:101FE0000F91FF90EF900895CF93DF93EC01888DD0
:101FF0008823C9F0EA89FB89808185FD05C0A8890D
:10200000B9898C9186FD0FC00FB607FCF5CF808192
:1020100085FFF2CFA889B9898C9185FFEDCFCE01DC
:102020000E948C0FE7CFDF91CF91089580E090E080
:10203000892B29F00E94820F81110C9400000895D1
:102040003FB7F8948091740390917503A091760343
:10205000B091770326B5A89B05C02F3F19F00196D4
:10206000A11DB11D3FBFBA2FA92F982F8827820F1E
:10207000911DA11DB11DBC01CD0143E0660F771F6D
:10208000881F991F4A95D1F708950895F8942091D3
:102090005E03233021F420916D0321110FC02091A4
:1020A0005E03233011F4789407C0DC01ED91FC91BC
:1020B0000288F389E02D099580E00895DC01ED9117
:1020C000FC910488F589E02D61E0099581E008958F
:1020D00081E080936E0380916A0390916B03DC0131
:1020E000ED91FC910484F585E02D099510926E0325
:1020F00008950E94D31B1F920F920FB60F921124C6
:102100002F933F934F935F936F937F938F939F93FF
:10211000AF93BF93EF93FF9381EC92E00E948C0FFB
:10212000FF91EF91BF91AF919F918F917F916F91AF
:102130005F914F913F912F910F900FBE0F901F9085
:1021400018951F920F920FB60F9211242F938F9311
:102150009F93EF93FF93E091D102F091D20280819F
:10216000E091D702F091D80282FD12C09081809157
:10217000DA028F5F8F732091DB02821751F0E091BA
:10218000DA02F0E0EF53FD4F958F8093DA0201C041
:102190008081FF91EF919F918F912F910F900FBEB2
:1021A0000F901F901895833081F028F4813099F0BA
:1021B0008230A1F008958730A9F08830B9F08430DA
:1021C000D1F4809180008F7D03C0809180008F7753
:1021D00080938000089584B58F7702C084B58F7D89
:1021E00084BD08958091B0008F7703C08091B000C6
:1021F0008F7D8093B00008951F93CF93DF93282F96
:1022000030E0F901E559F64F8491F901E95AF64FAA
:10221000D491F901ED5BF64FC491CC23C9F0162F90
:1022200081110E94D310EC2FF0E0EE0FFF1FE15D53
:10223000F64FA591B4918FB7F894111105C09C91F8
:10224000ED2FE095E92302C0EC91ED2BEC938FBFCD
:10225000DF91CF911F910895CF93DF93EC0161E05F
:102260008A810E94FC1089858CBD8A858DBD8091F4
:102270006E03811101C07894DF91CF910895FC0124
:10228000F8948CB581878DB582878CB5837F8CBDA2
:102290008CB58F7D8CBD8CB58C7F8CBD8DB58E7FC4
:1022A0008DBD60E082810C94FC108F929F92AF9262
:1022B000BF92CF92DF92EF92FF926B017C010E945E
:1022C00020104B015C01C114D104E104F104F1F0D0
:1022D0000E942010DC01CB0188199909AA09BB09C9
:1022E000883E9340A105B10570F321E0C21AD108E0
:1022F000E108F10888EE880E83E0981EA11CB11C4D
:10230000C114D104E104F10419F7DDCFFF90EF907F
:10231000DF90CF90BF90AF909F908F9008952FB790
:10232000F8946091700370917103809172039091A1
:1023300073032FBF08951F920F920FB60F921124AF
:102340002F933F938F939F93AF93BF93809170038D
:1023500090917103A0917203B091730330916F0358
:1023600026E0230F2D3720F40296A11DB11D05C0D4
:1023700029E8230F0396A11DB11D20936F038093BD
:10238000700390937103A0937203B09373038091D1
:10239000740390917503A0917603B0917703019631
:1023A000A11DB11D8093740390937503A0937603D0
:1023B000B0937703BF91AF919F918F913F912F91F0
:1023C0000F900FBE0F901F9018951F920F920FB68F
:1023D0000F9211242F933F934F935F936F937F93AB
:1023E0008F939F93AF93BF93EF93FF93E0911F0160
:1023F000F09120010995FF91EF91BF91AF919F91CD
:102400008F917F916F915F914F913F912F910F909D
:102410000FBE0F901F9018951F920F920FB60F923C
:1024200011242F933F934F935F936F937F938F93D9
:102430009F93AF93BF93EF93FF93E0911D01F091B2
:102440001E010995FF91EF91BF91AF919F918F91DF
:102450007F916F915F914F913F912F910F900FBEA0
:102460000F901F9018950F931F93CF93DF9300D079
:10247000CDB7DEB78C01DC01ED91FC91008CF18DC4
:10248000E02D4A83698309956981862F80680E94BF
:10249000AE064A81842F0E94AE06D801ED91FC91D0
:1024A000028CF38DE02DC8010F900F90DF91CF913A
:1024B0001F910F9109941F93CF93DF93EC01162F77
:1024C000611102C045E501C04DE56AE5CE010E94FB
:1024D0003312111102C040E701C04CE76CE5CE0198
:1024E000DF91CF911F910C943312EF92FF921F93C3
:1024F000CF93DF931F92CDB7DEB77C01DC01ED9166
:10250000FC91008CF18DE02D698309956981862FFE
:102510008F770E94AE0680E00E94AE06182FD7018A
:10252000ED91FC91028CF38DE02DC7010995812F6F
:102530000F90DF91CF911F91FF90EF900895CF936F
:10254000DF93EC016887611102C04AE101C04FE0EE
:1025500063E1CE010E9433128885882341F061E156
:10256000CE010E9475128F71482F406602C04F81C4
:10257000406861E1CE01DF91CF910C943312CF938B
:10258000DF93EC011092C002109242021092F1010E
:1025900010926D031092F00110926C031092F301EF
:1025A0001092F20168E20E94751282FF0AC06DE388
:1025B000CE010E947512482F44606DE3CE010E9447
:1025C000331240E465E2CE010E943312E881F981C2
:1025D0000488F589E02D63E0CE01DF91CF91099465
:1025E000EF92FF921F93CF93DF93EC0180915E03F4
:1025F000833001F568E2CE010E94751282FD2EC083
:1026000019C08091C0028D3330F4E091C002F0E037
:10261000ED57FD4F1082E881F981028CF38DE02D9A
:10262000CE010995E881F9810488F589E02D63E000
:10263000CE01099564E2CE010E94751290E0919559
:1026400081959109959587959093F3018093F20177
:10265000DF91CF911F91FF90EF900895E881F9816C
:102660000488F589E02D61E0CE010995E881F981C2
:10267000008CF18DE02DCE01099580E00E94AE0620
:1026800080E00E94AE0680936D0380916D038334D9
:10269000D0F480916D0380936D0380E00E94AE06BC
:1026A0008093F1018E81811109C09091F1018D819A
:1026B000981721F08091F1018F3F39F480916D03DB
:1026C000833018F017C082E4E6CF10926D03E881E2
:1026D000F981028CF38DE02DCE010995E881F98115
:1026E0000288F389E02DCE01DF91CF911F91FF90F9
:1026F000EF90099480916D0383508093C00280E035
:102700000E94AE068093420280E00E94AE06982F9F
:10271000907890936C03982F90749093F001E881D7
:10272000F9810684F785E02D682FCE01099510E028
:102730008091C002181708F064CFE12EF12C80E0E0
:102740000E94AE06F701ED57FD4F80831F5FF0CF6B
:10275000CF93DF93CDB7DEB72C970FB6F894DEBFDB
:102760000FBECDBF789484B5826084BD84B581608E
:1027700084BD85B5826085BD85B5816085BD80914C
:102780006E00816080936E001092810080918100C4
:1027900082608093810080918100816080938100BC
:1027A000809180008160809380008091B10084607E
:1027B0008093B1008091B00081608093B0008091DF
:1027C0007A00846080937A0080917A00826080939E
:1027D0007A0080917A008E7F80937A0080917A00CF
:1027E000806880937A001092C100E091D102F0914C
:1027F000D20282E08083E091CD02F091CE0210827D
:10280000E091CF02F091D00289E180831092D90249
:10281000E091D502F091D60286E08083E091D30268
:10282000F091D402808180618083E091D302F091A5
:10283000D402808188608083E091D302F091D40239
:10284000808180688083E091D302F091D4028081FE
:102850008F7D808381E00E947E0764E670E080E0E7
:1028600090E00E94551188EA90E00E94040A84E0FA
:102870000E940A0B60E084E00E94FC1064E670E0B5
:1028800080E090E00E9455118AE08093610361E04E
:102890000E94FC10809161030E940A0BE4E0EE2E7E
:1028A000E1E0FE2E00E810E0C8010E94301BD701D5
:1028B0008D937D010F5F1F4F09391105A9F7809195
:1028C00007018111AEC500911B0110911C010E94EE
:1028D000E90A0817190709F0A4C50E948F070E948A
:1028E00016098EEC90E00E94040A86EB90E00E94AC
:1028F000040A0E94160968EE73E080E090E00E94EE
:10290000551180E00E947E0723E086E492E0322E9B
:10291000381A70E1472E77E2572E612C712C81EC2A
:1029200092E00E94760F892B09F4D2C381EC92E0E9
:102930000E94540F182F80ED810F8A30A0F420914F
:10294000F7013091F8014AE0429FC001439F900D8A
:102950001124C097810F911D17FD9A959093F8014E
:102960008093F701B5C31C3281F4E091F601E134A4
:1029700008F0AAC381E08E0F8093F601F0E0E450E6
:10298000FE4F8091F70180839FC38FE9810F8A31C9
:1029900038F58BE298E00E94040A00E08091F6018D
:1029A000081780F4E02FF0E0E450FE4F608170E003
:1029B00080E090E04AE00E94380B8CE20E94E5093A
:1029C0000F5FECCF6091F7017091F80180E090E02B
:1029D0004AE00E94380B812F0E94290B0E94340B81
:1029E0001E33A9F48FE591E00E94790B81E291E01A
:1029F0000E94790B8AE30E94290B89E891E00E94EA
:102A00007B0B80E20E94290B89E298E0D5C211324B
:102A10000CF458C3812F012E000C990BAA0BBB0B91
:102A2000FC01E156F109EA31F10508F041C3EC5C23
:102A3000FF4F0C94CD1B8091F7019091F8018F3FCF
:102A4000910511F008F03EC380930401C5C0809148
:102A5000F701843031F0883031F0893031F080E096
:102A600005C08BE203C086E501C08BE5282F30E06E
:102A70003093F8012093F701882309F423C380934E
:102A8000060180E496E090930A0180930901A4C0B6
:102A900085E198E00E944E0AC12CD12C7601C394A6
:102AA0006C2D8FE593E00E947512182F40E1C7014D
:102AB000B6010E94380B82E691E00E94790B812ECC
:102AC000912CA12CB12C40E1C501B4010E94380B1E
:102AD00082E691E00E94790B42E0C501B4010E94B8
:102AE000380B0E94340BBFEFCB1ADB0AEB0AFB0A50
:102AF000E0E5CE16D104E104F10491F6E3C2809141
:102B0000F7019091F8019C0120563109203E3E408A
:102B100030F490930A01809309010E941C0AE0910D
:102B20000601AE2FB0E020EA36E841E050E00E9416
:102B3000461B6B017C019D01A9E1B0E00E94881B4E
:102B40009B01AC01A0910901B0910A010E94461BB2
:102B50006C0D7D1D8E1D9F1DA30192010E94AB1B5C
:102B600089019A016B017C014AE0C901B8010E9408
:102B7000380B8EE20E94E5098601C60168EE73E01B
:102B80000E94971B80E3860F0E94E509C60164E658
:102B900070E00E94971BCB015AE0E52EF12CB701A3
:102BA0000E94971B805D0E94E509C801B7010E9441
:102BB000971B182FCB01B7010E94971B805D0E94C5
:102BC000E50980E3810F0E94E50986E691E08DC169
:102BD0008091F701809305010E941C0A73C28091C5
:102BE00008019091F70190FB82F937C02091F7011D
:102BF0003091F8012F3F310509F030F580E098E081
:102C00000E94040A0E94FC0E182F0E94CE0984EF35
:102C100097E00E94040A8091F7010E94CE0982E0A9
:102C20008093FA018091F7018093F9011093FC01E0
:102C30008091F50191E0980F9093F5018093FD014B
:102C400081E68093FB013EC291E02115314009F0FD
:102C500090E08091080190FB86F980930801BCCF39
:102C600091E02091F7013091F801232B09F490E0D5
:102C70008091080190FB84F98093080189ED97E029
:102C80000E94040A609108016295617070E080E022
:102C900090E04AE00E94380B0E94340B80910801BA
:102CA000829581708093650397CF8091F701909111
:102CB000F801009731F08E33910520F08DE390E01C
:102CC00001C08DE38093FA019091F601992319F0E8
:102CD0009091FC0101C09FEF9093F9019F3F11F08B
:102CE00091E601C093E79093FB019091F5012CEFE1
:102CF00031E0F901921B492F4E0F41934E2F421B99
:102D00004817C8F383ED97E00E94040A8091F5010B
:102D10000E94CE098091F5018F5F8093F501D2C1A9
:102D2000E091F6012091F7013091F80180910801BE
:102D3000E11105C02115310511F48F7D06C0213048
:102D4000310531F4E11122C08062809308013EC058
:102D50002230310549F4E11119C0806280930801E5
:102D600080E1EBE6F1E00BC02330310579F4E111AD
:102D70000DC080628093080180E1ECE7F1E0ABE0F8
:102D8000B1E001900D928A95E1F720C080628093B6
:102D9000080111E01E0F1093F601F0E0E450FE4F21
:102DA000208340E150E062E470E08BE091E00E941B
:102DB000E11B103118F4412F50E002C040E150E017
:102DC0006CEF71E08BE091E00E94D81B4AE060E17B
:102DD00070E080E090E00E94380B0E94340B60911C
:102DE000F60170E080E090E04AE00E94380B0E941B
:102DF000340B85EC97E00E94040A1092F8011092BF
:102E0000F7018091F7019091F8018031910598F4D4
:102E1000FC01EC5FFE4F87810E94CE0980E20E9498
:102E2000E5098091F7019091F80101969093F801DE
:102E30008093F701E6CF0E94340B88EB97E00E9465
:102E4000040A8091080185FD03C087EA97E002C06B
:102E500080EB97E00E944E0ABFCE1093FB01809159
:102E6000F6018093FA018091F7018093F9012AC15C
:102E700030914302363439F18450833008F447C02E
:102E800084E690E0A0E0B0E08093C5029093C60293
:102E9000A093C702B093C80260E470E083E492E0BC
:102EA0000E94F10B282FFC01FF27ED5BFD4F1082E4
:102EB0001092C5021092C6021092C7021092C80268
:102EC0008430D1F6D5CF309144023C34A9F630910C
:102ED0004502383589F6309146023F3369F6409114
:102EE000F401411105C08DE891E00E94E50BEAC0B4
:102EF0006FE573E0CE0101964C870E9454074C8524
:102F0000BE016F5F7F4F84E00E94490CDBC080915F
:102F10004302843509F0B4CF809144028F3409F024
:102F2000AFCF809145028A3309F0AACFE6E4F2E000
:102F300010E0919180ED890F8A3008F5612F660FBE
:102F4000862F880F880F680F6053162F190F832D57
:102F50008E0F821770F3112391F01093F40181E921
:102F600091E00E94790B612F70E080E090E04AE0F0
:102F70000E94380B84EE91E00E94E50B81CF83E440
:102F800092E00E94790B8BEE91E00E94790B9AC03F
:102F90008FE591E00E94790B81E291E00E94790B2C
:102FA0008AE30E94290B86E392E00E947B0B80E279
:102FB0000E94290B85E997E00E944E0A83C08FE5A5
:102FC00091E00E94790B81E291E00E94790B8AE303
:102FD0000E94290B83E492E00E947B0B80E20E9416
:102FE000290B83E897E0E8CF8091F7019091F801F1
:102FF0008B37910509F066C08FE591E00E94790B4F
:1030000081E291E00E94790B8AE30E94290B80E51E
:1030100092E00E947B0B80E20E94290B81E797E0FF
:10302000CBCF809108019091F70190FB83F915CEE9
:103030008091F701982F9370809108018C7F892BE4
:103040000CCE88EA90E03AC08091F7010E947E079A
:1030500039C08FE591E00E94790B81E291E00E94F6
:10306000790B8AE30E94290B82E792E00E947B0B96
:1030700080E20E94290B8FE597E09ECF8FE591E0DB
:103080000E94790B81E291E00E94790B8AE30E9411
:10309000290B89E892E00E947B0B80E20E94290BB9
:1030A0008DE497E089CF8091F70180933F020AC0B9
:1030B0008EEC90E00E94040A86EB90E00E94040AE5
:1030C0000E9416091092F6011092F8011092F70171
:1030D00080913F02811153C10E948F110091000124
:1030E000109101012091020130910301DC01CB011B
:1030F000801B910BA20BB30B80369A4EA105B10534
:1031000008F452C08091080186FF4EC00E948F11C2
:103110006093000170930101809302019093030179
:103120000E94FC0E89838EE099E00E94040A80913F
:103130000801837019F088E50E94E5098091050176
:10314000811108C08BE099E00E94040A809105017A
:103150000E94CE0980E20E94E509809104010E944C
:10316000CE0980910801837019F480E20E94E5097C
:1031700089810E94CE0988E099E00E94040A80912A
:103180000801837009F46BC18AE00E94CE0985E0D2
:1031900099E00E94040A0E94340B80910801837018
:1031A00090E002970CF060C18FE593E00E9446101A
:1031B000882309F4BCC01091C00281E00E947E0700
:1031C00088EF98E00E94040A80910801837019F04A
:1031D00088E50E94E50980910501811108C085EF0D
:1031E00098E00E94040A809105010E94CE0980E2C5
:1031F0000E94E509809142020E94CE09E12CF12C47
:10320000E11688F480910801837019F480E20E942D
:10321000E509F701ED57FD4F80810E94CE09FFEFD0
:10322000EF1AFF0AEDCF82EF98E00E94040A809126
:103230000801837041F08091F2019091F301892F90
:103240000E94CE090BC08091F2019091F3019595F7
:1032500087959195819591090E947B0B8FEE98E05F
:103260000E94040A0E94340B8091080184FF0FC061
:1032700080E20E94E509809142020E94CE098CEE14
:1032800098E00E94040A8091F1010E94CE090E94F8
:10329000340B80910801837090E00297D4F087EEA0
:1032A00098E00E94040A80910501811104C082EE19
:1032B00098E00E94040A8CE30E94E5098091420292
:1032C0008F71805C0E94E509612F83E892E00E9483
:1032D000E70981E00E947E078091F001882321F1B7
:1032E0008091F1018F3F01F18091080182FD1CC0A6
:1032F0009091F101809104019813F7C080913D02F3
:1033000090913E02892B09F0CAC089ED98E00E9495
:10331000040A40E06DEC71E08FE593E00E94FD054A
:1033200010923E0210923D0280E00E947E07809142
:10333000FB01882301F18FE593E00E94DA058111FA
:10334000D9C019C0873709F012C18FE398E00E94F5
:10335000040A8091FA0190E090933E0280933D022E
:103360008EE298E00E94040A1092FB011092FA018A
:1033700080E00E947E0780E00E947E074FC041E00F
:1033800063E28FE593E00E94331263E28FE593E0FE
:103390000E94751281FFF9CF64E28FE593E00E94ED
:1033A0007512082F10E011950195110915950795D3
:1033B000202E90E0112724E6E22EF12CE01AF10AEB
:1033C000292F30E02E153F053CF48DE29C870E94AA
:1033D000E5099C859F5FF4CF88E991E00E94790B15
:1033E000F12CF21428F480E20E94E509F394F9CF5D
:1033F00088279927801B910B0E947B0B8AE991E01B
:103400000E94E50B60913F022AE0629FB001112407
:10341000072E000C880B990B0E9455110E94161064
:103420007ECA89E1E4E0F1E0DF011D928A95E9F7C7
:103430008FE48093040182ED8093050186E58093FB
:10344000060180E496E090930A018093090180913F
:1034500008018860809308010E941C0A40CA86EF18
:103460009FEF0E947B0B93CE80E099E00E94040ABC
:1034700080910501811104C08BEF98E00E94040A3D
:103480008CE30E94E509809104018F71805C0E94A9
:10349000E50961E0CE0101960E94E70985CE84EC42
:1034A00098E00E94040AF12C0F2D10E080913D025B
:1034B00090913E02081719077CF4809108018370EF
:1034C00019F480E20E94E509F801E450FE4F808182
:1034D0000E94CE09F394E8CF82EC98E00E94040A9F
:1034E00040913D026CEF71E017CF80EB98E00E94B5
:1034F000040A1ACF81E00E947E078BEA98E00E94BE
:10350000040A6091FA0170E080E090E04AE00E94D5
:10351000380B87EA98E00E94040A8091FB01823709
:1035200059F44091FA016CEF71E08FE593E00E944D
:10353000FD058FE598E015C0833724F58136B9F491
:1035400036E4E32E05E02091FA014CEF51E0609162
:10355000F9018FE593E00E94EC04882329F089E9C2
:1035600098E00E94040AFCCE87E898E0FACF85E94B
:1035700091E00E94790B8091FB010E94290B80E36E
:1035800098E0EFCF833709F0DDCE00E02091FA011B
:103590004CEF51E06091F9018FE593E00E945F06E6
:1035A00085E798E0DECFE1ECF2E01382128288EE4C
:1035B00093E0A0E0B0E084839583A683B78381E3A2
:1035C00091E09183808385EC90E09587848784ECFB
:1035D00090E09787868780EC90E0918B808B81ECE0
:1035E00090E0938B828B82EC90E0958B848B86ECC1
:1035F00090E0978B868B118E128E138E148EEFE5D2
:10360000F3E083E491E0918380838AE0828382E027
:103610008383148281E080935E0316828FE1878327
:1036200010860895282F082E000C330B813414F0D7
:1036300027533109822F8295807F613414F06753BC
:1036400001C06053860F089591110C942D1B803298
:1036500019F089508550C8F708959927882708954B
:10366000F999FECF92BD81BDF89A992780B508954A
:10367000262FF999FECF1FBA92BD81BD20BD0FB68E
:10368000F894FA9AF99A0FBE019608950E94881B41
:10369000A59F900DB49F900DA49F800D911D1124A6
:1036A00008952F923F924F925F926F927F928F92E6
:1036B0009F92AF92BF92CF92DF92EF92FF920F93C1
:1036C0001F93CF93DF93CDB7DEB7CA1BDB0B0FB6CB
:1036D000F894DEBF0FBECDBF09942A883988488888
:1036E0005F846E847D848C849B84AA84B984C8841E
:1036F000DF80EE80FD800C811B81AA81B981CE0F15
:10370000D11D0FB6F894DEBF0FBECDBFED010895F9
:10371000A29FB001B39FC001A39F700D811D112412
:10372000911DB29F700D811D1124911D0895AA1B3A
:10373000BB1B51E107C0AA1FBB1FA617B70710F09C
:10374000A61BB70B881F991F5A95A9F780959095CE
:10375000BC01CD010895A1E21A2EAA1BBB1BFD01DD
:103760000DC0AA1FBB1FEE1FFF1FA217B307E40760
:10377000F50720F0A21BB30BE40BF50B661F771FB8
:10378000881F991F1A9469F7609570958095909598
:103790009B01AC01BD01CF010895EE0FFF1F059005
:1037A000F491E02D099481E090E0F8940C94B2211A
:1037B000FB01DC0102C001900D9241505040D8F74E
:1037C0000895DC0101C06D9341505040E0F7089529
:1037D000AEE0B0E0EEEEFBE10C945F1B0D891E89BC
:1037E00086E08C831A8309838FEF9FE79E838D8306
:1037F000AE01475E5F4F6F89788DCE0101960E94C2
:10380000241C2F813885F801E20FF31F10822E96B9
:10381000E4E00C947B1BAEE0B0E0E1E1FCE10C9451
:10382000611B85E08C838B899C899A838983AE0197
:10383000495E5F4F6D897E89CE0101960E94761F99
:103840002E96E2E00C947D1BACE0B0E0EAE2FCE1F5
:103850000C94511B7C016B018A01FC0117821682BA
:10386000838181FFBDC1CE0101964C01F701938197
:10387000F60193FD859193FF81916F01882309F4EF
:10388000ABC1853239F493FD859193FF81916F012E
:10389000853229F4B70190E00E940321E7CF512C33
:1038A000312C20E02032A0F48B3269F030F48032E9
:1038B00059F0833269F420612CC08D3239F08033A5
:1038C00039F4216026C02260246023C0286021C012
:1038D00027FD27C030ED380F3A3078F426FF06C0B8
:1038E000FAE05F9E300D1124532E13C08AE0389EFB
:1038F000300D1124332E20620CC08E3221F426FDAF
:103900006BC1206406C08C3611F4206802C0883672
:1039100041F4F60193FD859193FF81916F0181112F
:10392000C1CF982F9F7D9554933028F40C5F1F4F83
:10393000FFE3F9830DC0833631F0833771F08335AF
:1039400009F05BC022C0F801808189830E5F1F4FA0
:1039500044244394512C540115C03801F2E06F0EF9
:10396000711CF801A080B18026FF03C0652D70E0B6
:1039700002C06FEF7FEFC5012C870E94BA202C0197
:1039800083012C852F77222E17C03801F2E06F0EAD
:10399000711CF801A080B18026FF03C0652D70E086
:1039A00002C06FEF7FEFC5012C870E94AF202C0172
:1039B0002C852068222E830123FC1BC0832D90E0E0
:1039C00048165906B0F4B70180E290E00E94032146
:1039D0003A94F4CFF50127FC859127FE81915F0190
:1039E000B70190E00E94032131103A94F1E04F1AA0
:1039F00051084114510471F7E5C0843611F089363D
:103A000039F5F80127FF07C06081718182819381B8
:103A10000C5F1F4F08C060817181072E000C880B5E
:103A2000990B0E5F1F4F2F76722E97FF09C090954E
:103A30008095709561957F4F8F4F9F4F2068722EB4
:103A40002AE030E0A4010E945421A82EA81844C006
:103A5000853729F42F7EB22E2AE030E025C0F22FE0
:103A6000F97FBF2E8F36C1F018F4883579F0B4C0D5
:103A7000803719F0883721F0AFC02F2F2061B22E88
:103A8000B4FE0DC08B2D8460B82E09C024FF0AC07F
:103A90009F2F9660B92E06C028E030E005C020E1D7
:103AA00030E002C020E132E0F801B7FE07C06081DB
:103AB0007181828193810C5F1F4F06C0608171818B
:103AC00080E090E00E5F1F4FA4010E945421A82EB9
:103AD000A818FB2DFF777F2E76FE0BC0372D3E7F7B
:103AE000A51450F474FE0AC072FC08C0372D3E7E47
:103AF00005C0BA2C372D03C0BA2C01C0B52C34FF39
:103B00000DC0FE01EA0DF11D8081803311F4397E74
:103B100009C032FF06C0B394B39404C0832F8678E3
:103B200009F0B39433FD13C030FF06C05A2CB31410
:103B300018F4530C5B18B32CB31468F4B70180E28B
:103B400090E03C870E940321B3943C85F5CFB314E9
:103B500010F43B1801C0312C34FF12C0B70180E3D0
:103B600090E03C870E9403213C8532FF17C031FD65
:103B700003C088E790E002C088E590E0B7010CC080
:103B8000832F867859F031FF02C08BE201C080E2BA
:103B900037FD8DE2B70190E00E940321A51438F4AF
:103BA000B70180E390E00E9403215A94F7CFAA94D2
:103BB000F401EA0DF11D8081B70190E00E9403211C
:103BC000A110F5CF332009F451CEB70180E290E087
:103BD0000E9403213A94F6CFF7018681978102C0B3
:103BE0008FEF9FEF2C96E2E10C946D1B20FD09C036
:103BF000FC0123FD05C022FF02C073836283518351
:103C00004083089544FD10C046FD10C0DB01FC0157
:103C1000AA0FBB1FEE1FFF1F1094D1F76A0F7B1F67
:103C20008E1F9F1F31E003C033E001C034E0660FF8
:103C3000771F881F991F3150D1F7620F711D811DA9
:103C4000911D08950F931F93CF93DF938C01C801AB
:103C50000E94C520EC0197FD08C00E94241B892BFF
:103C6000B1F7B801CE010E943B21CE01DF91CF9187
:103C70001F910F910895A1E0B0E0E1E4FEE10C9402
:103C8000571B8C01C62E7A0129830E94C520AC01E6
:103C9000552729814B32510521F04D32510569F4E8
:103CA0002068CA94C11002C080E076C0C801298390
:103CB0000E94C520298197FDF7CF322F3D7FD32E5B
:103CC000322F307349F5803339F5BB24BA94BC0CDC
:103CD00009F44EC0C80129830E94C520298197FD9F
:103CE00047C0382F3F7D383569F48D2D8264D82E3A
:103CF000CA94CA94CC20E1F1C8010E94C52097FF64
:103D00000BC036C026FF04C02D2D2260D22E03C06A
:103D10003D2D3261D32ECB2C812C912C540120EDE2
:103D2000280F283080F0D4FE04C0B8010E943B2147
:103D30001CC02A3040F0D6FEF8CF2F7D3FEE320F68
:103D4000363098F727504D2DC501B4010E94021E50
:103D50004B015C018D2D8260D82ECA94CC2059F085
:103D6000C8010E94C52097FFDACFD1FC04C09CCFC8
:103D7000812C912C5401D7FE08C0B094A09490944B
:103D80008094811C911CA11CB11C2D2DB501A40196
:103D9000C7010E94F61D81E02196ECE00C94731B94
:103DA000A1E2B0E0E6EDFEE10C94551B5C017A0166
:103DB000CE0101966C0180E2F60111928A95E9F735
:103DC000F501838040E050E0912C712C70E0A1E07F
:103DD000B0E0F90183FC859183FE81918F01982FDA
:103DE0009F01811103C080E090E07CC08E3519F402
:103DF0004115510549F1E72FF0E0E417F5073CF4D0
:103E00008D3559F18D3219F4772001F103C071100D
:103E100001C0982E892F8695869586958601080F74
:103E2000111D892F87703D0101C0660C8A95EAF744
:103E3000F801808186298083991559F0991510F42D
:103E40009F5FE8CF9150E6CF71E004C07724739470
:103E500001C0712C4F5F5F4FBCCF772019F08E816E
:103E600080628E83711103C09924939416C0F60169
:103E70009E012F5D3F4F808180958193E217F3076C
:103E8000D1F7F2CFE114F10429F0F7018083C701E3
:103E900001967C016150912CF9F0C50169A30E9443
:103EA000C52069A197FD16C0282F26952695269531
:103EB000F601E20FF11D208130E0AC01477055277B
:103EC00002C0359527954A95E2F720FDDBCFB50175
:103ED0000E943B21911087CFE114F10411F0F7010A
:103EE0001082C801A196EEE00C94711B4F925F9274
:103EF0007F928F929F92AF92BF92CF92DF92EF927A
:103F0000FF920F931F93CF93DF931F92CDB7DEB72E
:103F10006C012B015A01FC0117821682712CF601EB
:103F2000F380F201F3FC8591F3FE8191382F2F018C
:103F3000882309F4F3C090E039830E94241B39815F
:103F4000892B21F0C6010E94221EE9CF353241F4AF
:103F5000F201F3FC3591F3FE31912F01353269F412
:103F6000C60139830E94C520398197FDD5C0381715
:103F7000B1F2B6010E943B21D1C03A3239F4F3FCD0
:103F80003591F3FE31912F0151E001C050E0420123
:103F900010E020ED230F2A3090F45260612F70E082
:103FA00080E090E040E259830E94021E162FF40147
:103FB000F3FC3591F3FE31914F015981EACF052F82
:103FC000232F240151FF03C0111102C0A7C01FEF0E
:103FD000383619F03C3659F011C0F401F3FC259144
:103FE000F3FE21912F01283649F4052F0860046063
:103FF000F201F3FC2591F3FE21912F01222309F414
:104000008DC0622F70E08CE990E029830E94A4208B
:104010002981892B09F482C000FD07C0F501E080E9
:10402000F180C50102965C0102C0E12CF12C2E3614
:1040300051F4F6014681578160E070E0202FC701FE
:104040000E94F61D6CCF233691F401FF11E0C601EA
:104050000E94C52097FD60C0E114F10429F0F7012A
:104060008083C70101967C01115089F751C02B351F
:1040700059F49201A701612FC6010E94D01E2C01A4
:10408000892B09F045C03FC0C60129830E94221E2A
:10409000298197FD41C02F3659F128F4243631F19A
:1040A000293649F127C0233769F02537F9F022C0B6
:1040B000E114F10429F0F7018082C70101967C0127
:1040C000115071F0C6010E94C5204C0197FD08C037
:1040D0000E94241B892B61F3B601C4010E943B217D
:1040E000E114F104A9F0F701108212C0006203C0CC
:1040F000006101C00064202FA701612FC6010E944A
:104100003B1E811105C0F6018381807329F406C02E
:1041100000FD05CF739403CF772019F0872D90E031
:1041200002C08FEF9FEF0F90DF91CF911F910F9102
:10413000FF90EF90DF90CF90BF90AF909F908F90C7
:104140007F905F904F900895FC010590061621F036
:104150000020D9F7C00108953197CF010895FC01DF
:104160000590615070400110D8F7809590958E0FA2
:104170009F1F0895FC016150704001900110D8F715
:10418000809590958E0F9F1F0895CF93DF93EC013C
:104190002B8120FF33C026FF0AC02F7B2B838E810B
:1041A0009F8101969F838E838A8190E029C022FFA0
:1041B0000FC0E881F9818081082E000C990B0097CF
:1041C00019F420622B831AC03196F983E8830EC05C
:1041D000EA85FB85099597FF09C02B81019611F0AF
:1041E00080E201C080E1822B8B8308C02E813F8159
:1041F0002F5F3F4F3F832E83992702C08FEF9FEFA2
:10420000DF91CF9108950F931F93CF93DF93FB011D
:10421000238121FD03C08FEF9FEF28C022FF16C02E
:1042200046815781248135814217530744F4A08188
:10423000B1819D012F5F3F4F318320838C93268175
:1042400037812F5F3F4F3783268310C0EB01092F43
:10425000182F0084F185E02D0995892BE1F68E81D8
:104260009F8101969F838E83812F902FDF91CF9125
:104270001F910F910895FB01238120FF12C026FD9D
:1042800010C08F3F3FEF930761F082832F7D206442
:10429000238326813781215031093783268399274B
:1042A00008958FEF9FEF0895FA01AA27283051F162
:1042B000203181F1E8946F936E7F6E5F7F4F8F4F57
:1042C0009F4FAF4FB1E03ED0B4E03CD0670F781FB6
:1042D000891F9A1FA11D680F791F8A1F911DA11D9B
:1042E0006A0F711D811D911DA11D20D009F46894D4
:1042F0003F912AE0269F11243019305D3193DEF67C
:10430000CF010895462F4770405D4193B3E00FD031
:10431000C9F7F6CF462F4F70405D4A3318F0495D1C
:1043200031FD4052419302D0A9F7EACFB4E0A695FF
:104330009795879577956795BA95C9F70097610521
:10434000710508959B01AC010A2E06945795479577
:1043500037952795BA95C9F7620F731F841F951F6C
:08436000A01D0895F894FFCFA1
:10436800FFFFFFFF0AFA56000040060000000000A9
:10437800000000000000000000000000004510459B
:104388001068616E646C65496E7075740000000099
:1043980000AD0F160F450FF40F760F540F680F007E
:1043A8000000005F06EC044610FD059F124D05F065
:1043B80012EB04B506BF1267055B123F112C1121E1
:1043C8002000202D2000204D487A004142434445DA
:1043D800464748494A4B4C4D4E4F50006162636412
:1043E80065666768696A6B6C6D6E6F7000544F3FE5
:1043F80000544F3A002020002A006442002069003F
:104408002067002040200020633100206F002071C9
:104418003100207800207000206500206A00464C9A
:10442800583F00464C583F454F46000D0A000A4683
:104438004C583F4F4B00464C583A25753A00464C6D
:10444800583A25753A4F4B00464C583A494E560053
:00000001FF
